:100000000C945F150C9490150C9490150C9490150D
:100010000C9490150C9490150C9490150C949015CC
:100020000C9490150C9490150C9490150C949015BC
:100030000C9490150C9490150C9490150C949015AC
:100040000C9490150D941C9A0C9490150C9490158A
:100050000C9490150C9490150D9428B70D94D2BB68
:100060000C9490150D9402C00D9438C00C9490150A
:100070000C9490150C9490150C9490150C9490156C
:100080000C9490150C9490150C9490150C9490155C
:100090000C9490150C9490150C9490150C94531688
:1000A0000C9490150C9490150C9490150C9490153C
:1000B0000C9490150C9490150C9490150C9490152C
:1000C0000C9490150C9490150C9490150D94ADC053
:1000D0000D94E3C00C9490150C9490150C9490150D
:1000E0000C94901549B559B661B737B77EB616B7B7
:1000F000EEB691B5B9B5E1B5E6B70EB856B87EB86B
:1001000031B609B6BAB606011601F6000801FC00C0
:100110003C01FA00F80028011C01E8004201E2005D
:100120003A014C014A012601F0000001F2002E01C3
:10013000E60032011E0112012601DE000E01460119
:1001400040011A0130012C012401EE00220144017A
:10015000F4003801E4001001DA001801EE000C018F
:100160000201D800084AD73B3BCE016E84BCBFFDDC
:10017000C12F3D6C74319ABD56833DDA3D00C77F77
:1001800011BED9E4BB4C3E916BAAAABE0000008010
:100190003F05A84CCDB2D44EB93836A9020C50B99F
:1001A000918688083CA6AAAA2ABE000000803F00CB
:1001B0000D94F6BD0D94E4BD0D9449590D9481BD87
:1001C0000D9465C10D940DBD0D94DABD0D9454BD13
:1001D0000D9435B80D94ABBE0D9415C10D94FBBDB7
:1001E0000D9430BD0D9440BD0D94D2BD0D94D9B782
:1001F0000D9429B80D9427B80D9400B80D94BFBE86
:100200000D9438BD0D94F2BD0D940CC10D94B0B792
:100210000D94E6B70D941BBF0D94EEBD0D948BBDF0
:100220000D94E0BD0D9477BD0D9431590D94BDB77B
:100230000D94E8BD0D94C4BD0D942DB80D946DBD05
:100240000D9461C00D94C8BD0D94BDBD0D949FBDAE
:100250000D942BB80D94CA940D94B7BD0D944ABD5E
:100260000D94B3BD0D945EBD0D943CBF0D946AC05A
:100270000D94D6BD0D9412BD0D940DB80D9492BE83
:100280000D94C1BD0D9408BD0D94CCBD0D9495BDCC
:100290000D949DBE0D9426BD0D941CBD4D3834208B
:1002A000582059205A2045004D3130370054300035
:1002B0004D3130370043616E6E6F7420656E74652A
:1002C00072207375626469723A2000534156454446
:1002D000205052494E54004D3234004D32332025C7
:1002E00073006175746F25692E67006572726F7295
:1002F0002077726974696E6720746F2066696C6517
:10030000004E6F74205344207072696E74696E677A
:10031000002F005344207072696E74696E6720620A
:1003200079746520002E0044656C6574696F6E20D9
:100330006661696C65642C2046696C653A200046EC
:10034000696C652064656C657465643A002E006FA5
:1003500070656E206661696C65642C2046696C6509
:100360003A200057726974696E6720746F2066695D
:100370006C653A20002E006F70656E206661696CB6
:1003800065642C2046696C653A20002E006F70650C
:100390006E206661696C65642C2046696C653A2044
:1003A0000046696C652073656C6563746564002044
:1003B00053697A653A200046696C65206F70656EF6
:1003C00065643A20002E006F70656E206661696C6E
:1003D00065642C2046696C653A20004E6F77206674
:1003E000726573682066696C653A20004E6F7720ED
:1003F000646F696E672066696C653A200022207020
:100400006F73002220706172656E743A220053553A
:1004100042524F5554494E452043414C4C20746143
:10042000726765743A2200747279696E6720746F1E
:100430002063616C6C207375622D67636F64652047
:1004400066696C6573207769746820746F6F206DBE
:10045000616E79206C6576656C732E204D41582055
:100460006C6576656C2069733A007A70726F6265AC
:100470003A200053442063617264206F6B006F70F8
:10048000656E526F6F74206661696C656400766F8B
:100490006C756D652E696E6974206661696C656442
:1004A00000534420696E6974206661696C0065635D
:1004B000686F3A004572726F723A00535543434574
:1004C00053530056616C756573206F7574206F66A9
:1004D0002072616E67650056616C756573206F757B
:1004E00074206F662072616E67650056616C756579
:1004F00073206F7574206F662072616E6765005699
:10050000616C756573206F7574206F662072616E03
:10051000676500535543434553530056616C7565F9
:1005200073206F7574206F662072616E6765005668
:10053000616C756573206F7574206F662072616ED3
:1005400067650056616C756573206F7574206F6602
:100550002072616E67650056616C756573206F75FA
:1005600074206F662072616E676500535441544970
:1005700053544943532052455345540048617264D3
:10058000636F6465642043616C696220616E6420FE
:100590005049442044656661756C742053657474D9
:1005A000696E6773204C6F616465640048617264B2
:1005B000636F6465642044656661756C742053657F
:1005C0007474696E6773204C6F6164656400537462
:1005D0006F7265642073657474696E6773207265E9
:1005E00074726965766564002C2073617665645F5A
:1005F000466C61675F66616E6C617965725F6D699B
:1006000072726F723A20002C2073617665645F66A7
:10061000656564726174653A20002C2073617665AB
:10062000645F66616E6C617965723A20002C20739C
:10063000617665645F74656D706265643A20002C54
:100640002073617665645F74656D70303A20002CAC
:100650002073617665645F74656D70313A20002C9B
:100660002073617665645F66696C65706F73697429
:10067000696F6E3A20002C2073617665645F655F58
:10068000706F736974696F6E3A20002C2073617605
:1006900065645F746F6F6C5F6163746976653A203F
:1006A000002C2073617665645F7A5F706F73697484
:1006B000696F6E3A20002C2073617665645F795F04
:1006C000706F736974696F6E3A20002C20736176C5
:1006D00065645F785F706F736974696F6E3A20004C
:1006E00053415645205052494E54204C4F473A00F2
:1006F000204D696E75746573203A00204C617374E7
:10070000207072696E742074696D652D3E20486F8B
:10071000757273203A004C617374207072696E7444
:10072000206475726174696F6E002C205468697260
:1007300064204944206E756D62657220002C205340
:1007400065636F6E64204944206E756D6265723A10
:100750002000204669727374204944206E756D62D2
:1007600065723A2000554920496E666F726D61745A
:10077000696F6E2053657269616C204E756D62659C
:10078000723A00206D2C204531207072696E742001
:1007900064697374616E63653A2000206B6D2C2070
:1007A0004530207072696E742064697374616E6381
:1007B000653A2000206B6D2C2059207072696E7490
:1007C0002064697374616E63653A2000206B6D2C40
:1007D000205831207072696E742064697374616E80
:1007E00063653A200020432C0A205830207072693B
:1007F0006E742064697374616E63653A20002043EF
:100800002C206D61782074656D7020423A200020A4
:10081000432C206D61782074656D7020523A200061
:100820002C206D61782074656D70204C3A20006832
:100830002C207072696E74732066696E69736865C6
:10084000643A20002C207072696E74696E6720749F
:10085000696D653A2000207072696E74733A2000E9
:1008600053544154533A0020432C20525F50524974
:100870004E543A200020432C20525F4245443A20F7
:100880000020432C20525F52454D4F56453A2000E0
:1008900020525F494E534552543A200054656D70C2
:1008A000202843293A0020432C204C5F5052494EC7
:1008B000543A200020432C204C5F4245443A20000B
:1008C00020432C204C5F52454D4F56453A20002086
:1008D0004C5F494E534552543A200054656D702088
:1008E0002843293A002042656420726967687420B1
:1008F0007363726577200020426564206C656674BE
:100900002073637265772000426564204F666673CA
:1009100065747320286D6D293A00205A2070726F1B
:10092000626500205A200020592000205820004FE6
:1009300066667365747320286D6D293A0020440043
:10094000204900202D204D33303120524947485452
:10095000205000204400204900204D333031204CED
:100960004546542050005049442073657474696EA4
:1009700067733A00205A0020590020204D3230364B
:10098000205800486F6D65206F6666736574202877
:100990006D6D293A00204500205A00205800204261
:1009A0000020540020204D32303520530041647621
:1009B000616E636564207661726961626C65733A29
:1009C00020533D4D696E20666565647261746520D3
:1009D000286D6D2F73292C20543D4D696E20747243
:1009E0006176656C20666565647261746520286D4A
:1009F0006D2F73292C20423D6D696E696D756D20D8
:100A00007365676D656E742074696D6520286D73FC
:100A1000292C20583D6D6178696D756D20585920DD
:100A20006A65726B20286D6D2F73292C20205A3D2A
:100A30006D6178696D756D205A206A65726B20282A
:100A40006D6D2F73292C2020453D6D6178696D7582
:100A50006D2045206A65726B20286D6D2F7329000B
:100A600020540020204D3230342053004163636510
:100A70006C65726174696F6E3A20533D61636365A2
:100A80006C65726174696F6E2C20543D726574726E
:100A900061637420616363656C65726174696F6E14
:100AA00000204500205A0020590020204D323031CE
:100AB0002058004D6178696D756D20416363656CE8
:100AC00065726174696F6E20286D6D2F7332293ADB
:100AD00000204500205A0020590020204D3230339C
:100AE0002058004D6178696D756D2066656564728A
:100AF0006174657320286D6D2F73293A00204500BD
:100B0000205A0020590020204D39322058005374BB
:100B10006570732070657220756E69743A00536554
:100B20007474696E67732053746F726564006563D3
:100B3000686F3A00204500205A00205900483D586F
:100B40000045787472756465722072656C656173B6
:100B50006564206163746976653A20005A205349C0
:100B6000474D4120486F6D65640045787472756427
:100B70006572206163746976653A20005072696E0F
:100B80007465722068616C7465642E206B696C6C8E
:100B900028292063616C6C65642100436F6F6C6968
:100BA0006E6720446F776E204865617465720044FB
:100BB00075616C204D6972726F72204D6F64652093
:100BC0004F4E004475616C204D6F6465204F4E00A0
:100BD0004475616C204D6F6465204F4646006F6B15
:100BE00000526573656E643A2000504F5349544972
:100BF0004F4E20484F4D453A200054696D6520699D
:100C00006E6163746976650050757267652064690A
:100C10007374616E636500486F74656E64206F66FF
:100C200066736574733A005A204F66667365742064
:100C30003A20007A5F6D61783A20007A5F6D696EC4
:100C40003A20005A204F6666736574005A204F663A
:100C500066736574206F6B004E6F74207072696EDE
:100C600074207265636F76657279207570005072BA
:100C7000696E74207265636F766572792075700095
:100C8000486F74656E64206F6666736574733A00AE
:100C90007A5F6D696E3A2000795F6D61783A200065
:100CA000785F6D61783A2000785F6D696E3A200058
:100CB000205A3A0020593A0020436F756E7420582C
:100CC0003A200020453A00205A3A0020593A00586C
:100CD0003A004649524D574152455F4E414D453AC3
:100CE0004D61726C696E2056313B20537072696E93
:100CF0007465722F6772626C206D61736875702005
:100D0000666F722067656E36204649524D574152D4
:100D1000455F55524C3A68747470733A2F2F676967
:100D2000746875622E636F6D2F4572696B5A616CC2
:100D30006D2F4D61726C696E2F2050524F544F438E
:100D40004F4C5F56455253494F4E3A312E30204D4D
:100D5000414348494E455F545950453A4D656E648C
:100D6000656C2045585452554445525F434F554E8B
:100D7000543A3220555549443A30303030303030D2
:100D8000302D303030302D303030302D303030306C
:100D90002D3030303030303030303030300A00429A
:100DA0006564204865617465640020423A0020450E
:100DB0003A00543A0045787472756465722048654B
:100DC000617465640020573A0020453A00543A00A7
:100DD0002042403A0020403A00202F003A002054A0
:100DE00000202F0020423A00202F006F6B20543A41
:100DF000000A0A005374616E64617264204465766F
:100E0000696174696F6E3A20000A004D65616E3A3F
:100E100020000A002020207A3A200000793A2000A1
:100E2000783A20003F537065636966696564206E97
:100E3000756D626572206F66206C65677320696EE0
:100E4000206D6F76656D656E74206E6F7420706CAA
:100E500061757361626C652E0A003F53706563694A
:100E600066696564205920706F736974696F6E20BC
:100E70006F7574206F662072616E67652E0A003F81
:100E8000537065636966696564205820706F736983
:100E900074696F6E206F7574206F662072616E6763
:100EA000652E0A003F537065636966696564207347
:100EB000616D706C652073697A65206E6F74207047
:100EC0006C61757361626C652E0A0046756C6C20EE
:100ED000737570706F72742061743A2068747470E6
:100EE0003A2F2F33647072696E74626F6172642E70
:100EF000636F6D2F666F72756D2E7068700A004D8E
:100F00003438205A2D50726F6265205265706561C9
:100F1000746162696C69747920746573742E202021
:100F20002056657273696F6E20322E30300A003F92
:100F3000566572626F7365204C6576656C206E6FC6
:100F40007420706C61757361626C652E0A0025698E
:100F5000206D696E2C202569207365630047323847
:100F600020583020593000627566666572206F75B2
:100F7000743A2000427566666572313A200043611A
:100F80007264204E616D653A2000456E642066698A
:100F90006C65206C69737400426567696E206669D0
:100FA0006C65206C697374000A00205A3A20002096
:100FB000593A200020583A200042656400473639EB
:100FC00020414354495641544544000A00207A3A8E
:100FD000200020793A200020783A20004265640001
:100FE0000A0020616E7469686F726172690A3A2042
:100FF0000020686F726172690A20002F3800766FD6
:101000006C746573200020566F6C74657320636187
:1010100072676F6C20333A200020616E7469686FCC
:10102000726172690A3A200020686F726172690AFF
:1010300020002F3800766F6C746573200020566F87
:101040006C74657320636172676F6C20323A2000A4
:101050000A0020647A333A200020647A323A200071
:101060005430005430000056756974656E73333A1D
:101070002020004170726F78333A202000566F6C48
:10108000746573333A2020000056756974656E7379
:10109000323A2020004170726F78323A2020005698
:1010A0006F6C746573323A20200056616C6F722049
:1010B000645A333A20200056616C6F7220645A32B1
:1010C0003A2020007A335F313A20007A325F313A99
:1010D00020005A7363726F6C6C5F313A20007A3370
:1010E0005F303A20007A325F303A20005A736372E0
:1010F0006F6C6C5F303A2000706C616E654E6F7281
:101100006D616C5F312E7A3A2000706C616E654EB5
:101110006F726D616C5F312E793A2000706C616E78
:10112000654E6F726D616C5F312E783A2000706C85
:10113000616E654E6F726D616C5F302E7A3A200081
:10114000706C616E654E6F726D616C5F302E793AB6
:101150002000706C616E654E6F726D616C5F302E39
:10116000783A20005A76616C756520616674657204
:1011700020686F6D653A00486F6D6520582F5920C3
:101180006265666F7265205A005374617274696E8D
:1011900067205A2043616C6962726174696F6E20C6
:1011A00057697A617264004D383400537461727407
:1011B000696E6720592043616C6962726174696F5E
:1011C0006E2057697A617264004D3834005374613F
:1011D0007274696E6720582043616C696272617431
:1011E000696F6E2057697A61726400457874727510
:1011F0006465722072656C656173656420616374F7
:101200006976653A20005A205349474D4120486F7E
:101210006D656400457874727564657220616374ED
:101220006976653A20002200556E6B6E6F776E20EE
:10123000636F6D6D616E643A202200504F534954C4
:10124000494F4E20484F4D453A200020004D6F76C3
:101250006520746F3A2000473932204530205A30DB
:101260002052256400256920686F757273202569F6
:10127000206D696E7574657300446F6E65207072C1
:10128000696E74696E672066696C65004D33330062
:101290007061757365206465746563746564200AA4
:1012A00000473639005072696E7465722073746F2E
:1012B000707065642064756520746F206572726F4C
:1012C00072732E2046697820746865206572726F8B
:1012D0007220616E6420757365204D393939207430
:1012E0006F20726573746172742E202854656D705E
:1012F00065726174757265206973207265736574B7
:101300002E205365742069742061667465722072A2
:10131000657374617274696E6729006F6B004E6F3C
:10132000204C696E65204E756D6265722077697418
:101330006820636865636B73756D2C204C617374F2
:10134000204C696E653A20004E6F20436865636BE0
:1013500073756D2077697468206C696E65206E7591
:101360006D6265722C204C617374204C696E653A15
:101370002000636865636B73756D206D69736D61C3
:101380007463682C204C617374204C696E653A203C
:10139000004C696E65204E756D6265722069732020
:1013A0006E6F74204C617374204C696E65204E75AD
:1013B0006D6265722B312C204C617374204C696E08
:1013C000653A20004D3131300053757266696E67A1
:1013D0002030200A0043616C6962726174696F6E2B
:1013E000205375636365737366756C2C20676F6932
:1013F0006E67206261636B20746F206D61696E207F
:101400006D656E75200A005430004D383420582028
:1014100059205A2045002534643A252E326468202C
:101420002F202564670000466F726D203221002551
:1014300064206974656D7300526561647920746F0E
:1014400020496E736572742F52656D6F7665200A40
:101450000074656D70206F6B200A002564252500DF
:10146000253364202563430025336420256343002E
:10147000253364256343202F2025336425634300EF
:10148000253364256343202F2025336425634300DF
:10149000253364256343202F2025336425634300CF
:1014A000252033642025250025642068202564201C
:1014B0006D00252033642025250025326420256316
:1014C00043002533642025634300253364202563CE
:1014D0004300526561647920746F20496E736572B0
:1014E000742F52656D6F7665200A0074656D7020EB
:1014F0006F6B200A00253364202563430025336485
:1015000020256343002053544F50205052494E54DD
:10151000200A00473238205830205930004D3335EA
:1015200000526573756D65206465746563746564E8
:10153000200A0047373000EFBFBD524553554D4597
:1015400021200A00EFBFBD504155534521200A001C
:10155000253364202563430025336420256343003D
:10156000253364202563430025336420256343002D
:10157000253364202563430025336420256343001D
:10158000253364202563430025336420256343000D
:1015900025336420256343005052494E542053455F
:1015A0005454494E4753200A00446F6E65207361BE
:1015B00076696E672066696C652E006F6B004D3230
:1015C000390067636F646520666F756E640042431F
:1015D0004E3344205369676D610073746172740007
:1015E00030312D312E322E355243002200656E717E
:1015F0007565696E672022002200656E71756569E8
:101600006E67202200253364202563430025336460
:101610002025634300456E74657220696E207075E5
:10162000726765206D6F6465200A00537572666984
:101630006E672031200A0053757266696E6720302C
:10164000200A0047333400494E464F3A2042454471
:101650002043414C4942202D200053757266696E2B
:10166000672030200A004732382058302059300097
:1016700054300053757266696E672030200A004747
:1016800034330047343300473431004734300047A7
:101690003433004734330047343100473430004D91
:1016A0003834004D3834004D3834005A32204F66FB
:1016B000667365743A20004F4B207365636F6E64E8
:1016C00020457874727564657221005A20706F73BA
:1016D0006974696F6E3A20005A20706F736974697B
:1016E0006F6E3A20004D3834005A312050726F62CC
:1016F00065206F66667365743A20004F4B206669FB
:1017000072737420457874727564657221200A00C2
:101710005A20706F736974696F6E3A20005A207096
:101720006F736974696F6E3A200043616C63756C06
:1017300075733A20200043616C63756C75733A20B1
:10174000200043616C63756C75733A20200043611F
:101750006C63756C75733A20200043616C63756C23
:1017600075733A20200043616C63756C75733A2081
:10177000200043616C63756C75733A2020004361EF
:101780006C63756C75733A20200043616C63756CF3
:1017900075733A20200043616C63756C75733A2051
:1017A000200043616C63756C75733A2020004361BF
:1017B0006C63756C75733A20200043616C63756CC3
:1017C00075733A20200043616C63756C75733A2021
:1017D000200043616C63756C75733A20200043618F
:1017E0006C63756C75733A20200043616C63756C93
:1017F00075733A20200043616C63756C75733A20F1
:10180000200043616C63756C75733A20200043615E
:101810006C63756C75733A20200043616C63756C62
:1018200075733A20200043616C63756C75733A20C0
:10183000200043616C63756C75733A20200043612E
:101840006C63756C75733A20200043616C63756C32
:1018500075733A20200043616C63756C75733A2090
:10186000200043616C63756C75733A2020004361FE
:101870006C63756C75733A20200043616C63756C02
:1018800075733A20200043616C63756C75733A2060
:10189000200043616C63756C75733A2020004361CE
:1018A0006C63756C75733A20200043616C63756CD2
:1018B00075733A20200043616C63756C75733A2030
:1018C000200046696C616D656E742052656D6F769F
:1018D00065642C20474F494E4720544F20434C45C8
:1018E000414E20544845204E4F5A5A4C45200A003C
:1018F00046696C616D656E7420496E7365727465BE
:10190000642F52656D6F7665642C207265747572F4
:101910006E696E6720746F204D61696E204D656E33
:1019200075200A0054300046696C616D656E742044
:10193000496E7365727465642F52656D6F76656468
:101940002C20676F696E6720746F2043616C696239
:10195000200A0054300046696C616D656E74204940
:101960006E7365727465642F52656D6F7665642C55
:1019700020676F696E6720746F20746865206E65DC
:101980007874206578747275646572200A0054302A
:101990000043616C6962726174696F6E2053756394
:1019A0006365737366756C2C20676F696E67206260
:1019B00061636B20746F206D61696E206D656E755B
:1019C000200A005430004A756D70206F76657220D1
:1019D00073637265773120616E642073637265771B
:1019E00032200A004A756D70206F7665722073632D
:1019F00072657731200A004733340047333400479B
:101A000033340054300047333400494E464F3A20B7
:101A10004245442043414C4942202D20003630208D
:101A200064656772656573200A00496E7365727438
:101A3000696E67203A2020200A0053757266696E2D
:101A4000672030200A0053757266696E6720302067
:101A50000A0053757266696E672030200A002533CC
:101A60006420256343002533642025634300253328
:101A7000642025634300456E74657220696E207092
:101A800075726765206D6F6465200A0025336420D8
:101A900025634300253364202563430025336420F8
:101AA00025634300253364202563430025336420E8
:101AB00025634300253364202563430025336420D8
:101AC00025634300253364202563430046696C6128
:101AD0006D656E742052656D6F7665642C20474F7E
:101AE000494E4720544F20434C45414E20544845D1
:101AF000204E4F5A5A4C45200A0053757266696E43
:101B0000672030200A0053757266696E67203020A6
:101B10000A0054300054652070696C6C6500537580
:101B20007266696E672030200A004D3334005375A9
:101B30007266696E672030200A004D3234004D32E3
:101B4000332025730053757266696E672030200A52
:101B50000053656C65637420340053656C65637471
:101B600020330053656C65637420320053656C65E7
:101B7000637420310053656C6563742030004265E6
:101B8000645F436F6D70656E736174696F6E5F4CF7
:101B9000696E65735F53656C65637465645B325D24
:101BA000004265645F436F6D70656E736174696F49
:101BB0006E5F4C696E65735F53656C6563746564D5
:101BC0005B315D004265645F436F6D70656E73618C
:101BD00074696F6E5F4C696E65735F53656C6563A6
:101BE0007465645B305D0053757266696E672030A2
:101BF000200A0053554343455353200A00253364BC
:101C00002025634300253364202563430025336486
:101C10002025634300253364202563430025336476
:101C20002025634300253364202563430025336466
:101C30002025634300253364202563430025336456
:101C40002025634300496E73657274696E67203A9C
:101C50002020200A002533642025634300253364B7
:101C600020256343002533642025634300456E74BB
:101C7000657220696E207075726765206D6F64658E
:101C8000200A00FF01FF0000A0400000A04000006B
:101C90000040CDCC984300809343000052430000A5
:101CA00000000080934300000000CDCC98430080EA
:101CB00093430000524300000000000000000000B9
:101CC00000006563686F3A004572726F723A0020D7
:101CD000636F6C6420657874727573696F6E2070C1
:101CE000726576656E746564006563686F3A003B83
:101CF000202020506C617374696320776569676880
:101D0000743A2025642E256467003B46696C616D3A
:101D1000656E7420757365643A2025642E25646DA4
:101D20002025642E256467003B46696C616D656EF5
:101D30007420757365643A20256C752E256C756D5D
:101D4000003B2020204275696C642074696D653AFF
:101D5000202564202573202564202573003B5072C4
:101D6000696E742074696D653A202564202573209E
:101D70002564202573202564202573003B54494D9C
:101D8000453A20256C64003B20472D436F64652055
:101D900067656E6572617465642062792053696D50
:101DA000706C6966793344285229205665727369CC
:101DB0006F6E202564007C3C3E5E2B3D3F2F5B5DBB
:101DC0003B2C2A225C00205A3A0020593A00205825
:101DD0003A00656E6473746F7073206869743A209A
:101DE0000024F4D43050C38E20C2A24017828B70DE
:101DF00011127A910D816CD90AA861E108C7586661
:101E000007615143061E4B5D05C145A7041A4111E8
:101E100004093D9803713931034036DB0265339183
:101E200002D4305402802E1D02632CEE01752AC5A7
:101E300001B028A001102781018F2564012B244BBC
:101E400001E0223401AC211F018D200D01801FFC17
:101E500000841EED00971DDF00B81CD200E61BC6F3
:101E600000201BBC00641AB200B219A8000A19A015
:101E7000006A189900D117910040178B00B516849D
:101E80000031167E00B31579003A157300C7146F40
:101E90000058146A00EE1366008813630025135E71
:101EA00000C7125B006C12570015125400C111518B
:101EB0000070114F0021114B00D61049008D1047C2
:101EC000004610440002104200C00F4000800F3E48
:101ED00000420F3C00060F3B00CB0E3800930E373C
:101EE000005C0E3500270E3400F30D3200C10D31B9
:101EF00000900D3000600D2E00320D2D00050D2CD0
:101F000000D90C2B00AE0C2900850C29005C0C2795
:101F100000350C27000E0C2600E80B2400C40B240F
:101F200000A00B23007D0B23005A0B2100390B214D
:101F300000180B2000F80A1F00D90A1E00BB0A1E59
:101F4000009D0A1D00800A1D00630A1C00470A1B31
:101F5000002C0A1B00110A1A00F7091A00DD0919E2
:101F600000C4091900AB091900920917007B091870
:101F700000630917004C09160036091600200916DF
:101F8000000A091500F5081500E0081400CC081433
:101F900000B8081400A4081400900813007D08126B
:101FA000006B08130058081200460812003408118C
:101FB00000230811001208110001081100F0071099
:101FC00000E0071000D0071000C0071000B0070F96
:101FD00000A107100091070E0083070F0074070F80
:101FE0000065070E0057070E0049070E003B070D5E
:101FF000002E070E0020070D0013070D0006070D29
:1020000000F9060C00ED060D00E0060C00D4060CED
:1020100000C8060C00BC060C00B0060C00A4060BA1
:102020000099060C008D060B0082060B0077060B4C
:10203000006C060B0061060A0057060B004C060AEE
:102040000042060A0038060A002E060A0024060A84
:10205000001A060A001006090007060A00FD050915
:1020600000F4050900EB050900E2050900D905099E
:1020700000D0050900C7050900BE050900B505081F
:1020800000AD050800A50509009C05080094050899
:10209000008C050800840508007C0508007405080C
:1020A000006C050700650508005D0507005605087A
:1020B000004E0507004705070040050800380507E2
:1020C00000310507002A050700230507001C050647
:1020D00000160507000F05070008050600020507A2
:1020E00000FB040600F5040700EE040600E8040601
:1020F00000E2040700DB040600D5040600CF040656
:1021000000C9040600C3040600BD040600B70406A7
:1021100000B1040500AC040600A6040600A00405F6
:10212000009B04060095040500900406008A04053F
:102130000085040500800406007A04050075040586
:1021400000700405006B04050066040500610405C9
:10215000005C04050057040500520405004D040509
:102160000048040500430405003E0404003A040549
:102170000035040500300404002C04050027040485
:1021800000230405001E0404001A040400160405BC
:1021900000110404000D04040009040500040404F3
:1021A0000000040400FC030400F8030400F403042A
:1021B00000F0030400EC030400E8030400E403045B
:1021C00000E0030400DC030400D8030400D403048B
:1021D00000D0030400CC030400C8030300C50303BC
:1021E0000024F404D9201BC40C5C0E9804C4095FBD
:1021F0000265077101F405F900FB04B30048048788
:1022000000C10369005803550003034500BE023AAC
:10221000008402310053022A002902250004022012
:1022200000E4011C00C8011900AF01170098011457
:102230000084011300710110006101100051010EB2
:102240000043010D0036010B002B010B0020010B98
:1022500000150109000C01090003010800FB00083A
:1022600000F3000800EB000700E4000600DE0006B3
:1022700000D8000600D2000600CC000500C700050B
:1022800000C2000500BD000400B9000400B5000450
:1022900000B1000400AD000400A9000400A5000383
:1022A00000A20003009F0004009B000300980003AD
:1022B000009500020093000300900003008D0002CF
:1022C000008B0003008800020086000200840003E7
:1022D00000810002007F0002007D0002007B0002FE
:1022E000007900020077000100760002007400020D
:1022F0000072000100710002006F0002006D000119
:10230000006C0002006A0001006900020067000121
:102310000066000100650001006400020062000127
:102320000061000100600001005F0002005D00012B
:10233000005C0001005B0001005A0001005900012F
:10234000005800010057000100560001005500012F
:10235000005400010053000000530001005200012E
:102360000051000100500001004F0001004E00002C
:10237000004E0001004D0001004C0001004B000028
:10238000004B0001004A0001004900010048000024
:10239000004800010047000100460000004600011F
:1023A000004500000045000100440001004300001A
:1023B0000043000100420000004200010041000013
:1023C0000041000100400001003F0000003F00010B
:1023D000003E0000003E0001003D0000003D000105
:1023E000003C0000003C0000003C0001003B0000FD
:1023F000003B0001003A0000003A000100390000F3
:1024000000390001003800000038000000380001E9
:1024100000370000003700010036000000360000E1
:1024200000360001003500000035000000350001D5
:1024300000340000003400000034000100330000CC
:1024400000330000003300010032000000320000C1
:1024500000320001003100000031000000310001B5
:10246000003000000030000000300001002F0000AC
:10247000002F0000002F0000002F0001002E0000A0
:10248000002E0000002E0001002D0000002D000095
:10249000002D0000002D0001002C0000002C000089
:1024A000002C0000002C0001002B0000002B00007D
:1024B000002B0000002B0001002A0000002A000071
:1024C000002A0000002A0001002900000029000065
:1024D0000029000000290000002900010028000058
:1024E000002800000028000000280000002800014B
:1024F0000027000000270000002700000027000040
:102500000027000100260000002600000026000031
:102510000026000000260001002500000025000024
:102520000025000000250000002500000025000116
:10253000002400000024000000240000002400000B
:1025400000240001002300000023000000230000FD
:1025500000230000002300000023000000230001EE
:1025600000220000002200000022000000220000E3
:1025700000220000002200010021000000210000D4
:1025800000210000002100000021000000210000C7
:1025900000210001002000000020000000200000B9
:1025A00000200000002000000020000000200000AB
:1025B00000200001001F0000001F0000001F00009D
:1025C000001F0000001F0000001F0000001F00018E
:1025D000001E0000001E0000001E0000001E000083
:1025E000006563686F3A0048797374657265736952
:1025F000732074656D7065726174757265005468DE
:1026000065726D616C2072756E6177617920707290
:102610006F74656374696F6E2062792048656174B8
:1026200065725F49443A004572726F7228383329E7
:102630003A2042656420746865726D6973746F72C4
:10264000206E6F7420646574656374656400457200
:10265000726F72283832293A205269676874207480
:102660006865726D6973746F72206E6F7420646533
:10267000746563746564004572726F72283831291D
:102680003A204C65667420746865726D6973746F66
:1026900072206E6F742020646574656374656400D5
:1026A000504944204175746F74756E652066696E7B
:1026B00069736865642100504944204175746F74E2
:1026C000756E65206661696C6564212074696D654D
:1026D0006F75740020403A006F6B20543A006F6BA6
:1026E00020423A00504944204175746F74756E65FC
:1026F000206661696C6564212054656D7065726146
:102700007475726520746F6F206869676800204B6C
:10271000643A2000204B693A2000204B703A200098
:1027200020436C6173736963205049442000205436
:10273000753A2000204B753A2000206D61783A20D0
:1027400000206D696E3A200020643A200020626902
:1027500061733A2000504944204175746F74756E5E
:10276000652066696E697368656421205075742000
:10277000746865206C617374204B702C204B692049
:10278000616E64204B6420636F6E7374616E74734A
:102790002066726F6D2061626F766520696E746F5E
:1027A00020436F6E66696775726174696F6E2E681B
:1027B00000504944204175746F74756E65206661E0
:1027C000696C6564212074696D656F7574002040C3
:1027D0003A006F6B20543A006F6B20423A00504928
:1027E00044204175746F74756E65206661696C650F
:1027F00064212054656D7065726174757265207412
:102800006F6F206869676800204B643A2000204B96
:10281000693A2000204B703A200020436C617373AA
:1028200069632050494420002054753A2000204B11
:10283000753A2000206D61783A2000206D696E3A6B
:10284000200020643A200020626961733A2000452C
:1028500072726F723A0070012C0190012701B00171
:102860002201C0011D01F001180110021301300204
:102870000E016002090190020401C002FF00000382
:10288000FA004003F5008003F000D003EB002004C1
:10289000E6007004E100E004DC004005D700C0055C
:1028A000D2004006CD00D006C8008007C300300823
:1028B000BE00F008B900C009B400B00AAF00B00B08
:1028C000AA00D00CA500000EA000500F9B00C01065
:1028D00096005012910000148C00C0158700B017AC
:1028E0008200B0197D00D01B7800001E73004020CC
:1028F0006E0090226900F024640040275F00902958
:102900005A00E02B5500102E500020304B001032A2
:102910004600E033410090353C00103737007038F6
:102920003200A0392D00B03A2800A03B2300603CC3
:102930001E00103D1900903D1400103E0F00703E27
:102940000A00C03E0500003F000000000A0B02091B
:102950000C0D0E0807030401000000000000000039
:102960000000000000000000000000000000000067
:102970000000000000001211100000000000000024
:102980000000000000000000000000000000000047
:102990000102102020080810204010204080020171
:1029A0000201080402010102040810204080804056
:1029B0002010080402018004020180402010080455
:1029C00002010804020101020408102040800102F3
:1029D00004081020408005050505070508080808BB
:1029E000020202020A0A08080404040401010101A7
:1029F00001010101030303030303030304070707A2
:102A00000C0C0C0C0C0C0C0C020202020606060646
:102A1000060606060B0B0B0B0B0B0B0B0000200026
:102A20002300260029002C002F00320000010000A6
:102A300003010601090100002200250028002B00E7
:102A40002E003100340002010000050108010B01D5
:102A500000002100240027002A002D003000330050
:102A600001010000040107010A014E414E494E498F
:102A70005459494E46CDCCCC3D0AD7233C17B7D14B
:102A80003877CC2B329595E6241FB14F0A000020F1
:102A9000410000C84200401C4620BCBE4CCA1B0E70
:102AA0005AAEC59D746364696E6F70737578585BB8
:102AB00000002716484414013601EC00DC00112404
:102AC0001FBECFEFD1E2DEBFCDBF00E00CBF17E0ED
:102AD000A0E0B2E0E2EDFCEA03E00BBF02C0079029
:102AE0000D92A038B107D9F72AE1A0E8B7E001C0FC
:102AF0001D92AC38B207E1F71AE2CCEBDAE200E063
:102B000006C022970109FE010BBF0F9494CAC23B75
:102B1000D10780E00807A9F70F9459C10D9457D643
:102B20000C9400008091AF0790E02091B007821BC9
:102B3000910908952091B0078091AF07281750F4AC
:102B4000E22FF0E0EF54F84F808190E02F5F209368
:102B5000B00708958FEF9FEF0895E091B00780913F
:102B6000AF07E81730F4F0E0EF54F84F808190E0C1
:102B700008958FEF9FEF08950895CF92DF92EF921F
:102B8000FF920F931F93CF93DF937C01CB018A01B8
:102B900020918C07222389F0EB016B01C40ED51E16
:102BA000CC15DD0561F06991D701ED91FC910190A3
:102BB000F081E02DC7011995F3CF642F4BD0C801E8
:102BC000DF91CF911F910F91FF90EF90DF90CF9009
:102BD0000895CF93DF931F92CDB7DEB7698320911D
:102BE0008C072223D1F020918D07203240F021E084
:102BF00030E0FC013383228380E090E014C08091B8
:102C00008E07E82FF0E0E157F84F998190838F5FAE
:102C100080938E0780938D0704C061E0CE010196FA
:102C200019D081E090E00F90DF91CF910895FC01E1
:102C30001382128248EE53E060E070E044835583D3
:102C4000668377838CE593E091838083089580E8A1
:102C500097E0EDCF613298F420913E08243089F45A
:102C60006093F307FC0185EF97E0DC012A2F281B16
:102C7000261718F421912D93F9CF80E0089581E073
:102C8000089582E0089585ED8093BC008091BC009A
:102C900084FDFCCF10923E08089585EC8093BC0023
:102CA00010923E0808951F920F920FB60F921124B2
:102CB0000BB60F922F933F934F935F936F937F9336
:102CC0008F939F93AF93BF93EF93FF938091B9003E
:102CD000887F803609F49DC070F5883209F45CC0A5
:102CE00090F4803109F455C038F4882309F4F3C016
:102CF000883009F44EC0F2C0883109F44DC08032EA
:102D000009F45EC0EBC0803409F469C050F480332C
:102D100009F456C0883309F0E1C08093D107BDDFC4
:102D2000DDC0803509F44FC0883509F45DC08834B2
:102D300009F0D4C0D2C0883909F4C3C0A8F48837D8
:102D400009F467C038F4883609F463C0803709F4A1
:102D500060C0C4C0883809F4B4C0803909F45FC0C9
:102D6000803809F0BBC05BC0803B09F482C038F4F6
:102D7000803A09F466C0883A09F47BC0AFC0803C51
:102D800009F4A3C0883C09F4A0C0883B09F486C0BC
:102D9000A5C080913D0810C090911608809115083B
:102DA000981770F5E091160881E08E0F8093160851
:102DB000F0E0E95EF74F80818093BB0085EC82C034
:102DC0008093D1078AC0E091160881E08E0F80932E
:102DD00016088091BB00F0E0E95EF74F8083909188
:102DE0001608809115086AC0E091160881E08E0FE0
:102DF000809316088091BB00F0E0E95EF74F808376
:102E000080913C08811169C081E080933B0884EA8D
:102E10005DC083E080933E081092D207CFCF8091AF
:102E2000D207803208F04DC0E091D20781E08E0FCA
:102E30008093D2078091BB00F0E0ED52F84F808381
:102E4000BDCF2BDF8091D207803230F4E091D207E2
:102E5000F0E0ED52F84F10826091D20770E0E091FF
:102E60003708F091380883ED97E019951092D20752
:102E700035C084E080933E081092F4071092F30767
:102E8000E0913908F0913A0819958091F307811182
:102E900005C081E08093F3071092F507E091F407F5
:102EA00081E08E0F8093F407F0E0EB50F84F8081C3
:102EB0008093BB009091F4078091F307981708F472
:102EC0007DCF85E88093BC0009C085EC8093BC0071
:102ED00010923E0803C01092D107D5DEFF91EF910A
:102EE000BF91AF919F918F917F916F915F914F9122
:102EF0003F912F910F900BBE0F900FBE0F901F9020
:102F0000189540E050E0BA010D94658FFC011482E1
:102F100017821382128288E596E091838083089558
:102F2000DC01ED91FC910190F081E02D199428E5F0
:102F300036E0FC01318320832781222319F0049697
:102F40000D9448900895CF92DF92EF92FF920F93E5
:102F50001F93CF93DF93EC01895A9F4FD7DFCE01A8
:102F600088589F4FD3DF7E0127E9E20EF11C8701CD
:102F70006E0133E3C31A3EEFD30AC801C7DF015E17
:102F80001F4F0C151D05C9F7FE01E153FE4F89E1E6
:102F9000818314823596178ACE018E509E4FB6DFFC
:102FA000FE01ED55FD4F1082118212821382389678
:102FB00010821182128213821A821B821C82188252
:102FC00019826E0189E5C81A8DEFD80AF6011082C0
:102FD000118212821382F80111821082FE01EF5ECB
:102FE000FD4F108286E391E0F7019C011192215080
:102FF0003040E1F7FE01E155FD4F81E08083CB5A7F
:10300000DF4F198218820F941CBC68577C4E8F4F7B
:103010009F4FF6016083718382839383DF91CF9109
:103020001F910F91FF90EF90DF90CF900895FC01DA
:1030300020E03EE2DB014C91403241F0283011F4B7
:1030400030833196DB014C91408331962F5F6F5F67
:103050007F4F2B3079F7108208952BE1FB013496D6
:10306000DC01149601900D922A95E1F7FB01228173
:103070003381FC013383228328E536E031832083CA
:1030800008952F923F924F925F926F927F928F920C
:103090009F92AF92BF92CF92DF92EF92FF920F93E7
:1030A0001F93CF93DF93CDB7DEB7CA58D1090FB6C0
:1030B000F894DEBF0FBECDBF8C016B017A01CA57F9
:1030C000DF4F1882C658D04084E0E80EF11C18018A
:1030D00092E1290E311CF801EC5AFF4FC957DF4F1E
:1030E000F983E883C758D0403801F5E06F0E711CB2
:1030F000580180E5A81A8DEFB80A48019EE4891AA4
:103100009DEF990A80E4482E512C4C0E5D1EE4E0A0
:103110004E0E511CA101BE016F5F7F4FC7010F947E
:10312000B28E18160CF00BC12C85322F387130314D
:1031300009F097C0F501808191810197029708F409
:1031400090C0BE016F5F7F4FCE0187589F4F6FDFEA
:10315000A0961FAEA097F6018081811107C068E696
:1031600073E0CE01815A9F4F0F94BECFB601CE01BE
:10317000815A9F4F0F94BECFBE0167587F4FCE013B
:10318000815A9F4F0F94BECF68E673E0CE01815AFB
:103190009F4F0F94BECFCE01805C9F4FB7DE21E0E2
:1031A000AE0147585F4FB701C2010F943F928111A2
:1031B00042C0F50180819181892B09F03CC0EEEA83
:1031C000F4E064919F016623F9F0772767FD70951D
:1031D00086E499E1C757DF4F2883C958D040C657C6
:1031E000DF4F3883CA58D0409BDEC757DF4F288156
:1031F000C958D040C657DF4F3881CA58D0402F5FDA
:103200003F4FF9016491DFCF6AE673E086E499E10C
:103210000F94A3C16AE070E086E499E181DEBE010B
:1032200067587F4F86E499E10F94A3C16AE070E08C
:1032300086E499E175DEBE01605C7F4FCE01819628
:103240000CDFAE014F5D5F4FBE01615A7F4FC80179
:1032500018DFCE0181966BDECE01805C9F4F67DE6A
:1032600059CF8981882309F46AC0853E09F452CF79
:103270008E3209F44FCF8F3509F44CCFF801828993
:10328000882331F08E3209F445CF8F3509F442CFCF
:1032900023FD40CF81E0303109F080E0C957DF4F96
:1032A000E881F981C758D0408083811108C08985A1
:1032B000873409F02FCF8A858E3709F42BCFBE01D2
:1032C0006F5F7F4FC301B3DEF5018081918100976D
:1032D00081F4B60186E499E10F94A3C1B30186E4B9
:1032E00099E10F94A3C16AE070E086E499E118DEE9
:1032F00011CF8130910539F4F401808191810196DB
:103300009183808307CF029709F004CFCA57DF4F1C
:10331000F881C658D0402F2F30E0F4018081918190
:103320002817390761F0CA57DF4FF881C658D040D7
:10333000FF5FCA57DF4FF883C658D040EBCEC65761
:10334000DF4F0FB6F894DEBF0FBECDBFDF91CF9138
:103350001F910F91FF90EF90DF90CF90BF90AF90B3
:103360009F908F907F906F905F904F903F902F90A5
:1033700008950F931F93CF93DF93CDB7DEB76F9769
:103380000FB6F894DEBF0FBECDBF8C01FC01E05537
:10339000FD4F11821082855A9F4FB3DDB801695AE3
:1033A0007F4FCE01019659DEAE014F5F5F4F62E75E
:1033B00077E0C80166DECE010196B9DD6F960FB6E3
:1033C000F894DEBF0FBECDBFDF91CF911F910F915B
:1033D00008952BE1FB013496DC01149601900D92C7
:1033E0002A95E1F7FB0122813381FC01338322839B
:1033F0000895EF92FF920F931F93CF93DF93EC0109
:103400001C82FC01E25AFF4F8081882329F0CE0103
:10341000855A9F4F0F9448907E0181E3E81A8EEF02
:10342000F80A45E360E0C7010F94C98A81113AC0E8
:10343000EEEAF4E064918F01662359F0772767FD87
:10344000709586E499E16CDD0F5F1F4FF801649180
:10345000F3CFE1EAF4E064918F01662359F0772716
:1034600067FD709586E499E15BDD0F5F1F4FF80102
:103470006491F3CF6AE070E086E499E151DD8E015A
:10348000095A1F4FB801CE0188589F4FA2DFCA5872
:10349000DF4F19830883DF91CF911F910F91FF9028
:1034A000EF9008958E010C521E4F41E0B701C80104
:1034B0000F94329881112AC040E0B701C8010F94DF
:1034C0003298811123C0E4EBF4E064918F0166230C
:1034D00059F0772767FD709586E499E121DD0F5F4C
:1034E0001F4FF8016491F3CFEEE8F4E064918F018F
:1034F000662309F4BFCF772767FD709586E499E1CD
:103500000FDD0F5F1F4FF8016491F2CFB801CE01BC
:10351000855A9F4F0F94568D811123C0E4EBF4E040
:1035200064918F01662359F0772767FD709586E4D3
:1035300099E1F6DC0F5F1F4FF8016491F3CFEEE7DE
:10354000F4E064918F01662309F494CF772767FD37
:10355000709586E499E1E4DC0F5F1F4FF8016491F8
:10356000F2CF81E08C83EEEAF4E064918F01662370
:1035700059F0772767FD709586E499E1D1DC0F5FFC
:103580001F4FF8016491F3CFE3E7F4E064918F01FA
:10359000662309F46FCF772767FD709586E499E17C
:1035A000BFDC0F5F1F4FF8016491F2CFFC01128264
:1035B000148208950F931F93CF93DF93EC018C81B6
:1035C000882311F1EAE6F4E064918F01662359F053
:1035D000772767FD709586E499E1A2DC0F5F1F4FA6
:1035E000F8016491F3CF4091870B5091880B609163
:1035F000890B70918A0B22E030E086E499E10F9408
:103600007DC381E08A831B82DF91CF911F910F914F
:103610000895FC018281882319F0128281E083835E
:103620000895AF92BF92CF92DF92EF92FF920F93E5
:103630001F93CF93DF931F92CDB7DEB78C018FE23C
:10364000FB0181935F01D12C41E07801F3E3EF1A94
:10365000FEEFFF0A9FE1C92E2D2D30E0F70180819A
:10366000918128173907D8F4C29EC001C39E900DDE
:10367000112485569F4FB501800F911F49830F94E8
:10368000FD8CC50149815C010196F5012081222351
:1036900021F04D3810F44F5FF6CFD394DDCF47FDC6
:1036A00011C0B501C8018A509E4F0F90DF91CF9194
:1036B0001F910F91FF90EF90DF90CF90BF90AF9050
:1036C0000D94FD8CF50110820F90DF91CF911F9129
:1036D0000F91FF90EF90DF90CF90BF90AF90089543
:1036E0004F925F926F927F928F929F92AF92BF9212
:1036F000CF92DF92EF92FF920F931F93CF93DF93BE
:10370000CDB7DEB7AC970FB6F894DEBF0FBECDBF16
:103710007C015B01FC018481882309F4F9C0C701A5
:103720008A509E4F0F944890F7011282CE01019665
:103730006C01ECDB270196E7490E511CC701895A41
:103740009F4FF20191838083F50180818F3209F0D0
:1037500077C06FE270E0C5010F94C9CF8C010F5F95
:103760001F4F09F473C06FE270E0C8010F94C9CF16
:103770004C01009709F46BC00817190708F067C0DF
:103780003C01601A710AA301B801CE0180960F9422
:10379000F2CFE0E2F0E0EC0FFD1FE60DF71D108226
:1037A000BE01605E7F4F86E499E10F94A3C16AE099
:1037B00070E086E499E1B4DBF2016081718161150A
:1037C000710519F06C5F7F4F02C060E070E021E08E
:1037D000AE01405E5F4FCE0105960F943F9281117E
:1037E0002AC0EFE4F3E064918F01662359F0772754
:1037F00067FD709586E499E193DB0F5F1F4FF80139
:103800006491F3CFBE01605E7F4F86E499E10F942F
:10381000A3C1EDE4F3E064918F01662309F471C064
:10382000772767FD709586E499E17ADB0F5F1F4F7C
:10383000F8016491F2CFF201D182C08284018FCF6E
:10384000C70188589F4FF201918380838501F2015F
:1038500080819181009711F0049602C080E090E091
:10386000B8010F941593882321F1EFE3F3E06491FD
:103870005F01662361F0772767FD709586E499E123
:103880004FDBFFEFAF1ABF0AF5016491F2CFB80129
:1038900086E499E10F94A3C16AE070E086E499E1BF
:1038A0003FDBF701E555FD4F108211821282138232
:1038B0002DC0E7E2F3E064917F01662361F0772792
:1038C00067FD709586E499E12BDBFFEFEF1AFF0AA5
:1038D000F7016491F2CFB80186E499E10F94A3C196
:1038E000E5E2F3E064918F01662359F0772767FDE5
:1038F000709586E499E114DB0F5F1F4FF801649126
:10390000F3CF6AE070E086E499E10ADBC6010FDBE1
:10391000AC960FB6F894DEBF0FBECDBFDF91CF914E
:103920001F910F91FF90EF90DF90CF90BF90AF90DD
:103930009F908F907F906F905F904F9008950F931E
:103940001F93CF93DF93EC018C81882309F43CC053
:10395000E3E1F3E064918F01662359F0772767FD77
:10396000709586E499E1DCDA0F5F1F4FF8016491EE
:10397000F3CFFE01E555FD4F408151816281738196
:103980002AE030E086E499E10F947FC2E1E1F3E0C0
:1039900064918F01662359F0772767FD709586E45F
:1039A00099E1BEDA0F5F1F4FF8016491F3CFCD5557
:1039B000DD4F488159816A817B812AE030E086E4CD
:1039C00099E10F947FC210C0E1E0F3E06491EF0150
:1039D000662351F0772767FD709586E499E1A0DAB8
:1039E0002196FE016491F4CF6AE070E086E499E1EB
:1039F000DF91CF911F910F9193CAAF92BF92CF9257
:103A0000DF92EF92FF920F931F93CF93DF935C01AE
:103A1000EB01FB0101900020E9F78F010150110932
:103A2000061B170B6C01FAE0CF1AFEEFDF0AF60156
:103A300010826EE470E0CE010F94C9CF7C01009734
:103A400029F4F8013197EC0FFD1F0DC060E270E022
:103A50000F94C9CFEC0121966AE270E0C7010F9480
:103A6000C9CFFC0131978DE081838AE08283138284
:103A7000BE01C5018E509E4F0F94DB94F6018081EC
:103A8000882379F1E4EBF4E06491EF01662351F0CF
:103A9000772767FD709586E499E142DA2196FE0169
:103AA0006491F4CFEBEEF2E06491EF01662351F004
:103AB000772767FD709586E499E132DA2196FE0159
:103AC0006491F4CF6AE070E086E499E1DF91CF91F0
:103AD0001F910F91FF90EF90DF90CF90BF90AF902C
:103AE0001FCADF91CF911F910F91FF90EF90DF9050
:103AF000CF90BF90AF9008952F923F924F925F92D8
:103B00006F927F928F929F92AF92BF92CF92DF92ED
:103B1000EF92FF920F931F93CF93DF93CDB7DEB752
:103B2000CC55D1090FB6F894DEBF0FBECDBF4C0106
:103B30008C0101551D4F662339F0F8011082F40104
:103B4000848181111DC015C0F8018081882309F48A
:103B5000ABC0F401E955FD4FC080D180E280F38015
:103B60000F941CBCC616D706E806F90608F49CC0DC
:103B7000E4CFC4013EDCF4018481882309F494C0BD
:103B80007401F5E5EF0EF11CF70181818F938081BF
:103B90008F9382EE92E09F938F938E01015C1F4F73
:103BA0001F930F930F9440D00F900F900F900F9092
:103BB0000F900F90B12CF80101900020E9F7319798
:103BC000E01BF10BBE1684F46801CB0CD11CB7FCD2
:103BD000DA94F6018081992787FD90950F9467CF3D
:103BE000F6018083B394E7CFFBE58F0E911CC401EF
:103BF00088D9512CCE0101966C012BED622E22E06A
:103C0000722E5E0191E2A90EB11C40E050E0B601B7
:103C1000C4010F94B28E1816DCF5412CF601019008
:103C20000020E9F73197EC19FD094E1674F41601DE
:103C3000240C311C47FC3A94F101808190E00F94F0
:103C400067CFF10180834394E9CF8A858E37E9F20B
:103C500045E050E0B801C6010F94E4CF892BA9F6E6
:103C60001F930F937F926F92BF92AF920F9440D0A9
:103C7000C5010E94FE4D87ED92E00E947A4E0F90A2
:103C80000F900F900F900F900F9055245394BDCF2D
:103C9000511004C08FEF9FEFF70104C0F70180813E
:103CA0009181019691838083C45ADF4F0FB6F894B7
:103CB000DEBF0FBECDBFDF91CF911F910F91FF905F
:103CC000EF90DF90CF90BF90AF909F908F907F90BC
:103CD0006F905F904F903F902F900895EF92FF92DA
:103CE0000F931F93CF93DF931F92CDB7DEB78C0155
:103CF0007C018AE0E81A8EEFF80AC70169830F9405
:103D0000FE8FC7010F944890F801108211826981DB
:103D1000662309F405C18091B60B9091B70BA09171
:103D2000B80BB091B90B80934D0C90934E0CA093AF
:103D30004F0CB093500C8091BA0B9091BB0BA0919B
:103D4000BC0BB091BD0B8093490C90934A0CA0938F
:103D50004B0CB0934C0C8091BE0B9091BF0BA0917B
:103D6000C00BB091C10B8093450C9093460CA0936F
:103D7000470CB093480C8091130B90E09093440C47
:103D80008093430C4091C20B5091C30B6091C40BC4
:103D90007091C50B40933F0C5093400C6093410CC5
:103DA0007093420CF70180859185A285B38580933D
:103DB0003B0C90933C0CA0933D0CB0933E0C809137
:103DC0001E1990911F199093380C8093370C809195
:103DD00020199091211990933A0C8093390C80917D
:103DE0001C1990911D199093360C8093350C80917D
:103DF0005C0290915D029093320C8093310C809123
:103E0000110B9091120B9093340C8093330C809192
:103E10000F0B9091100B90931C0C80931B0C8091B6
:103E2000040C80931A0C8091050C9091060C9093D1
:103E30001E0C80931D0C8091070C9091080C9093A0
:103E4000200C80931F0C8091090C90910A0C909388
:103E5000220C8093210C80910B0C90910C0C909370
:103E6000240C8093230C80910D0C90910E0C909358
:103E7000260C8093250C80910F0C9091100C909340
:103E8000280C8093270C8091110C9091120C909328
:103E90002A0C8093290C8091130C9091140C909310
:103EA0002C0C80932B0C8091150C9091160C9093F8
:103EB0002E0C80932D0C8091170C9091180C9093E0
:103EC000300C80932F0C0E94926490937502809323
:103ED00074020E9420686093700270937102809354
:103EE000720290937302EBECF2E064918F0166230F
:103EF00059F0772767FD709586E499E111D80F5F37
:103F00001F4FF8016491F3CF6AE070E086E499E115
:103F10000F90DF91CF911F910F91FF90EF9000C80C
:103F20000F90DF91CF911F910F91FF90EF90089527
:103F3000EF92FF920F931F93CF93DF93CDB7DEB72E
:103F40006F970FB6F894DEBF0FBECDBF8C017C011A
:103F500086E7E80EF11CC80188589F4FF70191834E
:103F60008083E65CFD4F22E030E03183208332968F
:103F700070E07183608304960E948117F70160816D
:103F80007181CE01019669D8AE014F5F5F4F62E744
:103F900077E0C80176D8CE0101960E9497176F96F8
:103FA0000FB6F894DEBF0FBECDBFDF91CF911F914A
:103FB0000F91FF90EF900895CF92DF92EF92FF92D2
:103FC0000F931F93CF93DF93CDB7DEB76F970FB6E5
:103FD000F894DEBF0FBECDBF8C016C0126E7C20E88
:103FE000D11C88589F4FF60191838083E65CFD4F7A
:103FF00021E030E0318320837801FEE4EF1AFDEF09
:10400000FF0AF7011182108204960E948117F601BF
:1040100060817181CE01019620D8AE014F5F5F4F64
:1040200062E777E0C8012DD8CE0101960E9497176C
:10403000F701808191816F960FB6F894DEBF0FBEB5
:10404000CDBFDF91CF911F910F91FF90EF90DF9047
:10405000CF9008952F923F924F925F926F927F92EE
:104060008F929F92AF92BF92CF92DF92EF92FF9288
:104070000F931F93CF93DF93CDB7DEB7C457D1090A
:104080000FB6F894DEBF0FBECDBF8C013B01E396A7
:104090004FAFE397FC018481882309F42EC4E750D5
:1040A000FE4F8081882309F412C12111D9C0780103
:1040B000FFEEEF1AFDEFFF0AF7018081882309F474
:1040C00035C0E4EBF4E064918F01662361F077275B
:1040D00067FD709586E499E10E9490170F5F1F4F6E
:1040E000F8016491F2CFE7E2F4E064918F01662376
:1040F00061F0772767FD709586E499E10E9490173B
:104100000F5F1F4FF8016491F2CF4AE050E061E089
:1041100070E086E499E10F9452C26AE070E086E4B0
:1041200099E10E9490170E941EACE7C3EEEAF4E00A
:1041300064916F01662369F0772767FD709586E4C7
:1041400099E10E949017FFEFCF1ADF0AF601649100
:10415000F1CFEEE0F4E064916F01662369F0772718
:1041600067FD709586E499E10E949017FFEFCF1AE2
:10417000DF0AF6016491F1CFB30186E499E10F946F
:10418000A3C1E3E0F4E064916F01662369F077274F
:1041900067FD709586E499E10E949017FFEFCF1AB2
:1041A000DF0AF6016491F1CFF70180813DE8D32E5B
:1041B000B801D89E600D711D11246A5E7D4FC80143
:1041C00030DAF7018081B801D89E600D711D11248D
:1041D0006A5E7D4F86E499E10F94A3C1EDEFF3E0B1
:1041E00064916F01662369F0772767FD709586E417
:1041F00099E10E949017FFEFCF1ADF0AF601649150
:10420000F1CF6801F5E5CF1AFDEFDF0AF601408135
:104210005181628173812AE030E086E499E10F9454
:104220007FC26AE070E086E499E10E949017F7018E
:104230002081F80184E0289FE00DF11D1124AF01D9
:104240004E5E5D4FF60180819181A281B381FA01BA
:1042500080839183A283B3832F5FF701208331C0D2
:10426000EEEAF4E064917F01662369F0772767FD49
:10427000709586E499E10E949017FFEFEF1AFF0A0C
:10428000F7016491F1CFECEEF3E064917F016623D6
:1042900069F0772767FD709586E499E10E94901791
:1042A000FFEFEF1AFF0AF7016491F1CFB30186E443
:1042B00099E10F94A3C16AE070E086E499E10E945D
:1042C0009017C8018A509E4F0F94489035C0F8014E
:1042D000EF5EFD4F1082EEEAF4E064917F01662309
:1042E00069F0772767FD709586E499E10E94901741
:1042F000FFEFEF1AFF0AF7016491F1CFEBEDF3E066
:1043000064917F01662369F0772767FD709586E4E5
:1043100099E10E949017FFEFEF1AFF0AF7016491ED
:10432000F1CFB30186E499E10F94A3C16AE070E094
:1043300086E499E10E949017F80112822E01F0E2C2
:104340004F0E511CC2010E948617180186E7280EE5
:10435000311CC801895A9F4FF10191838083F30179
:1043600080818F3209F04FC16FE270E0C3010F947A
:10437000C9CF01967C01C80180559D4FE0969FAF43
:104380008EAFE097F801EE54FD4FAC96FFAFEEAF65
:10439000AC974E01FFE38F0E911C8B5A9240AE9664
:1043A0009FAF8EAFAE97E114F10409F49DC16FE2A7
:1043B00070E0C7010F94C9CF6C01009709F495C153
:1043C000E816F90608F091C15C01AE18BF08A50116
:1043D000B701CE01835A9F4F0F94F2CFEDE5F0E085
:1043E000EC0FFD1FEA0DFB1D1082BE01635A7F4FCB
:1043F00086E499E10F94A3C16AE070E086E499E154
:104400000E949017F101608171816115710519F0A9
:104410006C5F7F4F02C060E070E021E0AE01435A64
:104420005F4FCE0184960F943F9281112CC0E7EC30
:10443000F3E064918F01662361F0772767FD709543
:1044400086E499E10E9490170F5F1F4FF801649175
:10445000F2CFBE01635A7F4F86E499E10F94A3C166
:10446000E5ECF3E064918F01662309F43DC2772700
:1044700067FD709586E499E10E9490170F5F1F4FCA
:10448000F8016491F1CFF101518240827601FFEF92
:10449000EF1AFF0A8091890C811185CF81E090E0AD
:1044A000E096EEADFFADE09791838083AC96EEADE4
:1044B000FFADAC9711821082CE0184960E948117C5
:1044C000B201CE0101960E942D18AE014F5F5F4FE1
:1044D00062E777E0C8010E944118CE0101960E9470
:1044E0009717AC96EEADFFADAC970190F081E02D43
:1044F000E296FFAFEEAFE2978EE1F40111928A955A
:10450000E9F7AE96FFADAE97FF93AD968FADAD9741
:104510008F939F928F920F9412D00F900F900F90C5
:104520000F906401F6018081882349F0992787FD67
:1045300090950F9467CFF60181936F01F3CFA12C73
:10454000B12CB701C4010F94D4CF892B09F454C006
:10455000E2968EAD9FADE297A816B9060CF04CC05E
:1045600082E090E0E096EEADFFADE097918380832E
:10457000AC96EEADFFADAC97B182A082F101808127
:10458000918104960E948117B201CE0101960E948A
:104590002D18AE014F5F5F4F62E777E0C8010E94C0
:1045A0004118CE0101960E949717F4018EE11192F5
:1045B0008A95E9F7AE969FADAE979F93AD96EFAD16
:1045C000AD97EF939F928F920F9412D00F900F9010
:1045D0000F900F906401F6018081882349F099279C
:1045E00087FD90950F9467CFF60181936F01F3CF0C
:1045F000FFEFAF1ABF0AA5CFAC96EEADFFADAC97FB
:1046000011821082D0CEC80188589F4FF10191834A
:1046100080838091890C811167C0C801CDDC4C0179
:10462000CE0101967C018EE1F70111928A95E9F79E
:104630005801F5E0AF0EB11CBF92AF92FF92EF921E
:104640000F9412D00F900F900F900F906701F6010A
:104650008081882349F0992787FD90950F9467CF33
:10466000F60181936F01F3CFC12CD12CB301C701A7
:104670000F94D4CF892B99F1C814D90484F56C2DEB
:10468000C80156DCF7018EE111928A95E9F7BF92D5
:10469000AF92FF92EF920F9412D00F900F900F9065
:1046A0000F909701F90180818823A9F0992787FD50
:1046B0009095E4962FAFE497E5963FAFE5970F947A
:1046C00067CFE4962FADE497E5963FADE597F90106
:1046D00081939F01E7CFFFEFCF1ADF0AC7CFF80121
:1046E000EE54FD4F118210827301C8018A509E4F13
:1046F0006C01E3969FADE397F1016081718199238D
:1047000009F4A0C06115710519F06C5F7F4F02C0FC
:1047100060E070E021E0A701C6010F943F9288237A
:1047200009F466C0F60181899289A389B489F801E8
:10473000ED55FD4F80839183A283B383E7EBF3E0D4
:1047400064915F01C8018D559D4F6C01662369F02E
:10475000772767FD709586E499E10E9490179FEF97
:10476000A91AB90AF5016491F1CFB70186E499E17C
:104770000F94A3C1EFEAF3E064917F01662369F02F
:10478000772767FD709586E499E10E949017FFEF07
:10479000EF1AFF0AF7016491F1CFF60140815181D0
:1047A000628173812AE030E086E499E10F947FC250
:1047B0006AE070E086E499E10E949017F801E555FF
:1047C000FD4F1082118212821382E1EAF3E06491BC
:1047D0008F01662309F488C0772767FD709586E40A
:1047E00099E10E9490170F5F1F4FF8016491F1CF7C
:1047F000EDE8F3E064918F01662361F0772767FDB0
:10480000709586E499E10E9490170F5F1F4FF801A1
:104810006491F2CFB70186E499E10F94A3C1EBE86C
:10482000F3E064918F01662309F45EC0772767FD8A
:10483000709586E499E10E9490170F5F1F4FF80171
:104840006491F1CF6115710519F06C5F7F4F02C063
:1048500060E070E026E5A701C6010F943F92811148
:1048600029C0E7E7F3E064918F01662361F07727C1
:1048700067FD709586E499E10E9490170F5F1F4FC6
:10488000F8016491F2CFB70186E499E10F94A3C1D6
:10489000E5E7F3E064918F01662331F1772767FD47
:1048A000709586E499E10E9490170F5F1F4FF80101
:1048B0006491F2CF81E0F8018083E3E6F3E0649154
:1048C0008F01662361F0772767FD709586E499E193
:1048D0000E9490170F5F1F4FF8016491F2CFB30150
:1048E00086E499E10F94A3C16AE070E086E499E15F
:1048F0000E949017C2010E949717CC58DF4F0FB645
:10490000F894DEBF0FBECDBFDF91CF911F910F9105
:10491000FF90EF90DF90CF90BF90AF909F908F90DF
:104920007F906F905F904F903F902F90089521E07F
:10493000FC01218340E08ECBAF92BF92CF92DF92F9
:10494000EF92FF920F931F93CF93DF93CDB7DEB714
:104950006F970FB6F894DEBF0FBECDBF8C017B0101
:10496000CE0101960E948617F801E158FF4F808121
:104970006801811104C027E5C20ED11C03C088E77D
:10498000C80ED11C21E0A701B6016C5F7F4FCE019C
:1049900005960F943F92811136C0EEEAF4E06491DF
:1049A0008F01662361F0772767FD709586E499E1B2
:1049B0000E9490170F5F1F4FF8016491F2CFE5EB53
:1049C000F2E064918F01662361F0772767FD7095AF
:1049D00086E499E10E9490170F5F1F4FF8016491E0
:1049E000F2CFB70186E499E10F94A3C16AE070E0C9
:1049F00086E499E10E949017CE0101960E949717D4
:104A00008FEF9FEF3AC0F801E353FE4F8081918111
:104A10008A30910530F59C012F5F3F4F3183208311
:104A20002FE1289F7001299FF00C1124F7E9EF0E68
:104A3000F11CE00EF11E5C01B701C7014F960E9408
:104A4000E91921E0A21AB1088FE1E81AF108EFEFA5
:104A5000AE16BE0689F7B601C80189569F4F0E945F
:104A6000E919BE016F5F7F4FC80188589F4F0E94B0
:104A7000E919CE0101960E9497176F960FB6F89428
:104A8000DEBF0FBECDBFDF91CF911F910F91FF9081
:104A9000EF90DF90CF90BF90AF900895EF92FF928C
:104AA0000F931F93CF93DF93EC01C353DE4F288105
:104AB00039812115310529F12150310939832883A4
:104AC0008C0109561F4FB80188589F4F0E94E91961
:104AD000C80100E010E0288139817C014FE1E40E3B
:104AE000F11C0217130738F40F5F1F4FB7010E9424
:104AF000E919C701F0CF81E090E0232B21F080E09D
:104B000002C08FEF9FEFDF91CF911F910F91FF9028
:104B1000EF9008958F929F92AF92BF92CF92DF92C3
:104B2000EF92FF920F931F93CF93DF93EC011092BC
:104B3000D20B8091420B9091430B01969093430BC3
:104B40008093420BE9D24091B6155091B715609110
:104B5000B8157091B9154093BA155093BB15609371
:104B6000BC157093BD1580EB92E00E947A4E0F94B5
:104B7000DEA17E018FEEE81A8DEFF80AF701808141
:104B80008E010A501E4F8823D1F1C8010F9448901E
:104B9000F701808181508083BE01FDE88F9F600D09
:104BA000711D11246A5E7D4F21E041E0CE0152DA91
:104BB000F7018081FE0194E0899FE00DF11D112431
:104BC000EE5EFD4F4081518162817381FE01E555AA
:104BD000FD4F4083518362837383C8010F94658FB7
:104BE000CE01DF91CF911F910F91FF90EF90DF9059
:104BF000CF90BF90AF909F908F900C94DA1A0F9443
:104C00006FA2C8010F9448901A8220E030E045E07E
:104C100050E06AE070E088EA9FE00E94943F8DEAED
:104C200092E00E947A4E0F94DEA188EA92E00E9400
:104C30007A4E83E090E00E948D6410921F191092CA
:104C40001E19109221191092201910921D191092FC
:104C50001C191092100B10920F0B1092190C10923D
:104C6000890C1092880C1092870C6091480B7091FF
:104C7000490B80914A0B90914B0B2CE330E040E0C4
:104C800050E00F947FC93093450B2093440B7093F1
:104C9000470B6093460BC090D215D090D315E0908F
:104CA000D415F090D5152091340B3091350B4091EF
:104CB000360B5091370B6091380B7091390B809106
:104CC0003A0B90913B0B0F94D6C54B015C012091A0
:104CD00016163091171640911816509119166091BA
:104CE0001A1670911B1680911C1690911D160F9428
:104CF00017C6A70196010F9403C59B01AC01C5011E
:104D0000B4010F9423C40F946BC52093340B3093DC
:104D1000350B4093360B5093370B6093380B7093E1
:104D2000390B80933A0B90933B0B20912C0B3091D5
:104D30002D0B40912E0B50912F0B6091300B7091E9
:104D4000310B8091320B9091330B0F94D6C54B01F0
:104D50005C0120910E1630910F1640911016509163
:104D6000111660911216709113168091141690917D
:104D700015160F9417C6A70196010F9403C59B0142
:104D8000AC01C501B4010F9423C40F946BC52093EB
:104D90002C0B30932D0B40932E0B50932F0B6093C5
:104DA000300B7093310B8093320B9093330B209127
:104DB000240B3091250B4091260B5091270B6091CD
:104DC000280B7091290B80912A0B90912B0B0F943B
:104DD000D6C56B017C0120910616309107164091D3
:104DE00008165091091660910A1670910B16809161
:104DF0000C1690910D160F9417C62091D615309170
:104E0000D7154091D8155091D9150F9403C59B0122
:104E1000AC01C701B6010F9423C40F946BC5209356
:104E2000240B3093250B4093260B5093270B609354
:104E3000280B7093290B80932A0B90932B0BC09017
:104E4000DE15D090DF15E090E015F090E11520918F
:104E50001C0B30911D0B40911E0B50911F0B60914C
:104E6000200B7091210B8091220B9091230B0F94BA
:104E7000D6C54B015C012091FE153091FF15409184
:104E800000165091011660910216709103168091E0
:104E90000416909105160F9417C6A70196010F945A
:104EA00003C59B01AC01C501B4010F9423C40F9449
:104EB0006BC520931C0B30931D0B40931E0B50931E
:104EC0001F0B6093200B7093210B8093220B909308
:104ED000230B2091140B3091150B4091160B509120
:104EE000170B6091180B7091190B80911A0B909110
:104EF0001B0B0F94D6C54B015C012091F615309128
:104F0000F7154091F8155091F9156091FA157091C7
:104F1000FB158091FC159091FD150F9417C6A70104
:104F200096010F9403C59B01AC01C501B4010F9418
:104F300023C40F946BC52093140B3093150B40932F
:104F4000160B5093170B6093180B7093190B8093EB
:104F50001A0B90931B0B10921616109217161092A4
:104F600018161092191610921A1610921B161092FB
:104F70001C1610921D1610920E1610920F161092FB
:104F800010161092111610921216109213161092FB
:104F900014161092151610920616109207161092FB
:104FA00008161092091610920A1610920B161092FB
:104FB0000C1610920D161092FE151092FF151092FD
:104FC00000161092011610920216109203161092FB
:104FD0000416109205161092F6151092F7151092FD
:104FE000F8151092F9151092FA151092FB151092FF
:104FF000FC151092FD1590D08CE992E00E947A4E3B
:1050000080916D158823F9F010926D15C091130BE6
:10501000D0E0CC0FDD1FC25ED64E68817981882733
:1050200077FD8095982F0F94DCC52091BC023091BC
:10503000BD024091BE025091BF020F948BC718165B
:1050400014F419821882DF91CF911F910F91FF9074
:10505000EF90DF90CF90BF90AF909F908F9008958A
:105060008D559D4FFC0160817181828193810895EE
:1050700085559D4FFC0160817181828193810895E6
:10508000EF92FF920F931F93CF93DF931F92CDB7B1
:10509000DEB78C017B01460FF70161917F01F801BA
:1050A0008081918149830F943ED5F801808191815F
:1050B00001969183808349814E11EECF0F90DF914D
:1050C000CF911F910F91FF90EF900895EF92FF9273
:1050D0000F931F93CF93DF931F92CDB7DEB78C0151
:1050E0007B01460FF8018081918149830F9436D569
:1050F000F70181937F01F80180819181019691836D
:10510000808349814E11EECF0F90DF91CF911F9197
:105110000F91FF90EF9008950F931F93CF93DF931C
:10512000CDB7DEB768970FB6F894DEBF0FBECDBF20
:1051300080E390E3A0E3B0E08D839E83AF83B887E4
:1051400004E610E0188F0F8B44E0BE016B5F7F4FC9
:10515000CE01479695DF40E162ED75E1CE014796BD
:105160008FDF40E162EE75E1CE01479689DF40E1D5
:1051700062EC75E1CE01479683DF44E06AEB75E1AE
:10518000CE0147967DDF44E062EB75E1CE014796A4
:1051900077DF44E06EEB75E1CE01479671DF44E0C6
:1051A00062EA75E1CE0147966BDF44E062EF75E19C
:1051B000CE01479665DF44E06EEA75E1CE01479681
:1051C0005FDF44E06AEA75E1CE01479659DF44E0CB
:1051D00066EA75E1CE01479653DF4CE06AE97BE071
:1051E000CE0147964DDF87ED90E09E8B8D8B8DE253
:1051F00090E09C8B8B8B1A8A198A80EF90E0988BB9
:105200008F8786E490E09E878D871C861B8642E010
:10521000BE016B5E7F4FCE01479632DF42E0BE019A
:105220006D5E7F4FCE0147962BDF42E0BE016F5E81
:105230007F4FCE01479624DF42E0BE01615F7F4F82
:10524000CE0147961DDF42E0BE01635F7F4FCE0176
:10525000479616DF42E0BE01655F7F4FCE0147965D
:105260000FDF44E067E87BE0CE01479609DF44E0CA
:105270006BE272E0CE01479603DF44E063E372E045
:10528000CE014796FDDE44E06BE372E0CE01479627
:10529000F7DE42E06DEF7BE0CE014796F1DE42E0C3
:1052A00061E07CE0CE014796EBDE42E06FEF7BE011
:1052B000CE014796E5DE42E06BEF7BE0CE014796FC
:1052C000DFDE42E06DEE7BE0CE014796D9DE42E0C4
:1052D00061EF7BE0CE014796D3DE42E06FEE7BE0EC
:1052E000CE014796CDDE42E06BEE7BE0CE014796E5
:1052F000C7DE42E065EF7BE0CE014796C1DE42E0CB
:1053000069EF7BE0CE014796BBDE42E067EF7BE0D2
:10531000CE014796B5DE42E063EF7BE0CE014796D3
:10532000AFDE42E065EE7BE0CE014796A9DE42E0CB
:1053300069EE7BE0CE014796A3DE42E067EE7BE0BC
:10534000CE0147969DDE42E063EE7BE0CE014796BC
:1053500097DE44E06BE173E0CE01479691DE44E0D6
:1053600063E173E0CE0147968BDE44E06BE073E0CF
:10537000CE01479685DE44E06FE173E0CE014796AB
:105380007FDE44E067E173E0CE01479679DE44E0DA
:105390006FE073E0CE01479673DE42E06EE47BE09F
:1053A000CE0147966DDE42E062E47BE0CE01479697
:1053B00067DE42E060E47BE0CE01479661DE42E0DA
:1053C0006EE37BE0CE0147965BDE42E06CE47BE07F
:1053D000CE01479655DE42E06CE37BE0CE01479676
:1053E0004FDE80E290E09A87898742E0BE01675FE6
:1053F0007F4FCE01479644DE42E061E97CE0CE017A
:1054000047963EDE44E06DE87CE0CE01479638DE0C
:1054100042E06BE87CE0CE01479632DE42E066E493
:105420007BE0CE0147962CDE42E064E47BE0CE01D7
:10543000479626DE48E064E37BE0CE01479620DE17
:1054400048E06CE27BE0CE0147961ADE48E064E279
:105450007BE0CE01479614DE48E06CE17BE0CE01B4
:1054600047960EDE48E064E17BE0CE01479608DE19
:1054700042E06EE672E0CE01479602DE42E066E769
:1054800072E0CE014796FCDD44E06DE47CE0CE01A5
:105490004796F6DD44E069E47CE0CE014796F0DD16
:1054A00044E065E47CE0CE014796EADD42E063E457
:1054B0007CE0CE014796E4DD44E06FE37CE0CE0182
:1054C0004796DEDD44E06BE37CE0CE014796D8DD15
:1054D00042E069E37CE0CE014796D2DD42E067E33B
:1054E0007CE0CE014796CCDD42E065E37CE0CE0176
:1054F0004796C6DD42E063E37CE0CE014796C0DD1F
:1055000042E061E37CE0CE014796BADD41E06AE12A
:105510007CE0CE014796B4DD42E06DE17CE0CE0157
:105520004796AEDD42E06FE17CE0CE014796A8DD14
:1055300042E061E27CE0CE014796A2DD42E063E218
:105540007CE0CE0147969CDD42E065E27CE0CE0146
:10555000479696DD42E067E27CE0CE01479690DD1B
:1055600042E069E27CE0CE0147968ADD42E06BE2F0
:105570007CE0CE01479684DD42E06DE27CE0CE0126
:1055800047967EDD42E06FE27CE0CE01479678DD13
:1055900044E066EB75E1CE01479672DD42E064E6D9
:1055A0007CE0CE0147966CDD44E063E87BE0CE0111
:1055B000479666DD44E06FE77BE0CE01479660DD0D
:1055C00044E060E57BE0CE0147965ADD44E064E5C7
:1055D0007BE0CE01479654DD44E068E57BE0CE01F8
:1055E00047964EDD44E06CE57BE0CE01479648DD12
:1055F00042E064E772E0CE01479642DD44E060E7B6
:1056000072E0CE0147963CDD42E06FE07BE0CE01E8
:10561000479636DD86E591E3A2E3B0E089839A837D
:10562000AB83BC83188F0F8B44E0BE016F5F7F4F4D
:10563000CE01479625DDEEE2FBE064918F01662303
:1056400061F0772767FD709586E499E10E949017D5
:105650000F5F1F4FF8016491F2CFEEE1FBE0649120
:105660008F01662361F0772767FD709586E499E1E5
:105670000E9490170F5F1F4FF8016491F2CF6AE00C
:1056800070E086E499E10E94901768960FB6F8944E
:10569000DEBF0FBECDBFDF91CF911F910F91089557
:1056A0000F931F93CF93DF93CEE2DBE0FE01649173
:1056B0008E01662361F0772767FD709586E499E196
:1056C0000E9490170F5F1F4FF8016491F2CFEEE038
:1056D000FBE064918F01662361F0772767FD709589
:1056E00086E499E10E9490170F5F1F4FF8016491C3
:1056F000F2CF6AE070E086E499E10E949017FE0123
:1057000064910EE21BE0662361F0772767FD7095D8
:1057100086E499E10E9490170F5F1F4FF801649192
:10572000F2CF4091D2155091D3156091D41570915C
:10573000D51586E09BE00E94924D4091D615509180
:10574000D7156091D8157091D91583E09BE00E9420
:10575000924D4091DA155091DB156091DC157091F6
:10576000DD1580E09BE00E94924D4091DE15509146
:10577000DF156091E0157091E1158DEF9AE00E94C0
:10578000924D62E777E086E499E10F94A3C16AE065
:1057900070E086E499E10E949017FE0164910EE2A8
:1057A0001BE0662361F0772767FD709586E499E139
:1057B0000E9490170F5F1F4FF8016491F2CFE3EE44
:1057C000FAE064918F01662361F0772767FD709599
:1057D00086E499E10E9490170F5F1F4FF8016491D2
:1057E000F2CF6AE070E086E499E10E949017FE0132
:1057F00064910EE21BE0662361F0772767FD7095E8
:1058000086E499E10E9490170F5F1F4FF8016491A1
:10581000F2CF4091E2155091E3156091E41570913B
:10582000E5158AED9AE00E94924D4091E61550915F
:10583000E7156091E8157091E91587ED9AE00E94EF
:10584000924D4091EA155091EB156091EC157091D5
:10585000ED1584ED9AE00E94924D4091EE15509125
:10586000EF156091F0157091F11581ED9AE00E94AD
:10587000924D62E777E086E499E10F94A3C16AE074
:1058800070E086E499E10E949017FE0164910EE2B7
:105890001BE0662361F0772767FD709586E499E148
:1058A0000E9490170F5F1F4FF8016491F2CFE3EB56
:1058B000FAE064918F01662361F0772767FD7095A8
:1058C00086E499E10E9490170F5F1F4FF8016491E1
:1058D000F2CF6AE070E086E499E10E949017FE0141
:1058E00064910EE21BE0662361F0772767FD7095F7
:1058F00086E499E10E9490170F5F1F4FF8016491B1
:10590000F2CF4091C2155091C3156091C4157091AA
:10591000C5158AEA9AE00E94DA4D4091C615509169
:10592000C7156091C8157091C91587EA9AE00E9461
:10593000DA4D4091CA155091CB156091CC157091FC
:10594000CD1584EA9AE00E94DA4D4091CE1550912F
:10595000CF156091D0157091D11581EA9AE00E941F
:10596000DA4D62E777E086E499E10F94A3C16AE03B
:1059700070E086E499E10E949017FE0164910EE2C6
:105980001BE0662361F0772767FD709586E499E157
:105990000E9490170F5F1F4FF8016491F2CFECE661
:1059A000FAE064918F01662361F0772767FD7095B7
:1059B00086E499E10E9490170F5F1F4FF8016491F0
:1059C000F2CF6AE070E086E499E10E949017FE0150
:1059D00064910EE21BE0662361F0772767FD709506
:1059E00086E499E10E9490170F5F1F4FF8016491C0
:1059F000F2CF4091BA155091BB156091BC157091D2
:105A0000BD1583E69AE00E94924D4091B2155091E7
:105A1000B3156091B4157091B51580E69AE00E94B7
:105A2000924D62E777E086E499E10F94A3C16AE0C2
:105A300070E086E499E10E949017FE0164910EE205
:105A40001BE0662361F0772767FD709586E499E196
:105A50000E9490170F5F1F4FF8016491F2CFEDEA9B
:105A6000F9E064918F01662361F0772767FD7095F7
:105A700086E499E10E9490170F5F1F4FF80164912F
:105A8000F2CF6AE070E086E499E10E949017FE018F
:105A900064910EE21BE0662361F0772767FD709545
:105AA00086E499E10E9490170F5F1F4FF8016491FF
:105AB000F2CF4091BE155091BF156091C015709105
:105AC000C11584EA99E00E94924D4091A21550912F
:105AD000A3156091A4157091A51581EA99E00E9423
