:100000000C94F6150C9427160C9427160C942716AE
:100010000C9427160C9427160C9427160C9427166C
:100020000C9427160C9427160C9427160C9427165C
:100030000C9427160C9427160C9427160C9427164C
:100040000C9427160D94BB9A0C9427160C94271623
:100050000C9427160C9427160D94C7B70D9471BCF9
:100060000C9427160D94A1C00D94D7C00C9427169C
:100070000C9427160C9427160C9427160C9427160C
:100080000C9427160C9427160C9427160C942716FC
:100090000C9427160C9427160C9427160C94EA1629
:1000A0000C9427160C9427160C9427160C942716DC
:1000B0000C9427160C9427160C9427160C942716CC
:1000C0000C9427160C9427160C9427160D944CC1EB
:1000D0000D9482C10C9427160C9427160C942716A5
:1000E0000C942716EFB5FFB613B8E1B728B7C0B721
:1000F00098B737B65FB687B698B8C0B808B930B900
:10010000D7B6AFB664B73E01DA00F8003401440157
:100110001E01F6004A014801EE003C0106012401DF
:100120001801E80036012001D8000C01EC0038016C
:100130003A0142012801DC0020014001F000EA0000
:1001400000014601E4001601020122010401F2004F
:100150000A01E200FA000E01E0001401220132015E
:100160002A01DE00084AD73B3BCE016E84BCBFFDAE
:10017000C12F3D6C74319ABD56833DDA3D00C77F77
:1001800011BED9E4BB4C3E916BAAAABE0000008010
:100190003F05A84CCDB2D44EB93836A9020C50B99F
:1001A000918688083CA6AAAA2ABE000000803F00CB
:1001B0000D94CFBD0D945CB80D9416BE0D9495BEF4
:1001C0000D9483BE0D9475BE0D9452BE0D94BABFAE
:1001D0000D94BBBD0D9434BE0D94DFBD0D94CCB811
:1001E0000D942ABE0D946BBE0D9409C10D94C6B832
:1001F0000D9478B80D9479BE0D945EBF0D9404C231
:100200000D9460BE0D945CBE0D9467BE0D94A7BDA9
:100210000D94CE580D9471BE0D94D7BD0D947FBE34
:100220000D944ABF0D943CBF0D9487BE0D9456BEED
:100230000D94B1BD0D9469950D94E6580D94ACB82C
:100240000D943EBE0D949ABE0D94ACBD0D94B4C1F8
:100250000D940CBE0D9491BE0D9431BF0D94ABC1A5
:100260000D9400C10D948DBE0D9485B80D94C5BD3F
:100270000D94E9BD0D94F3BD0D94D4B80D944FB811
:100280000D9420BE0D94FDBD0D949FB80D9463BEDA
:100290000D94CAB80D94C8B80D94DBBF4D38342006
:1002A000582059205A2045004D3130370054300035
:1002B0004D3130370043616E6E6F7420656E74652A
:1002C00072207375626469723A2000534156454446
:1002D000205052494E54004D3234004D32332025C7
:1002E00073006175746F25692E67006572726F7295
:1002F0002077726974696E6720746F2066696C6517
:10030000004E6F74205344207072696E74696E677A
:10031000002F005344207072696E74696E6720620A
:1003200079746520002E0044656C6574696F6E20D9
:100330006661696C65642C2046696C653A200046EC
:10034000696C652064656C657465643A002E006FA5
:1003500070656E206661696C65642C2046696C6509
:100360003A200057726974696E6720746F2066695D
:100370006C653A20002E006F70656E206661696CB6
:1003800065642C2046696C653A20002E006F70650C
:100390006E206661696C65642C2046696C653A2044
:1003A0000046696C652073656C6563746564002044
:1003B00053697A653A200046696C65206F70656EF6
:1003C00065643A20002E006F70656E206661696C6E
:1003D00065642C2046696C653A20004E6F77206674
:1003E000726573682066696C653A20004E6F7720ED
:1003F000646F696E672066696C653A200022207020
:100400006F73002220706172656E743A220053553A
:1004100042524F5554494E452043414C4C20746143
:10042000726765743A2200747279696E6720746F1E
:100430002063616C6C207375622D67636F64652047
:1004400066696C6573207769746820746F6F206DBE
:10045000616E79206C6576656C732E204D41582055
:100460006C6576656C2069733A007A70726F6265AC
:100470003A200053442063617264206F6B006F70F8
:10048000656E526F6F74206661696C656400766F8B
:100490006C756D652E696E6974206661696C656442
:1004A00000534420696E6974206661696C0065635D
:1004B000686F3A004572726F723A00535543434574
:1004C00053530056616C756573206F7574206F66A9
:1004D0002072616E67650056616C756573206F757B
:1004E00074206F662072616E67650056616C756579
:1004F00073206F7574206F662072616E6765005699
:10050000616C756573206F7574206F662072616E03
:10051000676500535543434553530056616C7565F9
:1005200073206F7574206F662072616E6765005668
:10053000616C756573206F7574206F662072616ED3
:1005400067650056616C756573206F7574206F6602
:100550002072616E67650056616C756573206F75FA
:1005600074206F662072616E676500535441544970
:1005700053544943532052455345540048617264D3
:10058000636F6465642043616C696220616E6420FE
:100590005049442044656661756C742053657474D9
:1005A000696E6773204C6F616465640048617264B2
:1005B000636F6465642044656661756C742053657F
:1005C0007474696E6773204C6F6164656400537462
:1005D0006F7265642073657474696E6773207265E9
:1005E00074726965766564002C2073617665645F5A
:1005F00066656564726174653A20002C20736176CB
:1006000065645F66616E6C617965723A20002C20CA
:1006100073617665645F74656D706265643A20002D
:100620002C2073617665645F74656D70303A2000CC
:100630002C2073617665645F74656D70313A2000BB
:100640002C2073617665645F66696C65706F736991
:1006500074696F6E3A20002C2073617665645F6563
:100660005F706F736974696F6E3A20002C2073613C
:100670007665645F746F6F6C5F6163746976653A09
:1006800020002C2073617665645F7A5F706F7369F8
:1006900074696F6E3A20002C2073617665645F790F
:1006A0005F706F736974696F6E3A20002C207361FC
:1006B0007665645F785F706F736974696F6E3A20F6
:1006C0000053415645205052494E54204C4F473A12
:1006D00000204D696E75746573203A00204C61737B
:1006E00074207072696E742074696D652D3E2048A7
:1006F0006F757273203A004C617374207072696E6A
:1007000074206475726174696F6E002C205468697E
:100710007264204944206E756D62657220002C2041
:100720005365636F6E64204944206E756D62657217
:100730003A2000204669727374204944206E756D1A
:100740006265723A2000554920496E666F726D618C
:1007500074696F6E2053657269616C204E756D62AD
:1007600065723A00206D2C204531207072696E74DC
:100770002064697374616E63653A2000206B6D2C90
:10078000204530207072696E742064697374616EE4
:1007900063653A2000206B6D2C2059207072696EC1
:1007A000742064697374616E63653A2000206B6D18
:1007B0002C205831207072696E74206469737461E2
:1007C0006E63653A200020432C0A20583020707256
:1007D000696E742064697374616E63653A200020E9
:1007E000432C206D61782074656D7020423A2000A2
:1007F00020432C206D61782074656D7020523A2062
:10080000002C206D61782074656D70204C3A2000BA
:10081000682C207072696E74732066696E697368E3
:1008200065643A20002C207072696E74696E6720CE
:1008300074696D653A2000207072696E74733A2095
:100840000053544154533A0020432C20525F5052DD
:10085000494E543A200020432C20525F4245443AEE
:10086000200020432C20525F52454D4F56453A20E0
:100870000020525F494E534552543A200054656D52
:1008800070202843293A0020432C204C5F505249C5
:100890004E543A200020432C204C5F4245443A20DD
:1008A0000020432C204C5F52454D4F56453A2000C6
:1008B000204C5F494E534552543A200054656D70A8
:1008C000202843293A0020426564207269676874D1
:1008D000207363726577200020426564206C656632
:1008E000742073637265772000426564204F6666EA
:1008F0007365747320286D6D293A00205A20707238
:100900006F626500205A20002059200020582000E6
:100910004F66667365747320286D6D293A00204414
:1009200000204900202D204D3330312052494748C6
:1009300054205000204400204900204D3330312005
:100940004C454654205000504944207365747469E6
:100950006E67733A00205A0020590020204D323033
:1009600036205800486F6D65206F66667365742089
:10097000286D6D293A00204500205A00205800209B
:10098000420020540020204D323035205300416475
:1009900076616E636564207661726961626C65730D
:1009A0003A20533D4D696E206665656472617465D9
:1009B00020286D6D2F73292C20543D4D696E2074B5
:1009C000726176656C206665656472617465202865
:1009D0006D6D2F73292C20423D6D696E696D756DAB
:1009E000207365676D656E742074696D6520286D70
:1009F00073292C20583D6D6178696D756D205859AB
:100A0000206A65726B20286D6D2F73292C20205A67
:100A10003D6D6178696D756D205A206A65726B2035
:100A2000286D6D2F73292C2020453D6D6178696DEF
:100A3000756D2045206A65726B20286D6D2F7329B6
:100A40000020540020204D32303420530041636395
:100A5000656C65726174696F6E3A20533D616363C2
:100A6000656C65726174696F6E2C20543D7265749B
:100A70007261637420616363656C65726174696F30
:100A80006E00204500205A0020590020204D3230B1
:100A9000312058004D6178696D756D204163636543
:100AA0006C65726174696F6E20286D6D2F733229C9
:100AB0003A00204500205A0020590020204D3230B5
:100AC000332058004D6178696D756D2066656564E9
:100AD000726174657320286D6D2F73293A0020456B
:100AE00000205A0020590020204D39322058005350
:100AF000746570732070657220756E69743A005366
:100B0000657474696E67732053746F7265640065F1
:100B100063686F3A00204500205A00205900483D84
:100B2000580045787472756465722072656C6561F1
:100B3000736564206163746976653A20005A2053B6
:100B400049474D4120486F6D656400457874727562
:100B5000646572206163746976653A200050726939
:100B60006E7465722068616C7465642E206B696CAC
:100B70006C28292063616C6C65642100436F6F6C85
:100B8000696E6720446F776E2048656174657200F6
:100B90004475616C204D6972726F72204D6F64658F
:100BA000204F4E004475616C204D6F6465204F4EA0
:100BB000004475616C204D6F6465204F4646006FA0
:100BC0006B00526573656E643A2000504F53495470
:100BD000494F4E20484F4D453A200054696D6520DD
:100BE000696E61637469766500507572676520642B
:100BF000697374616E636500486F74656E64206F1D
:100C00006666736574733A005A204F66667365743E
:100C1000203A20007A5F6D61783A20007A5F6D6932
:100C20006E3A20005A204F6666736574005A204F52
:100C30006666736574206F6B004E6F742070726906
:100C40006E74207265636F766572792075700050DE
:100C500072696E74207265636F7665727920757043
:100C600000486F74656E64206F6666736574733ACE
:100C7000007A5F6D696E3A2000795F6D61783A2085
:100C800000785F6D61783A2000785F6D696E3A2078
:100C900000205A3A0020593A0020436F756E7420A4
:100CA000583A200020453A00205A3A0020593A008C
:100CB000583A004649524D574152455F4E414D45C5
:100CC0003A4D61726C696E2056313B2053707269E7
:100CD0006E7465722F6772626C206D6173687570D7
:100CE00020666F722067656E36204649524D574127
:100CF00052455F55524C3A68747470733A2F2F679F
:100D000069746875622E636F6D2F4572696B5A61E5
:100D10006C6D2F4D61726C696E2F2050524F544F85
:100D2000434F4C5F56455253494F4E3A312E302077
:100D30004D414348494E455F545950453A4D656EC3
:100D400064656C2045585452554445525F434F5595
:100D50004E543A3220555549443A303030303030D4
:100D600030302D303030302D303030302D3030308C
:100D7000302D3030303030303030303030300A00CC
:100D8000426564204865617465640020423A002031
:100D9000453A00543A00457874727564657220488B
:100DA00065617465640020573A0020453A00543A62
:100DB000002042403A0020403A00202F003A002014
:100DC0005400202F0020423A00202F006F6B205447
:100DD0003A000A0A005374616E64617264204465CB
:100DE00076696174696F6E3A20000A004D65616E24
:100DF0003A20000A002020207A3A200000793A2088
:100E000000783A20003F5370656369666965642025
:100E10006E756D626572206F66206C656773206900
:100E20006E206D6F76656D656E74206E6F742070C8
:100E30006C61757361626C652E0A003F5370656367
:100E40006966696564205920706F736974696F6E93
:100E5000206F7574206F662072616E67652E0A00C0
:100E60003F537065636966696564205820706F73CD
:100E70006974696F6E206F7574206F662072616E81
:100E800067652E0A003F5370656369666965642073
:100E900073616D706C652073697A65206E6F742064
:100EA000706C61757361626C652E0A0046756C6CBE
:100EB00020737570706F72742061743A2068747456
:100EC000703A2F2F33647072696E74626F6172644E
:100ED0002E636F6D2F666F72756D2E7068700A00CD
:100EE0004D3438205A2D50726F62652052657065FE
:100EF00061746162696C69747920746573742E2001
:100F0000202056657273696F6E20322E30300A00D1
:100F10003F566572626F7365204C6576656C206E16
:100F20006F7420706C61757361626C652E0A0025A8
:100F300069206D696E2C2025692073656300473236
:100F40003820583020593000627566666572206F0F
:100F500075743A2000427566666572313A20004326
:100F6000617264204E616D653A2000456E642066B2
:100F7000696C65206C69737400426567696E2066F0
:100F8000696C65206C697374000A00205A3A20006D
:100F900020593A200020583A200042656400473624
:100FA0003920414354495641544544000A00207AAF
:100FB0003A200020793A200020783A2000426564E7
:100FC000000A0020616E7469686F726172690A3A82
:100FD000200020686F726172690A20002F38007645
:100FE0006F6C746573200020566F6C74657320639A
:100FF0006172676F6C20333A200020616E746968FB
:101000006F726172690A3A200020686F72617269BA
:101010000A20002F3800766F6C746573200020560C
:101020006F6C74657320636172676F6C20323A2055
:10103000000A0020647A333A200020647A323A2091
:10104000005430005430000056756974656E733377
:101050003A2020004170726F78333A202000566F9A
:101060006C746573333A2020000056756974656EA0
:1010700073323A2020004170726F78323A2020009B
:10108000566F6C746573323A20200056616C6F7233
:1010900020645A333A20200056616C6F7220645AE3
:1010A000323A2020007A335F313A20007A325F31C1
:1010B0003A20005A7363726F6C6C5F313A20007A89
:1010C000335F303A20007A325F303A20005A73633F
:1010D000726F6C6C5F303A2000706C616E654E6FA1
:1010E000726D616C5F312E7A3A2000706C616E65B2
:1010F0004E6F726D616C5F312E793A2000706C61B9
:101100006E654E6F726D616C5F312E783A200070A3
:101110006C616E654E6F726D616C5F302E7A3A2035
:1011200000706C616E654E6F726D616C5F302E7910
:101130003A2000706C616E654E6F726D616C5F304D
:101140002E783A20005A76616C7565206166746568
:101150007220686F6D653A00486F6D6520582F5991
:10116000206265666F7265205A00537461727469FB
:101170006E67205A2043616C6962726174696F6E98
:101180002057697A617264004D383400537461727B
:1011900074696E6720592043616C69627261746979
:1011A0006F6E2057697A617264004D383400537451
:1011B000617274696E6720582043616C6962726164
:1011C00074696F6E2057697A617264004578747231
:1011D000756465722072656C656173656420616316
:1011E000746976653A20005A205349474D4120489A
:1011F0006F6D656400457874727564657220616313
:10120000746976653A20002200556E6B6E6F776EBA
:1012100020636F6D6D616E643A202200504F534918
:1012200054494F4E20484F4D453A200020004D6F05
:10123000766520746F3A2000473932204530205AB5
:10124000302052256400256920686F75727320254F
:1012500069206D696E7574657300446F6E652070EA
:1012600072696E74696E672066696C65004D333310
:1012700000706175736520646574656374656420CE
:101280000A00473639005072696E746572207374B3
:101290006F707065642064756520746F206572726C
:1012A0006F72732E204669782074686520657272AB
:1012B0006F7220616E6420757365204D3939392055
:1012C000746F20726573746172742E202854656D7A
:1012D00070657261747572652069732072657365DB
:1012E000742E2053657420697420616674657220C1
:1012F00072657374617274696E6729006F6B004E5A
:101300006F204C696E65204E756D6265722077693D
:10131000746820636865636B73756D2C204C617312
:1013200074204C696E653A20004E6F2043686563F7
:101330006B73756D2077697468206C696E65206EBB
:10134000756D6265722C204C617374204C696E65FA
:101350003A2000636865636B73756D206D69736D0A
:10136000617463682C204C617374204C696E653A1B
:1013700020004C696E65204E756D62657220697340
:10138000206E6F74204C617374204C696E65204E22
:10139000756D6265722B312C204C617374204C6921
:1013A0006E653A20004D3131300053757266696EBA
:1013B000672030200A0043616C6962726174696F52
:1013C0006E205375636365737366756C2C20676F4D
:1013D000696E67206261636B20746F206D61696E56
:1013E000206D656E75200A005430004D3834205849
:1013F0002059205A2045002534643A252E3264684D
:10140000202F202564670000466F726D2032210076
:101410002564206974656D73005265616479207478
:101420006F20496E736572742F52656D6F766520FB
:101430000A0074656D70206F6B200A0025642525F5
:10144000002533642025634300253364202563434E
:1014500000253364256343202F202533642563430F
:1014600000253364256343202F20253364256343FF
:1014700000253364256343202F20253364256343EF
:10148000002520336420252500256420682025645C
:10149000206D002520336420252500253264202579
:1014A00063430025336420256343002533642025EE
:1014B000634300526561647920746F20496E7365DF
:1014C00072742F52656D6F7665200A0074656D70B9
:1014D000206F6B200A0025336420256343002533E9
:1014E0006420256343002053544F50205052494EEE
:1014F00054200A00473238205830205930004D33EC
:101500003500526573756D65206465746563746537
:1015100064200A0047373000EFBFBD524553554D98
:101520004521200A00EFBFBD504155534521200AF7
:10153000002533642025634300253364202563435D
:10154000002533642025634300253364202563434D
:10155000002533642025634300253364202563433D
:10156000002533642025634300253364202563432D
:101570000025336420256343005052494E542053C4
:10158000455454494E4753200A00446F6E652073FA
:101590006176696E672066696C652E006F6B004D21
:1015A00032390067636F646520666F756E64004250
:1015B000434E3344205369676D61007374617274E4
:1015C0000030312D312E322E355F6465764C00228D
:1015D00000656E717565696E672022002200656E78
:1015E000717565696E672022002533642025634389
:1015F000002533642025634300456E7465722069BD
:101600006E207075726765206D6F6465200A0053E7
:10161000757266696E672031200A005375726669BB
:101620006E672030200A0047333400494E464F3A57
:10163000204245442043414C4942202D200053750F
:101640007266696E672030200A00473238205830B1
:101650002059300054300053757266696E6720302F
:10166000200A004734330047343300473431004701
:1016700034300047343300473433004734310047B7
:101680003430004D3834004D3834004D3834005A71
:1016900032204F66667365743A20004F4B207365A5
:1016A000636F6E6420457874727564657221005AA8
:1016B00020706F736974696F6E3A20005A20706FE2
:1016C000736974696F6E3A20004D3834005A3120C6
:1016D00050726F6265206F66667365743A20004FC2
:1016E0004B206669727374204578747275646572F4
:1016F00021200A005A20706F736974696F6E3A2056
:10170000005A20706F736974696F6E3A20004361EC
:101710006C63756C75733A20200043616C63756C63
:1017200075733A20200043616C63756C75733A20C1
:10173000200043616C63756C75733A20200043612F
:101740006C63756C75733A20200043616C63756C33
:1017500075733A20200043616C63756C75733A2091
:10176000200043616C63756C75733A2020004361FF
:101770006C63756C75733A20200043616C63756C03
:1017800075733A20200043616C63756C75733A2061
:10179000200043616C63756C75733A2020004361CF
:1017A0006C63756C75733A20200043616C63756CD3
:1017B00075733A20200043616C63756C75733A2031
:1017C000200043616C63756C75733A20200043619F
:1017D0006C63756C75733A20200043616C63756CA3
:1017E00075733A20200043616C63756C75733A2001
:1017F000200043616C63756C75733A20200043616F
:101800006C63756C75733A20200043616C63756C72
:1018100075733A20200043616C63756C75733A20D0
:10182000200043616C63756C75733A20200043613E
:101830006C63756C75733A20200043616C63756C42
:1018400075733A20200043616C63756C75733A20A0
:10185000200043616C63756C75733A20200043610E
:101860006C63756C75733A20200043616C63756C12
:1018700075733A20200043616C63756C75733A2070
:10188000200043616C63756C75733A2020004361DE
:101890006C63756C75733A20200043616C63756CE2
:1018A00075733A20200046696C616D656E74205234
:1018B000656D6F7665642C20474F494E4720544F25
:1018C00020434C45414E20544845204E4F5A5A4CD7
:1018D00045200A0046696C616D656E7420496E731F
:1018E00065727465642F52656D6F7665642C207225
:1018F000657475726E696E6720746F204D61696ED4
:10190000204D656E75200A0054300046696C616D8B
:10191000656E7420496E7365727465642F52656DCF
:101920006F7665642C20676F696E6720746F204343
:10193000616C6962200A0054300046696C616D6513
:101940006E7420496E7365727465642F52656D6F95
:101950007665642C20676F696E6720746F207468E9
:1019600065206E6578742065787472756465722080
:101970000A0054300043616C6962726174696F6E71
:10198000205375636365737366756C2C20676F698C
:101990006E67206261636B20746F206D61696E20D9
:1019A0006D656E75200A005430004A756D70206FA9
:1019B0007665722073637265773120616E6420737F
:1019C0006372657732200A004A756D70206F766504
:1019D0007220736372657731200A00473334004701
:1019E0003334004733340054300047333400494E19
:1019F000464F3A204245442043414C4942202D2045
:101A00000036302064656772656573200A00496E90
:101A100073657274696E67203A2020200A0053753E
:101A20007266696E672030200A0053757266696EAF
:101A3000672030200A0053757266696E6720302077
:101A40000A00253364202563430025336420256381
:101A500043002533642025634300456E746572207E
:101A6000696E207075726765206D6F6465200A006D
:101A70002533642025634300253364202563430018
:101A80002533642025634300253364202563430008
:101A900025336420256343002533642025634300F8
:101AA00025336420256343002533642025634300E8
:101AB00046696C616D656E742052656D6F76656404
:101AC0002C20474F494E4720544F20434C45414E10
:101AD00020544845204E4F5A5A4C45200A00537511
:101AE0007266696E672030200A0053757266696EEF
:101AF000672030200A0054300054652070696C6CF7
:101B0000650053757266696E672030200A004D3398
:101B1000340053757266696E672030200A004D32BA
:101B200034004D32332025730053757266696E6739
:101B30002030200A0053656C6563742034005365BF
:101B40006C65637420330053656C656374203200E8
:101B500053656C65637420310053656C6563742054
:101B600030004265645F436F6D70656E73617469C8
:101B70006F6E5F4C696E65735F53656C656374650A
:101B8000645B325D004265645F436F6D70656E73C8
:101B90006174696F6E5F4C696E65735F53656C65E8
:101BA000637465645B315D004265645F436F6D70B3
:101BB000656E736174696F6E5F4C696E65735F53B8
:101BC000656C65637465645B305D0053757266694E
:101BD0006E672030200A0053554343455353200A73
:101BE00000253364202563430025336420256343A7
:101BF0000025336420256343002533642025634397
:101C00000025336420256343002533642025634386
:101C10000025336420256343002533642025634376
:101C2000002533642025634300496E73657274692F
:101C30006E67203A2020200A002533642025634364
:101C40000025336420256343002533642025634346
:101C500000456E74657220696E207075726765202C
:101C60006D6F6465200A00FF01FF0000A0400000C6
:101C7000A04000000040CDCC98430080934300007A
:101C80005243000000000080934300000000CDCCD0
:101C9000984300809343000052430000000000007E
:101CA0000000000000006563686F3A004572726FC3
:101CB000723A0020636F6C64206578747275736982
:101CC0006F6E2070726576656E746564006563681A
:101CD0006F3A003B202020506C6173746963207759
:101CE00065696768743A2025642E256467003B4661
:101CF000696C616D656E7420757365643A20256446
:101D00002E25646D2025642E256467003B46696C92
:101D1000616D656E7420757365643A20256C752E4F
:101D2000256C756D003B2020204275696C64207421
:101D3000696D653A20256420686F757220256420DE
:101D40006D696E757465003B2020204275696C6476
:101D50002074696D653A20256420686F75722025AE
:101D600064206D696E75746573003B202020427598
:101D7000696C642074696D653A20256420686F750C
:101D80007273202564206D696E757465003B202098
:101D9000204275696C642074696D653A2025642061
:101DA000686F757273202564206D696E7574657334
:101DB000003B5072696E742074696D653A20256429
:101DC000206D696E75746573003B5072696E742086
:101DD00074696D653A20256420686F7572202564EA
:101DE000206D696E75746573003B5072696E742066
:101DF00074696D653A20256420686F7572732025BB
:101E000064206D696E75746573003B5072696E7401
:101E10002074696D653A20256420646179732025FA
:101E20006420686F7572202564206D696E75746515
:101E300073003B5072696E742074696D653A202599
:101E4000642064617920256420686F7572202564A0
:101E5000206D696E75746573003B5072696E7420F5
:101E600074696D653A2025642064617920256420B9
:101E7000686F757273202564206D696E7574657363
:101E8000003B5072696E742074696D653A20256458
:101E9000206461797320256420686F757273202532
:101EA00064206D696E75746573003B54494D453A05
:101EB00020256C64003B20472D436F6465206765D7
:101EC0006E6572617465642062792053696D706C0F
:101ED00069667933442852292056657273696F6E9A
:101EE000202564007C3C3E5E2B3D3F2F5B5D3B2C00
:101EF0002A225C00205A3A0020593A0020583A0021
:101F0000656E6473746F7073206869743A2000247E
:101F1000F4D43050C38E20C2A24017828B701112AD
:101F20007A910D816CD90AA861E108C758660761EA
:101F30005143061E4B5D05C145A7041A4111040912
:101F40003D9803713931034036DB0265339102D489
:101F5000305402802E1D02632CEE01752AC501B09B
:101F600028A001102781018F2564012B244B01E05B
:101F7000223401AC211F018D200D01801FFC008443
:101F80001EED00971DDF00B81CD200E61BC6002026
:101F90001BBC00641AB200B219A8000A19A0006A9A
:101FA000189900D117910040178B00B516840031A5
:101FB000167E00B31579003A157300C7146F0058E8
:101FC000146A00EE1366008813630025135E00C7D1
:101FD000125B006C12570015125400C111510070B1
:101FE000114F0021114B00D61049008D10470046BB
:101FF00010440002104200C00F4000800F3E00421B
:102000000F3C00060F3B00CB0E3800930E37005CF0
:102010000E3500270E3400F30D3200C10D31009053
:102020000D3000600D2E00320D2D00050D2C00D955
:102030000C2B00AE0C2900850C29005C0C27003508
:102040000C27000E0C2600E80B2400C40B2400A073
:102050000B23007D0B23005A0B2100390B210018A4
:102060000B2000F80A1F00D90A1E00BB0A1E009DA3
:102070000A1D00800A1D00630A1C00470A1B002C71
:102080000A1B00110A1A00F7091A00DD091900C419
:10209000091900AB091900920917007B09180063A0
:1020A0000917004C09160036091600200916000A07
:1020B000091500F5081500E0081400CC081400B854
:1020C000081400A4081400900813007D0812006B87
:1020D00008130058081200460812003408110023A3
:1020E0000811001208110001081100F0071000E0AB
:1020F000071000D0071000C0071000B0070F00A1A4
:1021000007100091070E0083070F0074070F00658A
:10211000070E0057070E0049070E003B070D002E63
:10212000070E0020070D0013070D0006070D00F92C
:10213000060C00ED060D00E0060C00D4060C00C8ED
:10214000060C00BC060C00B0060C00A4060B00999F
:10215000060C008D060B0082060B0077060B006C48
:10216000060B0061060A0057060B004C060A0042E7
:10217000060A0038060A002E060A0024060A001A7B
:10218000060A001006090007060A00FD050900F40A
:10219000050900EB050900E2050900D9050900D091
:1021A000050900C7050900BE050900B5050800AD11
:1021B000050800A50509009C050800940508008C89
:1021C000050800840508007C050800740508006CFB
:1021D000050700650508005D050700560508004E67
:1021E00005070047050700400508003805070031CE
:1021F0000507002A050700230507001C0506001631
:102200000507000F0507000805060002050700FB8B
:10221000040600F5040700EE040600E8040600E2E8
:10222000040700DB040600D5040600CF040600C93D
:10223000040600C3040600BD040600B7040600B18E
:10224000040500AC040600A6040600A00405009BDB
:1022500004060095040500900406008A0405008524
:10226000040500800406007A04050075040500706A
:102270000405006B04050066040500610405005CAC
:1022800004050057040500520405004D04050048EC
:10229000040500430405003E0404003A040500352B
:1022A000040500300404002C040500270404002366
:1022B0000405001E0404001A04040016040500119D
:1022C0000404000D040400090405000404040000D3
:1022D000040400FC030400F8030400F4030400F009
:1022E000030400EC030400E8030400E4030400E03A
:1022F000030400DC030400D8030400D4030400D06A
:10230000030400CC030400C8030300C50303002436
:10231000F404D9201BC40C5C0E9804C4095F026548
:10232000077101F405F900FB04B30048048700C1FC
:102330000369005803550003034500BE023A0084B8
:1023400002310053022A002902250004022000E481
:10235000011C00C8011900AF011700980114008486
:10236000011300710110006101100051010E0043C2
:10237000010D0036010B002B010B0020010B001595
:102380000109000C01090003010800FB000800F32B
:10239000000800EB000700E4000600DE000600D89D
:1023A000000600D2000600CC000500C7000500C2F0
:1023B000000500BD000400B9000400B5000400B130
:1023C000000400AD000400A9000400A5000300A261
:1023D0000003009F0004009B000300980003009589
:1023E00000020093000300900003008D0002008BA8
:1023F00000030088000200860002008400030081C0
:102400000002007F0002007D0002007B00020079D4
:1024100000020077000100760002007400020072E2
:10242000000100710002006F0002006D0001006CED
:102430000002006A000100690002006700010066F6
:1024400000010065000100640002006200010061FB
:10245000000100600001005F0002005D0001005CFF
:102460000001005B0001005A000100590001005802
:102470000001005700010056000100550001005402
:102480000001005300000053000100520001005100
:10249000000100500001004F0001004E0000004EFE
:1024A0000001004D0001004C0001004B0000004BFA
:1024B0000001004A000100490001004800000048F6
:1024C00000010047000100460000004600010045F1
:1024D00000000045000100440001004300000043EB
:1024E00000010042000000420001004100000041E4
:1024F000000100400001003F0000003F0001003EDD
:102500000000003E0001003D0000003D0001003CD5
:102510000000003C0000003C0001003B0000003BCC
:102520000001003A0000003A0001003900000039C3
:1025300000010038000000380000003800010037BA
:1025400000000037000100360000003600000036B1
:1025500000010035000000350000003500010034A6
:10256000000000340000003400010033000000339C
:102570000000003300010032000000320000003291
:102580000001003100000031000000310001003086
:1025900000000030000000300001002F0000002F7C
:1025A0000000002F0000002F0001002E0000002E70
:1025B0000000002E0001002D0000002D0000002D65
:1025C0000000002D0001002C0000002C0000002C59
:1025D0000000002C0001002B0000002B0000002B4D
:1025E0000000002B0001002A0000002A0000002A41
:1025F0000000002A00010029000000290000002935
:102600000000002900000029000100280000002827
:10261000000000280000002800000028000100271A
:10262000000000270000002700000027000000270E
:102630000001002600000026000000260000002601
:1026400000000026000100250000002500000025F4
:1026500000000025000000250000002500010024E6
:1026600000000024000000240000002400000024DA
:1026700000010023000000230000002300000023CD
:1026800000000023000000230000002300010022BE
:1026900000000022000000220000002200000022B2
:1026A00000000022000100210000002100000021A4
:1026B0000000002100000021000000210000002196
:1026C0000001002000000020000000200000002089
:1026D000000000200000002000000020000000207A
:1026E0000001001F0000001F0000001F0000001F6D
:1026F0000000001F0000001F0000001F0001001E5E
:102700000000001E0000001E0000001E000000650A
:1027100063686F3A004879737465726573697320F2
:1027200074656D7065726174757265005468657268
:102730006D616C2072756E617761792070726F7453
:10274000656374696F6E2062792048656174657293
:102750005F49443A004572726F72283833293A2033
:1027600042656420746865726D6973746F72206E5F
:102770006F74206465746563746564004572726F7C
:1027800072283832293A2052696768742074686563
:10279000726D6973746F72206E6F742064657465F6
:1027A00063746564004572726F72283831293A206B
:1027B0004C65667420746865726D6973746F7220FD
:1027C0006E6F74202064657465637465640050499D
:1027D00044204175746F74756E652066696E697307
:1027E0006865642100504944204175746F74756EAA
:1027F00065206661696C6564212074696D656F751B
:10280000740020403A006F6B20543A006F6B2042F6
:102810003A00504944204175746F74756E652066A6
:1028200061696C6564212054656D706572617475B1
:10283000726520746F6F206869676800204B643A86
:102840002000204B693A2000204B703A20002043A2
:102850006C61737369632050494420002054753AB9
:102860002000204B753A2000206D61783A2000202E
:102870006D696E3A200020643A200020626961731D
:102880003A2000504944204175746F74756E65207C
:1028900066696E6973686564212050757420746878
:1028A00065206C617374204B702C204B6920616E25
:1028B00064204B6420636F6E7374616E7473206662
:1028C000726F6D2061626F766520696E746F204350
:1028D0006F6E66696775726174696F6E2E680050FD
:1028E0004944204175746F74756E65206661696C2A
:1028F0006564212074696D656F75740020403A002D
:102900006F6B20543A006F6B20423A0050494420CC
:102910004175746F74756E65206661696C656421BC
:102920002054656D706572617475726520746F6F87
:10293000206869676800204B643A2000204B693AA0
:102940002000204B703A200020436C617373696350
:102950002050494420002054753A2000204B753AFD
:102960002000206D61783A2000206D696E3A2000C9
:1029700020643A200020626961733A200045727237
:102980006F723A0070012C0190012701B001220101
:10299000C0011D01F00118011002130130020E01E7
:1029A0006002090190020401C002FF000003FA0066
:1029B0004003F5008003F000D003EB002004E600A4
:1029C0007004E100E004DC004005D700C005D2003F
:1029D0004006CD00D006C8008007C3003008BE0006
:1029E000F008B900C009B400B00AAF00B00BAA00EB
:1029F000D00CA500000EA000500F9B00C010960048
:102A00005012910000148C00C0158700B01782008E
:102A1000B0197D00D01B7800001E730040206E00AE
:102A200090226900F024640040275F0090295A003A
:102A3000E02B5500102E500020304B001032460085
:102A4000E033410090353C001037370070383200D9
:102A5000A0392D00B03A2800A03B2300603C1E00A6
:102A6000103D1900903D1400103E0F00703E0A000A
:102A7000C03E0500003F000000000A0B02090C0DDB
:102A80000E08070304010000000000000000000021
:102A90000000000000000000000000000000000036
:102AA00000000000121110000000000000000000F3
:102AB0000000000000000000000000000000010213
:102AC0001020200808102040102040800201020140
:102AD00008040201010204081020408080402010F8
:102AE0000804020180040201804020100804020151
:102AF00008040201010204081020408001020408B9
:102B00001020408005050505070508080808020291
:102B100002020A0A08080404040401010101010177
:102B200001010303030303030303040707070C0C5A
:102B30000C0C0C0C0C0C0202020206060606060621
:102B400006060B0B0B0B0B0B0B0B000020002300DE
:102B5000260029002C002F00320000010000030194
:102B60000601090100002200250028002B002E008C
:102B70003100340002010000050108010B010000D2
:102B80002100240027002A002D003000330001011D
:102B90000000040107010A014E414E494E495459B3
:102BA000494E46CDCCCC3D0AD7233C17B7D1387718
:102BB000CC2B329595E6241FB14F0A00002041002E
:102BC00000C84200401C4620BCBE4CCA1B0E5AAE78
:102BD000C59D746364696E6F70737578585B00008F
:102BE000BE16B6440801F40026011C0111241FBEC4
:102BF000CFEFD1E2DEBFCDBF00E00CBF17E0A0E019
:102C0000B2E0E0E1FEEA03E00BBF02C007900D92E4
:102C1000A437B107D9F72AE1A4E7B7E001C01D92B4
:102C2000A137B207E1F71BE2CAEEDBE200E006C023
:102C300022970109FE010BBF0F9433CBC03ED10791
:102C400080E00807A9F70F94F8C10D94F6D60C940C
:102C500000008091A30790E02091A407821B9109B6
:102C600008952091A4078091A307281750F4E22F1C
:102C7000F0E0EB55F84F808190E02F5F2093A407A0
:102C800008958FEF9FEF0895E091A4078091A30727
:102C9000E81730F4F0E0EB55F84F808190E00895AC
:102CA0008FEF9FEF08950895CF92DF92EF92FF92FA
:102CB0000F931F93CF93DF937C01CB018A01209167
:102CC0008007222389F0EB016B01C40ED51ECC15C1
:102CD000DD0561F06991D701ED91FC910190F081E2
:102CE000E02DC7011995F3CF642F4BD0C801DF91B8
:102CF000CF911F910F91FF90EF90DF90CF900895AB
:102D0000CF93DF931F92CDB7DEB769832091800701
:102D10002223D1F020918107203240F021E030E0E1
:102D2000FC013383228380E090E014C0809182070D
:102D3000E82FF0E0ED57F84F998190838F5F8093F3
:102D400082078093810704C061E0CE01019619D00B
:102D500081E090E00F90DF91CF910895FC01138204
:102D6000128248EE53E060E070E04483558366834E
:102D700077838CE593E091838083089584E797E0DF
:102D8000EDCF613298F420913208243089F46093B9
:102D9000E707FC0189EE97E0DC012A2F281B2617A4
:102DA00018F421912D93F9CF80E0089581E00895E2
:102DB00082E0089585ED8093BC008091BC0084FD85
:102DC000FCCF10923208089585EC8093BC001092DD
:102DD000320808951F920F920FB60F9211240BB66E
:102DE0000F922F933F934F935F936F937F938F93A4
:102DF0009F93AF93BF93EF93FF938091B900887F28
:102E0000803609F49DC070F5883209F45CC090F4F6
:102E1000803109F455C038F4882309F4F3C08830B0
:102E200009F44EC0F2C0883109F44DC0803209F473
:102E30005EC0EBC0803409F469C050F4803309F4FB
:102E400056C0883309F0E1C08093C507BDDFDDC0FF
:102E5000803509F44FC0883509F45DC0883409F025
:102E6000D4C0D2C0883909F4C3C0A8F4883709F4A3
:102E700067C038F4883609F463C0803709F460C04D
:102E8000C4C0883809F4B4C0803909F45FC0803800
:102E900009F0BBC05BC0803B09F482C038F4803AC3
:102EA00009F466C0883A09F47BC0AFC0803C09F4DD
:102EB000A3C0883C09F4A0C0883B09F486C0A5C023
:102EC0008091310810C090910A08809109089817E4
:102ED00070F5E0910A0881E08E0F80930A08F0E017
:102EE000E55FF74F80818093BB0085EC82C08093C3
:102EF000C5078AC0E0910A0881E08E0F80930A0816
:102F00008091BB00F0E0E55FF74F808390910A0865
:102F1000809109086AC0E0910A0881E08E0F8093D1
:102F20000A088091BB00F0E0E55FF74F8083809155
:102F30003008811169C081E080932F0884EA5DC068
:102F400083E0809332081092C607CFCF8091C607E6
:102F5000803208F04DC0E091C60781E08E0F80936B
:102F6000C6078091BB00F0E0E953F84F8083BDCFE6
:102F70002BDF8091C607803230F4E091C607F0E085
:102F8000E953F84F10826091C60770E0E0912B087A
:102F9000F0912C0887EC97E019951092C60735C080
:102FA00084E0809332081092E8071092E707E091DE
:102FB0002D08F0912E0819958091E707811105C021
:102FC00081E08093E7071092E907E091E80781E04C
:102FD0008E0F8093E807F0E0E751F84F80818093EF
:102FE000BB009091E8078091E707981708F47DCF20
:102FF00085E88093BC0009C085EC8093BC001092EA
:10300000320803C01092C507D5DEFF91EF91BF9142
:10301000AF919F918F917F916F915F914F913F9170
:103020002F910F900BBE0F900FBE0F901F90189511
:1030300040E050E0BA010D940490FC011482178224
:10304000138212828DE496E0918380830895DC01DF
:10305000ED91FC910190F081E02D19942DE436E082
:10306000FC01318320832781222319F004960D94DB
:10307000E7900895CF92DF92EF92FF920F931F9304
:10308000CF93DF93EC01895A9F4FD7DFCE01885849
:103090009F4FD3DF7E0127E9E20EF11C87016E010D
:1030A00033E3C31A3EEFD30AC801C7DF015E1F4FE7
:1030B0000C151D05C9F7FE01E153FE4F89E181831F
:1030C00014823596178ACE018E509E4FB6DFFE01D0
:1030D000ED55FD4F108211821282138238961082B4
:1030E0001182128213821A821B821C821882198218
:1030F0006E0189E5C81A8DEFD80AF6011082118297
:1031000012821382F80111821082FE01EF5EFD4FE0
:10311000108286E391E0F7019C011192215030402A
:10312000E1F7FE01E155FD4F81E08083CB5ADF4F8F
:10313000198218820F94BBBC68577C4E8F4F9F4FEB
:10314000F6016083718382839383DF91CF911F9116
:103150000F91FF90EF90DF90CF900895FC0120E059
:103160003EE2DB014C91403241F0283011F43083D3
:103170003196DB014C91408331962F5F6F5F7F4F1B
:103180002B3079F7108208952BE1FB013496DC0196
:10319000149601900D922A95E1F7FB01228133816B
:1031A000FC01338322832DE436E0318320830895AC
:1031B0002F923F924F925F926F927F928F929F9247
:1031C000AF92BF92CF92DF92EF92FF920F931F9335
:1031D000CF93DF93CDB7DEB7CA58D1090FB6F894B5
:1031E000DEBF0FBECDBF8C016B017A01CA57DF4F26
:1031F0001882C658D04084E0E80EF11C180192E114
:10320000290E311CF801EC5AFF4FC957DF4FF983E3
:10321000E883C758D0403801F5E06F0E711C5801A3
:1032200080E5A81A8DEFB80A48019EE4891A9DEF3F
:10323000990A80E4482E512C4C0E5D1EE4E04E0E9F
:10324000511CA101BE016F5F7F4FC7010F94518FC9
:1032500018160CF00BC12C85322F3871303109F063
:1032600097C0F501808191810197029708F490C081
:10327000BE016F5F7F4FCE0187589F4F6FDFA096D3
:103280001FAEA097F6018081811107C068E673E048
:10329000CE01815A9F4F0F945DD0B601CE01815A65
:1032A0009F4F0F945DD0BE0167587F4FCE01815A6A
:1032B0009F4F0F945DD068E673E0CE01815A9F4F17
:1032C0000F945DD0CE01805C9F4FB7DE21E0AE0150
:1032D00047585F4FB701C2010F94DE92811142C07F
:1032E000F50180819181892B09F03CC0EEEAF4E080
:1032F00064919F016623F9F0772767FD70958BE253
:1033000099E1C757DF4F2883C958D040C657DF4FD0
:103310003883CA58D0409BDEC757DF4F2881C95831
:10332000D040C657DF4F3881CA58D0402F5F3F4F3B
:10333000F9016491DFCF6AE673E08BE299E10F94C3
:1033400042C26AE070E08BE299E181DEBE0167581B
:103350007F4F8BE299E10F9442C26AE070E08BE20A
:1033600099E175DEBE01605C7F4FCE0181960CDF76
:10337000AE014F5D5F4FBE01615A7F4FC80118DF3C
:10338000CE0181966BDECE01805C9F4F67DE59CF08
:103390008981882309F46AC0853E09F452CF8E32B0
:1033A00009F44FCF8F3509F44CCFF8018289882377
:1033B00031F08E3209F445CF8F3509F442CF23FD29
:1033C00040CF81E0303109F080E0C957DF4FE8811C
:1033D000F981C758D0408083811108C0898587341E
:1033E00009F02FCF8A858E3709F42BCFBE016F5F8E
:1033F0007F4FC301B3DEF50180819181009781F495
:10340000B6018BE299E10F9442C2B3018BE299E1DC
:103410000F9442C26AE070E08BE299E118DE11CFAE
:103420008130910539F4F401808191810196918375
:10343000808307CF029709F004CFCA57DF4FF88186
:10344000C658D0402F2F30E0F40180819181281799
:10345000390761F0CA57DF4FF881C658D040FF5F87
:10346000CA57DF4FF883C658D040EBCEC657DF4F60
:103470000FB6F894DEBF0FBECDBFDF91CF911F9185
:103480000F91FF90EF90DF90CF90BF90AF909F9003
:103490008F907F906F905F904F903F902F90089506
:1034A0000F931F93CF93DF93CDB7DEB76F970FB610
:1034B000F894DEBF0FBECDBF8C01FC01E055FD4F7F
:1034C00011821082855A9F4FB3DDB801695A7F4F30
:1034D000CE01019659DEAE014F5F5F4F67E677E0A0
:1034E000C80166DECE010196B9DD6F960FB6F8947D
:1034F000DEBF0FBECDBFDF91CF911F910F91089519
:103500002BE1FB013496DC01149601900D922A9573
:10351000E1F7FB0122813381FC013383228308958B
:10352000EF92FF920F931F93CF93DF93EC011C82D6
:10353000FC01E25AFF4F8081882329F0CE01855A91
:103540009F4F0F94E7907E0181E3E81A8EEFF80A0F
:1035500045E360E0C7010F94688B81113AC0EEEA41
:10356000F4E064918F01662359F0772767FD709529
:103570008BE299E16CDD0F5F1F4FF8016491F3CF8F
:10358000E1EAF4E064918F01662359F0772767FD43
:1035900070958BE299E15BDD0F5F1F4FF80164913D
:1035A000F3CF6AE070E08BE299E151DD8E01095AB8
:1035B0001F4FB801CE0188589F4FA2DFCA58DF4F76
:1035C00019830883DF91CF911F910F91FF90EF90A6
:1035D00008958E010C521E4F41E0B701C8010F94AF
:1035E000D19881112AC040E0B701C8010F94D19849
:1035F000811123C0E4EBF4E064918F01662359F05C
:10360000772767FD70958BE299E121DD0F5F1F4FF2
:10361000F8016491F3CFEEE8F4E064918F01662342
:1036200009F4BFCF772767FD70958BE299E10FDD35
:103630000F5F1F4FF8016491F2CFB801CE01855A98
:103640009F4F0F94F58D811123C0E4EBF4E064915A
:103650008F01662359F0772767FD70958BE299E11A
:10366000F6DC0F5F1F4FF8016491F3CFEEE7F4E053
:1036700064918F01662309F494CF772767FD7095D5
:103680008BE299E1E4DC0F5F1F4FF8016491F2CF08
:1036900081E08C83EEEAF4E064918F01662359F0B7
:1036A000772767FD70958BE299E1D1DC0F5F1F4FA3
:1036B000F8016491F3CFE3E7F4E064918F016623AE
:1036C00009F46FCF772767FD70958BE299E1BFDC36
:1036D0000F5F1F4FF8016491F2CFFC011282148238
:1036E00008950F931F93CF93DF93EC018C81882370
:1036F00011F1EAE6F4E064918F01662359F077272F
:1037000067FD70958BE299E1A2DC0F5F1F4FF80116
:103710006491F3CF4091720B5091730B6091740BD5
:103720007091750B22E030E08BE299E10F941CC49C
:1037300081E08A831B82DF91CF911F910F910895C1
:10374000FC018281882319F0128281E0838308952D
:10375000AF92BF92CF92DF92EF92FF920F931F939F
:10376000CF93DF931F92CDB7DEB78C018FE2FB01C1
:1037700081935F01D12C41E07801F3E3EF1AFEEF72
:10378000FF0A9FE1C92E2D2D30E0F7018081918144
:1037900028173907D8F4C29EC001C39E900D11248A
:1037A00085569F4FB501800F911F49830F949C8DC3
:1037B000C50149815C010196F5012081222321F098
:1037C0004D3810F44F5FF6CFD394DDCF47FD11C0D5
:1037D000B501C8018A509E4F0F90DF91CF911F9184
:1037E0000F91FF90EF90DF90CF90BF90AF900D942E
:1037F0009C8DF50110820F90DF91CF911F910F9159
:10380000FF90EF90DF90CF90BF90AF9008954F92D0
:103810005F926F927F928F929F92AF92BF92CF9260
:10382000DF92EF92FF920F931F93CF93DF93CDB769
:10383000DEB7AC970FB6F894DEBF0FBECDBF7C01EC
:103840005B01FC018481882309F4F9C0C7018A5017
:103850009E4F0F94E790F7011282CE0101966C0102
:10386000ECDB270196E7490E511CC701895A9F4F8F
:10387000F20191838083F50180818F3209F077C056
:103880006FE270E0C5010F9468D08C010F5F1F4F8D
:1038900009F473C06FE270E0C8010F9468D04C0166
:1038A000009709F46BC00817190708F067C03C01BE
:1038B000601A710AA301B801CE0180960F9491D0CD
:1038C000E0E2F0E0EC0FFD1FE60DF71D1082BE01F7
:1038D000605E7F4F8BE299E10F9442C26AE070E034
:1038E0008BE299E1B4DBF2016081718161157105B0
:1038F00019F06C5F7F4F02C060E070E021E0AE0124
:10390000405E5F4FCE0105960F94DE9281112AC072
:10391000EFE4F3E064918F01662359F0772767FDA8
:1039200070958BE299E193DB0F5F1F4FF801649173
:10393000F3CFBE01605E7F4F8BE299E10F9442C2EC
:10394000EDE4F3E064918F01662309F471C07727F9
:1039500067FD70958BE299E17ADB0F5F1F4FF801ED
:103960006491F2CFF201D182C08284018FCFC7016E
:1039700088589F4FF201918380838501F2018081F5
:103980009181009711F0049602C080E090E0B801A8
:103990000F94B493882321F1EFE3F3E064915F0186
:1039A000662361F0772767FD70958BE299E14FDB25
:1039B000FFEFAF1ABF0AF5016491F2CFB8018BE2B5
:1039C00099E10F9442C26AE070E08BE299E13FDB3B
:1039D000F701E555FD4F10821182128213822DC02E
:1039E000E7E2F3E064917F01662361F0772767FDEA
:1039F00070958BE299E12BDBFFEFEF1AFF0AF701DD
:103A00006491F2CFB8018BE299E10F9442C2E5E2F2
:103A1000F3E064918F01662359F0772767FD709575
:103A20008BE299E114DB0F5F1F4FF8016491F3CF34
:103A30006AE070E08BE299E10ADBC6010FDBAC962D
:103A40000FB6F894DEBF0FBECDBFDF91CF911F91AF
:103A50000F91FF90EF90DF90CF90BF90AF909F902D
:103A60008F907F906F905F904F9008950F931F936A
:103A7000CF93DF93EC018C81882309F43CC0E3E110
:103A8000F3E064918F01662359F0772767FD709505
:103A90008BE299E1DCDA0F5F1F4FF8016491F3CFFD
:103AA000FE01E555FD4F40815181628173812AE01D
:103AB00030E08BE299E10F941EC3E1E1F3E0649101
:103AC0008F01662359F0772767FD70958BE299E1A6
:103AD000BEDA0F5F1F4FF8016491F3CFCD55DD4F74
:103AE000488159816A817B812AE030E08BE299E14B
:103AF0000F941EC310C0E1E0F3E06491EF01662370
:103B000051F0772767FD70958BE299E1A0DA219655
:103B1000FE016491F4CF6AE070E08BE299E1DF91FD
:103B2000CF911F910F9193CAAF92BF92CF92DF9224
:103B3000EF92FF920F931F93CF93DF935C01EB0102
:103B4000FB0101900020E9F78F0101501109061BCC
:103B5000170B6C01FAE0CF1AFEEFDF0AF6011082B4
:103B60006EE470E0CE010F9468D07C01009729F4D8
:103B7000F8013197EC0FFD1F0DC060E270E00F946B
:103B800068D0EC0121966AE270E0C7010F9468D01A
:103B9000FC0131978DE081838AE082831382BE012C
:103BA000C5018E509E4F0F947A95F601808188232F
:103BB00079F1E4EBF4E06491EF01662351F07727AB
:103BC00067FD70958BE299E142DA2196FE016491DE
:103BD000F4CFEBEEF2E06491EF01662351F077272A
:103BE00067FD70958BE299E132DA2196FE016491CE
:103BF000F4CF6AE070E08BE299E1DF91CF911F9101
:103C00000F91FF90EF90DF90CF90BF90AF901FCAC1
:103C1000DF91CF911F910F91FF90EF90DF90CF90A8
:103C2000BF90AF9008952F923F924F925F926F9204
:103C30007F928F929F92AF92BF92CF92DF92EF923C
:103C4000FF920F931F93CF93DF93CDB7DEB7CC5581
:103C5000D1090FB6F894DEBF0FBECDBF4C018C0169
:103C600001551D4F662339F0F8011082F40184815B
:103C700081111DC015C0F8018081882309F4ABC0F3
:103C8000F401E955FD4FC080D180E280F3800F94AC
:103C9000BBBCC616D706E806F90608F49CC0E4CFFC
:103CA000C4013EDCF4018481882309F494C07401CA
:103CB000F5E5EF0EF11CF70181818F9380818F93E1
:103CC00082EE92E09F938F938E01015C1F4F1F93B2
:103CD0000F930F94DFD00F900F900F900F900F90D5
:103CE0000F90B12CF80101900020E9F73197E01B0B
:103CF000F10BBE1684F46801CB0CD11CB7FCDA942E
:103D0000F6018081992787FD90950F9406D0F601E2
:103D10008083B394E7CFFBE58F0E911CC40188D953
:103D2000512CCE0101966C012BED622E22E0722EF9
:103D30005E0191E2A90EB11C40E050E0B601C40161
:103D40000F94518F1816DCF5412CF60101900020DC
:103D5000E9F73197EC19FD094E1674F41601240C9D
:103D6000311C47FC3A94F101808190E00F9406D019
:103D7000F10180834394E9CF8A858E37E9F245E0EB
:103D800050E0B801C6010F9483D0892BA9F61F9388
:103D90000F937F926F92BF92AF920F94DFD0C501C5
:103DA0000E94534E87ED92E00E94CF4E0F900F90ED
:103DB0000F900F900F900F9055245394BDCF51103A
:103DC00004C08FEF9FEFF70104C0F701808191815C
:103DD000019691838083C45ADF4F0FB6F894DEBFFB
:103DE0000FBECDBFDF91CF911F910F91FF90EF904C
:103DF000DF90CF90BF90AF909F908F907F906F900B
:103E00005F904F903F902F900895EF92FF920F9305
:103E10001F93CF93DF931F92CDB7DEB78C017C0148
:103E20008AE0E81A8EEFF80AC70169830F949D9023
:103E3000C7010F94E790F80110821182698166230F
:103E400009F4FDC08091A10B9091A20BA091A30B4E
:103E5000B091A40B8093360C9093370CA093380C40
:103E6000B093390C8091A50B9091A60BA091A70B54
:103E7000B091A80B8093320C9093330CA093340C28
:103E8000B093350C8091A90B9091AA0BA091AB0B2C
:103E9000B091AC0B80932E0C90932F0CA093300C10
:103EA000B093310C8091FF0A90E090932D0C809399
:103EB0002C0C4091AD0B5091AE0B6091AF0B7091FB
:103EC000B00B4093280C5093290C60932A0C7093EC
:103ED0002B0CF70180859185A285B3858093240CF6
:103EE0009093250CA093260CB093270C8091031976
:103EF000909104199093210C8093200C80910519C6
:103F0000909106199093230C8093220C80910119B3
:103F10009091021990931F0C80931E0C80915C026B
:103F200090915D0290931B0C80931A0C8091FD0A76
:103F30009091FE0A90931D0C80931C0C8091EF0BC6
:103F40008093050C8091F00B9091F10B9093070CEE
:103F50008093060C8091F20B9091F30B9093090CD7
:103F60008093080C8091F40B9091F50B90930B0CBF
:103F700080930A0C8091F60B9091F70B90930D0CA7
:103F800080930C0C8091F80B9091F90B90930F0C8F
:103F900080930E0C8091FA0B9091FB0B9093110C77
:103FA0008093100C8091FC0B9091FD0B9093130C5F
:103FB0008093120C8091FE0B9091FF0B9093150C47
:103FC0008093140C8091000C9091010C9093170C2D
:103FD0008093160C8091020C9091030C9093190C15
:103FE0008093180C0E94E164909375028093740290
:103FF0000E946F68609370027093710280937202E6
:1040000090937302EBECF2E064918F01662359F018
:10401000772767FD70958BE299E119D80F5F1F4FE5
:10402000F8016491F3CF6AE070E08BE299E10F90C0
:10403000DF91CF911F910F91FF90EF9008C80F90E3
:10404000DF91CF911F910F91FF90EF900895EF9224
:10405000FF920F931F93CF93DF93CDB7DEB76F9788
:104060000FB6F894DEBF0FBECDBF8C017C0186E792
:10407000E80EF11CC80188589F4FF7019183808397
:10408000E65CFD4F22E030E031832083329670E021
:104090007183608304960E941818F7016081718112
:1040A000CE01019671D8AE014F5F5F4F67E677E0B2
:1040B000C8017ED8CE0101960E942E186F960FB6C9
:1040C000F894DEBF0FBECDBFDF91CF911F910F914E
:1040D000FF90EF900895CF92DF92EF92FF920F93AF
:1040E0001F93CF93DF93CDB7DEB76F970FB6F894DA
:1040F000DEBF0FBECDBF8C016C0126E7C20ED11C06
:1041000088589F4FF60191838083E65CFD4F21E044
:1041100030E0318320837801FEE4EF1AFDEFFF0ADF
:10412000F7011182108204960E941818F60160812E
:104130007181CE01019628D8AE014F5F5F4F67E6CF
:1041400077E0C80135D8CE0101960E942E18F701FC
:10415000808191816F960FB6F894DEBF0FBECDBF00
:10416000DF91CF911F910F91FF90EF90DF90CF9053
:1041700008952F923F924F925F926F927F928F920B
:104180009F92AF92BF92CF92DF92EF92FF920F93E6
:104190001F93CF93DF93CDB7DEB7C457D1090FB6C6
:1041A000F894DEBF0FBECDBF8C013B01E3964FAF4D
:1041B000E397FC018481882309F42EC4E750FE4F65
:1041C0008081882309F412C12111D9C07801FFEE42
:1041D000EF1AFDEFFF0AF7018081882309F435C04B
:1041E000E4EBF4E064918F01662361F0772767FDCB
:1041F00070958BE299E10E9427180F5F1F4FF8011D
:104200006491F2CFE7E2F4E064918F01662361F0FC
:10421000772767FD70958BE299E10E9427180F5F61
:104220001F4FF8016491F2CF4AE050E061E070E086
:104230008BE299E10F94F1C26AE070E08BE299E1C0
:104240000E9427180E94C4ACE7C3EEEAF4E0649130
:104250006F01662369F0772767FD70958BE299E11E
:104260000E942718FFEFCF1ADF0AF6016491F1CF01
:10427000EEE0F4E064916F01662369F0772767FD53
:1042800070958BE299E10E942718FFEFCF1ADF0AA1
:10429000F6016491F1CFB3018BE299E10F9442C230
:1042A000E3E0F4E064916F01662369F0772767FD2E
:1042B00070958BE299E10E942718FFEFCF1ADF0A71
:1042C000F6016491F1CFF70180813DE8D32EB8016A
:1042D000D89E600D711D11246A5E7D4FC80138DAC9
:1042E000F7018081B801D89E600D711D11246A5EAE
:1042F0007D4F8BE299E10F9442C2EDEFF3E06491C0
:104300006F01662369F0772767FD70958BE299E16D
:104310000E942718FFEFCF1ADF0AF6016491F1CF50
:104320006801F5E5CF1AFDEFDF0AF6014081518102
:10433000628173812AE030E08BE299E10F941EC321
:104340006AE070E08BE299E10E942718F701208172
:10435000F80184E0289FE00DF11D1124AF014E5EAD
:104360005D4FF60180819181A281B381FA01808342
:104370009183A283B3832F5FF701208331C0EEEADC
:10438000F4E064917F01662369F0772767FD7095FB
:104390008BE299E10E942718FFEFEF1AFF0AF7015D
:1043A0006491F1CFECEEF3E064917F01662369F054
:1043B000772767FD70958BE299E10E942718FFEF40
:1043C000EF1AFF0AF7016491F1CFB3018BE299E193
:1043D0000F9442C26AE070E08BE299E10E942718D4
:1043E000C8018A509E4F0F94E79035C0F801EF5EE8
:1043F000FD4F1082EEEAF4E064917F01662369F0DC
:10440000772767FD70958BE299E10E942718FFEFEF
:10441000EF1AFF0AF7016491F1CFEBEDF3E064913D
:104420007F01662369F0772767FD70958BE299E13C
:104430000E942718FFEFEF1AFF0AF7016491F1CFEE
:10444000B3018BE299E10F9442C26AE070E08BE223
:1044500099E10E942718F80112822E01F0E24F0E16
:10446000511CC2010E941D18180186E7280E311C3C
:10447000C801895A9F4FF10191838083F3018081A4
:104480008F3209F04FC16FE270E0C3010F9468D022
:1044900001967C01C80180559D4FE0969FAF8EAF7D
:1044A000E097F801EE54FD4FAC96FFAFEEAFAC973E
:1044B0004E01FFE38F0E911C8B5A9240AE969FAF38
:1044C0008EAFAE97E114F10409F49DC16FE270E084
:1044D000C7010F9468D06C01009709F495C1E816E4
:1044E000F90608F091C15C01AE18BF08A501B7013B
:1044F000CE01835A9F4F0F9491D0EDE5F0E0EC0F81
:10450000FD1FEA0DFB1D1082BE01635A7F4F8BE237
:1045100099E10F9442C26AE070E08BE299E10E9457
:104520002718F101608171816115710519F06C5FC7
:104530007F4F02C060E070E021E0AE01435A5F4F60
:10454000CE0184960F94DE9281112CC0E7ECF3E04B
:1045500064918F01662361F0772767FD70958BE288
:1045600099E10E9427180F5F1F4FF8016491F2CF65
:10457000BE01635A7F4F8BE299E10F9442C2E5EC92
:10458000F3E064918F01662309F43DC2772767FD4C
:1045900070958BE299E10E9427180F5F1F4FF80179
:1045A0006491F1CFF101518240827601FFEFEF1A61
:1045B000FF0A80916E0C811185CF81E090E0E0963A
:1045C000EEADFFADE09791838083AC96EEADFFAD8D
:1045D000AC9711821082CE0184960E941818B20105
:1045E000CE0101960E94C418AE014F5F5F4F67E68F
:1045F00077E0C8010E94D818CE0101960E942E18BB
:10460000AC96EEADFFADAC970190F081E02DE29657
:10461000FFAFEEAFE2978EE1F40111928A95E9F7D0
:10462000AE96FFADAE97FF93AD968FADAD978F93DE
:104630009F928F920F94B1D00F900F900F900F9088
:104640006401F6018081882349F0992787FD9095C0
:104650000F9406D0F60181936F01F3CFA12CB12CFA
:10466000B701C4010F9473D0892B09F454C0E296AA
:104670008EAD9FADE297A816B9060CF04CC082E053
:1046800090E0E096EEADFFADE09791838083AC962D
:10469000EEADFFADAC97B182A082F1018081918136
:1046A00004960E941818B201CE0101960E94C41807
:1046B000AE014F5F5F4F67E677E0C8010E94D818F0
:1046C000CE0101960E942E18F4018EE111928A9576
:1046D000E9F7AE969FADAE979F93AD96EFADAD97D0
:1046E000EF939F928F920F94B1D00F900F900F90F5
:1046F0000F906401F6018081882349F0992787FD96
:1047000090950F9406D0F60181936F01F3CFFFEFE0
:10471000AF1ABF0AA5CFAC96EEADFFADAC97118234
:104720001082D0CEC80188589F4FF10191838083B9
:1047300080916E0C811167C0C801CDDC4C01CE01A7
:1047400001967C018EE1F70111928A95E9F75801F3
:10475000F5E0AF0EB11CBF92AF92FF92EF920F94B3
:10476000B1D00F900F900F900F906701F6018081EC
:10477000882349F0992787FD90950F9406D0F6017C
:1047800081936F01F3CFC12CD12CB301C7010F94DA
:1047900073D0892B99F1C814D90484F56C2DC80104
:1047A00056DCF7018EE111928A95E9F7BF92AF923C
:1047B000FF92EF920F94B1D00F900F900F900F9047
:1047C0009701F90180818823A9F0992787FD9095A9
:1047D000E4962FAFE497E5963FAFE5970F9406D0A8
:1047E000E4962FADE497E5963FADE597F901819307
:1047F0009F01E7CFFFEFCF1ADF0AC7CFF801EE54D2
:10480000FD4F118210827301C8018A509E4F6C01C6
:10481000E3969FADE397F10160817181992309F4DB
:10482000A0C06115710519F06C5F7F4F02C060E098
:1048300070E021E0A701C6010F94DE92882309F4FD
:1048400066C0F60181899289A389B489F801ED5582
:10485000FD4F80839183A283B383E7EBF3E0649100
:104860005F01C8018D559D4F6C01662369F0772764
:1048700067FD70958BE299E10E9427189FEFA91AB6
:10488000B90AF5016491F1CFB7018BE299E10F9478
:1048900042C2EFEAF3E064917F01662369F0772773
:1048A00067FD70958BE299E10E942718FFEFEF1AE0
:1048B000FF0AF7016491F1CFF601408151816281D5
:1048C00073812AE030E08BE299E10F941EC36AE025
:1048D00070E08BE299E10E942718F801E555FD4F41
:1048E0001082118212821382E1EAF3E064918F0157
:1048F000662309F488C0772767FD70958BE299E1FC
:104900000E9427180F5F1F4FF8016491F1CFEDE867
:10491000F3E064918F01662361F0772767FD70955E
:104920008BE299E10E9427180F5F1F4FF8016491F5
:10493000F2CFB7018BE299E10F9442C2EBE8F3E0CA
:1049400064918F01662309F45EC0772767FD709537
:104950008BE299E10E9427180F5F1F4FF8016491C5
:10496000F1CF6115710519F06C5F7F4F02C060E0F7
:1049700070E026E5A701C6010F94DE92811129C0DF
:10498000E7E7F3E064918F01662361F0772767FD25
:1049900070958BE299E10E9427180F5F1F4FF80175
:1049A0006491F2CFB7018BE299E10F9442C2E5E73F
:1049B000F3E064918F01662331F1772767FD7095ED
:1049C0008BE299E10E9427180F5F1F4FF801649155
:1049D000F2CF81E0F8018083E3E6F3E064918F0198
:1049E000662361F0772767FD70958BE299E10E945D
:1049F00027180F5F1F4FF8016491F2CFB3018BE2CC
:104A000099E10F9442C26AE070E08BE299E10E9462
:104A10002718C2010E942E18CC58DF4F0FB6F89409
:104A2000DEBF0FBECDBFDF91CF911F910F91FF90E1
:104A3000EF90DF90CF90BF90AF909F908F907F903E
:104A40006F905F904F903F902F90089521E0FC0170
:104A5000218340E08ECBAF92BF92CF92DF92EF9254
:104A6000FF920F931F93CF93DF93CDB7DEB76F976E
:104A70000FB6F894DEBF0FBECDBF8C017B01CE0117
:104A800001960E941D18F801E158FF4F80816801CE
:104A9000811104C027E5C20ED11C03C088E7C80EEF
:104AA000D11C21E0A701B6016C5F7F4FCE010596B6
:104AB0000F94DE92811136C0EEEAF4E064918F012A
:104AC000662361F0772767FD70958BE299E10E947C
:104AD00027180F5F1F4FF8016491F2CFE5EBF2E06A
:104AE00064918F01662361F0772767FD70958BE2F3
:104AF00099E10E9427180F5F1F4FF8016491F2CFD0
:104B0000B7018BE299E10F9442C26AE070E08BE258
:104B100099E10E942718CE0101960E942E188FEF6E
:104B20009FEF3AC0F801E353FE4F808191818A30B4
:104B3000910530F59C012F5F3F4F318320832FE19A
:104B4000289F7001299FF00C1124F7E9EF0EF11C4A
:104B5000E00EF11E5C01B701C7014F960E94801A5A
:104B600021E0A21AB1088FE1E81AF108EFEFAE16C2
:104B7000BE0689F7B601C80189569F4F0E94801A68
:104B8000BE016F5F7F4FC80188589F4F0E94801AF7
:104B9000CE0101960E942E186F960FB6F894DEBFD4
:104BA0000FBECDBFDF91CF911F910F91FF90EF907E
:104BB000DF90CF90BF90AF900895EF92FF920F9348
:104BC0001F93CF93DF93EC01C353DE4F28813981CC
:104BD0002115310529F121503109398328838C01B0
:104BE00009561F4FB80188589F4F0E94801AC8016C
:104BF00000E010E0288139817C014FE1E40EF11CD6
:104C00000217130738F40F5F1F4FB7010E94801A75
:104C1000C701F0CF81E090E0232B21F080E002C0BB
:104C20008FEF9FEFDF91CF911F910F91FF90EF904A
:104C300008958F929F92AF92BF92CF92DF92EF92A0
:104C4000FF920F931F93CF93DF93EC011092BD0B54
:104C500080912E0B90912F0B019690932F0B8093A8
:104C60002E0BE5D240919B1550919C1560919D159E
:104C700070919E1540939F155093A0156093A115B8
:104C80007093A21580EB92E00E94CF4E0F947DA20C
:104C90007E018FEEE81A8DEFF80AF70180818E0110
:104CA0000A501E4F8823D1F1C8010F94E790F701F5
:104CB000808181508083BE01FDE88F9F600D711D52
:104CC00011246A5E7D4F21E041E0CE0152DAF70106
:104CD0008081FE0194E0899FE00DF11D1124EE5EBC
:104CE000FD4F4081518162817381FE01E555FD4F89
:104CF0004083518362837383C8010F940490CE0173
:104D0000DF91CF911F910F91FF90EF90DF90CF90A7
:104D1000BF90AF909F908F900C94711B0F940EA337
:104D2000C8010F94E7901A8220E030E045E050E09F
:104D30006AE070E08DE89FE00E9402408DEA92E018
:104D40000E94CF4E0F947DA288EA92E00E94CF4E3F
:104D500083E090E00E94DC64109204191092031921
:104D60001092061910920519109202191092011949
:104D70001092040C10926E0C10926D0C10926C0C30
:104D80006091340B7091350B8091360B9091370BFD
:104D90002CE330E040E050E00F941ECA3093310B1A
:104DA0002093300B7093330B6093320BC090B71588
:104DB000D090B815E090B915F090BA152091200B5D
:104DC0003091210B4091220B5091230B6091240BC9
:104DD0007091250B8091260B9091270B0F9475C62F
:104DE0004B015C012091FB153091FC154091FD15A4
:104DF0005091FE156091FF1570910016809101167B
:104E0000909102160F94B6C6A70196010F94A2C501
:104E10009B01AC01C501B4010F94C2C40F940AC632
:104E20002093200B3093210B4093220B5093230BA4
:104E30006093240B7093250B8093260B9093270B84
:104E40002091180B3091190B40911A0B50911B0BAC
:104E500060911C0B70911D0B80911E0B90911F0B8C
:104E60000F9475C64B015C012091F3153091F41538
:104E70004091F5155091F6156091F7157091F81560
:104E80008091F9159091FA150F94B6C6A701960175
:104E90000F94A2C59B01AC01C501B4010F94C2C41B
:104EA0000F940AC62093180B3093190B40931A0BDA
:104EB00050931B0B60931C0B70931D0B80931E0B68
:104EC00090931F0B2091100B3091110B4091120BFE
:104ED0005091130B6091140B7091150B8091160B70
:104EE0009091170B0F9475C66B017C012091EB1507
:104EF0003091EC154091ED155091EE156091EF1544
:104F00007091F0158091F1159091F2150F94B6C63D
:104F10002091BB153091BC154091BD155091BE1527
:104F20000F94A2C59B01AC01C701B6010F94C2C486
:104F30000F940AC62093100B3093110B4093120B61
:104F40005093130B6093140B7093150B8093160BF7
:104F50009093170BC090C315D090C415E090C51561
:104F6000F090C6152091080B3091090B40910A0B67
:104F700050910B0B60910C0B70910D0B80910E0BEF
:104F800090910F0B0F9475C64B015C012091E315B6
:104F90003091E4154091E5155091E6156091E715C3
:104FA0007091E8158091E9159091EA150F94B6C6B5
:104FB000A70196010F94A2C59B01AC01C501B401E4
:104FC0000F94C2C40F940AC62093080B3093090BA8
:104FD00040930A0B50930B0B60930C0B70930D0BCB
:104FE00080930E0B90930F0B2091000B3091010BCF
:104FF0004091020B5091030B6091040B7091050BD3
:105000008091060B9091070B0F9475C64B015C01C4
:105010002091DB153091DC154091DD155091DE15A6
:105020006091DF157091E0158091E1159091E21586
:105030000F94B6C6A70196010F94A2C59B01AC01BF
:10504000C501B4010F94C2C40F940AC62093000B8B
:105050003093010B4093020B5093030B6093040BAE
:105060007093050B8093060B9093070B1092FB1522
:105070001092FC151092FD151092FE151092FF155E
:105080001092001610920116109202161092F3154B
:105090001092F4151092F5151092F6151092F7155E
:1050A0001092F8151092F9151092FA151092EB154E
:1050B0001092EC151092ED151092EE151092EF155E
:1050C0001092F0151092F1151092F2151092E3154E
:1050D0001092E4151092E5151092E6151092E7155E
:1050E0001092E8151092E9151092EA151092DB154E
:1050F0001092DC151092DD151092DE151092DF155E
:105100001092E0151092E1151092E21590D08CE902
:1051100092E00E94CF4E809152158823F9F01092B0
:105120005215C091FF0AD0E0CC0FDD1FCD5FD64EE7
:1051300068817981882777FD8095982F0F947BC6A9
:105140002091BC023091BD024091BE025091BF023D
:105150000F942AC8181614F419821882DF91CF917F
:105160001F910F91FF90EF90DF90CF90BF90AF9085
:105170009F908F9008958D559D4FFC0160817181A6
:1051800082819381089585559D4FFC0160817181D5
:10519000828193810895EF92FF920F931F93CF9393
:1051A000DF931F92CDB7DEB78C017B01460FF7016D
:1051B00061917F01F8018081918149830F94DDD550
:1051C000F8018081918101969183808349814E11FC
:1051D000EECF0F90DF91CF911F910F91FF90EF9045
:1051E0000895EF92FF920F931F93CF93DF931F9237
:1051F000CDB7DEB78C017B01460FF801808191812C
:1052000049830F94D5D5F70181937F01F8018081FF
:10521000918101969183808349814E11EECF0F9049
:10522000DF91CF911F910F91FF90EF9008950F9311
:105230001F93CF93DF93CDB7DEB768970FB6F8947F
:10524000DEBF0FBECDBF80E390E3A0E3B0E08D836F
:105250009E83AF83B88704E610E0188F0F8B44E07D
:10526000BE016B5F7F4FCE01479695DF40E167EB54
:1052700075E1CE0147968FDF40E167EC75E1CE0125
:10528000479689DF40E167EA75E1CE01479683DF03
:1052900044E06FE975E1CE0147967DDF44E067E9C0
:1052A00075E1CE01479677DF44E063EA75E1CE0110
:1052B000479671DF44E067E875E1CE0147966BDF02
:1052C00044E067ED75E1CE01479665DF44E063E9B0
:1052D00075E1CE0147965FDF44E06FE875E1CE01EE
:1052E000479659DF44E06BE875E1CE01479653DFFE
:1052F0004CE065E87BE0CE0147964DDF87ED90E01E
:105300009E8B8D8B8DE290E09C8B8B8B1A8A198AF9
:1053100080EF90E0988B8F8786E490E09E878D8762
:105320001C861B8642E0BE016B5E7F4FCE01479616
:1053300032DF42E0BE016D5E7F4FCE0147962BDF2C
:1053400042E0BE016F5E7F4FCE01479624DF42E010
:10535000BE01615F7F4FCE0147961DDF42E0BE0177
:10536000635F7F4FCE01479616DF42E0BE01655F67
:105370007F4FCE0147960FDF44E062E77BE0CE012E
:10538000479609DF44E06BE272E0CE01479603DF07
:1053900044E063E372E0CE014796FDDE44E06BE358
:1053A00072E0CE014796F7DE42E068EE7BE0CE0188
:1053B0004796F1DE42E06CEE7BE0CE014796EBDEF5
:1053C00042E06AEE7BE0CE014796E5DE42E066EE23
:1053D0007BE0CE014796DFDE42E068ED7BE0CE0168
:1053E0004796D9DE42E06CED7BE0CE014796D3DEF6
:1053F00042E06AED7BE0CE014796CDDE42E066ED0D
:105400007BE0CE014796C7DE42E060EE7BE0CE0156
:105410004796C1DE42E064EE7BE0CE014796BBDEFC
:1054200042E062EE7BE0CE014796B5DE42E06EEDF3
:105430007BE0CE014796AFDE42E060ED7BE0CE013F
:105440004796A9DE42E064ED7BE0CE014796A3DEFD
:1054500042E062ED7BE0CE0147969DDE42E06EECDD
:105460007BE0CE01479697DE44E06BE173E0CE012E
:10547000479691DE44E063E173E0CE0147968BDE10
:1054800044E06BE073E0CE01479685DE44E06FE1D7
:1054900073E0CE0147967FDE44E067E173E0CE0122
:1054A000479679DE44E06FE073E0CE01479673DE05
:1054B00042E06AE37BE0CE0147966DDE42E06EE2B9
:1054C0007BE0CE01479667DE42E06CE27BE0CE01F6
:1054D000479661DE42E06AE27BE0CE0147965BDE02
:1054E00042E068E37BE0CE01479655DE42E068E2A9
:1054F0007BE0CE0147964FDE80E290E09A87898775
:1055000042E0BE01675F7F4FCE01479644DE42E036
:1055100066E77CE0CE0147963EDE44E062E77CE051
:10552000CE01479638DE42E060E77CE0CE01479648
:1055300032DE42E062E37BE0CE0147962CDE42E0C1
:1055400060E37BE0CE01479626DE48E060E27BE048
:10555000CE01479620DE48E068E17BE0CE01479629
:105560001ADE48E060E17BE0CE01479614DE48E0B9
:1055700068E07BE0CE0147960EDE48E060E07BE02D
:10558000CE01479608DE42E06EE672E0CE01479615
:1055900002DE42E066E772E0CE014796FCDD44E0C1
:1055A00066E37CE0CE014796F6DD44E062E37CE012
:1055B000CE014796F0DD44E06EE27CE0CE014796F6
:1055C000EADD42E06CE27CE0CE014796E4DD44E0B7
:1055D00068E27CE0CE014796DEDD44E064E27CE0F8
:1055E000CE014796D8DD42E062E27CE0CE014796EC
:1055F000D2DD42E060E27CE0CE014796CCDD42E0C5
:105600006EE17CE0CE014796C6DD42E06CE17CE0D5
:10561000CE014796C0DD42E06AE17CE0CE014796CC
:10562000BADD41E065E07CE0CE014796B4DD42E0C2
:1056300066E07CE0CE014796AEDD42E068E07CE0CB
:10564000CE014796A8DD42E06AE07CE0CE014796B5
:10565000A2DD42E06CE07CE0CE0147969CDD42E0BA
:105660006EE07CE0CE01479696DD42E060E17CE0B2
:10567000CE01479690DD42E062E17CE0CE014796A4
:105680008ADD42E064E17CE0CE01479684DD42E0C1
:1056900066E17CE0CE0147967EDD42E068E17CE099
:1056A000CE01479678DD44E06BE975E1CE0147967F
:1056B00072DD42E069E47CE0CE0147966CDD44E0B7
:1056C0006EE67BE0CE01479666DD44E06AE67BE06D
:1056D000CE01479660DD44E06CE37BE0CE01479667
:1056E0005ADD44E060E47BE0CE01479654DD44E0BF
:1056F00064E47BE0CE0147964EDD44E068E47BE065
:10570000CE01479648DD42E064E772E0CE0147965D
:1057100042DD44E060E772E0CE0147963CDD86E57D
:1057200091E3A2E3B0E089839A83AB83BC83188FB3
:105730000F8B44E0BE016F5F7F4FCE0147962BDD9C
:10574000EFE0FBE064918F01662361F0772767FD4E
:1057500070958BE299E10E9427180F5F1F4FF801A7
:105760006491F2CFEFEFFAE064918F01662361F06C
:10577000772767FD70958BE299E10E9427180F5FEC
:105780001F4FF8016491F2CF6AE070E08BE299E17B
:105790000E94271868960FB6F894DEBF0FBECDBFE3
:1057A000DF91CF911F910F9108950F931F93CF9386
:1057B000DF93CFE0DBE0FE0164918E01662361F0B0
:1057C000772767FD70958BE299E10E9427180F5F9C
:1057D0001F4FF8016491F2CFEFEEFAE064918F0170
:1057E000662361F0772767FD70958BE299E10E944F
:1057F00027180F5F1F4FF8016491F2CF6AE070E045
:105800008BE299E10E942718FE0164910FE01BE0F2
:10581000662361F0772767FD70958BE299E10E941E
:1058200027180F5F1F4FF8016491F2CF4091B71511
:105830005091B8156091B9157091BA1587EE9AE03C
:105840000E94E74D4091BB155091BC156091BD156C
:105850007091BE1584EE9AE00E94E74D4091BF150D
:105860005091C0156091C1157091C21581EE9AE0FA
:105870000E94E74D4091C3155091C4156091C51524
:105880007091C6158EED9AE00E94E74D67E677E0CD
:105890008BE299E10F9442C26AE070E08BE299E1F9
:1058A0000E942718FE0164910FE01BE0662361F05F
:1058B000772767FD70958BE299E10E9427180F5FAB
:1058C0001F4FF8016491F2CFE4ECFAE064918F018C
:1058D000662361F0772767FD70958BE299E10E945E
:1058E00027180F5F1F4FF8016491F2CF6AE070E054
:1058F0008BE299E10E942718FE0164910FE01BE002
:10590000662361F0772767FD70958BE299E10E942D
:1059100027180F5F1F4FF8016491F2CF4091C71510
:105920005091C8156091C9157091CA158BEB9AE01A
:105930000E94E74D4091CB155091CC156091CD154B
:105940007091CE1588EB9AE00E94E74D4091CF15FB
:105950005091D0156091D1157091D21585EB9AE0D8
:105960000E94E74D4091D3155091D4156091D51503
:105970007091D61582EB9AE00E94E74D67E677E0DA
:105980008BE299E10F9442C26AE070E08BE299E108
:105990000E942718FE0164910FE01BE0662361F06E
:1059A000772767FD70958BE299E10E9427180F5FBA
:1059B0001F4FF8016491F2CFE4E9FAE064918F019E
:1059C000662361F0772767FD70958BE299E10E946D
:1059D00027180F5F1F4FF8016491F2CF6AE070E063
:1059E0008BE299E10E942718FE0164910FE01BE011
:1059F000662361F0772767FD70958BE299E10E943D
:105A000027180F5F1F4FF8016491F2CF4091A7153F
:105A10005091A8156091A9157091AA158BE89AE08C
:105A20000E942F4E4091AB155091AC156091AD1571
:105A30007091AE1588E89AE00E942F4E4091AF1504
:105A40005091B0156091B1157091B21585E89AE04A
:105A50000E942F4E4091B3155091B4156091B51529
:105A60007091B61582E89AE00E942F4E67E677E0C3
:105A70008BE299E10F9442C26AE070E08BE299E117
:105A80000E942718FE0164910FE01BE0662361F07D
:105A9000772767FD70958BE299E10E9427180F5FC9
:105AA0001F4FF8016491F2CFEDE4FAE064918F01A9
:105AB000662361F0772767FD70958BE299E10E947C
:105AC00027180F5F1F4FF8016491F2CF6AE070E072
:105AD0008BE299E10E942718FE0164910FE01BE020
