:100000000C9405160C9436160C9436160C94361671
:100010000C9436160C9436160C9436160C94361630
:100020000C9436160C9436160C9436160C94361620
:100030000C9436160C9436160C9436160C94361610
:100040000C9436160D94BC9B0C9436160C943616F4
:100050000C9436160C9436160D94C8B80D9472BDD7
:100060000C9436160D94A2C10D94D8C10C9436167A
:100070000C9436160C9436160C9436160C943616D0
:100080000C9436160C9436160C9436160C943616C0
:100090000C9436160C9436160C9436160C94F916ED
:1000A0000C9436160C9436160C9436160C943616A0
:1000B0000C9436160C9436160C9436160C94361690
:1000C0000C9436160C9436160C9436160D944DC2BC
:1000D0000D9483C20C9436160C9436160C94361676
:1000E0000C94361628B538B634B708B770B654B67F
:1000F000E0B670B598B5C0B5B9B7E1B729B851B891
:1001000010B6E8B5ACB6F600F200320112011401E7
:100110004C011A01E200E0002A01FE004001380112
:1001200030011E013E0122010C01D800EE00240125
:1001300020010001DE000601220108012601E40081
:10014000E60046012E013401DA002C01F400F00033
:1001500016011C011001FC00E800EC002C01FA0063
:1001600036010201084AD73B3BCE016E84BCBFFD7D
:10017000C12F3D6C74319ABD56833DDA3D00C77F77
:1001800011BED9E4BB4C3E916BAAAABE0000008010
:100190003F05A84CCDB2D44EB93836A9020C50B99F
:1001A000918688083CA6AAAA2ABE000000803F00CB
:1001B0000D94D8BE0D945DBF0D9401C20D940DBF7A
:1001C0000D94CBB90D94C9B90D9435BF0D9461BF91
:1001D0000D9484BF0D9432C00D9488BF0D94E0BE81
:1001E0000D946CBF0D945DB90D9468BF0D9450B91A
:1001F0000D94BBC00D948EBF0D9480BF0D94D5B9E6
:100200000D94FEBE0D9496BF0D940AC20D9417BFB7
:100210000D9421BF0D9405C30D94D0BE0D94B25919
:100220000D947ABF0D9486B90D94A0B90D9472BF48
:100230000D94B5C20D94C7B90D9476BF0D94BCBE94
:100240000D94F4BE0D943FBF0D94EABE0D942BBFE8
:100250000D94DCC00D94CDB90D949BBF0D9453BF8C
:100260000D94B2BE0D9479B90D9457BF0D9492BF01
:100270000D94ADBE0D949A590D944BC00D94C6BE0D
:100280000D94A8BE0D945FC00D946A960D9464BF42
:100290000D94ACC20D943DC00D94ADB94D383420D1
:1002A000582059205A2045004D3130370054300035
:1002B0004D3130370043616E6E6F7420656E74652A
:1002C00072207375626469723A2000534156454446
:1002D000205052494E54004D3234004D32332025C7
:1002E00073006175746F25692E67006572726F7295
:1002F0002077726974696E6720746F2066696C6517
:10030000004E6F74205344207072696E74696E677A
:10031000002F005344207072696E74696E6720620A
:1003200079746520002E0044656C6574696F6E20D9
:100330006661696C65642C2046696C653A200046EC
:10034000696C652064656C657465643A002E006FA5
:1003500070656E206661696C65642C2046696C6509
:100360003A200057726974696E6720746F2066695D
:100370006C653A20002E006F70656E206661696CB6
:1003800065642C2046696C653A20002E006F70650C
:100390006E206661696C65642C2046696C653A2044
:1003A0000046696C652073656C6563746564002044
:1003B00053697A653A200046696C65206F70656EF6
:1003C00065643A20002E006F70656E206661696C6E
:1003D00065642C2046696C653A20004E6F77206674
:1003E000726573682066696C653A20004E6F7720ED
:1003F000646F696E672066696C653A200022207020
:100400006F73002220706172656E743A220053553A
:1004100042524F5554494E452043414C4C20746143
:10042000726765743A2200747279696E6720746F1E
:100430002063616C6C207375622D67636F64652047
:1004400066696C6573207769746820746F6F206DBE
:10045000616E79206C6576656C732E204D41582055
:100460006C6576656C2069733A007A70726F6265AC
:100470003A200053442063617264206F6B006F70F8
:10048000656E526F6F74206661696C656400766F8B
:100490006C756D652E696E6974206661696C656442
:1004A00000534420696E6974206661696C0065635D
:1004B000686F3A004572726F723A00535543434574
:1004C00053530056616C756573206F7574206F66A9
:1004D0002072616E67650056616C756573206F757B
:1004E00074206F662072616E67650056616C756579
:1004F00073206F7574206F662072616E6765005699
:10050000616C756573206F7574206F662072616E03
:10051000676500535543434553530056616C7565F9
:1005200073206F7574206F662072616E6765005668
:10053000616C756573206F7574206F662072616ED3
:1005400067650056616C756573206F7574206F6602
:100550002072616E67650056616C756573206F75FA
:1005600074206F662072616E676500535441544970
:1005700053544943532052455345540048617264D3
:10058000636F6465642043616C696220616E6420FE
:100590005049442044656661756C742053657474D9
:1005A000696E6773204C6F616465640048617264B2
:1005B000636F6465642044656661756C742053657F
:1005C0007474696E6773204C6F6164656400537462
:1005D0006F7265642073657474696E6773207265E9
:1005E00074726965766564002C2073617665645F5A
:1005F000466C61675F66616E6C617965725F6D699B
:1006000072726F723A20002C2073617665645F66A7
:10061000656564726174653A20002C2073617665AB
:10062000645F66616E6C617965723A20002C20739C
:10063000617665645F74656D706265643A20002C54
:100640002073617665645F74656D70303A20002CAC
:100650002073617665645F74656D70313A20002C9B
:100660002073617665645F66696C65706F73697429
:10067000696F6E3A20002C2073617665645F655F58
:10068000706F736974696F6E3A20002C2073617605
:1006900065645F746F6F6C5F6163746976653A203F
:1006A000002C2073617665645F7A5F706F73697484
:1006B000696F6E3A20002C2073617665645F795F04
:1006C000706F736974696F6E3A20002C20736176C5
:1006D00065645F785F706F736974696F6E3A20004C
:1006E00053415645205052494E54204C4F473A00F2
:1006F000204D696E75746573203A00204C617374E7
:10070000207072696E742074696D652D3E20486F8B
:10071000757273203A004C617374207072696E7444
:10072000206475726174696F6E002C205468697260
:1007300064204944206E756D62657220002C205340
:1007400065636F6E64204944206E756D6265723A10
:100750002000204669727374204944206E756D62D2
:1007600065723A2000554920496E666F726D61745A
:10077000696F6E2053657269616C204E756D62659C
:10078000723A00206D2C204531207072696E742001
:1007900064697374616E63653A2000206B6D2C2070
:1007A0004530207072696E742064697374616E6381
:1007B000653A2000206B6D2C2059207072696E7490
:1007C0002064697374616E63653A2000206B6D2C40
:1007D000205831207072696E742064697374616E80
:1007E00063653A200020432C0A205830207072693B
:1007F0006E742064697374616E63653A20002043EF
:100800002C206D61782074656D7020423A200020A4
:10081000432C206D61782074656D7020523A200061
:100820002C206D61782074656D70204C3A20006832
:100830002C207072696E74732066696E69736865C6
:10084000643A20002C207072696E74696E6720749F
:10085000696D653A2000207072696E74733A2000E9
:1008600053544154533A0020432C20525F50524974
:100870004E543A200020432C20525F4245443A20F7
:100880000020432C20525F52454D4F56453A2000E0
:1008900020525F494E534552543A200054656D70C2
:1008A000202843293A0020432C204C5F5052494EC7
:1008B000543A200020432C204C5F4245443A20000B
:1008C00020432C204C5F52454D4F56453A20002086
:1008D0004C5F494E534552543A200054656D702088
:1008E0002843293A002042656420726967687420B1
:1008F0007363726577200020426564206C656674BE
:100900002073637265772000426564204F666673CA
:1009100065747320286D6D293A00205A2070726F1B
:10092000626500205A200020592000205820004FE6
:1009300066667365747320286D6D293A0020440043
:10094000204900202D204D33303120524947485452
:10095000205000204400204900204D333031204CED
:100960004546542050005049442073657474696EA4
:1009700067733A00205A0020590020204D3230364B
:10098000205800486F6D65206F6666736574202877
:100990006D6D293A00204500205A00205800204261
:1009A0000020540020204D32303520530041647621
:1009B000616E636564207661726961626C65733A29
:1009C00020533D4D696E20666565647261746520D3
:1009D000286D6D2F73292C20543D4D696E20747243
:1009E0006176656C20666565647261746520286D4A
:1009F0006D2F73292C20423D6D696E696D756D20D8
:100A00007365676D656E742074696D6520286D73FC
:100A1000292C20583D6D6178696D756D20585920DD
:100A20006A65726B20286D6D2F73292C20205A3D2A
:100A30006D6178696D756D205A206A65726B20282A
:100A40006D6D2F73292C2020453D6D6178696D7582
:100A50006D2045206A65726B20286D6D2F7329000B
:100A600020540020204D3230342053004163636510
:100A70006C65726174696F6E3A20533D61636365A2
:100A80006C65726174696F6E2C20543D726574726E
:100A900061637420616363656C65726174696F6E14
:100AA00000204500205A0020590020204D323031CE
:100AB0002058004D6178696D756D20416363656CE8
:100AC00065726174696F6E20286D6D2F7332293ADB
:100AD00000204500205A0020590020204D3230339C
:100AE0002058004D6178696D756D2066656564728A
:100AF0006174657320286D6D2F73293A00204500BD
:100B0000205A0020590020204D39322058005374BB
:100B10006570732070657220756E69743A00536554
:100B20007474696E67732053746F726564006563D3
:100B3000686F3A00204500205A00205900483D586F
:100B40000045787472756465722072656C656173B6
:100B50006564206163746976653A20005A205349C0
:100B6000474D4120486F6D65640045787472756427
:100B70006572206163746976653A20005072696E0F
:100B80007465722068616C7465642E206B696C6C8E
:100B900028292063616C6C65642100436F6F6C6968
:100BA0006E6720446F776E204865617465720044FB
:100BB00075616C204D6972726F72204D6F64652093
:100BC0004F4E004475616C204D6F6465204F4E00A0
:100BD0004475616C204D6F6465204F4646006F6B15
:100BE00000526573656E643A2000504F5349544972
:100BF0004F4E20484F4D453A200054696D6520699D
:100C00006E6163746976650050757267652064690A
:100C10007374616E636500486F74656E64206F66FF
:100C200066736574733A005A204F66667365742064
:100C30003A20007A5F6D61783A20007A5F6D696EC4
:100C40003A20005A204F6666736574005A204F663A
:100C500066736574206F6B004E6F74207072696EDE
:100C600074207265636F76657279207570005072BA
:100C7000696E74207265636F766572792075700095
:100C8000486F74656E64206F6666736574733A00AE
:100C90007A5F6D696E3A2000795F6D61783A200065
:100CA000785F6D61783A2000785F6D696E3A200058
:100CB000205A3A0020593A0020436F756E7420582C
:100CC0003A200020453A00205A3A0020593A00586C
:100CD0003A004649524D574152455F4E414D453AC3
:100CE0004D61726C696E2056313B20537072696E93
:100CF0007465722F6772626C206D61736875702005
:100D0000666F722067656E36204649524D574152D4
:100D1000455F55524C3A68747470733A2F2F676967
:100D2000746875622E636F6D2F4572696B5A616CC2
:100D30006D2F4D61726C696E2F2050524F544F438E
:100D40004F4C5F56455253494F4E3A312E30204D4D
:100D5000414348494E455F545950453A4D656E648C
:100D6000656C2045585452554445525F434F554E8B
:100D7000543A3220555549443A30303030303030D2
:100D8000302D303030302D303030302D303030306C
:100D90002D3030303030303030303030300A00429A
:100DA0006564204865617465640020423A0020450E
:100DB0003A00543A0045787472756465722048654B
:100DC000617465640020573A0020453A00543A00A7
:100DD0002042403A0020403A00202F003A002054A0
:100DE00000202F0020423A00202F006F6B20543A41
:100DF000000A0A005374616E64617264204465766F
:100E0000696174696F6E3A20000A004D65616E3A3F
:100E100020000A002020207A3A200000793A2000A1
:100E2000783A20003F537065636966696564206E97
:100E3000756D626572206F66206C65677320696EE0
:100E4000206D6F76656D656E74206E6F7420706CAA
:100E500061757361626C652E0A003F53706563694A
:100E600066696564205920706F736974696F6E20BC
:100E70006F7574206F662072616E67652E0A003F81
:100E8000537065636966696564205820706F736983
:100E900074696F6E206F7574206F662072616E6763
:100EA000652E0A003F537065636966696564207347
:100EB000616D706C652073697A65206E6F74207047
:100EC0006C61757361626C652E0A0046756C6C20EE
:100ED000737570706F72742061743A2068747470E6
:100EE0003A2F2F33647072696E74626F6172642E70
:100EF000636F6D2F666F72756D2E7068700A004D8E
:100F00003438205A2D50726F6265205265706561C9
:100F1000746162696C69747920746573742E202021
:100F20002056657273696F6E20322E30300A003F92
:100F3000566572626F7365204C6576656C206E6FC6
:100F40007420706C61757361626C652E0A0025698E
:100F5000206D696E2C202569207365630047323847
:100F600020583020593000627566666572206F75B2
:100F7000743A2000427566666572313A200043611A
:100F80007264204E616D653A2000456E642066698A
:100F90006C65206C69737400426567696E206669D0
:100FA0006C65206C697374000A00205A3A20002096
:100FB000593A200020583A200042656400473639EB
:100FC00020414354495641544544000A00207A3A8E
:100FD000200020793A200020783A20004265640001
:100FE0000A0020616E7469686F726172690A3A2042
:100FF0000020686F726172690A20002F3800766FD6
:101000006C746573200020566F6C74657320636187
:1010100072676F6C20333A200020616E7469686FCC
:10102000726172690A3A200020686F726172690AFF
:1010300020002F3800766F6C746573200020566F87
:101040006C74657320636172676F6C20323A2000A4
:101050000A0020647A333A200020647A323A200071
:101060005430005430000056756974656E73333A1D
:101070002020004170726F78333A202000566F6C48
:10108000746573333A2020000056756974656E7379
:10109000323A2020004170726F78323A2020005698
:1010A0006F6C746573323A20200056616C6F722049
:1010B000645A333A20200056616C6F7220645A32B1
:1010C0003A2020007A335F313A20007A325F313A99
:1010D00020005A7363726F6C6C5F313A20007A3370
:1010E0005F303A20007A325F303A20005A736372E0
:1010F0006F6C6C5F303A2000706C616E654E6F7281
:101100006D616C5F312E7A3A2000706C616E654EB5
:101110006F726D616C5F312E793A2000706C616E78
:10112000654E6F726D616C5F312E783A2000706C85
:10113000616E654E6F726D616C5F302E7A3A200081
:10114000706C616E654E6F726D616C5F302E793AB6
:101150002000706C616E654E6F726D616C5F302E39
:10116000783A20005A76616C756520616674657204
:1011700020686F6D653A00486F6D6520582F5920C3
:101180006265666F7265205A005374617274696E8D
:1011900067205A2043616C6962726174696F6E20C6
:1011A00057697A617264004D383400537461727407
:1011B000696E6720592043616C6962726174696F5E
:1011C0006E2057697A617264004D3834005374613F
:1011D0007274696E6720582043616C696272617431
:1011E000696F6E2057697A61726400457874727510
:1011F0006465722072656C656173656420616374F7
:101200006976653A20005A205349474D4120486F7E
:101210006D656400457874727564657220616374ED
:101220006976653A20002200556E6B6E6F776E20EE
:10123000636F6D6D616E643A202200504F534954C4
:10124000494F4E20484F4D453A200020004D6F76C3
:101250006520746F3A2000473932204530205A30DB
:101260002052256400256920686F757273202569F6
:10127000206D696E7574657300446F6E65207072C1
:10128000696E74696E672066696C65004D33330062
:101290007061757365206465746563746564200AA4
:1012A00000473639005072696E7465722073746F2E
:1012B000707065642064756520746F206572726F4C
:1012C00072732E2046697820746865206572726F8B
:1012D0007220616E6420757365204D393939207430
:1012E0006F20726573746172742E202854656D705E
:1012F00065726174757265206973207265736574B7
:101300002E205365742069742061667465722072A2
:10131000657374617274696E6729006F6B004E6F3C
:10132000204C696E65204E756D6265722077697418
:101330006820636865636B73756D2C204C617374F2
:10134000204C696E653A20004E6F20436865636BE0
:1013500073756D2077697468206C696E65206E7591
:101360006D6265722C204C617374204C696E653A15
:101370002000636865636B73756D206D69736D61C3
:101380007463682C204C617374204C696E653A203C
:10139000004C696E65204E756D6265722069732020
:1013A0006E6F74204C617374204C696E65204E75AD
:1013B0006D6265722B312C204C617374204C696E08
:1013C000653A20004D3131300053757266696E67A1
:1013D0002030200A0043616C6962726174696F6E2B
:1013E000205375636365737366756C2C20676F6932
:1013F0006E67206261636B20746F206D61696E207F
:101400006D656E75200A005430004D383420582028
:1014100059205A2045002534643A252E326468202C
:101420002F202564670000466F726D203221002551
:1014300064206974656D7300526561647920746F0E
:1014400020496E736572742F52656D6F7665200A40
:101450000074656D70206F6B200A002564252500DF
:10146000253364202563430025336420256343002E
:10147000253364256343202F2025336425634300EF
:10148000253364256343202F2025336425634300DF
:10149000253364256343202F2025336425634300CF
:1014A000252033642025250025642068202564201C
:1014B0006D00252033642025250025326420256316
:1014C00043002533642025634300253364202563CE
:1014D0004300526561647920746F20496E736572B0
:1014E000742F52656D6F7665200A0074656D7020EB
:1014F0006F6B200A00253364202563430025336485
:1015000020256343002053544F50205052494E54DD
:10151000200A00473238205830205930004D3335EA
:1015200000526573756D65206465746563746564E8
:10153000200A0047373000EFBFBD524553554D4597
:1015400021200A00EFBFBD504155534521200A001C
:10155000253364202563430025336420256343003D
:10156000253364202563430025336420256343002D
:10157000253364202563430025336420256343001D
:10158000253364202563430025336420256343000D
:1015900025336420256343005052494E542053455F
:1015A0005454494E4753200A00446F6E65207361BE
:1015B00076696E672066696C652E006F6B004D3230
:1015C000390067636F646520666F756E640042431F
:1015D0004E3344205369676D610073746172740007
:1015E00030312D312E322E355F6465764C0022006D
:1015F000656E717565696E672022002200656E71E7
:101600007565696E672022002533642025634300D9
:101610002533642025634300456E74657220696E2E
:10162000207075726765206D6F6465200A005375C0
:101630007266696E672031200A0053757266696EA2
:10164000672030200A0047333400494E464F3A2085
:101650004245442043414C4942202D20005375729D
:1016600066696E672030200A0047323820583020E3
:1016700059300054300053757266696E672030200F
:101680000A004734330047343300473431004734CD
:101690003000473433004734330047343100473497
:1016A00030004D3834004D3834004D3834005A3253
:1016B000204F66667365743A20004F4B2073656354
:1016C0006F6E6420457874727564657221005A20CB
:1016D000706F736974696F6E3A20005A20706F736F
:1016E0006974696F6E3A20004D3834005A312050C9
:1016F000726F6265206F66667365743A20004F4BA7
:1017000020666972737420457874727564657221FD
:10171000200A005A20706F736974696F6E3A200056
:101720005A20706F736974696F6E3A200043616C60
:1017300063756C75733A20200043616C63756C753A
:10174000733A20200043616C63756C75733A2020F6
:101750000043616C63756C75733A20200043616CC3
:1017600063756C75733A20200043616C63756C750A
:10177000733A20200043616C63756C75733A2020C6
:101780000043616C63756C75733A20200043616C93
:1017900063756C75733A20200043616C63756C75DA
:1017A000733A20200043616C63756C75733A202096
:1017B0000043616C63756C75733A20200043616C63
:1017C00063756C75733A20200043616C63756C75AA
:1017D000733A20200043616C63756C75733A202066
:1017E0000043616C63756C75733A20200043616C33
:1017F00063756C75733A20200043616C63756C757A
:10180000733A20200043616C63756C75733A202035
:101810000043616C63756C75733A20200043616C02
:1018200063756C75733A20200043616C63756C7549
:10183000733A20200043616C63756C75733A202005
:101840000043616C63756C75733A20200043616CD2
:1018500063756C75733A20200043616C63756C7519
:10186000733A20200043616C63756C75733A2020D5
:101870000043616C63756C75733A20200043616CA2
:1018800063756C75733A20200043616C63756C75E9
:10189000733A20200043616C63756C75733A2020A5
:1018A0000043616C63756C75733A20200043616C72
:1018B00063756C75733A20200043616C63756C75B9
:1018C000733A20200046696C616D656E7420526524
:1018D0006D6F7665642C20474F494E4720544F204A
:1018E000434C45414E20544845204E4F5A5A4C4592
:1018F000200A0046696C616D656E7420496E7365DF
:10190000727465642F52656D6F7665642C20726504
:101910007475726E696E6720746F204D61696E20F8
:101920004D656E75200A0054300046696C616D6526
:101930006E7420496E7365727465642F52656D6FA5
:101940007665642C20676F696E6720746F20436131
:101950006C6962200A0054300046696C616D656EE6
:101960007420496E7365727465642F52656D6F766D
:1019700065642C20676F696E6720746F20746865DA
:10198000206E657874206578747275646572200ABB
:101990000054300043616C6962726174696F6E203B
:1019A0005375636365737366756C2C20676F696E1E
:1019B00067206261636B20746F206D61696E206DBA
:1019C000656E75200A005430004A756D70206F7680
:1019D00065722073637265773120616E6420736372
:1019E00072657732200A004A756D70206F766572D5
:1019F00020736372657731200A0047333400473320
:101A000034004733340054300047333400494E46E5
:101A10004F3A204245442043414C4942202D20006A
:101A200036302064656772656573200A00496E73FD
:101A3000657274696E67203A2020200A005375721F
:101A400066696E672030200A0053757266696E679A
:101A50002030200A0053757266696E672030200AB4
:101A60000025336420256343002533642025634328
:101A7000002533642025634300456E746572206938
:101A80006E207075726765206D6F6465200A002591
:101A900033642025634300253364202563430025F8
:101AA00033642025634300253364202563430025E8
:101AB00033642025634300253364202563430025D8
:101AC00033642025634300253364202563430046A7
:101AD000696C616D656E742052656D6F7665642CFE
:101AE00020474F494E4720544F20434C45414E20FC
:101AF000544845204E4F5A5A4C45200A005375729F
:101B000066696E672030200A0053757266696E67D9
:101B10002030200A0054300054652070696C6C65D8
:101B20000053757266696E672030200A004D3334A9
:101B30000053757266696E672030200A004D32349A
:101B4000004D32332025730053757266696E67202D
:101B500030200A0053656C65637420340053656C53
:101B600065637420330053656C65637420320053E1
:101B7000656C65637420310053656C656374203057
:101B8000004265645F436F6D70656E736174696F69
:101B90006E5F4C696E65735F53656C6563746564F5
:101BA0005B325D004265645F436F6D70656E7361AB
:101BB00074696F6E5F4C696E65735F53656C6563C6
:101BC0007465645B315D004265645F436F6D706591
:101BD0006E736174696F6E5F4C696E65735F536598
:101BE0006C65637465645B305D0053757266696E25
:101BF000672030200A0053554343455353200A00C1
:101C00002533642025634300253364202563430086
:101C10002533642025634300253364202563430076
:101C20002533642025634300253364202563430066
:101C30002533642025634300253364202563430056
:101C40002533642025634300496E73657274696EA1
:101C500067203A2020200A002533642025634300B2
:101C60002533642025634300253364202563430026
:101C7000456E74657220696E207075726765206D9F
:101C80006F6465200A00FF01FF0000A0400000A073
:101C90004000000040CDCC984300809343000052A8
:101CA00043000000000080934300000000CDCC986A
:101CB00043008093430000524300000000000000F6
:101CC00000000000006563686F3A004572726F7231
:101CD0003A0020636F6C6420657874727573696F65
:101CE0006E2070726576656E746564006563686FFA
:101CF0003A003B202020506C617374696320776543
:101D0000696768743A2025642E256467003B46693C
:101D10006C616D656E7420757365643A2025642E60
:101D200025646D2025642E256467003B46696C613F
:101D30006D656E7420757365643A20256C752E256B
:101D40006C756D003B2020204275696C64207469BD
:101D50006D653A20256420686F7572202564206DBA
:101D6000696E757465003B2020204275696C6420A3
:101D700074696D653A20256420686F75722025644A
:101D8000206D696E75746573003B20202042756973
:101D90006C642074696D653A20256420686F7572E3
:101DA00073202564206D696E757465003B202020CA
:101DB0004275696C642074696D653A2025642068F9
:101DC0006F757273202564206D696E75746573007C
:101DD0003B5072696E742074696D653A20256420E9
:101DE0006D696E75746573003B5072696E74207412
:101DF000696D653A20256420686F7572202564201E
:101E00006D696E75746573003B5072696E742074F1
:101E1000696D653A20256420686F757273202564AA
:101E2000206D696E75746573003B5072696E742025
:101E300074696D653A202564206461797320256496
:101E400020686F7572202564206D696E75746573E6
:101E5000003B5072696E742074696D653A20256488
:101E60002064617920256420686F757220256420C4
:101E70006D696E75746573003B5072696E74207481
:101E8000696D653A202564206461792025642068A5
:101E90006F757273202564206D696E7574657300AB
:101EA0003B5072696E742074696D653A2025642018
:101EB0006461797320256420686F757273202564CE
:101EC000206D696E75746573003B54494D453A2029
:101ED000256C64003B20472D436F64652067656E69
:101EE0006572617465642062792053696D706C69F4
:101EF000667933442852292056657273696F6E20C3
:101F00002564007C3C3E5E2B3D3F2F5B5D3B2C2AD5
:101F1000225C00205A3A0020593A0020583A0065C5
:101F20006E6473746F7073206869743A200024F4CF
:101F3000D43050C38E20C2A24017828B7011127A07
:101F4000910D816CD90AA861E108C75866076151F3
:101F500043061E4B5D05C145A7041A411104093D06
:101F60009803713931034036DB0265339102D43076
:101F70005402802E1D02632CEE01752AC501B02883
:101F8000A001102781018F2564012B244B01E02241
:101F90003401AC211F018D200D01801FFC00841E27
:101FA000ED00971DDF00B81CD200E61BC600201B09
:101FB000BC00641AB200B219A8000A19A0006A187D
:101FC0009900D117910040178B00B5168400311687
:101FD0007E00B31579003A157300C7146F005814CA
:101FE0006A00EE1366008813630025135E00C712B3
:101FF0005B006C12570015125400C1115100701192
:102000004F0021114B00D61049008D10470046109B
:10201000440002104200C00F4000800F3E00420FFB
:102020003C00060F3B00CB0E3800930E37005C0ED1
:102030003500270E3400F30D3200C10D3100900D34
:102040003000600D2E00320D2D00050D2C00D90C36
:102050002B00AE0C2900850C29005C0C2700350CE8
:1020600027000E0C2600E80B2400C40B2400A00B54
:1020700023007D0B23005A0B2100390B2100180B84
:102080002000F80A1F00D90A1E00BB0A1E009D0A84
:102090001D00800A1D00630A1C00470A1B002C0A51
:1020A0001B00110A1A00F7091A00DD091900C409FA
:1020B0001900AB091900920917007B091800630980
:1020C00017004C09160036091600200916000A09E7
:1020D0001500F5081500E0081400CC081400B80835
:1020E0001400A4081400900813007D0812006B0867
:1020F0001300580812004608120034081100230883
:1021000011001208110001081100F0071000E0078B
:102110001000D0071000C0071000B0070F00A10783
:10212000100091070E0083070F0074070F0065076A
:102130000E0057070E0049070E003B070D002E0743
:102140000E0020070D0013070D0006070D00F9060D
:102150000C00ED060D00E0060C00D4060C00C806CD
:102160000C00BC060C00B0060C00A4060B0099067F
:102170000C008D060B0082060B0077060B006C0628
:102180000B0061060A0057060B004C060A004206C7
:102190000A0038060A002E060A0024060A001A065B
:1021A0000A001006090007060A00FD050900F405EB
:1021B0000900EB050900E2050900D9050900D00571
:1021C0000900C7050900BE050900B5050800AD05F1
:1021D0000800A50509009C050800940508008C0569
:1021E0000800840508007C050800740508006C05DB
:1021F0000700650508005D050700560508004E0547
:1022000007004705070040050800380507003105AD
:1022100007002A050700230507001C050600160510
:1022200007000F0507000805060002050700FB046C
:102230000600F5040700EE040600E8040600E204C8
:102240000700DB040600D5040600CF040600C9041D
:102250000600C3040600BD040600B7040600B1046E
:102260000500AC040600A6040600A00405009B04BB
:10227000060095040500900406008A040500850404
:102280000500800406007A0405007504050070044A
:1022900005006B04050066040500610405005C048C
:1022A000050057040500520405004D0405004804CC
:1022B0000500430405003E0404003A04050035040B
:1022C0000500300404002C04050027040400230446
:1022D00005001E0404001A0404001604050011047D
:1022E00004000D04040009040500040404000004B3
:1022F0000400FC030400F8030400F4030400F003EA
:102300000400EC030400E8030400E4030400E00319
:102310000400DC030400D8030400D4030400D00349
:102320000400CC030400C8030300C503030024F425
:1023300004D9201BC40C5C0E9804C4095F02650715
:102340007101F405F900FB04B30048048700C103E0
:1023500069005803550003034500BE023A00840299
:10236000310053022A002902250004022000E40162
:102370001C00C8011900AF01170098011400840166
:102380001300710110006101100051010E004301A2
:102390000D0036010B002B010B0020010B00150175
:1023A00009000C01090003010800FB000800F3000C
:1023B0000800EB000700E4000600DE000600D8007D
:1023C0000600D2000600CC000500C7000500C200D0
:1023D0000500BD000400B9000400B5000400B10010
:1023E0000400AD000400A9000400A5000300A20041
:1023F00003009F0004009B00030098000300950069
:10240000020093000300900003008D0002008B0087
:10241000030088000200860002008400030081009F
:1024200002007F0002007D0002007B0002007900B4
:1024300002007700010076000200740002007200C2
:102440000100710002006F0002006D0001006C00CD
:1024500002006A00010069000200670001006600D6
:1024600001006500010064000200620001006100DB
:102470000100600001005F0002005D0001005C00DF
:1024800001005B0001005A000100590001005800E2
:1024900001005700010056000100550001005400E2
:1024A00001005300000053000100520001005100E0
:1024B0000100500001004F0001004E0000004E00DE
:1024C00001004D0001004C0001004B0000004B00DA
:1024D00001004A00010049000100480000004800D6
:1024E00001004700010046000000460001004500D1
:1024F00000004500010044000100430000004300CB
:1025000001004200000042000100410000004100C3
:102510000100400001003F0000003F0001003E00BC
:1025200000003E0001003D0000003D0001003C00B5
:1025300000003C0000003C0001003B0000003B00AC
:1025400001003A0000003A000100390000003900A3
:10255000010038000000380000003800010037009A
:102560000000370001003600000036000000360091
:102570000100350000003500000035000100340086
:10258000000034000000340001003300000033007C
:102590000000330001003200000032000000320071
:1025A0000100310000003100000031000100300066
:1025B000000030000000300001002F0000002F005C
:1025C00000002F0000002F0001002E0000002E0050
:1025D00000002E0001002D0000002D0000002D0045
:1025E00000002D0001002C0000002C0000002C0039
:1025F00000002C0001002B0000002B0000002B002D
:1026000000002B0001002A0000002A0000002A0020
:1026100000002A0001002900000029000000290014
:102620000000290000002900010028000000280007
:1026300000002800000028000000280001002700FA
:1026400000002700000027000000270000002700EE
:1026500001002600000026000000260000002600E1
:1026600000002600010025000000250000002500D4
:1026700000002500000025000000250001002400C6
:1026800000002400000024000000240000002400BA
:1026900001002300000023000000230000002300AD
:1026A000000023000000230000002300010022009E
:1026B0000000220000002200000022000000220092
:1026C0000000220001002100000021000000210084
:1026D0000000210000002100000021000000210076
:1026E0000100200000002000000020000000200069
:1026F000000020000000200000002000000020005A
:1027000001001F0000001F0000001F0000001F004C
:1027100000001F0000001F0000001F0001001E003D
:1027200000001E0000001E0000001E000000656387
:10273000686F3A00487973746572657369732074C1
:10274000656D706572617475726500546865726D4F
:10275000616C2072756E617761792070726F74653B
:102760006374696F6E206279204865617465725F79
:1027700049443A004572726F72283833293A204230
:10278000656420746865726D6973746F72206E6F12
:1027900074206465746563746564004572726F7259
:1027A000283832293A205269676874207468657243
:1027B0006D6973746F72206E6F74206465746563E5
:1027C000746564004572726F72283831293A204C62
:1027D00065667420746865726D6973746F72206EBB
:1027E0006F742020646574656374656400504944A7
:1027F000204175746F74756E652066696E697368C3
:1028000065642100504944204175746F74756E658C
:10281000206661696C6564212074696D656F7574EB
:102820000020403A006F6B20543A006F6B20423A10
:1028300000504944204175746F74756E652066615F
:10284000696C6564212054656D7065726174757280
:102850006520746F6F206869676800204B643A20B8
:1028600000204B693A2000204B703A200020436C36
:1028700061737369632050494420002054753A20E5
:1028800000204B753A2000206D61783A2000206DC1
:10289000696E3A200020643A200020626961733A30
:1028A0002000504944204175746F74756E65206630
:1028B000696E697368656421205075742074686559
:1028C000206C617374204B702C204B6920616E6406
:1028D000204B6420636F6E7374616E747320667234
:1028E0006F6D2061626F766520696E746F20436F33
:1028F0006E66696775726174696F6E2E6800504903
:1029000044204175746F74756E65206661696C65ED
:1029100064212074696D656F75740020403A006F02
:102920006B20543A006F6B20423A005049442041DA
:1029300075746F74756E65206661696C65642120BD
:1029400054656D706572617475726520746F6F2067
:102950006869676800204B643A2000204B693A2080
:1029600000204B703A200020436C61737369632030
:1029700050494420002054753A2000204B753A20DD
:1029800000206D61783A2000206D696E3A200020A9
:10299000643A200020626961733A20004572726FC8
:1029A000723A0070012C0190012701B0012201C090
:1029B000011D01F00118011002130130020E016027
:1029C00002090190020401C002FF000003FA004066
:1029D00003F5008003F000D003EB002004E6007054
:1029E00004E100E004DC004005D700C005D200404F
:1029F00006CD00D006C8008007C3003008BE00F036
:102A000008B900C009B400B00AAF00B00BAA00D0EA
:102A10000CA500000EA000500F9B00C010960050A7
:102A200012910000148C00C0158700B0178200B00E
:102A3000197D00D01B7800001E730040206E0090AE
:102A4000226900F024640040275F0090295A00E0CA
:102A50002B5500102E500020304B0010324600E065
:102A600033410090353C001037370070383200A0F9
:102A7000392D00B03A2800A03B2300603C1E001016
:102A80003D1900903D1400103E0F00703E0A00C03A
:102A90003E0500003F000000000A0B02090C0D0E6D
:102AA000080703040100000000000000000000000F
:102AB0000000000000000000000000000000000016
:102AC00000000012111000000000000000000000D3
:102AD00000000000000000000000000000010210E3
:102AE0002020080810204010204080020102010828
:102AF00004020101020408102040808040201008D8
:102B00000402018004020180402010080402010830
:102B10000402010102040810204080010204081090
:102B2000204080050505050705080808080202027F
:102B3000020A0A0808040404040101010101010158
:102B4000010303030303030303040707070C0C0C2F
:102B50000C0C0C0C0C020202020606060606060607
:102B6000060B0B0B0B0B0B0B0B000020002300269E
:102B70000029002C002F0032000001000003010694
:102B800001090100002200250028002B002E003141
:102B900000340002010000050108010B01000021C2
:102BA00000240027002A002D00300033000101001E
:102BB00000040107010A014E414E494E495459494A
:102BC0004E46CDCCCC3D0AD7233C17B7D13877CC75
:102BD0002B329595E6241FB14F0A000020410000DA
:102BE000C84200401C4620BCBE4CCA1B0E5AAEC593
:102BF0009D746364696E6F70737578585B00CD1651
:102C0000EE443A01040118010E0111241FBECFEF5A
:102C1000D1E2DEBFCDBF00E00CBF17E0A0E0B2E024
:102C2000E2E1F0EB03E00BBF02C007900D92A63685
:102C3000B107D9F72AE1A6E6B7E001C01D92A83690
:102C4000B207E1F71BE2C8E0DCE200E006C0229731
:102C50000109FE010BBF0F9434CCCE3FD10780E0B9
:102C60000807A9F70F94F9C20D94F7D70C94000048
:102C70008091950790E020919607821B9109089515
:102C80002091960780919507281750F4E22FF0E0E5
:102C9000E956F84F808190E02F5F209396070895C2
:102CA0008FEF9FEF0895E091960780919507E817C1
:102CB00030F4F0E0E956F84F808190E008958FEF0E
:102CC0009FEF08950895CF92DF92EF92FF920F93B6
:102CD0001F93CF93DF937C01CB018A012091720770
:102CE000222389F0EB016B01C40ED51ECC15DD0546
:102CF00061F06991D701ED91FC910190F081E02D97
:102D0000C7011995F3CF642F4BD0C801DF91CF9144
:102D10001F910F91FF90EF90DF90CF900895CF9388
:102D2000DF931F92CDB7DEB769832091720722230C
:102D3000D1F020917307203240F021E030E0FC0117
:102D40003383228380E090E014C080917407E82FE1
:102D5000F0E0EB58F84F998190838F5F8093740770
:102D60008093730704C061E0CE01019619D081E021
:102D700090E00F90DF91CF910895FC0113821282B1
:102D800048EE53E060E070E04483558366837783C8
:102D90008EE593E091838083089586E697E0EDCFFA
:102DA000613298F420912408243089F46093D90783
:102DB000FC018BED97E0DC012A2F281B261718F465
:102DC00021912D93F9CF80E0089581E0089582E06C
:102DD000089585ED8093BC008091BC0084FDFCCFFC
:102DE00010922408089585EC8093BC00109224086A
:102DF00008951F920F920FB60F9211240BB60F92E7
:102E00002F933F934F935F936F937F938F939F93F2
:102E1000AF93BF93EF93FF938091B900887F803683
:102E200009F49DC070F5883209F45CC090F48031DB
:102E300009F455C038F4882309F4F3C0883009F444
:102E40004EC0F2C0883109F44DC0803209F45EC032
:102E5000EBC0803409F469C050F4803309F456C0E3
:102E6000883309F0E1C08093B707BDDFDDC080354E
:102E700009F44FC0883509F45DC0883409F0D4C026
:102E8000D2C0883909F4C3C0A8F4883709F467C0F0
:102E900038F4883609F463C0803709F460C0C4C0D0
:102EA000883809F4B4C0803909F45FC0803809F06B
:102EB000BBC05BC0803B09F482C038F4803A09F49F
:102EC00066C0883A09F47BC0AFC0803C09F4A3C057
:102ED000883C09F4A0C0883B09F486C0A5C0809155
:102EE000230810C09091FC078091FB07981770F59C
:102EF000E091FC0781E08E0F8093FC07F0E0E35047
:102F0000F84F80818093BB0085EC82C08093B70727
:102F10008AC0E091FC0781E08E0F8093FC078091CE
:102F2000BB00F0E0E350F84F80839091FC07809164
:102F3000FB076AC0E091FC0781E08E0F8093FC07DD
:102F40008091BB00F0E0E350F84F8083809122082D
:102F5000811169C081E08093210884EA5DC083E02B
:102F6000809324081092B807CFCF8091B8078032A1
:102F700008F04DC0E091B80781E08E0F8093B8074C
:102F80008091BB00F0E0E754F84F8083BDCF2BDF8A
:102F90008091B807803230F4E091B807F0E0E75450
:102FA000F84F10826091B80770E0E0911D08F09131
:102FB0001E0889EB97E019951092B80735C084E098
:102FC000809324081092DA071092D907E0911F0825
:102FD000F091200819958091D907811105C081E0F1
:102FE0008093D9071092DB07E091DA0781E08E0F1A
:102FF0008093DA07F0E0E552F84F80818093BB00C0
:103000009091DA078091D907981708F47DCF85E869
:103010008093BC0009C085EC8093BC00109224080A
:1030200003C01092B707D5DEFF91EF91BF91AF912A
:103030009F918F917F916F915F914F913F912F91D0
:103040000F900BBE0F900FBE0F901F90189540E091
:1030500050E0BA010D940591FC011482178213828D
:1030600012828FE396E0918380830895DC01ED91D5
:10307000FC910190F081E02D19942FE336E0FC01E2
:10308000318320832781222319F004960D94E8913F
:103090000895CF92DF92EF92FF920F931F93CF93F9
:1030A000DF93EC01895A9F4FD7DFCE0188589F4F9D
:1030B000D3DF7E0127E9E20EF11C87016E0133E3C5
:1030C000C31A3EEFD30AC801C7DF015E1F4F0C15BC
:1030D0001D05C9F7FE01E153FE4F89E1818314828A
:1030E0003596178ACE018E509E4FB6DFFE01ED5504
:1030F000FD4F108211821282138238961082118243
:10310000128213821A821B821C82188219826E011B
:1031100089E5C81A8DEFD80AF60110821182128251
:103120001382F80111821082FE01EF5EFD4F1082C2
:1031300086E391E0F7019C01119221503040E1F7C4
:10314000FE01E155FD4F81E08083CB5ADF4F1982AC
:1031500018820F94BCBD68577C4E8F4F9F4FF6016D
:103160006083718382839383DF91CF911F910F914D
:10317000FF90EF90DF90CF900895FC0120E03EE2B9
:10318000DB014C91403241F0283011F4308331960C
:10319000DB014C91408331962F5F6F5F7F4F2B3067
:1031A00079F7108208952BE1FB013496DC01149627
:1031B00001900D922A95E1F7FB0122813381FC01F8
:1031C000338322832FE336E03183208308952F92C7
:1031D0003F924F925F926F927F928F929F92AF92A7
:1031E000BF92CF92DF92EF92FF920F931F93CF93F4
:1031F000DF93CDB7DEB7CA58D1090FB6F894DEBF5A
:103200000FBECDBF8C016B017A01CA57DF4F188208
:10321000C658D04084E0E80EF11C180192E1290E56
:10322000311CF801EC5AFF4FC957DF4FF983E8838F
:10323000C758D0403801F5E06F0E711C580180E589
:10324000A81A8DEFB80A48019EE4891A9DEF990AE1
:1032500080E4482E512C4C0E5D1EE4E04E0E511CB5
:10326000A101BE016F5F7F4FC7010F9452901816E6
:103270000CF00BC12C85322F3871303109F097C01A
:10328000F501808191810197029708F490C0BE01F9
:103290006F5F7F4FCE0187589F4F6FDFA0961FAEA5
:1032A000A097F6018081811107C06AE673E0CE0124
:1032B000815A9F4F0F945ED1B601CE01815A9F4F24
:1032C0000F945ED1BE0167587F4FCE01815A9F4F48
:1032D0000F945ED16AE673E0CE01815A9F4F0F943E
:1032E0005ED1CE01805C9F4FB7DE21E0AE01475832
:1032F0005F4FB701C2010F94DF93811142C0F50106
:1033000080819181892B09F03CC0EEEAF4E0649160
:103310009F016623F9F0772767FD709582E299E1B6
:10332000C757DF4F2883C958D040C657DF4F38836F
:10333000CA58D0409BDEC757DF4F2881C958D040BC
:10334000C657DF4F3881CA58D0402F5F3F4FF90131
:103350006491DFCF6CE673E082E299E10F9443C39E
:103360006AE070E082E299E181DEBE0167587F4F3A
:1033700082E299E10F9443C36AE070E082E299E14E
:1033800075DEBE01605C7F4FCE0181960CDFAE0121
:103390004F5D5F4FBE01615A7F4FC80118DFCE01FC
:1033A00081966BDECE01805C9F4F67DE59CF8981AD
:1033B000882309F46AC0853E09F452CF8E3209F49D
:1033C0004FCF8F3509F44CCFF8018289882331F033
:1033D0008E3209F445CF8F3509F442CF23FD40CF1B
:1033E00081E0303109F080E0C957DF4FE881F98191
:1033F000C758D0408083811108C08985873409F07F
:103400002FCF8A858E3709F42BCFBE016F5F7F4F98
:10341000C301B3DEF50180819181009781F4B6018B
:1034200082E299E10F9443C3B30182E299E10F94E0
:1034300043C36AE070E082E299E118DE11CF813087
:10344000910539F4F4018081918101969183808303
:1034500007CF029709F004CFCA57DF4FF881C6584B
:10346000D0402F2F30E0F401808191812817390757
:1034700061F0CA57DF4FF881C658D040FF5FCA5786
:10348000DF4FF883C658D040EBCEC657DF4F0FB69C
:10349000F894DEBF0FBECDBFDF91CF911F910F918A
:1034A000FF90EF90DF90CF90BF90AF909F908F9064
:1034B0007F906F905F904F903F902F9008950F9363
:1034C0001F93CF93DF93CDB7DEB76F970FB6F89406
:1034D000DEBF0FBECDBF8C01FC01E055FD4F118258
:1034E0001082855A9F4FB3DDB801695A7F4FCE01D4
:1034F000019659DEAE014F5F5F4F69E577E0C80185
:1035000066DECE010196B9DD6F960FB6F894DEBF88
:103510000FBECDBFDF91CF911F910F9108952BE189
:10352000FB013496DC01149601900D922A95E1F787
:10353000FB0122813381FC01338322830895EF92C2
:10354000FF920F931F93CF93DF93EC011C82FC013A
:10355000E25AFF4F8081882329F0CE01855A9F4F80
:103560000F94E8917E0181E3E81A8EEFF80A45E3B3
:1035700060E0C7010F94698C81113AC0EEEAF4E073
:1035800064918F01662359F0772767FD709582E279
:1035900099E16CDD0F5F1F4FF8016491F3CFE1EA11
:1035A000F4E064918F01662359F0772767FD7095E9
:1035B00082E299E15BDD0F5F1F4FF8016491F3CF69
:1035C0006AE070E082E299E151DD8E01095A1F4FF5
:1035D000B801CE0188589F4FA2DFCA58DF4F198328
:1035E0000883DF91CF911F910F91FF90EF90089585
:1035F0008E010C521E4F41E0B701C8010F94D299C1
:1036000081112AC040E0B701C8010F94D2998111FD
:1036100023C0E4EBF4E064918F01662359F077272F
:1036200067FD709582E299E121DD0F5F1F4FF80180
:103630006491F3CFEEE8F4E064918F01662309F41E
:10364000BFCF772767FD709582E299E10FDD0F5FAD
:103650001F4FF8016491F2CFB801CE01855A9F4FF8
:103660000F94F68E811123C0E4EBF4E064918F0196
:10367000662359F0772767FD709582E299E1F6DCC1
:103680000F5F1F4FF8016491F3CFEEE7F4E0649110
:103690008F01662309F494CF772767FD709582E246
:1036A00099E1E4DC0F5F1F4FF8016491F2CF81E0F4
:1036B0008C83EEEAF4E064918F01662359F077275A
:1036C00067FD709582E299E1D1DC0F5F1F4FF80131
:1036D0006491F3CFE3E7F4E064918F01662309F48A
:1036E0006FCF772767FD709582E299E1BFDC0F5FAE
:1036F0001F4FF8016491F2CFFC01128214820895E9
:103700000F931F93CF93DF93EC018C81882311F1EA
:10371000EAE6F4E064918F01662359F0772767FDAC
:10372000709582E299E1A2DC0F5F1F4FF80164916E
:10373000F3CF4091670B5091680B6091690B7091CA
:103740006A0B22E030E082E299E10F941DC581E02E
:103750008A831B82DF91CF911F910F910895FC0105
:103760008281882319F0128281E083830895AF92C9
:10377000BF92CF92DF92EF92FF920F931F93CF935E
:10378000DF931F92CDB7DEB78C018FE2FB018193EF
:103790005F01D12C41E07801F3E3EF1AFEEFFF0A5D
:1037A0009FE1C92E2D2D30E0F701808191812817EE
:1037B0003907D8F4C29EC001C39E900D11248556CE
:1037C0009F4FB501800F911F49830F949D8EC501B6
:1037D00049815C010196F5012081222321F04D38B9
:1037E00010F44F5FF6CFD394DDCF47FD11C0B50184
:1037F000C8018A509E4F0F90DF91CF911F910F917A
:10380000FF90EF90DF90CF90BF90AF900D949D8E82
:10381000F50110820F90DF91CF911F910F91FF90D2
:10382000EF90DF90CF90BF90AF9008954F925F924E
:103830006F927F928F929F92AF92BF92CF92DF92C0
:10384000EF92FF920F931F93CF93DF93CDB7DEB725
:10385000AC970FB6F894DEBF0FBECDBF7C015B0105
:10386000FC018481882309F4F9C0C7018A509E4F66
:103870000F94E891F7011282CE0101966C01ECDB06
:10388000270196E7490E511CC701895A9F4FF20143
:1038900091838083F50180818F3209F077C06FE2D8
:1038A00070E0C5010F9469D18C010F5F1F4F09F4BF
:1038B00073C06FE270E0C8010F9469D14C010097AA
:1038C00009F46BC00817190708F067C03C01601ABB
:1038D000710AA301B801CE0180960F9492D1E0E263
:1038E000F0E0EC0FFD1FE60DF71D1082BE01605EDB
:1038F0007F4F82E299E10F9443C36AE070E082E275
:1039000099E1B4DBF201608171816115710519F0F3
:103910006C5F7F4F02C060E070E021E0AE01405E6E
:103920005F4FCE0105960F94DF9381112AC0EFE41B
:10393000F3E064918F01662359F0772767FD709556
:1039400082E299E193DB0F5F1F4FF8016491F3CF9F
:10395000BE01605E7F4F82E299E10F9443C3EDE4C4
:10396000F3E064918F01662309F471C0772767FD46
:10397000709582E299E17ADB0F5F1F4FF801649145
:10398000F2CFF201D182C08284018FCFC701885863
:103990009F4FF201918380838501F20180819181A3
:1039A000009711F0049602C080E090E0B8010F94F7
:1039B000B594882321F1EFE3F3E064915F0166237E
:1039C00061F0772767FD709582E299E14FDBFFEFA9
:1039D000AF1ABF0AF5016491F2CFB80182E299E112
:1039E0000F9443C36AE070E082E299E13FDBF701A4
:1039F000E555FD4F10821182128213822DC0E7E23D
:103A0000F3E064917F01662361F0772767FD70958D
:103A100082E299E12BDBFFEFEF1AFF0AF7016491D5
:103A2000F2CFB80182E299E10F9443C3E5E2F3E0FB
:103A300064918F01662359F0772767FD709582E2C4
:103A400099E114DB0F5F1F4FF8016491F3CF6AE037
:103A500070E082E299E10ADBC6010FDBAC960FB69B
:103A6000F894DEBF0FBECDBFDF91CF911F910F91B4
:103A7000FF90EF90DF90CF90BF90AF909F908F908E
:103A80007F906F905F904F9008950F931F93CF9307
:103A9000DF93EC018C81882309F43CC0E3E1F3E07F
:103AA00064918F01662359F0772767FD709582E254
:103AB00099E1DCDA0F5F1F4FF8016491F3CFFE014B
:103AC000E555FD4F40815181628173812AE030E0EC
:103AD00082E299E10F941FC4E1E1F3E064918F0168
:103AE000662359F0772767FD709582E299E1BEDA87
:103AF0000F5F1F4FF8016491F3CFCD55DD4F488123
:103B000059816A817B812AE030E082E299E10F9459
:103B10001FC410C0E1E0F3E06491EF01662351F0AF
:103B2000772767FD709582E299E1A0DA2196FE0180
:103B30006491F4CF6AE070E082E299E1DF91CF9185
:103B40001F910F9193CAAF92BF92CF92DF92EF92E3
:103B5000FF920F931F93CF93DF935C01EB01FB0167
:103B600001900020E9F78F0101501109061B170B86
:103B70006C01FAE0CF1AFEEFDF0AF60110826EE464
:103B800070E0CE010F9469D17C01009729F4F8010F
:103B90003197EC0FFD1F0DC060E270E00F9469D10A
:103BA000EC0121966AE270E0C7010F9469D1FC0133
:103BB00031978DE081838AE082831382BE01C50143
:103BC0008E509E4F0F947B96F6018081882379F169
:103BD000E4EBF4E06491EF01662351F0772767FD91
:103BE000709582E299E142DA2196FE016491F4CF68
:103BF000EBEEF2E06491EF01662351F0772767FD69
:103C0000709582E299E132DA2196FE016491F4CF57
:103C10006AE070E082E299E1DF91CF911F910F910C
:103C2000FF90EF90DF90CF90BF90AF901FCADF91D1
:103C3000CF911F910F91FF90EF90DF90CF90BF90A9
:103C4000AF9008952F923F924F925F926F927F9222
:103C50008F929F92AF92BF92CF92DF92EF92FF929C
:103C60000F931F93CF93DF93CDB7DEB7CC55D10918
:103C70000FB6F894DEBF0FBECDBF4C018C010155CD
:103C80001D4F662339F0F8011082F40184818111FF
:103C90001DC015C0F8018081882309F4ABC0F40170
:103CA000E955FD4FC080D180E280F3800F94BCBD08
:103CB000C616D706E806F90608F49CC0E4CFC4018E
:103CC0003EDCF4018481882309F494C07401F5E595
:103CD000EF0EF11CF70181818F9380818F9382EE2B
:103CE00092E09F938F938E01015C1F4F1F930F9360
:103CF0000F94E0D10F900F900F900F900F900F90B6
:103D0000B12CF80101900020E9F73197E01BF10B8D
:103D1000BE1684F46801CB0CD11CB7FCDA94F60112
:103D20008081992787FD90950F9407D1F6018083B4
:103D3000B394E7CFFBE58F0E911CC40188D9512CB9
:103D4000CE0101966C012BED622E22E0722E5E01F7
:103D500091E2A90EB11C40E050E0B601C4010F94FD
:103D600052901816DCF5412CF60101900020E9F77D
:103D70003197EC19FD094E1674F41601240C311C10
:103D800047FC3A94F101808190E00F9407D1F10152
:103D900080834394E9CF8A858E37E9F245E050E08D
:103DA000B801C6010F9484D1892BA9F61F930F93F4
:103DB0007F926F92BF92AF920F94E0D1C5010E94A3
:103DC0008B4E87ED92E00E94074F0F900F900F905F
:103DD0000F900F900F9055245394BDCF511004C0F5
:103DE0008FEF9FEFF70104C0F70180819181019669
:103DF00091838083C45ADF4F0FB6F894DEBF0FBEA5
:103E0000CDBFDF91CF911F910F91FF90EF90DF9089
:103E1000CF90BF90AF909F908F907F906F905F906A
:103E20004F903F902F900895EF92FF920F931F9322
:103E3000CF93DF931F92CDB7DEB78C017C018AE070
:103E4000E81A8EEFF80AC70169830F949E91C701A3
:103E50000F94E891F801108211826981662309F4B8
:103E600005C18091960B9091970BA091980BB09102
:103E7000990B80932D0C90932E0CA0932F0CB09344
:103E8000300C80919A0B90919B0BA0919C0BB09160
:103E90009D0B8093290C90932A0CA0932B0CB0932C
:103EA0002C0C80919E0B90919F0BA091A00BB09138
:103EB000A10B8093250C9093260CA093270CB09314
:103EC000280C8091F30A90E09093240C8093230CAB
:103ED0004091A20B5091A30B6091A40B7091A50B84
:103EE00040931F0C5093200C6093210C7093220C74
:103EF000F70180859185A285B38580931B0C9093F3
:103F00001C0CA0931D0CB0931E0C8091FA1890917C
:103F1000FB189093180C8093170C8091FC189091CB
:103F2000FD1890931A0C8093190C8091F8189091B9
:103F3000F9189093160C8093150C80915C02909167
:103F40005D029093120C8093110C8091F10A909174
:103F5000F20A9093140C8093130C8091EF0A9091C5
:103F6000F00A9093FC0B8093FB0B8091E40B809301
:103F7000FA0B8091E50B9091E60B9093FE0B8093EA
:103F8000FD0B8091E70B9091E80B9093000C8093D0
:103F9000FF0B8091E90B9091EA0B9093020C8093B8
:103FA000010C8091EB0B9091EC0B9093040C80939F
:103FB000030C8091ED0B9091EE0B9093060C809387
:103FC000050C8091EF0B9091F00B9093080C80936F
:103FD000070C8091F10B9091F20B90930A0C809357
:103FE000090C8091F30B9091F40B90930C0C80933F
:103FF0000B0C8091F50B9091F60B90930E0C809327
:104000000D0C8091F70B9091F80B9093100C80930E
:104010000F0C0E941F6590937502809374020E949A
:10402000AD686093700270937102809372029093F6
:104030007302EBECF2E064918F01662359F077276D
:1040400067FD709582E299E111D80F5F1F4FF8016B
:104050006491F3CF6AE070E082E299E10F90DF9122
:10406000CF911F910F91FF90EF9000C80F90DF91BB
:10407000CF911F910F91FF90EF900895EF92FF92D3
:104080000F931F93CF93DF93CDB7DEB76F970FB624
:10409000F894DEBF0FBECDBF8C017C0186E7E80E31
:1040A000F11CC80188589F4FF70191838083E65C1B
:1040B000FD4F22E030E031832083329670E071833F
:1040C000608304960E942718F70160817181CE01F8
:1040D000019669D8AE014F5F5F4F69E577E0C8018F
:1040E00076D8CE0101960E943D186F960FB6F894CF
:1040F000DEBF0FBECDBFDF91CF911F910F91FF901B
:10410000EF900895CF92DF92EF92FF920F931F935B
:10411000CF93DF93CDB7DEB76F970FB6F894DEBFBE
:104120000FBECDBF8C016C0126E7C20ED11C885892
:104130009F4FF60191838083E65CFD4F21E030E0E4
:10414000318320837801FEE4EF1AFDEFFF0AF701C7
:104150001182108204960E942718F60160817181F5
:10416000CE01019620D8AE014F5F5F4F69E577E041
:10417000C8012DD8CE0101960E943D18F70180811B
:1041800091816F960FB6F894DEBF0FBECDBFDF9161
:10419000CF911F910F91FF90EF90DF90CF900895F6
:1041A0002F923F924F925F926F927F928F929F9247
:1041B000AF92BF92CF92DF92EF92FF920F931F9335
:1041C000CF93DF93CDB7DEB7C457D1090FB6F894BC
:1041D000DEBF0FBECDBF8C013B01E3964FAFE3972F
:1041E000FC018481882309F42EC4E750FE4F8081AE
:1041F000882309F412C12111D9C07801FFEEEF1A0A
:10420000FDEFFF0AF7018081882309F435C0E4EB54
:10421000F4E064918F01662361F0772767FD709564
:1042200082E299E10E9436180F5F1F4FF8016491F6
:10423000F2CFE7E2F4E064918F01662361F0772723
:1042400067FD709582E299E10E9436180F5F1F4F5B
:10425000F8016491F2CF4AE050E061E070E082E260
:1042600099E10F94F2C36AE070E082E299E10E9462
:1042700036180E94FDABE7C3EEEAF4E064916F01EB
:10428000662369F0772767FD709582E299E10E94C5
:104290003618FFEFCF1ADF0AF6016491F1CFEEE096
:1042A000F4E064916F01662369F0772767FD7095EC
:1042B00082E299E10E943618FFEFCF1ADF0AF60179
:1042C0006491F1CFB30182E299E10F9443C3E3E03B
:1042D000F4E064916F01662369F0772767FD7095BC
:1042E00082E299E10E943618FFEFCF1ADF0AF60149
:1042F0006491F1CFF70180813DE8D32EB801D89EBB
:10430000600D711D11246A5E7D4FC80130DAF7011E
:104310008081B801D89E600D711D11246A5E7D4FA9
:1043200082E299E10F9443C3EDEFF3E064916F01F2
:10433000662369F0772767FD709582E299E10E9414
:104340003618FFEFCF1ADF0AF6016491F1CF68014A
:10435000F5E5CF1AFDEFDF0AF60140815181628158
:1043600073812AE030E082E299E10F941FC46AE091
:1043700070E082E299E10E943618F7012081F8018D
:1043800084E0289FE00DF11D1124AF014E5E5D4FCA
:10439000F60180819181A281B381FA0180839183AA
:1043A000A283B3832F5FF701208331C0EEEAF4E0EC
:1043B00064917F01662369F0772767FD709582E23B
:1043C00099E10E943618FFEFEF1AFF0AF701649196
:1043D000F1CFECEEF3E064917F01662369F077277B
:1043E00067FD709582E299E10E943618FFEFEF1A9F
:1043F000FF0AF7016491F1CFB30182E299E10F94D2
:1044000043C36AE070E082E299E10E943618C80175
:104410008A509E4F0F94E89135C0F801EF5EFD4F32
:104420001082EEEAF4E064917F01662369F0772759
:1044300067FD709582E299E10E943618FFEFEF1A4E
:10444000FF0AF7016491F1CFEBEDF3E064917F0196
:10445000662369F0772767FD709582E299E10E94F3
:104460003618FFEFEF1AFF0AF7016491F1CFB3019D
:1044700082E299E10F9443C36AE070E082E299E13D
:104480000E943618F80112822E01F0E24F0E511CE4
:10449000C2010E942C18180186E7280E311CC801A1
:1044A000895A9F4FF10191838083F30180818F327C
:1044B00009F04FC16FE270E0C3010F9469D101961A
:1044C0007C01C80180559D4FE0969FAF8EAFE0976D
:1044D000F801EE54FD4FAC96FFAFEEAFAC974E0136
:1044E000FFE38F0E911C8B5A9240AE969FAF8EAF1A
:1044F000AE97E114F10409F49DC16FE270E0C701C9
:104500000F9469D16C01009709F495C1E816F9067A
:1045100008F091C15C01AE18BF08A501B701CE013A
:10452000835A9F4F0F9492D1EDE5F0E0EC0FFD1F01
:10453000EA0DFB1D1082BE01635A7F4F82E299E1B2
:104540000F9443C36AE070E082E299E10E9436185A
:10455000F101608171816115710519F06C5F7F4F08
:1045600002C060E070E021E0AE01435A5F4FCE012F
:1045700084960F94DF9381112CC0E7ECF3E06491F3
:104580008F01662361F0772767FD709582E299E1DC
:104590000E9436180F5F1F4FF8016491F2CFBE01E1
:1045A000635A7F4F82E299E10F9443C3E5ECF3E055
:1045B00064918F01662309F43DC2772767FD7095EA
:1045C00082E299E10E9436180F5F1F4FF801649153
:1045D000F1CFF101518240827601FFEFEF1AFF0A1D
:1045E0008091650C811185CF81E090E0E096EEAD81
:1045F000FFADE09791838083AC96EEADFFADAC97B5
:1046000011821082CE0184960E942718B201CE0139
:1046100001960E94D318AE014F5F5F4F69E577E0C6
:10462000C8010E94E718CE0101960E943D18AC9681
:10463000EEADFFADAC970190F081E02DE296FFAFBB
:10464000EEAFE2978EE1F40111928A95E9F7AE960A
:10465000FFADAE97FF93AD968FADAD978F939F92C1
:104660008F920F94B2D10F900F900F900F90640122
:10467000F6018081882349F0992787FD90950F9452
:1046800007D1F60181936F01F3CFA12CB12CB701B3
:10469000C4010F9474D1892B09F454C0E2968EADF5
:1046A0009FADE297A816B9060CF04CC082E090E0EE
:1046B000E096EEADFFADE09791838083AC96EEADD2
:1046C000FFADAC97B182A082F10180819181049607
:1046D0000E942718B201CE0101960E94D318AE01A4
:1046E0004F5F5F4F69E577E0C8010E94E718CE0190
:1046F00001960E943D18F4018EE111928A95E9F726
:10470000AE969FADAE979F93AD96EFADAD97EF93FD
:104710009F928F920F94B2D10F900F900F900F90A5
:104720006401F6018081882349F0992787FD9095DF
:104730000F9407D1F60181936F01F3CFFFEFAF1A0A
:10474000BF0AA5CFAC96EEADFFADAC97118210823B
:10475000D0CEC80188589F4FF1019183808380910A
:10476000650C811167C0C801CDDC4C01CE010196FA
:104770007C018EE1F70111928A95E9F75801F5E085
:10478000AF0EB11CBF92AF92FF92EF920F94B2D1D5
:104790000F900F900F900F906701F6018081882392
:1047A00049F0992787FD90950F9407D1F6018193E1
:1047B0006F01F3CFC12CD12CB301C7010F9474D179
:1047C000892B99F1C814D90484F56C2DC80156DCE5
:1047D000F7018EE111928A95E9F7BF92AF92FF92AD
:1047E000EF920F94B2D10F900F900F900F9097010E
:1047F000F90180818823A9F0992787FD9095E49697
:104800002FAFE497E5963FAFE5970F9407D1E49675
:104810002FADE497E5963FADE597F90181939F01B0
:10482000E7CFFFEFCF1ADF0AC7CFF801EE54FD4FF5
:10483000118210827301C8018A509E4F6C01E39669
:104840009FADE397F10160817181992309F4A0C0C4
:104850006115710519F06C5F7F4F02C060E070E078
:1048600021E0A701C6010F94DF93882309F466C0F5
:10487000F60181899289A389B489F801ED55FD4F2C
:1048800080839183A283B383E7EBF3E064915F01BC
:10489000C8018D559D4F6C01662369F0772767FD30
:1048A000709582E299E10E9436189FEFA91AB90A21
:1048B000F5016491F1CFB70182E299E10F9443C30E
:1048C000EFEAF3E064917F01662369F0772767FDE3
:1048D000709582E299E10E943618FFEFEF1AFF0A05
:1048E000F7016491F1CFF6014081518162817381BA
:1048F0002AE030E082E299E10F941FC46AE070E0A0
:1049000082E299E10E943618F801E555FD4F1082C8
:10491000118212821382E1EAF3E064918F0166232F
:1049200009F488C0772767FD709582E299E10E94BB
:1049300036180F5F1F4FF8016491F1CFEDE8F3E0F7
:1049400064918F01662361F0772767FD709582E29D
:1049500099E10E9436180F5F1F4FF8016491F2CF62
:10496000B70182E299E10F9443C3EBE8F3E064916D
:104970008F01662309F45EC0772767FD709582E298
:1049800099E10E9436180F5F1F4FF8016491F1CF33
:104990006115710519F06C5F7F4F02C060E070E037
:1049A00026E5A701C6010F94DF93811129C0E7E72F
:1049B000F3E064918F01662361F0772767FD7095BE
:1049C00082E299E10E9436180F5F1F4FF80164914F
:1049D000F2CFB70182E299E10F9443C3E5E7F3E038
:1049E00064918F01662331F1772767FD709582E22C
:1049F00099E10E9436180F5F1F4FF8016491F2CFC2
:104A000081E0F8018083E3E6F3E064918F0166239F
:104A100061F0772767FD709582E299E10E94361870
:104A20000F5F1F4FF8016491F2CFB30182E299E169
:104A30000F9443C36AE070E082E299E10E94361865
:104A4000C2010E943D18CC58DF4F0FB6F894DEBF6C
:104A50000FBECDBFDF91CF911F910F91FF90EF90CF
:104A6000DF90CF90BF90AF909F908F907F906F908E
:104A70005F904F903F902F90089521E0FC0121839B
:104A800040E08ECBAF92BF92CF92DF92EF92FF9237
:104A90000F931F93CF93DF93CDB7DEB76F970FB60A
:104AA000F894DEBF0FBECDBF8C017B01CE01019615
:104AB0000E942C18F801E158FF4F80816801811194
:104AC00004C027E5C20ED11C03C088E7C80ED11C64
:104AD00021E0A701B6016C5F7F4FCE0105960F94D0
:104AE000DF93811136C0EEEAF4E064918F01662312
:104AF00061F0772767FD709582E299E10E94361890
:104B00000F5F1F4FF8016491F2CFE5EBF2E0649183
:104B10008F01662361F0772767FD709582E299E146
:104B20000E9436180F5F1F4FF8016491F2CFB70152
:104B300082E299E10F9443C36AE070E082E299E176
:104B40000E943618CE0101960E943D188FEF9FEF0C
:104B50003AC0F801E353FE4F808191818A3091057C
:104B600030F59C012F5F3F4F318320832FE1289F39
:104B70007001299FF00C1124F7E9EF0EF11CE00EF3
:104B8000F11E5C01B701C7014F960E948F1A21E008
:104B9000A21AB1088FE1E81AF108EFEFAE16BE06CF
:104BA00089F7B601C80189569F4F0E948F1ABE012E
:104BB0006F5F7F4FC80188589F4F0E948F1ACE01A8
:104BC00001960E943D186F960FB6F894DEBF0FBE97
:104BD000CDBFDF91CF911F910F91FF90EF90DF90AC
:104BE000CF90BF90AF900895EF92FF920F931F93D5
:104BF000CF93DF93EC01C353DE4F28813981211518
:104C0000310529F121503109398328838C01095656
:104C10001F4FB80188589F4F0E948F1AC80100E0AB
:104C200010E0288139817C014FE1E40EF11C02176C
:104C3000130738F40F5F1F4FB7010E948F1AC70187
:104C4000F0CF81E090E0232B21F080E002C08FEFD5
:104C50009FEFDF91CF911F910F91FF90EF900895FB
:104C60008F929F92AF92BF92CF92DF92EF92FF927C
:104C70000F931F93CF93DF93EC011092B20B8091AF
:104C8000220B9091230B01969093230B8093220B80
:104C9000E9D24091921550919315609194157091BD
:104CA00095154093961550939715609398157093AA
:104CB000991580EB92E00E94074F0F947EA37E012E
:104CC0008FEEE81A8DEFF80AF70180818E010A5005
:104CD0001E4F8823D1F1C8010F94E891F70180811C
:104CE00081508083BE01FDE88F9F600D711D1124EE
:104CF0006A5E7D4F21E041E0CE0152DAF70180810A
:104D0000FE0194E0899FE00DF11D1124EE5EFD4F40
:104D10004081518162817381FE01E555FD4F4083E1
:104D2000518362837383C8010F940591CE01DF9193
:104D3000CF911F910F91FF90EF90DF90CF90BF9098
:104D4000AF909F908F900C94801B0F940FA4C8017C
:104D50000F94E8911A8220E030E045E050E06AE0EC
:104D600070E084E89FE00E943A408DEA92E00E9461
:104D7000074F0F947EA388EA92E00E94074F83E0DA
:104D800090E00E941A651092FB181092FA18109287
:104D9000FD181092FC181092F9181092F818109241
:104DA000F00A1092EF0A1092F90B1092650C109213
:104DB000640C1092630C6091280B7091290B809108
:104DC0002A0B90912B0B2CE330E040E050E00F9445
:104DD0001FCB3093250B2093240B7093270B6093EC
:104DE000260BC090AE15D090AF15E090B015F090A6
:104DF000B1152091140B3091150B4091160B509169
:104E0000170B6091180B7091190B80911A0B9091F0
:104E10001B0B0F9476C74B015C012091F21530916A
:104E2000F3154091F4155091F5156091F6157091B8
:104E3000F7158091F8159091F9150F94B7C7A70150
:104E400096010F94A3C69B01AC01C501B4010F9458
:104E5000C3C50F940BC72093140B3093150B4093CD
:104E6000160B5093170B6093180B7093190B8093CC
:104E70001A0B90931B0B20910C0B30910D0B409152
:104E80000E0B50910F0B6091100B7091110B8091D4
:104E9000120B9091130B0F9476C74B015C0120917C
:104EA000EA153091EB154091EC155091ED1560919C
:104EB000EE157091EF158091F0159091F1150F940A
:104EC000B7C7A70196010F94A3C69B01AC01C5010A
:104ED000B4010F94C3C50F940BC720930C0B3093F0
:104EE0000D0B40930E0B50930F0B6093100B7093B0
:104EF000110B8093120B9093130B2091040B3091A4
:104F0000050B4091060B5091070B6091080B7091B7
:104F1000090B80910A0B90910B0B0F9476C76B01D4
:104F20007C012091E2153091E3154091E4155091F8
:104F3000E5156091E6157091E7158091E81590915F
:104F4000E9150F94B7C72091B2153091B315409170
:104F5000B4155091B5150F94A3C69B01AC01C701C0
:104F6000B6010F94C3C50F940BC72093040B309365
:104F7000050B4093060B5093070B6093080B70933F
:104F8000090B80930A0B90930B0BC090BA15D0902D
:104F9000BB15E090BC15F090BD152091FC0A309136
:104FA000FD0A4091FE0A5091FF0A6091000B70913A
:104FB000010B8091020B9091030B0F9476C74B016C
:104FC0005C012091DA153091DB154091DC15509190
:104FD000DD156091DE157091DF158091E0159091DF
:104FE000E1150F94B7C7A70196010F94A3C69B01C3
:104FF000AC01C501B4010F94C3C50F940BC7209336
:10500000FC0A3093FD0A4093FE0A5093FF0A609316
:10501000000B7093010B8093020B9093030B209174
:10502000F40A3091F50A4091F60A5091F70A60911E
:10503000F80A7091F90A8091FA0A9091FB0A0F948C
:1050400076C74B015C012091D2153091D315409168
:10505000D4155091D5156091D6157091D7158091C2
:10506000D8159091D9150F94B7C7A70196010F9441
:10507000A3C69B01AC01C501B4010F94C3C50F9435
:105080000BC72093F40A3093F50A4093F60A509325
:10509000F70A6093F80A7093F90A8093FA0A9093DA
:1050A000FB0A1092F2151092F3151092F41510925B
:1050B000F5151092F6151092F7151092F81510923A
:1050C000F9151092EA151092EB151092EC1510924A
:1050D000ED151092EE151092EF151092F01510923A
:1050E000F1151092E2151092E3151092E41510924A
:1050F000E5151092E6151092E7151092E81510923A
:10510000E9151092DA151092DB151092DC15109249
:10511000DD151092DE151092DF151092E015109239
:10512000E1151092D2151092D3151092D415109249
:10513000D5151092D6151092D7151092D815109239
:10514000D91590D08CE992E00E94074F80914915C3
:105150008823F9F010924915C091F30AD0E0CC0FE2
:10516000DD1FC650D74E68817981882777FD8095ED
:10517000982F0F947CC72091BE023091BF024091BE
:10518000C0025091C1020F942BC9181614F4198251
:105190001882DF91CF911F910F91FF90EF90DF90D8
:1051A000CF90BF90AF909F908F9008958D559D4F59
:1051B000FC016081718182819381089585559D4FA5
:1051C000FC0160817181828193810895EF92FF9249
:1051D0000F931F93CF93DF931F92CDB7DEB78C0150
:1051E0007B01460FF70161917F01F8018081918178
:1051F00049830F94DED6F8018081918101969183D5
:10520000808349814E11EECF0F90DF91CF911F9196
:105210000F91FF90EF900895EF92FF920F931F93DD
:10522000CF93DF931F92CDB7DEB78C017B01460F82
:10523000F8018081918149830F94D6D6F70181933B
:105240007F01F8018081918101969183808349815A
:105250004E11EECF0F90DF91CF911F910F91FF90E4
:10526000EF9008950F931F93CF93DF93CDB7DEB7E1
:1052700068970FB6F894DEBF0FBECDBF80E390E312
:10528000A0E3B0E08D839E83AF83B88704E610E08F
:10529000188F0F8B44E0BE016B5F7F4FCE014796A6
:1052A00095DF40E16EEA75E1CE0147968FDF40E180
:1052B0006EEB75E1CE01479689DF40E16EE975E15D
:1052C000CE01479683DF44E066E975E1CE0147965B
:1052D0007DDF44E06EE875E1CE01479677DF44E07C
:1052E0006AE975E1CE01479671DF44E06EE775E14A
:1052F000CE0147966BDF44E06EEC75E1CE01479638
:1053000065DF44E06AE875E1CE0147965FDF44E07F
:1053100066E875E1CE01479659DF44E062E875E141
:10532000CE01479653DF4CE06AE77BE0CE0147961B
:105330004DDF87ED90E09E8B8D8B8DE290E09C8B16
:105340008B8B1A8A198A80EF90E0988B8F8786E47E
:1053500090E09E878D871C861B8642E0BE016B5EB7
:105360007F4FCE01479632DF42E0BE016D5E7F4F38
:10537000CE0147962BDF42E0BE016F5E7F4FCE012C
:10538000479624DF42E0BE01615F7F4FCE01479622
:105390001DDF42E0BE01635F7F4FCE01479616DFFF
:1053A00042E0BE01655F7F4FCE0147960FDF44E0CC
:1053B00067E67BE0CE01479609DF44E06BE272E0EE
:1053C000CE01479603DF44E063E372E0CE014796E7
:1053D000FDDE44E06BE372E0CE014796F7DE42E08B
:1053E0006DED7BE0CE014796F1DE42E061EE7BE0C1
:1053F000CE014796EBDE42E06FED7BE0CE014796B3
:10540000E5DE42E06BED7BE0CE014796DFDE42E079
:105410006DEC7BE0CE014796D9DE42E061ED7BE0AA
:10542000CE014796D3DE42E06FEC7BE0CE0147969B
:10543000CDDE42E06BEC7BE0CE014796C7DE42E07A
:1054400065ED7BE0CE014796C1DE42E069ED7BE091
:10545000CE014796BBDE42E067ED7BE0CE0147968A
:10546000B5DE42E063ED7BE0CE014796AFDE42E081
:1054700065EC7BE0CE014796A9DE42E069EC7BE07B
:10548000CE014796A3DE42E067EC7BE0CE01479673
:105490009DDE42E063EC7BE0CE01479697DE44E080
:1054A0006DE173E0CE01479691DE44E065E173E083
:1054B000CE0147968BDE44E06DE073E0CE01479667
:1054C00085DE44E061E273E0CE0147967FDE44E092
:1054D00069E173E0CE01479679DE44E061E173E073
:1054E000CE01479673DE42E06EE27BE0CE01479646
:1054F0006DDE42E062E27BE0CE01479667DE42E08D
:1055000060E27BE0CE01479661DE42E06EE17BE047
:10551000CE0147965BDE42E06CE27BE0CE0147962F
:1055200055DE42E06CE17BE0CE0147964FDE80E243
:1055300090E09A87898742E0BE01675F7F4FCE0186
:10554000479644DE42E06DE67CE0CE0147963EDEC3
:1055500044E069E67CE0CE01479638DE42E067E64B
:105560007CE0CE01479632DE42E066E27BE0CE018F
:1055700047962CDE42E064E27BE0CE01479626DED1
:1055800048E064E17BE0CE01479620DE48E06CE035
:105590007BE0CE0147961ADE48E064E07BE0CE0176
:1055A000479614DE48E06CEF7AE0CE0147960EDEB7
:1055B00048E064EF7AE0CE01479608DE42E06EE60E
:1055C00072E0CE01479602DE42E066E772E0CE016D
:1055D0004796FCDD44E06DE27CE0CE014796F6DDC7
:1055E00044E069E27CE0CE014796F0DD44E065E20C
:1055F0007CE0CE014796EADD42E063E27CE0CE014A
:105600004796E4DD44E06FE17CE0CE014796DEDDC5
:1056100044E06BE17CE0CE014796D8DD42E069E1F1
:105620007CE0CE014796D2DD42E067E17CE0CE012E
:105630004796CCDD42E065E17CE0CE014796C6DDD1
:1056400042E063E17CE0CE014796C0DD42E061E1EB
:105650007CE0CE014796BADD41E06AEF7BE0CE0107
:105660004796B4DD42E06DEF7BE0CE014796AEDDBC
:1056700042E06FEF7BE0CE014796A8DD42E061E0BB
:105680007CE0CE014796A2DD42E063E07CE0CE0103
:1056900047969CDD42E065E07CE0CE01479696DDD2
:1056A00042E067E07CE0CE01479690DD42E069E0B1
:1056B0007CE0CE0147968ADD42E06BE07CE0CE01E3
:1056C000479684DD42E06DE07CE0CE0147967EDDCA
:1056D00042E06FE07CE0CE01479678DD44E062E98D
:1056E00075E1CE01479672DD42E060E47CE0CE01D8
:1056F00047966CDD44E063E67BE0CE01479666DDCD
:1057000044E06FE57BE0CE01479660DD44E060E376
:105710007BE0CE0147965ADD44E064E37BE0CE01B6
:10572000479654DD44E068E37BE0CE0147964EDDCA
:1057300044E06CE37BE0CE01479648DD42E064E75D
:1057400072E0CE01479642DD44E060E772E0CE01B0
:1057500047963CDD42E06FEE7AE0CE01479636DDBB
:1057600086E591E3A2E3B0E089839A83AB83BC83AF
:10577000188F0F8B44E0BE016F5F7F4FCE014796BD
:1057800025DDEEE2FBE064918F01662361F077276F
:1057900067FD709582E299E10E9436180F5F1F4FF6
:1057A000F8016491F2CFEEE1FBE064918F01662392
:1057B00061F0772767FD709582E299E10E943618C3
:1057C0000F5F1F4FF8016491F2CF6AE070E082E250
:1057D00099E10E94361868960FB6F894DEBF0FBEA6
:1057E000CDBFDF91CF911F910F9108950F931F931C
:1057F000CF93DF93CEE2DBE0FE0164918E0166235E
:1058000061F0772767FD709582E299E10E94361872
:105810000F5F1F4FF8016491F2CFEEE0FBE064915F
:105820008F01662361F0772767FD709582E299E129
:105830000E9436180F5F1F4FF8016491F2CF6AE0A3
:1058400070E082E299E10E943618FE0164910EE256
:105850001BE0662361F0772767FD709582E299E18E
:105860000E9436180F5F1F4FF8016491F2CF4091EC
:10587000AE155091AF156091B0157091B11586E0DD
:105880009BE00E941F4E4091B2155091B31560915C
:10589000B4157091B51583E09BE00E941F4E4091B6
:1058A000B6155091B7156091B8157091B91580E093
:1058B0009BE00E941F4E4091BA155091BB1560911C
:1058C000BC157091BD158DEF9AE00E941F4E69E5E1
:1058D00077E082E299E10F9443C36AE070E082E2EC
:1058E00099E10E943618FE0164910EE21BE06623E6
:1058F00061F0772767FD709582E299E10E94361882
:105900000F5F1F4FF8016491F2CFE3EEFAE064916C
:105910008F01662361F0772767FD709582E299E138
:105920000E9436180F5F1F4FF8016491F2CF6AE0B2
:1059300070E082E299E10E943618FE0164910EE265
:105940001BE0662361F0772767FD709582E299E19D
:105950000E9436180F5F1F4FF8016491F2CF4091FB
:10596000BE155091BF156091C0157091C1158AED9B
:105970009AE00E941F4E4091C2155091C31560914C
:10598000C4157091C51587ED9AE00E941F4E409195
:10599000C6155091C7156091C8157091C91584ED51
:1059A0009AE00E941F4E4091CA155091CB1560910C
:1059B000CC157091CD1581ED9AE00E941F4E69E5DE
:1059C00077E082E299E10F9443C36AE070E082E2FB
:1059D00099E10E943618FE0164910EE21BE06623F5
:1059E00061F0772767FD709582E299E10E94361891
:1059F0000F5F1F4FF8016491F2CFE3EBFAE064917F
:105A00008F01662361F0772767FD709582E299E147
:105A10000E9436180F5F1F4FF8016491F2CF6AE0C1
:105A200070E082E299E10E943618FE0164910EE274
:105A30001BE0662361F0772767FD709582E299E1AC
:105A40000E9436180F5F1F4FF8016491F2CF40910A
:105A50009E1550919F156091A0157091A1158AEA2D
:105A60009AE00E94674E4091A2155091A315609153
:105A7000A4157091A51587EA9AE00E94674E40919F
:105A8000A6155091A7156091A8157091A91584EAE3
:105A90009AE00E94674E4091AA155091AB15609113
:105AA000AC157091AD1581EA9AE00E94674E69E5E8
:105AB00077E082E299E10F9443C36AE070E082E20A
:105AC00099E10E943618FE0164910EE21BE0662304
:105AD00061F0772767FD709582E299E10E943618A0
