:100000000C940B170C943C170C943C170C943C1755
:100010000C943C170C943C170C943C170C943C1714
:100020000C943C170C943C170C943C170C943C1704
:100030000C943C170C943C170C943C170C943C17F4
:100040000C943C170D94A08A0C943C170C943C170C
:100050000C943C170C943C170D945EA90D9408AEBB
:100060000C943C170D9438B20D946EB20C943C175E
:100070000C943C170C943C170C943C170C943C17B4
:100080000C943C170C943C170C943C170C943C17A4
:100090000C943C170C943C170C943C170C943C1794
:1000A0000C943C170C943C170C943C170C943C1784
:1000B0000C943C170C943C170C943C170C943C1774
:1000C0000C943C170C943C170C943C170D94E3B221
:1000D0000D9419B30C943C170C943C170C943C17DA
:1000E0000C943C17B0B0A0B1A3B279B2C5B151B273
:1000F00029B2D8B000B128B128B350B378B3A0B3B7
:1001000078B150B101B2B90165039902DD0165030F
:100110007D026503470365036503C7014D0365035E
:1001200065031B03D90165032F036503650365039D
:10013000DB025D0239026103370265033D035503AB
:10014000E90249037302CB0111025303E102650383
:10015000A102130265030D025302A502A702650363
:100160004D02C50129039B026503010239032902DF
:10017000C901310351028D02650363026B025D0305
:1001800065035F02F701D10233026503DD02BD02A0
:10019000B101BF01FD02E302090365024F034F03F2
:1001A0008F024F0225035B03B10243034B03D301CC
:1001B000CD022303650365036503FF017B021B0278
:1001C00059026303BB02EF0235032F020B02B70192
:1001D0000D03230221021D03E701E301C102EB012C
:1001E0009102F90127036D039F0269032B03270284
:1001F0005F036503C9029D029302FF02FF015903D9
:10020000B501F1013D020702F3017703B70269026C
:100210006702D902490265036503DF0265032B0209
:1002200005034B027F02CD01F5021303DF01A30298
:100230002502AF020F02C302870279023B02CB0202
:10024000BF02D302BD01EB023502650365036503FE
:1002500065036503650365036503650353020502D2
:10026000CF014502AB021F0245036D02D1027703A5
:100270004102C101650347021902CF025703A902D7
:100280007502650383025B02C5027103F70219035D
:1002900065036503D5020F031103550297022D0272
:1002A000EF0115036F03810265036503070365030F
:1002B00065036F0265030303F3021D023F03C702D8
:1002C0003F027503B5027102D501D7016B032D03FF
:1002D0001702FB0133035103F90203021F03E70274
:1002E000BB010103AD0257026703F902ED01D7021A
:1002F0003B037702DB013102E50143026102FB02AD
:100300008902FD0115020902210317030B03610293
:100310007303E101F501084AD73B3BCE016E84BC73
:10032000BFFDC12F3D6C74319ABD56833DDA3D004F
:10033000C77F11BED9E4BB4C3E916BAAAABE000098
:1003400000803F05A84CCDB2D44EB93836A9020C76
:1003500050B9918688083CA6AAAA2ABE000000804F
:100360003F000D941E3D0D9497B20D9468140D94AA
:10037000542B0D940A120D9480AF0D9494100D948B
:1003800035170D94FE390D9442B30D940A0D0D945A
:10039000B0220D9407280D9478240D946D1A0D94B5
:1003A0009F050D94E1B00D94E2080D9461AA0D949F
:1003B00063AA0D94A6020D94FAAF0D94B80D0D9496
:1003C0003D1A0D9428B00D94392D0D94EDAF0D9478
:1003D000122D0D944BB30D94862D0D94B7AF0D9443
:1003E000CE3D0D94AB140D9476370D942CB00D9436
:1003F00037080D94D42D0D9448AF0D9408B00D948A
:10040000D5120D9437120D9466AF0D9474050D94AA
:10041000F5360D9410B00D942D2B0D94E00C0D9429
:1004200083100D946A240D948B030D940CB00D94DD
:1004300043AF0D94C33C0D940D0A0D94F3A90D9494
:10044000D4440D94C42C0D949D2C0D942B1B0D9411
:10045000B7310D94171E0D9410260D94803D0D9408
:10046000062B0D94E9AF0D94B1160D94CD1A0D9491
:1004700089380D9401340D94EF0E0D9462330D9470
:1004800036AA0D94D7380D94F3AF0D94EA050D9468
:10049000413C0D94BE110D94AE190D94340D0D9484
:1004A000BD170D94FC020D943D270D9401400D9451
:1004B000A3AF0D944F050D94F21F0D94442A0D9493
:1004C0003C380D9431B00D94D81B0D94E8060D9472
:1004D00045030D94F21E0D947D060D94A8370D94DE
:1004E00023440D945FAA0D94222E0D944F3D0D943C
:1004F000F7AF0D94E80D0D94B8090D9403040D9415
:100500000E1A0D94F1430D94EB200D94A0B20D94AE
:1005100065250D9402B00D94D3B00D94D0020D94C6
:100520000D140D94AD2D0D94630A0D944E850D940C
:10053000333E0D9468120D94DA330D9441090D94F5
:100540001D2F0D9427040D949D1A0D945E0D0D948E
:100550008D330D94683B0D9456440D9494AF0D94D7
:10056000FC1A0D940C050D94AF4A0D945DAA0D94E0
:1005700037330D94974A0D9469260D94B91C0D9448
:1005800036100D94602D0D946F100D948E400D94C7
:100590001CAA0D9462380D94FC0F0D9489020D94E1
:1005A000903B0D944F340D94BF420D945C3E0D94DE
:1005B000C1AF0D9434450D941D2A0D943F3A0D940E
:1005C00096420D94872E0D94922A0D9472B10D943B
:1005D00076AF0D946C2C0D948A110D949BB30D94F1
:1005E000B92A0D94C8B00D94E6A90D94DA180D94AB
:1005F000DA230D94D5AF0D94FEAF0D94C2340D9453
:10060000A40B0D948AAF0D9413070D9486240D94BA
:1006100080430D94B0380D941EB00D947B2B0D9437
:10062000E73E0D94743F0D94DE190D9424410D9412
:100630001AB00D94D9400D94BB020D94EB2C0D947F
:100640006EAF0D9416B00D94E6020D9445180D94FE
:10065000FB2D0D94B4330D9431320D943EAF0D94B7
:1006600026240D9476040D9452AF0D94E02A0D9437
:1006700051B10D946B2A0D94CBAF0D94A22B0D9418
:100680000FAA0D94F5B00D9423050D9448370D94E1
:100690004B040D94EC2E0D94AD040D94F5040D94C3
:1006A000F3140D945CAF0D94880D0D94072C0D94EC
:1006B000033C0D943D140D947C080D9415380D9455
:1006C0004D310D9428340D94AF260D94AE450D9404
:1006D000ADAF0D943F300D946BAA0D94A62F0D94E1
:1006E00049420D94DB220D9424B00D9443AA0D943D
:1006F000E6374D383420582059205A2045004D31D6
:100700003037005430004D3130370043616E6E6F2A
:100710007420656E746572207375626469723A2024
:10072000005341564544205052494E54004D3234F6
:10073000004D3233202573006175746F25692E6773
:10074000006572726F722077726974696E672074C7
:100750006F2066696C65004E6F7420534420707280
:10076000696E74696E67002F005344207072696E61
:1007700074696E67206279746520002E0044656C90
:100780006574696F6E206661696C65642C204669CA
:100790006C653A200046696C652064656C6574651B
:1007A000643A002E006F70656E206661696C656446
:1007B0002C2046696C653A200057726974696E672F
:1007C00020746F2066696C653A20002E006F70659A
:1007D0006E206661696C65642C2046696C653A2000
:1007E000002E006F70656E206661696C65642C2058
:1007F00046696C653A200046696C652073656C65D6
:1008000063746564002053697A653A200046696C18
:1008100065206F70656E65643A20002E006F70650C
:100820006E206661696C65642C2046696C653A20AF
:10083000004E6F772066726573682066696C653A52
:1008400020004E6F7720646F696E672066696C6563
:100850003A20002220706F73002220706172656E52
:10086000743A2200535542524F5554494E45204345
:10087000414C4C207461726765743A22007472793D
:10088000696E6720746F2063616C6C207375622DD4
:1008900067636F64652066696C6573207769746847
:1008A00020746F6F206D616E79206C6576656C7356
:1008B0002E204D4158206C6576656C2069733A0096
:1008C0007A70726F62653A200053442063617264EB
:1008D000206F6B006F70656E526F6F742066616978
:1008E0006C656400766F6C756D652E696E69742039
:1008F0006661696C656400534420696E69742066A2
:1009000061696C006563686F3A004572726F723A94
:1009100000535543434553530056616C756573202E
:100920006F7574206F662072616E67650056616C2A
:10093000756573206F7574206F662072616E6765D0
:100940000056616C756573206F7574206F66207238
:10095000616E67650056616C756573206F757420F4
:100960006F662072616E676500535543434553536C
:100970000056616C756573206F7574206F66207208
:10098000616E67650056616C756573206F757420C4
:100990006F662072616E67650056616C75657320C5
:1009A0006F7574206F662072616E67650056616CAA
:1009B000756573206F7574206F662072616E676550
:1009C00000535441544953544943532052455345CD
:1009D000540048617264636F6465642043616C69AC
:1009E0006220616E64205049442044656661756CE4
:1009F000742053657474696E6773204C6F6164650D
:100A0000640048617264636F646564204465666174
:100A1000756C742053657474696E6773204C6F61D4
:100A20006465640053746F726564207365747469DF
:100A30006E677320726574726965766564002C2038
:100A400073617665645F466C61675F66616E6C6159
:100A50007965725F6D6972726F723A20002C207333
:100A6000617665645F66656564726174653A2000ED
:100A70002C2073617665645F66616E6C6179657266
:100A80003A20002C2073617665645F74656D706236
:100A900065643A20002C2073617665645F74656D2F
:100AA00070303A20002C2073617665645F74656D48
:100AB00070313A20002C2073617665645F66696C42
:100AC00065706F736974696F6E3A20002C207361D2
:100AD0007665645F655F706F736974696F6E3A20E5
:100AE000002C2073617665645F746F6F6C5F616367
:100AF000746976653A20002C2073617665645F7AAC
:100B00005F706F736974696F6E3A20002C20736197
:100B10007665645F795F706F736974696F6E3A2090
:100B2000002C2073617665645F785F706F73697401
:100B3000696F6E3A200053415645205052494E5439
:100B4000204C4F473A00204D696E75746573203A0A
:100B50000020204C617374207072696E7420746977
:100B60006D652D3E20486F757273203A004C61739D
:100B700074207072696E74206475726174696F6E2E
:100B8000002C205468697264204944206E756D629F
:100B9000657220002C205365636F6E6420494420E9
:100BA0006E756D6265723A2000202046697273741A
:100BB000204944206E756D6265723A2000554920C7
:100BC000496E666F726D6174696F6E2053657269EC
:100BD000616C204E756D6265723A00206D2C204567
:100BE00031207072696E742064697374616E63651C
:100BF0003A2000206B6D2C204530207072696E7495
:100C00002064697374616E63653A2000206B6D2CFB
:100C10002059207072696E742064697374616E6308
:100C2000653A2000206B6D2C205831207072696E5F
:100C3000742064697374616E63653A200020432CEC
:100C40000A205830207072696E7420646973746170
:100C50006E63653A200020432C206D617820746516
:100C60006D7020423A200020432C206D6178207462
:100C7000656D7020523A20002C206D6178207465DB
:100C80006D70204C3A2000682C207072696E74736D
:100C90002066696E69736865643A20002C20707262
:100CA000696E74696E672074696D653A2000202052
:100CB0007072696E74733A200053544154533A0071
:100CC00020432C20525F5052494E543A200020437A
:100CD0002C20525F4245443A200020432C20525F92
:100CE00052454D4F56453A20002020525F494E5301
:100CF0004552543A200054656D70202843293A002B
:100D000020432C204C5F5052494E543A200020433F
:100D10002C204C5F4245443A200020432C204C5F5D
:100D200052454D4F56453A200020204C5F494E53C6
:100D30004552543A200054656D70202843293A00EA
:100D400020562856657273696F6E2920002052283C
:100D500042656420726967687420736372657729DD
:100D6000200020204D353331204C28426564206C12
:100D7000656674207363726577292000426564207C
:100D80004F66667365747320286D6D293A00205094
:100D9000285A2070726F62652900205A200020595D
:100DA000200020204D353330205820004F666673D8
:100DB00065747320286D6D293A0020440020490095
:100DC000202D204D333031205249474854205000C7
:100DD00020440020490020204D333031204C45462E
:100DE000542050005049442073657474696E6773D1
:100DF0003A00205A0020590020204D323036205829
:100E000000486F6D65206F666673657420286D6D90
:100E1000293A00204500205A002058002042002096
:100E2000540020204D323035205300416476616EED
:100E3000636564207661726961626C65733A205300
:100E40003D4D696E20666565647261746520286D2C
:100E50006D2F73292C20543D4D696E20747261767C
:100E6000656C20666565647261746520286D6D2F00
:100E700073292C20423D6D696E696D756D20736517
:100E8000676D656E742074696D6520286D73292CFB
:100E900020583D6D6178696D756D205859206A65DF
:100EA000726B20286D6D2F73292C20205A3D6D61A7
:100EB00078696D756D205A206A65726B20286D6D9A
:100EC0002F73292C2020453D6D6178696D756D204B
:100ED00045206A65726B20286D6D2F7329002054A0
:100EE0000020204D323034205300416363656C652F
:100EF000726174696F6E3A20533D616363656C651E
:100F0000726174696F6E2C20543D726574726163F6
:100F10007420616363656C65726174696F6E002033
:100F20004500205A0020590020204D3230312058F1
:100F3000004D6178696D756D20416363656C657204
:100F40006174696F6E20286D6D2F7332293A00200D
:100F50004500205A0020590020204D3230332058BF
:100F6000004D6178696D756D2066656564726174A8
:100F7000657320286D6D2F73293A00204500205A93
:100F80000020590020204D393220580053746570DC
:100F9000732070657220756E69743A0053657474BD
:100FA000696E67732053746F726564006563686F60
:100FB0003A00204500205A00205900483D5800457D
:100FC000787472756465722072656C6561736564AE
:100FD000206163746976653A20005A205349474D71
:100FE0004120486F6D656400457874727564657260
:100FF000206163746976653A20005072696E746589
:10100000722068616C7465642E206B696C6C282991
:101010002063616C6C65642100436F6F6C696E675F
:1010200020446F776E204865617465720044756175
:101030006C204D6F6465204F4646006F6B00526513
:1010400073656E643A2000504F534954494F4E2007
:10105000484F4D453A200054696D6520696E6163C3
:101060007469766500507572676520646973746190
:101070006E636500486F74656E64206F66667365A5
:1010800074733A005A204F6666736574203A2000E4
:101090007A5F6D61783A20007A5F6D696E3A200060
:1010A0005A204F6666736574005A204F66667365F2
:1010B00074206F6B004E6F74207072696E742072B2
:1010C00065636F76657279207570005072696E7411
:1010D000207265636F7665727920757000486F7451
:1010E000656E64206F6666736574733A007A5F6D2F
:1010F000696E3A2000795F6D61783A2000785F6D03
:1011000061783A2000785F6D696E3A2000205A3A83
:101110000020593A0020436F756E7420583A200021
:1011200020453A00205A3A0020593A00583A0046E1
:1011300049524D574152455F4E414D453A4D6172BE
:101140006C696E2056313B20537072696E74657203
:101150002F6772626C206D617368757020666F72A4
:101160002067656E36204649524D574152455F55BE
:10117000524C3A68747470733A2F2F6769746875AB
:10118000622E636F6D2F4572696B5A616C6D2F4DC6
:1011900061726C696E2F2050524F544F434F4C5F19
:1011A00056455253494F4E3A312E30204D41434817
:1011B000494E455F545950453A4D656E64656C2003
:1011C00045585452554445525F434F554E543A3258
:1011D00020555549443A30303030303030302D30A1
:1011E0003030302D303030302D303030302D303008
:1011F000303030303030303030300A0042656420DA
:101200004865617465640020423A0020453A005404
:101210003A0045787472756465722048656174653A
:10122000640020573A0020453A00543A00204240DA
:101230003A0020403A00202F003A00205400202F8E
:101240000020423A00202F006F6B20543A000A0A17
:10125000005374616E6461726420446576696174E0
:10126000696F6E3A20000A004D65616E3A20000AEF
:10127000002020207A3A200000793A2000783A2095
:10128000003F537065636966696564206E756D62C1
:101290006572206F66206C65677320696E206D6FC4
:1012A00076656D656E74206E6F7420706C617573F9
:1012B00061626C652E0A003F5370656369666965FB
:1012C00064205920706F736974696F6E206F757434
:1012D000206F662072616E67652E0A003F5370654D
:1012E000636966696564205820706F736974696FFB
:1012F0006E206F7574206F662072616E67652E0AAE
:10130000003F5370656369666965642073616D7041
:101310006C652073697A65206E6F7420706C6175DE
:101320007361626C652E0A0046756C6C2073757073
:10133000706F72742061743A20687474703A2F2F41
:1013400033647072696E74626F6172642E636F6D64
:101350002F666F72756D2E7068700A004D343820DC
:101360005A2D50726F6265205265706561746162BA
:10137000696C69747920746573742E202020566519
:101380007273696F6E20322E30300A003F566572DC
:10139000626F7365204C6576656C206E6F7420708B
:1013A0006C61757361626C652E0A002569206D6938
:1013B0006E2C202569207365630047323820583031
:1013C00020593000627566666572206F75743A2028
:1013D00000427566666572313A200043617264208E
:1013E0004E616D653A2000456E642066696C65202B
:1013F0006C69737400426567696E2066696C65206C
:101400006C697374000A00205A3A200020593A206F
:101410000020583A20004265640047363920414395
:1014200054495641544544000A00207A3A2000208D
:10143000793A200020783A2000426564000A0020B2
:10144000616E7469686F726172690A3A200020687F
:101450006F726172690A20002F3800766F6C7465B4
:1014600073200020566F6C74657320636172676F20
:101470006C20333A200020616E7469686F7261726B
:10148000690A3A200020686F726172690A20002F91
:101490003800766F6C746573200020566F6C74652D
:1014A0007320636172676F6C20323A20000A00205B
:1014B000647A333A200020647A323A2000543000B3
:1014C0005430000056756974656E73333A202000FD
:1014D0004170726F78333A202000566F6C746573D8
:1014E000333A2020000056756974656E73323A20D5
:1014F00020004170726F78323A202000566F6C7471
:101500006573323A20200056616C6F7220645A3342
:101510003A20200056616C6F7220645A323A2020C3
:10152000004E6577206F666673657420766572730A
:10153000696F6E3A20007A335F313A20007A325F69
:10154000313A20005A7363726F6C6C5F313A20003D
:101550007A335F303A20007A325F303A20005A7393
:1015600063726F6C6C5F303A2000706C616E654E18
:101570006F726D616C5F312E7A3A2000706C616E13
:10158000654E6F726D616C5F312E793A2000706C20
:10159000616E654E6F726D616C5F312E783A20001E
:1015A000706C616E654E6F726D616C5F302E7A3A51
:1015B0002000706C616E654E6F726D616C5F302ED5
:1015C000793A2000706C616E654E6F726D616C5F70
:1015D000302E783A20005A76616C75652061667409
:1015E000657220686F6D653A00486F6D6520582FF1
:1015F00059206265666F7265205A00537461727477
:10160000696E67205A2043616C6962726174696F08
:101610006E2057697A617264004D383400537461EA
:101620007274696E6720592043616C6962726174DB
:10163000696F6E2057697A617264004D38340053C7
:1016400074617274696E6720582043616C696272BC
:101650006174696F6E2057697A61726400457874AD
:1016600072756465722072656C6561736564206172
:1016700063746976653A20005A205349474D4120EA
:10168000486F6D6564004578747275646572206199
:1016900063746976653A20002200556E6B6E6F7731
:1016A0006E20636F6D6D616E643A202200504F535F
:1016B0004954494F4E20484F4D453A200020004D97
:1016C0006F766520746F3A2000256920686F757207
:1016D00073202569206D696E7574657300446F6EA3
:1016E00065207072696E74696E672066696C65004A
:1016F0004D33330070617573652064657465637480
:101700006564200A00473639005072696E7465724C
:101710002073746F707065642064756520746F2029
:101720006572726F72732E20466978207468652026
:101730006572726F7220616E6420757365204D3919
:10174000393920746F20726573746172742E202889
:1017500054656D706572617475726520697320726D
:10176000657365742E2053657420697420616674F6
:1017700065722072657374617274696E6729006F97
:101780006B004E6F204C696E65204E756D62657200
:10179000207769746820636865636B73756D2C20AE
:1017A0004C617374204C696E653A20004E6F204383
:1017B0006865636B73756D2077697468206C696EFA
:1017C00065206E756D6265722C204C617374204CBF
:1017D000696E653A2000636865636B73756D206D93
:1017E00069736D617463682C204C617374204C695B
:1017F0006E653A20004C696E65204E756D626572AB
:10180000206973206E6F74204C617374204C696E74
:1018100065204E756D6265722B312C204C6173749E
:10182000204C696E653A20004D313130005375729D
:1018300066696E672030200A0043616C69627261DC
:1018400074696F6E205375636365737366756C2C72
:1018500020676F696E67206261636B20746F206D13
:1018600061696E206D656E75200A005430004D3838
:101870003420582059205A2045002534643A252E1A
:10188000326468202F202564670000466F726D2047
:101890003221002564206974656D730052656164AE
:1018A0007920746F20496E736572742F52656D6F65
:1018B0007665200A0074656D70206F6B200A002524
:1018C00064252500253364202563430025336420E7
:1018D00025634300253364256343202F202533648B
:1018E00025634300253364256343202F202533647B
:1018F00025634300253364256343202F202533646B
:1019000025634300252033642025250025642068B5
:10191000202564206D0025203364202525002532F4
:101920006420256343002533642025634300253369
:10193000642025634300526561647920746F2049F7
:101940006E736572742F52656D6F7665200A007430
:10195000656D70206F6B200A0025642525002533F6
:10196000642025634300253364202563430020530E
:10197000544F50205052494E54200A0047323820CC
:101980005830205930004D333500526573756D6500
:10199000206465746563746564200A00473730000D
:1019A000A1524553554D4521200A00A150415553A0
:1019B0004521200A00253364202563430025336434
:1019C00020256343002533642025634300253364C9
:1019D00020256343002533642025634300253364B9
:1019E00020256343002533642025634300253364A9
:1019F000202563430025336420256343005052496A
:101A00004E542053455454494E4753200A00446FC6
:101A10006E6520736176696E672066696C652E005D
:101A20006F6B004D32390067636F646520666F75B8
:101A30006E640042434E3344205369676D61007306
:101A4000746172740030312D312E322E36524300C3
:101A50002200656E717565696E672022002200653F
:101A60006E717565696E6720220043616C63756CE9
:101A700075733A20200043616C63756C75733A206E
:101A8000200043616C63756C75733A202000253328
:101A90006420256343002533642025634300456E9D
:101AA00074657220696E207075726765206D6F6451
:101AB00065200A0053757266696E672031200A003E
:101AC00053757266696E672030200A004733340010
:101AD000494E464F3A204245442043414C4942201A
:101AE0002D200053757266696E672030200A00470A
:101AF0003238205830205930005430005375726607
:101B0000696E672030200A004734330047343300C1
:101B10004734310047343000473433004734330012
:101B200047343100473430004D3834004D383400EC
:101B30004D3834005A32204F66667365743A20007F
:101B40004F4B207365636F6E6420457874727564C3
:101B5000657221005A20706F736974696F6E3A2044
:101B6000005A20706F736974696F6E3A20004D38A7
:101B700034005A312050726F6265206F666673655B
:101B8000743A20004F4B2066697273742045787454
:101B9000727564657221200A005A20706F7369742F
:101BA000696F6E3A20005A20706F736974696F6EA6
:101BB0003A200043616C63756C75733A20200043D2
:101BC000616C63756C75733A20200043616C6375BA
:101BD0006C75733A20200043616C63756C75733AC1
:101BE00020200046696C616D656E742052656D6FD2
:101BF0007665642C20474F494E4720544F20434C74
:101C000045414E20544845204E4F5A5A4C45200AD3
:101C10000046696C616D656E7420496E73657274FF
:101C200065642F52656D6F7665642C2072657475DE
:101C3000726E696E6720746F204D61696E204D650C
:101C40006E75200A0054300046696C616D656E74D3
:101C500020496E7365727465642F52656D6F766589
:101C6000642C20676F696E6720746F2043616C6914
:101C700062200A0054300046696C616D656E742004
:101C8000496E7365727465642F52656D6F76656415
:101C90002C20676F696E6720746F20746865206EF2
:101CA000657874206578747275646572200A0054D2
:101CB000300043616C6962726174696F6E205375A4
:101CC000636365737366756C2C20676F696E67203C
:101CD0006261636B20746F206D61696E206D656E4B
:101CE00075200A005430004A756D70206F76657259
:101CF0002073637265773120616E6420736372654F
:101D00007732200A004A756D70206F7665722073F5
:101D10006372657731200A0047333400473334005B
:101D20004733340054300047333400494E464F3A6D
:101D3000204245442043414C4942202D200036306A
:101D40002064656772656573200A00496E73657269
:101D500074696E67203A2020200A00537572666904
:101D60006E672030200A0053757266696E672030F6
:101D7000200A0053757266696E672030200A0025BC
:101D80003364202563430025336420256343002505
:101D900033642025634300456E74657220696E20AC
:101DA0007075726765206D6F6465200A0025336465
:101DB00020256343002533642025634300253364D5
:101DC00020256343002533642025634300253364C5
:101DD00020256343002533642025634300253364B5
:101DE0002025634300253364202563430046696C46
:101DF000616D656E742052656D6F7665642C204749
:101E00004F494E4720544F20434C45414E205448A3
:101E100045204E4F5A5A4C45200A00537572666948
:101E20006E672030200A0053757266696E67203035
:101E3000200A0054300054652070696C6C650053B2
:101E4000757266696E672030200A004D3334005386
:101E5000757266696E672030200A004D3234004D7D
:101E600032332025730053757266696E6720302007
:101E70000A0053656C65637420340053656C6563B8
:101E80007420330053656C65637420320053656CB5
:101E900065637420310053656C65637420300053B2
:101EA000757266696E672030200A005355434345BA
:101EB0005353200A002533642025634300253364EF
:101EC00020256343002533642025634300253364C4
:101ED00020256343002533642025634300253364B4
:101EE00020256343002533642025634300253364A4
:101EF00020256343002533642025634300496E7326
:101F0000657274696E67203A2020200A00253364C8
:101F10002025634300253364202563430025336473
:101F20002025634300456E74657220696E207075CC
:101F3000726765206D6F6465200A00FF01FF000075
:101F4000A0400000A04000000040CDCC984300809D
:101F500093430000524300000000008093430000C0
:101F60000000CDCC98430080934300005243000012
:101F7000000000000000000000006563686F3A0088
:101F80004572726F723A0020636F6C6420657874DA
:101F9000727573696F6E2070726576656E746564B4
:101FA000006563686F3A003B202020506C617374B9
:101FB0006963207765696768743A2025642E256413
:101FC00067003B46696C616D656E7420757365646E
:101FD0003A2025642E25646D2025642E2564670033
:101FE0003B46696C616D656E7420757365643A205B
:101FF000256C752E256C756D003B2020204275697F
:102000006C642074696D653A202564202573202551
:1020100064202573003B5072696E742074696D658D
:102020003A2025642025732025642025732025640B
:10203000202573003B54494D453A20256C64003BF4
:1020400020472D436F64652067656E657261746516
:10205000642062792053696D706C69667933442815
:1020600052292056657273696F6E202564007C3C8E
:102070003E5E2B3D3F2F5B5D3B2C2A225C00205AAD
:102080003A0020593A0020583A00656E6473746F24
:102090007073206869743A200024F4D43050C38EE1
:1020A00020C2A24017828B7011127A910D816CD9D7
:1020B0000AA861E108C7586607615143061E4B5DD7
:1020C00005C145A7041A411104093D98037139312E
:1020D000034036DB0265339102D4305402802E1D5A
:1020E00002632CEE01752AC501B028A001102781DA
:1020F000018F2564012B244B01E0223401AC211F08
:10210000018D200D01801FFC00841EED00971DDF56
:1021100000B81CD200E61BC600201BBC00641AB22B
:1021200000B219A8000A19A0006A189900D11791E5
:102130000040178B00B516840031167E00B3157968
:10214000003A157300C7146F0058146A00EE136646
:10215000008813630025135E00C7125B006C1257E2
:102160000015125400C111510070114F0021114B84
:1021700000D61049008D104700461044000210425E
:1021800000C00F4000800F3E00420F3C00060F3B96
:1021900000CB0E3800930E37005C0E3500270E344E
:1021A00000F30D3200C10D3100900D3000600D2E96
:1021B00000320D2D00050D2C00D90C2B00AE0C2982
:1021C00000850C29005C0C2700350C27000E0C261E
:1021D00000E80B2400C40B2400A00B23007D0B237C
:1021E000005A0B2100390B2100180B2000F80A1FA0
:1021F00000D90A1E00BB0A1E009D0A1D00800A1D90
:1022000000630A1C00470A1B002C0A1B00110A1A53
:1022100000F7091A00DD091900C4091900AB0919F2
:1022200000920917007B091800630917004C091672
:102230000036091600200916000A091500F50815D0
:1022400000E0081400CC081400B8081400A4081416
:1022500000900813007D0812006B08130058081244
:10226000004608120034081100230811001208115A
:102270000001081100F0071000E0071000D007105F
:1022800000C0071000B0070F00A107100091070E53
:102290000083070F0074070F0065070E0057070E35
:1022A0000049070E003B070D002E070E0020070D0A
:1022B0000013070D0006070D00F9060C00ED060DD2
:1022C00000E0060C00D4060C00C8060C00BC060C8E
:1022D00000B0060C00A4060B0099060C008D060B3E
:1022E0000082060B0077060B006C060B0061060AE5
:1022F0000057060B004C060A0042060A0038060A80
:10230000002E060A0024060A001A060A0010060912
:102310000007060A00FD050900F4050900EB0509A0
:1023200000E2050900D9050900D0050900C7050923
:1023300000BE050900B5050800AD050800A50509A2
:10234000009C050800940508008C05080084050819
:10235000007C050800740508006C05070065050889
:10236000005D050700560508004E050700470507F4
:10237000004005080038050700310507002A050759
:1023800000230507001C050600160507000F0507BA
:10239000000805060002050700FB040600F5040717
:1023A00000EE040600E8040600E2040700DB040671
:1023B00000D5040600CF040600C9040600C30406C5
:1023C00000BD040600B7040600B1040500AC040615
:1023D00000A6040600A00405009B04060095040561
:1023E00000900406008A04050085040500800406A8
:1023F000007A04050075040500700405006B0405EF
:102400000066040500610405005C0405005704052E
:1024100000520405004D040500480405004304056E
:10242000003E0404003A04050035040500300404AD
:10243000002C04050027040400230405001E0404E6
:10244000001A04040016040500110404000D04041D
:1024500000090405000404040000040400FC030453
:1024600000F8030400F4030400F0030400EC030488
:1024700000E8030400E4030400E0030400DC0304B8
:1024800000D8030400D4030400D0030400CC0304E8
:1024900000C8030300C503030024F404D9201BC4AF
:1024A0000C5C0E9804C4095F0265077101F405F91C
:1024B00000FB04B30048048700C1036900580355BA
:1024C0000003034500BE023A008402310053022A91
:1024D000002902250004022000E4011C00C80119A3
:1024E00000AF01170098011400840113007101105E
:1024F000006101100051010E0043010D0036010B77
:10250000002B010B0020010B00150109000C010933
:102510000003010800FB000800F3000800EB0007BF
:1025200000E4000600DE000600D8000600D2000627
:1025300000CC000500C7000500C2000500BD000476
:1025400000B9000400B5000400B1000400AD0004AF
:1025500000A9000400A5000300A20003009F0004DE
:10256000009B000300980003009500020093000305
:1025700000900003008D0002008B00030088000221
:10258000008600020084000300810002007F000238
:10259000007D0002007B000200790002007700014C
:1025A0000076000200740002007200010071000257
:1025B000006F0002006D0001006C0002006A000163
:1025C000006900020067000100660001006500016B
:1025D000006400020062000100610001006000016F
:1025E000005F0002005D0001005C0001005B000173
:1025F000005A000100590001005800010057000175
:102600000056000100550001005400010053000075
:102610000053000100520001005100010050000170
:10262000004F0001004E0000004E0001004D00016F
:10263000004C0001004B0000004B0001004A00016B
:102640000049000100480000004800010047000167
:102650000046000000460001004500000045000162
:10266000004400010043000000430001004200005C
:102670000042000100410000004100010040000153
:10268000003F0000003F0001003E0000003E00014E
:10269000003D0000003D0001003C0000003C000047
:1026A000003C0001003B0000003B0001003A00003C
:1026B000003A000100390000003900010038000034
:1026C000003800000038000100370000003700012A
:1026D0000036000000360000003600010035000022
:1026E0000035000000350001003400000034000017
:1026F000003400010033000000330000003300010B
:102700000032000000320000003200010031000001
:1027100000310000003100010030000000300000F6
:1027200000300001002F0000002F0000002F0000EB
:10273000002F0001002E0000002E0000002E0001DE
:10274000002D0000002D0000002D0000002D0001D4
:10275000002C0000002C0000002C0000002C0001C8
:10276000002B0000002B0000002B0000002B0001BC
:10277000002A0000002A0000002A0000002A0001B0
:1027800000290000002900000029000000290000A5
:102790000029000100280000002800000028000097
:1027A000002800000028000100270000002700008A
:1027B000002700000027000000270001002600007D
:1027C0000026000000260000002600000026000170
:1027D0000025000000250000002500000025000065
:1027E0000025000000250001002400000024000056
:1027F0000024000000240000002400010023000049
:10280000002300000023000000230000002300003C
:10281000002300000023000100220000002200002D
:10282000002200000022000000220000002200011F
:102830000021000000210000002100000021000014
:102840000021000000210000002100010020000004
:1028500000200000002000000020000000200000F8
:10286000002000000020000000200001001F0000E8
:10287000001F0000001F0000001F0000001F0000DC
:10288000001F0000001F0001001E0000001E0000CD
:10289000001E0000001E0000006563686F3A0048DB
:1028A0007973746572657369732074656D70657290
:1028B000617475726500546865726D616C20727523
:1028C0006E617761792070726F74656374696F6E81
:1028D000206279204865617465725F49443A004519
:1028E00072726F72283833293A2042656420746806
:1028F00065726D6973746F72206E6F742064657495
:102900006563746564004572726F72283832293AC3
:1029100020526967687420746865726D6973746F9A
:1029200072206E6F7420646574656374656400451D
:1029300072726F72283831293A204C65667420749F
:102940006865726D6973746F72206E6F7420206495
:1029500065746563746564002053544F5020505271
:10296000494E54200A004572726F72283833293A52
:102970002042656420746865726D6973746F72209B
:102980006E6F7420646574656374656400205354CD
:102990004F50205052494E54200A004572726F72B7
:1029A000283832293A205269676874207468657241
:1029B0006D6973746F72206E6F74206465746563E3
:1029C000746564002053544F50205052494E542097
:1029D0000A004572726F72283831293A204C6566B8
:1029E0007420746865726D6973746F72206E6F7491
:1029F0002020646574656374656400504944204117
:102A000075746F74756E652066696E697368656448
:102A10002100504944204175746F74756E652066BD
:102A200061696C6564212074696D656F757400203F
:102A3000403A006F6B20543A006F6B20423A0050CE
:102A40004944204175746F74756E65206661696CC8
:102A50006564212054656D706572617475726520BE
:102A6000746F6F206869676800204B643A2000200B
:102A70004B693A2000204B703A200020436C617370
:102A80007369632050494420002054753A20002087
:102A90004B753A2000206D61783A2000206D696EF8
:102AA0003A200020643A200020626961733A2000D5
:102AB000504944204175746F74756E652066696E67
:102AC0006973686564212050757420746865206C92
:102AD000617374204B702C204B6920616E64204B15
:102AE0006420636F6E7374616E74732066726F6DB1
:102AF0002061626F766520696E746F20436F6E6629
:102B0000696775726174696F6E2E68005049442060
:102B10004175746F74756E65206661696C656421BA
:102B20002074696D656F75740020403A006F6B20EA
:102B3000543A006F6B20423A00504944204175746A
:102B40006F74756E65206661696C656421205465DB
:102B50006D706572617475726520746F6F2068693D
:102B6000676800204B643A2000204B693A2000201F
:102B70004B703A200020436C6173736963205049A5
:102B80004420002054753A2000204B753A20002044
:102B90006D61783A2000206D696E3A200020643A19
:102BA000200020626961733A20004572726F723AA8
:102BB0000070012C0190012701B0012201C0011D0C
:102BC00001F00118011002130130020E0160020928
:102BD0000190020401C002FF000003FA004003F567
:102BE000008003F000D003EB002004E6007004E155
:102BF00000E004DC004005D700C005D2004006CD4F
:102C000000D006C8008007C3003008BE00F008B935
:102C100000C009B400B00AAF00B00BAA00D00CA5E8
:102C200000000EA000500F9B00C0109600501291A3
:102C30000000148C00C0158700B0178200B0197D09
:102C400000D01B7800001E730040206E00902269A7
:102C500000F024640040275F0090295A00E02B55C3
:102C600000102E500020304B0010324600E033415F
:102C70000090353C001037370070383200A0392DF5
:102C800000B03A2800A03B2300603C1E00103D1914
:102C900000903D1400103E0F00703E0A00C03E053B
:102CA00000003F000000000A0B02090C0D0E08078F
:102CB000030401000000000000000000000000000C
:102CC0000000000000000000000000000000000004
:102CD00000121110000000000000000000000000C1
:102CE0000000000000000000000000010210202091
:102CF0000808102040102040800201020108040250
:102D000001010204081020408080402010080402C5
:102D1000018004020180402010080402010804021E
:102D20000101020408102040800102040810204024
:102D30008005050505070508080808020202020AC1
:102D40000A0808040404040101010101010101034E
:102D500003030303030303040707070C0C0C0C0C09
:102D60000C0C0C0202020206060606060606060BFC
:102D70000B0B0B0B0B0B0B00002000230026002974
:102D8000002C002F003200000100000301060109A1
:102D90000100002200250028002B002E0031003405
:102DA0000002010000050108010B010000210024C0
:102DB0000027002A002D003000330001010000042C
:102DC0000107010A014E414E494E495459494E46A8
:102DD000CDCCCC3D0AD7233C17B7D13877CC2B329A
:102DE0009595E6241FB14F0A000020410000C8421B
:102DF00000401C4620BCBE4CCA1B0E5AAEC59D747A
:102E00006364696E6F70737578585B007444B902BF
:102E10008502E901B30211241FBECFEFD1E2DEBF6C
:102E2000CDBF00E00CBF17E0A0E0B2E0E0E5F1E9C3
:102E300003E00BBF02C007900D92A632B107D9F78D
:102E400029E1A6E2B7E001C01D92A237B207E1F77F
:102E50001EE2C4E1DEE200E006C022970109FE01A5
:102E60000BBF0F94CFBCCC30D10780E00807A9F787
:102E70000F948FB30D9496C80C94000040E050E07E
:102E8000BA010D94E97FFC01148217821382128229
:102E90008EEF95E0918380830895DC01ED91FC91A4
:102EA0000190F081E02D19942EEF35E0FC01318383
:102EB00020832781222319F004960D94CC80089555
:102EC000CF92DF92EF92FF920F931F93CF93DF93F6
:102ED000EC01895A9F4FD7DFCE0188589F4FD3DF2F
:102EE0007E0127E9E20EF11C87016E0133E3C31A6C
:102EF0003EEFD30AC801C7DF015E1F4F0C151D0549
:102F0000C9F7FE01E153FE4F89E1818314823596B2
:102F1000178ACE018E509E4FB6DFFE01ED55FD4F54
:102F200010821182128213823896108211821282CC
:102F300013821A821B821C82188219826E0189E513
:102F4000C81A8DEFD80AF6011082118212821382FC
:102F5000F80111821082FE01EF5EFD4F108286E3C0
:102F600091E0F7019C01119221503040E1F7FE0100
:102F7000E155FD4F81E08083CB5ADF4F19821882E3
:102F80000F9452AE68577C4E8F4F9F4FF60160836F
:102F9000718382839383DF91CF911F910F91FF9073
:102FA000EF90DF90CF900895FC0120E03EE2DB013E
:102FB0004C91403241F0283011F430833196DB01DE
:102FC0004C91408331962F5F6F5F7F4F2B3079F7A5
:102FD000108208952BE1FB013496DC0114960190D8
:102FE0000D922A95E1F7FB0122813381FC013383A5
:102FF00022832EEF35E03183208308952F923F9274
:103000004F925F926F927F928F929F92AF92BF92F8
:10301000CF92DF92EF92FF920F931F93CF93DF93A4
:10302000CDB7DEB7CA57D1090FB6F894DEBF0FBED1
:10303000CDBF8C016B015A0129012DB73EB7E39634
:103040003FAF2EAFE397AD961FAEAD9734E0A30E22
:10305000B11C4296E5969FAF8EAFE597F801EC5A0A
:10306000FF4FE796FFAFEEAFE7971801F0E52F1A95
:10307000FDEF3F0A98012E543D4FAF963FAF2EAF64
:10308000AF97380135E0630E711C7E018FE5E80EC5
:10309000F11CE0E4F0E0EC0FFD1F3496E996FFAF81
:1030A000EEAFE997E5964EAD5FADE597BE016F5F78
:1030B0007F4FC5010F94367F18160CF028C12C8560
:1030C000322F3871303109F0AEC0F1018081918129
:1030D0000197029708F4A7C02DB73EB7E1963FAF1E
:1030E0002EAFE197BE016F5F7F4FC7015DDF81E0CB
:1030F000F601908191118FC0E1E0F0E0D7010D90D1
:103100000020E9F7EE19FF09EA0FFB1F31962DB7F2
:103110003EB72E1B3F0B0FB6F8943EBF0FBE2DBF20
:10312000EDB7FEB731964F01882319F06AE573E0D9
:1031300001C0B601C4010F941CC2B701C4010F94B1
:10314000FDC16AE573E0C4010F94FDC1CE01805C4E
:103150009F4F99DE21E0A701B501E9968EAD9FADA5
:10316000E9970F94C382811137C0F1018081918169
:10317000892B91F5E4E0F9E064919F016623B9F0B1
:10318000772767FD70958CE298E1EA962FAFEA9772
:10319000EB963FAFEB9781DEEA962FADEA97EB9681
:1031A0003FADEB972F5F3F4FF9016491E7CF6CE59F
:1031B00073E08CE298E10F94D9B36AE070E08CE29E
:1031C00098E16BDEB7018CE298E10F94D9B36AE025
:1031D00070E08CE298E161DEBE01605C7F4FCE0161
:1031E0008196F8DE20E030E0AE014F5D5F4FB40124
:1031F000C80104DFCE01819657DECE01805C9F4F6F
:1032000053DEE1962EAD3FADE1970FB6F8943EBF89
:103210000FBE2DBF47CF80E001900020E9F7319726
:10322000EC19FD096BCF8981882309F470C0853EB4
:1032300009F438CF8E3209F435CFF80182898E3205
:1032400009F430CF23FD2ECF81E0303109F080E04A
:10325000E796EEADFFADE7978083811108C08985C1
:10326000873409F01FCF8A858E3709F41BCFF1010F
:103270008081918181309105D9F08230910511F1E1
:10328000892B09F00FCFBE016F5F7F4FC3018CDE2A
:10329000B6018CE298E10F94D9B3B3018CE298E1C6
:1032A0000F94D9B36AE070E08CE298E1F6DDFACED3
:1032B000AF96EEADFFADAF9780819181019691837E
:1032C0008083F0CEBE016F5F7F4FC3016DDE41147E
:1032D000510439F0B301C2010F94EAC1892B79F48A
:1032E00016C0AD96FFADAD972F2F30E0AF96EEAD87
:1032F000FFADAF97808191812817390741F0AD96D6
:10330000FFADAD97FF5FAD96FFAFAD97CBCEE39628
:103310002EAD3FADE3970FB6F8943EBF0FBE2DBF65
:10332000C658DF4F0FB6F894DEBF0FBECDBFDF919A
:10333000CF911F910F91FF90EF90DF90CF90BF90B2
:10334000AF909F908F907F906F905F904F903F9045
:103350002F9008950F931F93CF93DF93CDB7DEB7D0
:103360006F970FB6F894DEBF0FBECDBF8C01FC0186
:10337000E055FD4F11821082855A9F4F7FDDB801C5
:10338000695A7F4FCE01019625DE20E030E0AE0184
:103390004F5F5F4F68E177E0C80130DECE010196F4
:1033A00083DD6F960FB6F894DEBF0FBECDBFDF9101
:1033B000CF911F910F9108952BE1FB013496DC0111
:1033C000149601900D922A95E1F7FB012281338139
:1033D000FC01338322830895EF92FF920F931F9392
:1033E000CF93DF93EC011C82FC01E25AFF4F8081F6
:1033F000882329F0CE01855A9F4F0F94CC807E01FF
:1034000081E3E81A8EEFF80A45E360E0C7010F9404
:103410004D7B81113AC0E4E0F9E064918F016623AD
:1034200059F0772767FD70958CE298E136DD0F5FE4
:103430001F4FF8016491F3CFE7EFF8E064918F013B
:10344000662359F0772767FD70958CE298E125DDBA
:103450000F5F1F4FF8016491F3CF6AE070E08CE2D8
:1034600098E11BDD8E01095A1F4FB801CE01885823
:103470009F4FA2DFCA58DF4F19830883DF91CF9196
:103480001F910F91FF90EF9008958E010C521E4FE7
:1034900041E0B701C8010F94B68881112AC040E00D
:1034A000B701C8010F94B688811123C0EAE0F9E0A2
:1034B00064918F01662359F0772767FD70958CE240
:1034C00098E1EBDC0F5F1F4FF8016491F3CFE4EE5E
:1034D000F8E064918F01662309F4BFCF772767FD79
:1034E00070958CE298E1D9DC0F5F1F4FF801649171
:1034F000F2CFB801CE01855A9F4F0F94DA7D81112A
:1035000023C0EAE0F9E064918F01662359F0772740
:1035100067FD70958CE298E1C0DC0F5F1F4FF801EA
:103520006491F3CFE4EDF8E064918F01662309F430
:1035300094CF772767FD70958CE298E1AEDC0F5F42
:103540001F4FF8016491F2CF81E08C83E4E0F9E051
:1035500064918F01662359F0772767FD70958CE29F
:1035600098E19BDC0F5F1F4FF8016491F3CFE9EC0A
:10357000F8E064918F01662309F46FCF772767FD28
:1035800070958CE298E189DC0F5F1F4FF801649120
:10359000F2CFFC011282148208950F931F93CF93F0
:1035A000DF93EC018C81882311F1E0ECF8E0649169
:1035B0008F01662359F0772767FD70958CE298E1BB
:1035C0006CDC0F5F1F4FF8016491F3CF4091650AE7
:1035D0005091660A6091670A7091680A22E030E0B3
:1035E0008CE298E10F94B3B581E08A831B82DF916E
:1035F000CF911F910F910895FC018281882319F0CA
:10360000128281E083830895AF92BF92CF92DF92BE
:10361000EF92FF920F931F93CF93DF931F92CDB73B
:10362000DEB78C018FE2FB0181935F01D12C41E079
:103630007801F3E3EF1AFEEFFF0A8FE1C82E2D2D7C
:1036400030E0F7018081918128173907D8F4C29EB4
:10365000C001C39E900D112485569F4FB501800F68
:10366000911F49830F94817DC50149815C010196B9
:10367000F5012081222321F04D3810F44F5FF6CF61
:10368000D394DDCF47FD11C0B501C8018A509E4FCC
:103690000F90DF91CF911F910F91FF90EF90DF90EE
:1036A000CF90BF90AF900D94817DF50110820F9067
:1036B000DF91CF911F910F91FF90EF90DF90CF900E
:1036C000BF90AF9008954F925F926F927F928F92CA
:1036D0009F92AF92BF92CF92DF92EF92FF920F93A1
:1036E0001F93CF93DF93CDB7DEB7AC970FB6F894A7
:1036F000DEBF0FBECDBF7C015B01FC01848188234E
:1037000009F4F9C0C7018A509E4F0F94CC80F7018D
:103710001282CE0101966C01B6DB270196E7490EB5
:10372000511CC701895A9F4FF20191838083F50193
:1037300080818F3209F077C06FE270E0C5010F948D
:1037400008C28C010F5F1F4F09F473C06FE270E075
:10375000C8010F9408C24C01009709F46BC0081708
:10376000190708F067C03C01601A710AA301B8018B
:10377000CE0180960F9431C2E0E2F0E0EC0FFD1F25
:10378000E60DF71D1082BE01605E7F4F8CE298E16E
:103790000F94D9B36AE070E08CE298E17EDBF2012D
:1037A000608171816115710519F06C5F7F4F02C0F6
:1037B00060E070E021E0AE01405E5F4FCE01059613
:1037C0000F94C38281112AC0E5EAF7E064918F016A
:1037D000662359F0772767FD70958CE298E15DDBF1
:1037E0000F5F1F4FF8016491F3CFBE01605E7F4F02
:1037F0008CE298E10F94D9B3E3EAF7E064918F018A
:10380000662309F471C0772767FD70958CE298E113
:1038100044DB0F5F1F4FF8016491F2CFF201D182B8
:10382000C08284018FCFC70188589F4FF2019183D6
:1038300080838501F20180819181009711F00496C7
:1038400002C080E090E0B8010F949983882321F1B1
:10385000E5E9F7E064915F01662361F0772767FD92
:1038600070958CE298E119DBFFEFAF1ABF0AF50102
:103870006491F2CFB8018CE298E10F94D9B36AE079
:1038800070E08CE298E109DBF701E555FD4F10820D
:103890001182128213822DC0EDE7F7E064917F015F
:1038A000662361F0772767FD70958CE298E1F5DA81
:1038B000FFEFEF1AFF0AF7016491F2CFB8018CE233
:1038C00098E10F94D9B3EBE7F7E064918F01662399
:1038D00059F0772767FD70958CE298E1DEDA0F5F8B
:1038E0001F4FF8016491F3CF6AE070E08CE298E139
:1038F000D4DAC601D9DAAC960FB6F894DEBF0FBEA3
:10390000CDBFDF91CF911F910F91FF90EF90DF908E
:10391000CF90BF90AF909F908F907F906F905F906F
:103920004F9008950F931F93CF93DF93EC018C81F9
:10393000882309F43CC0E9E6F7E064918F0166232F
:1039400059F0772767FD70958CE298E1A6DA0F5F52
:103950001F4FF8016491F3CFFE01E555FD4F408103
:103960005181628173812AE030E08CE298E10F940A
:10397000B5B4E7E6F7E064918F01662359F0772745
:1039800067FD70958CE298E188DA0F5F1F4FF801B0
:103990006491F3CFCD55DD4F488159816A817B8198
:1039A0002AE030E08CE298E10F94B5B410C0E7E56E
:1039B000F7E06491EF01662351F0772767FD70957A
:1039C0008CE298E16ADA2196FE016491F4CF6AE014
:1039D00070E08CE298E1DF91CF911F910F915DCA69
:1039E000AF92BF92CF92DF92EF92FF920F931F930D
:1039F000CF93DF935C01EB01FB0101900020E9F71D
:103A00008F0101501109061B170B6C01FAE0CF1A48
:103A1000FEEFDF0AF60110826EE470E0CE010F9433
:103A200008C27C01009729F4F8013197EC0FFD1FC3
:103A30000DC060E270E00F9408C2EC0121966AE2CA
:103A400070E0C7010F9408C2FC0131978DE08183BB
:103A50008AE082831382BE01C5018E509E4F0F946F
:103A60005F85F6018081882379F1EAE0F9E06491CD
:103A7000EF01662351F0772767FD70958CE298E19E
:103A80000CDA2196FE016491F4CFE1E4F7E0649151
:103A9000EF01662351F0772767FD70958CE298E17E
:103AA000FCD92196FE016491F4CF6AE070E08CE2CB
:103AB00098E1DF91CF911F910F91FF90EF90DF90F0
:103AC000CF90BF90AF90E9C9DF91CF911F910F9137
:103AD000FF90EF90DF90CF90BF90AF9008952F921E
:103AE0003F924F925F926F927F928F929F92AF928E
:103AF000BF92CF92DF92EF92FF920F931F93CF93DB
:103B0000DF93CDB7DEB7CC55D1090FB6F894DEBF41
:103B10000FBECDBF4C018C0101551D4F662339F0FE
:103B2000F8011082F401848181111DC015C0F801D3
:103B30008081882309F4ABC0F401E955FD4FC080B2
:103B4000D180E280F3800F9452AEC616D706E80605
:103B5000F90608F49CC0E4CFC4013EDCF401848182
:103B6000882309F494C07401F5E5EF0EF11CF70108
:103B700081818F9380818F9388E397E09F938F93C8
:103B80008E01015C1F4F1F930F930F947FC20F9004
:103B90000F900F900F900F900F90B12CF8010190A3
:103BA0000020E9F73197E01BF10BBE1684F46801A1
:103BB000CB0CD11CB7FCDA94F6018081992787FDE4
:103BC00090950F9493C1F6018083B394E7CFFBE502
:103BD0008F0E911CC40152D9512CCE0101966C015B
:103BE00091E3692E97E0792E5E0191E2A90EB11C56
:103BF00040E050E0B601C4010F94367F1816DCF5A2
:103C0000412CF60101900020E9F73197EC19FD09EC
:103C10004E1674F41601240C311C47FC3A94F10141
:103C2000808190E00F9493C1F10180834394E9CFA8
:103C30008A858E37E9F245E050E0B801C6010F945D
:103C400023C2892BA9F61F930F937F926F92BF9285
:103C5000AF920F947FC2C5010E94964F8DE297E00C
:103C60000E9412500F900F900F900F900F900F9096
:103C700055245394BDCF511004C08FEF9FEFF7012F
:103C800004C0F70180819181019691838083C45A99
:103C9000DF4F0FB6F894DEBF0FBECDBFDF91CF91DF
:103CA0001F910F91FF90EF90DF90CF90BF90AF905A
:103CB0009F908F907F906F905F904F903F902F904C
:103CC0000895EF92FF920F931F93CF93DF931F926C
:103CD000CDB7DEB78C017C018AE0E81A8EEFF80AD6
:103CE000C70169830F948280C7010F94CC80F801CB
:103CF000108211826981662309F407C18091940AB8
:103D00009091950AA091960AB091970A80932B0BF7
:103D100090932C0BA0932D0BB0932E0B8091980AAF
:103D20009091990AA0919A0AB0919B0A8093270BCF
:103D30009093280BA093290BB0932A0B80919C0A97
:103D400090919D0AA0919E0AB0919F0A8093230BA7
:103D50009093240BA093250BB093260B8091EF0931
:103D600090E09093220B8093210B4091A00A5091F8
:103D7000A10A6091A20A7091A30A40931D0B50936F
:103D80001E0B60931F0B7093200BF70180859185AC
:103D9000A285B3858093190B90931A0BA0931B0BEC
:103DA000B0931C0B80910418909105189093160BFA
:103DB0008093150B80910618909107189093180B1B
:103DC0008093170B80910218909103189093140B15
:103DD0008093130B80915E0290915F029093100B81
:103DE00080930F0B8091ED099091EE099093120B47
:103DF0008093110B8091EB099091EC099093FA0A52
:103E00008093F90A8091E20A8093F80A8091E30A8C
:103E10009091E40A9093FC0A8093FB0A8091E50A52
:103E20009091E60A9093FE0A8093FD0A8091E70A3A
:103E30009091E80A9093000B8093FF0A8091E90A21
:103E40009091EA0A9093020B8093010B8091EB0A08
:103E50009091EC0A9093040B8093030B8091ED0AF0
:103E60009091EE0A9093060B8093050B8091EF0AD8
:103E70009091F00A9093080B8093070B8091F10AC0
:103E80009091F20A90930A0B8093090B8091F30AA8
:103E90009091F40A90930C0B80930B0B8091F50A90
:103EA0009091F60A90930E0B80930D0B0E94006880
:103EB00090937702809376020E948E6B60937202D9
:103EC000709373028093740290937502E1E2F7E0BD
:103ED00064918F01662361F0772767FD70958CE20E
:103EE00098E10E944D170F5F1F4FF8016491F2CFC8
:103EF0006AE070E08CE298E10F90DF91CF911F9122
:103F00000F91FF90EF900C944D170F90DF91CF9190
:103F10001F910F91FF90EF900895CF92DF92EF9253
:103F2000FF920F931F93CF93DF93CDB7DEB76F97B9
:103F30000FB6F894DEBF0FBECDBF8C016A017C01C5
:103F400086E7E80EF11CC80188589F4FF70191835E
:103F50008083E65CFD4F22E030E03183208332969F
:103F60007183608304960E943E17F701608171811E
:103F7000CE0101962FD89601AE014F5F5F4F68E1E9
:103F800077E0C8013BD8CE0101960E9454176F9686
:103F90000FB6F894DEBF0FBECDBFDF91CF911F915A
:103FA0000F91FF90EF90DF90CF900895CF92DF9226
:103FB000EF92FF920F931F93CF93DF93CDB7DEB7AE
:103FC0006F970FB6F894DEBF0FBECDBF8C016C01AA
:103FD00026E7C20ED11C88589F4FF601918380833B
:103FE000E65CFD4F21E030E0318320837801FEE480
:103FF000EF1AFDEFFF0AF7011182108204960E946A
:104000003E17F60160817181CE0101960E94EA1788
:1040100020E030E0AE014F5F5F4F68E177E0C8011C
:104020000E94FE17CE0101960E945417F70180816D
:1040300091816F960FB6F894DEBF0FBECDBFDF91B2
:10404000CF911F910F91FF90EF90DF90CF90089547
:104050002F923F924F925F926F927F928F929F9298
:10406000AF92BF92CF92DF92EF92FF920F931F9386
:10407000CF93DF93CDB7DEB7C257D1090FB6F8940F
:10408000DEBF0FBECDBF8C012B01E1964FAFE19794
:10409000FC018481882309F430C4E750FE4F8081FD
:1040A000882309F412C12111D9C07801FFEEEF1A5B
:1040B000FDEFFF0AF7018081882309F435C0EAE0AB
:1040C000F9E064918F01662361F0772767FD7095B1
:1040D0008CE298E10E944D170F5F1F4FF801649129
:1040E000F2CFEDE7F8E064918F01662361F0772766
:1040F00067FD70958CE298E10E944D170F5F1F4F8E
:10410000F8016491F2CF4AE050E061E070E08CE2A7
:1041100098E10F9488B46AE070E08CE298E10E9424
:104120004D170E945BA7E9C3E4E0F9E064916F01D9
:10413000662369F0772767FD70958CE298E10E940D
:104140004D17FFEFCF1ADF0AF6016491F1CFE4E6D5
:10415000F8E064916F01662369F0772767FD709539
:104160008CE298E10E944D17FFEFCF1ADF0AF601AB
:104170006491F1CFB2018CE298E10F94D9B3E9E5F3
:10418000F8E064916F01662369F0772767FD709509
:104190008CE298E10E944D17FFEFCF1ADF0AF6017B
:1041A0006491F1CFF70180812DE8D22EB801D89E1D
:1041B000600D711D11246A5E7D4FC80125DAF7017B
:1041C0008081B801D89E600D711D11246A5E7D4FFB
:1041D0008CE298E10F94D9B3E3E5F8E064916F01C4
:1041E000662369F0772767FD70958CE298E10E945D
:1041F0004D17FFEFCF1ADF0AF6016491F1CF680186
:10420000F5E5CF1AFDEFDF0AF601408151816281A9
:1042100073812AE030E08CE298E10F94B5B46AE053
:1042200070E08CE298E10E944D17F7012081F801BF
:1042300084E0289FE00DF11D1124AF014E5E5D4F1B
:10424000F60180819181A281B381FA0180839183FB
:10425000A283B3832F5FF701208331C0E4E0F9E04C
:1042600064917F01662369F0772767FD70958CE282
:1042700098E10E944D17FFEFEF1AFF0AF7016491D2
:10428000F1CFE2E4F8E064917F01662369F07727DB
:1042900067FD70958CE298E10E944D17FFEFEF1AD1
:1042A000FF0AF7016491F1CFB2018CE298E10F941B
:1042B000D9B36AE070E08CE298E10E944D17C80122
:1042C0008A509E4F0F94CC8035C0F801EF5EFD4FB1
:1042D0001082E4E0F9E064917F01662369F07727BA
:1042E00067FD70958CE298E10E944D17FFEFEF1A81
:1042F000FF0AF7016491F1CFE1E3F8E064917F01F7
:10430000662369F0772767FD70958CE298E10E943B
:104310004D17FFEFEF1AFF0AF7016491F1CFB201D9
:104320008CE298E10F94D9B36AE070E08CE298E1F6
:104330000E944D17F80112821E01F0E22F0E311C6F
:10434000C1010E944317C8018A589F4FAC969FAF86
:104350008EAFAC974F97AC96EEADFFADAC97918317
:104360008083F20180818F3209F051C16FE270E0E9
:10437000C2010F9408C201967C01C80180559D4F6F
:10438000E0969FAF8EAFE097F801EE54FD4FAE96EA
:10439000FFAFEEAFAE974E01FFE38F0E911C3801D9
:1043A00085E0680E711CE114F10409F49AC16FE212
:1043B00070E0C7010F9408C26C01009709F492C124
:1043C000E816F90608F08EC15C01AE18BF08A50119
:1043D000B701CE01835A9F4F0F9431C2EDE5F0E053
:1043E000EC0FFD1FEA0DFB1D1082BE01635A7F4FCB
:1043F0008CE298E10F94D9B36AE070E08CE298E126
:104400000E944D17AC96EEADFFADAC976081718107
:104410006115710519F06C5F7F4F02C060E070E0BC
:1044200021E0AE01435A5F4FCE0184960F94C382C0
:1044300081112CC0EDE1F8E064918F01662361F0F9
:10444000772767FD70958CE298E10E944D170F5F0A
:104450001F4FF8016491F2CFBE01635A7F4F8CE287
:1044600098E10F94D9B3EBE1F8E064918F016623F2
:1044700009F43AC2772767FD70958CE298E10E94B3
:104480004D170F5F1F4FF8016491F1CFAC96EEAD61
:10449000FFADAC97318220827601FFEFEF1AFF0A61
:1044A00080916A0B81117FCF81E090E0E096EEADC4
:1044B000FFADE09791838083AE96EEADFFADAE97F2
:1044C00011821082CE0184960E943E17B101CE0166
:1044D00001960E94EA1720E030E0AE014F5F5F4F87
:1044E00068E177E0C8010E94FE17CE0101960E94A4
:1044F0005417AE96EEADFFADAE97A080B1808EE1C1
:10450000F40111928A95E9F77F926F929F928F92B0
:104510000F9451C20F900F900F900F906401F6010D
:104520008081882349F0992787FD90950F9493C146
:10453000F60181936F01F3CFC12CD12CB701C401D7
:104540000F9413C2892B09F45BC0CA14DB040CF06E
:1045500057C082E090E0E096EEADFFADE09791832A
:104560008083AE96EEADFFADAE97D182C082AC96A1
:10457000EEADFFADAC978081918104960E943E170D
:10458000B101CE0101960E94EA1720E030E0AE01B1
:104590004F5F5F4F68E177E0C8010E94FE17CE01D0
:1045A00001960E945417F4018EE111928A95E9F761
:1045B0007F926F929F928F920F9451C20F900F90A3
:1045C0000F900F909401F90180818823A9F0992719
:1045D00087FD9095E2962FAFE297E3963FAFE39782
:1045E0000F9493C1E2962FADE297E3963FADE39728
:1045F000F90181939F01E7CFFFEFCF1ADF0A9ECF2A
:10460000AE96EEADFFADAE9711821082CCCEC80152
:1046100088589F4FAC96EEADFFADAC9791838083E9
:1046200080916A0B81115DC0C801C0DC4C01CE01D4
:1046300001967C018EE1F70111928A95E9F7580104
:10464000F5E0AF0EB11CBF92AF92FF92EF920F94C4
:1046500051C20F900F900F900F906701F60180816B
:10466000882349F0992787FD90950F9493C1F6010F
:1046700081936F01F3CFC12CD12CB201C7010F94EC
:1046800013C2892B49F1C814D90434F540E050E035
:10469000B601C80142DCF7018EE111928A95E9F773
:1046A000BF92AF92FF92EF920F9451C20F900F9072
:1046B0000F900F903701F3018081882349F09927EB
:1046C00087FD90950F9493C1F30181933F01F3CF40
:1046D000FFEFCF1ADF0AD1CFF801EE54FD4F118260
:1046E00010827201C8018A509E4F6C01E1969FAD05
:1046F000E197AC96EEADFFADAC97608171819923E7
:1047000009F4A0C06115710519F06C5F7F4F02C0FC
:1047100060E070E021E0A701C6010F94C382882306
:1047200009F466C0F60181899289A389B489F801E8
:10473000ED55FD4F80839183A283B383EDE0F8E0D4
:1047400064915F01C8018D559D4F6C01662369F02E
:10475000772767FD70958CE298E10E944D179FEFD7
:10476000A91AB90AF5016491F1CFB7018CE298E179
:104770000F94D9B3E5E0F8E064917F01662369F016
:10478000772767FD70958CE298E10E944D17FFEF47
:10479000EF1AFF0AF7016491F1CFF60140815181D0
:1047A000628173812AE030E08CE298E10F94B5B425
:1047B0006AE070E08CE298E10E944D17F801E5553F
:1047C000FD4F1082118212821382E7EFF7E06491AD
:1047D0008F01662309F488C0772767FD70958CE206
:1047E00098E10E944D170F5F1F4FF8016491F1CFC0
:1047F000E3EEF7E064918F01662361F0772767FDB0
:1048000070958CE298E10E944D170F5F1F4FF801E1
:104810006491F2CFB7018CE298E10F94D9B3E1EE45
:10482000F7E064918F01662309F45EC0772767FD86
:1048300070958CE298E10E944D170F5F1F4FF801B1
:104840006491F1CF6115710519F06C5F7F4F02C063
:1048500060E070E026E5A701C6010F94C3828111D4
:1048600029C0EDECF7E064918F01662361F07727B2
:1048700067FD70958CE298E10E944D170F5F1F4F06
:10488000F8016491F2CFB7018CE298E10F94D9B3AB
:10489000EBECF7E064918F01662331F1772767FD38
:1048A00070958CE298E10E944D170F5F1F4FF80141
:1048B0006491F2CF81E0F8018083E9EBF7E0649145
:1048C0008F01662361F0772767FD70958CE298E190
:1048D0000E944D170F5F1F4FF8016491F2CFB20194
:1048E0008CE298E10F94D9B36AE070E08CE298E131
:1048F0000E944D17C1010E945417CE58DF4F0FB6CA
:10490000F894DEBF0FBECDBFDF91CF911F910F9105
:10491000FF90EF90DF90CF90BF90AF909F908F90DF
:104920007F906F905F904F903F902F90089521E07F
:10493000FC01218340E08CCBAF92BF92CF92DF92FB
:10494000EF92FF920F931F93CF93DF93CDB7DEB714
:104950006F970FB6F894DEBF0FBECDBF8C017B0101
:10496000CE0101960E944317F801E158FF4F808164
:104970006801811104C027E5C20ED11C03C088E77D
:10498000C80ED11C21E0A701B6016C5F7F4FCE019C
:1049900005960F94C382811136C0E4E0F9E064917A
:1049A0008F01662361F0772767FD70958CE298E1AF
:1049B0000E944D170F5F1F4FF8016491F2CFEBE09B
:1049C000F7E064918F01662361F0772767FD7095AA
:1049D0008CE298E10E944D170F5F1F4FF801649120
:1049E000F2CFB7018CE298E10F94D9B36AE070E09E
:1049F0008CE298E10E944D17CE0101960E94541757
:104A00008FEF9FEF3AC0F801E353FE4F8081918111
:104A10008A30910530F59C012F5F3F4F3183208311
:104A20002FE1289F7001299FF00C1124F7E9EF0E68
:104A3000F11CE00EF11E5C01B701C7014F960E9408
:104A4000DC1921E0A21AB1088FE1E81AF108EFEFB2
:104A5000AE16BE0689F7B601C80189569F4F0E945F
:104A6000DC19BE016F5F7F4FC80188589F4F0E94BD
:104A7000DC19CE0101960E9454176F960FB6F89478
:104A8000DEBF0FBECDBFDF91CF911F910F91FF9081
:104A9000EF90DF90CF90BF90AF900895EF92FF928C
:104AA0000F931F93CF93DF93EC01C353DE4F288105
:104AB00039812115310529F12150310939832883A4
:104AC0008C0109561F4FB80188589F4F0E94DC196E
:104AD000C80100E010E0288139817C014FE1E40E3B
:104AE000F11C0217130738F40F5F1F4FB7010E9424
:104AF000DC19C701F0CF81E090E0232B21F080E0AA
:104B000002C08FEF9FEFDF91CF911F910F91FF9028
:104B1000EF9008958F929F92AF92BF92CF92DF92C3
:104B2000EF92FF920F931F93CF93DF93EC011092BC
:104B3000B00A80911E0A90911F0A019690931F0A55
:104B400080931E0AF5D24091991450919A14609165
:104B50009B1470919C1440939D1450939E146093E9
:104B60009F147093A01486E097E00E9412500F9457
:104B700062927E018FEEE81A8DEFF80AF7018081CC
:104B80008E010A501E4F8823D1F1C8010F94CC80AA
:104B9000F701808181508083BE01FDE88F9F600D09
:104BA000711D11246A5E7D4F21E041E0CE0150DA93
:104BB000F7018081FE0194E0899FE00DF11D112431
:104BC000EE5EFD4F4081518162817381FE01E555AA
:104BD000FD4F4083518362837383C8010F94E97F43
:104BE000CE01DF91CF911F910F91FF90EF90DF9059
:104BF000CF90BF90AF909F908F900C94CD1A0F9450
:104C0000F392C8010F94CC801A8220E030E045E096
:104C100050E06AE070E089E89EE00E94C03F83E0D7
:104C200097E00E9412500F9462928EEF96E00E94DD
:104C3000125083E090E00E94FB67109205181092DA
:104C40000418109207181092061810920318109268
:104C500002181092EC091092EB091092300B10928E
:104C60002F0B1092340B1092330B1092320B1092C8
:104C7000310B1092F70A10926A0B1092690B109286
:104C8000680B6091240A7091250A8091260A909100
:104C9000270A2CE330E040E050E00F949FBB3093B4
:104CA000210A2093200A7093230A6093220AC0905D
:104CB000B514D090B614E090B714F090B8142091C9
:104CC000100A3091110A4091120A5091130A609112
:104CD000140A7091150A8091160A9091170A0F9480
:104CE000F6B74B015C012091F9143091FA14409110
:104CF000FB145091FC146091FD147091FE1480918E
:104D0000FF14909100150F9437B8A70196010F94E6
:104D100023B79B01AC01C501B4010F9443B60F94B6
:104D20008BB72093100A3093110A4093120A5093C4
:104D3000130A6093140A7093150A8093160A9093CD
:104D4000170A2091080A3091090A40910A0A5091E5
:104D50000B0A60910C0A70910D0A80910E0A9091D5
:104D60000F0A0F94F6B74B015C012091F1143091BA
:104D7000F2144091F3145091F4146091F514709171
:104D8000F6148091F7149091F8140F9437B8A70196
:104D900096010F9423B79B01AC01C501B4010F9498
:104DA00043B60F948BB72093080A3093090A4093B7
:104DB0000A0A50930B0A60930C0A70930D0A8093B1
:104DC0000E0A90930F0A2091000A3091010A409137
:104DD000020A5091030A6091040A7091050A8091B9
:104DE000060A9091070A0F94F6B76B017C01209197
:104DF000E9143091EA144091EB145091EC14609155
:104E0000ED147091EE148091EF149091F0140F94C2
:104E100037B82091B9143091BA144091BB14509115
:104E2000BC140F9423B79B01AC01C701B6010F94CA
:104E300043B60F948BB72093000A3093010A409336
:104E4000020A5093030A6093040A7093050A809340
:104E5000060A9093070AC090C114D090C214E09043
:104E6000C314F090C4142091F8093091F9094091CD
:104E7000FA095091FB096091FC097091FD0980913C
:104E8000FE099091FF090F94F6B74B015C01209148
:104E9000E1143091E2144091E3145091E4146091D4
:104EA000E5147091E6148091E7149091E8140F9442
:104EB00037B8A70196010F9423B79B01AC01C50138
:104EC000B4010F9443B60F948BB72093F809309335
:104ED000F9094093FA095093FB096093FC09709318
:104EE000FD098093FE099093FF092091F00930910C
:104EF000F1094091F2095091F3096091F409709120
:104F0000F5098091F6099091F7090F94F6B74B01D6
:104F10005C012091D9143091DA144091DB14509146
:104F2000DC146091DD147091DE148091DF14909197
:104F3000E0140F9437B8A70196010F9423B79B0193
:104F4000AC01C501B4010F9443B60F948BB7209305
:104F5000F0093093F1094093F2095093F3096093FB
:104F6000F4097093F5098093F6099093F70910926C
:104F7000F9141092FA141092FB141092FC1410926F
:104F8000FD141092FE141092FF141092001510924E
:104F9000F1141092F2141092F3141092F41410926F
:104FA000F5141092F6141092F7141092F81410924F
:104FB000E9141092EA141092EB141092EC1410926F
:104FC000ED141092EE141092EF141092F01410924F
:104FD000E1141092E2141092E3141092E41410926F
:104FE000E5141092E6141092E7141092E81410924F
:104FF000D9141092DA141092DB141092DC1410926F
:10500000DD141092DE141092DF141092E01490D090
:1050100082EF96E00E941250809150148823F9F09C
:1050200010925014C091EF09D0E0CC0FDD1FCC5F7F
:10503000D74E68817981882777FD8095982F0F94C6
:10504000FCB72091BE023091BF024091C002509146
:10505000C1020F94ABB9181614F419821882DF91AB
:10506000CF911F910F91FF90EF90DF90CF90BF9065
:10507000AF909F908F9008958D559D4FFC0160815A
:10508000718182819381089585559D4FFC016081D6
:105090007181828193810895EF92FF920F931F9304
:1050A000CF93DF931F92CDB7DEB78C017B01460F04
:1050B000F70161917F01F8018081918149830F940B
:1050C0007DC7F80180819181019691838083498118
:1050D0004E11EECF0F90DF91CF911F910F91FF9066
:1050E000EF900895EF92FF920F931F93CF93DF936A
:1050F0001F92CDB7DEB78C017B01460FF80180818E
:10510000918149830F9475C7F70181937F01F8015D
:105110008081918101969183808349814E11EECFE8
:105120000F90DF91CF911F910F91FF90EF90089515
:105130000F931F93CF93DF93CDB7DEB768970FB66A
:10514000F894DEBF0FBECDBF80E390E3A0E3B0E0F4
:105150008D839E83AF83B88704E610E0188F0F8B92
:1051600044E0BE016B5F7F4FCE01479695DF40E183
:1051700065EB74E1CE0147968FDF40E165EC74E1A9
:10518000CE01479689DF40E165EA74E1CE0147969A
:1051900083DF44E06DE974E1CE0147967DDF44E0B2
:1051A00065E974E1CE01479677DF44E061EA74E196
:1051B000CE01479671DF44E065E874E1CE01479681
:1051C0006BDF44E065ED74E1CE01479665DF44E0B6
:1051D00061E974E1CE0147965FDF44E06DE874E178
:1051E000CE01479659DF44E069E874E1CE01479665
:1051F00053DF4CE068E77AE0CE0147964DDF87ED5C
:1052000090E09E8B8D8B8DE290E09C8B8B8B1A8A2D
:10521000198A80EF90E0988B8F8786E490E09E87D4
:105220008D871C861B8642E0BE016B5E7F4FCE01E0
:10523000479632DF42E0BE016D5E7F4FCE0147965A
:105240002BDF42E0BE016F5E7F4FCE01479624DF29
:1052500042E0BE01615F7F4FCE0147961DDF42E015
:10526000BE01635F7F4FCE01479616DF42E0BE016D
:10527000655F7F4FCE0147960FDF44E065E67AE039
:10528000CE01479609DF44E06BE272E0CE0147961B
:1052900003DF44E063E372E0CE014796FDDE44E0C5
:1052A0006BE372E0CE014796F7DE42E06BED7AE009
:1052B000CE014796F1DE42E06FED7AE0CE014796EF
:1052C000EBDE42E06DED7AE0CE014796E5DE42E0AE
:1052D00069ED7AE0CE014796DFDE42E06BEC7AE0E2
:1052E000CE014796D9DE42E06FEC7AE0CE014796D8
:1052F000D3DE42E06DEC7AE0CE014796CDDE42E0AF
:1053000069EC7AE0CE014796C7DE42E063ED7AE0D1
:10531000CE014796C1DE42E067ED7AE0CE014796C6
:10532000BBDE42E065ED7AE0CE014796B5DE42E0B5
:1053300061ED7AE0CE014796AFDE42E063EC7AE0C1
:10534000CE014796A9DE42E067EC7AE0CE014796AF
:10535000A3DE42E065EC7AE0CE0147969DDE42E0B6
:1053600061EC7AE0CE01479697DE44E06DE173E0B0
:10537000CE01479691DE44E065E173E0CE014796A9
:105380008BDE44E06DE073E0CE01479685DE44E0BD
:1053900061E273E0CE0147967FDE44E069E173E0AD
:1053A000CE01479679DE44E061E173E0CE01479695
:1053B00073DE42E06AE27AE0CE0147966DDE42E0BB
:1053C0006EE17AE0CE01479667DE42E06CE17AE07A
:1053D000CE01479661DE42E06AE17AE0CE0147966F
:1053E0005BDE42E068E27AE0CE01479655DE42E0BD
:1053F00068E17AE0CE0147964FDE80E290E09A873E
:10540000898742E0BE01675F7F4FCE01479644DE49
:1054100042E062E77BE0CE0147963EDE44E06EE686
:105420007BE0CE01479638DE42E06CE67BE0CE01C1
:10543000479632DE42E062E27AE0CE0147962CDE09
:1054400042E060E27AE0CE01479626DE48E060E185
:105450007AE0CE01479620DE48E068E07AE0CE01AF
:1054600047961ADE48E060E07AE0CE01479614DE07
:1054700048E068EF79E0CE0147960EDE48E060EF45
:1054800079E0CE01479608DE42E060E772E0CE01A7
:10549000479602DE42E068E772E0CE014796FCDD07
:1054A00044E06BE27BE0CE014796F6DD44E067E244
:1054B0007BE0CE014796F0DD44E063E27BE0CE0185
:1054C0004796EADD42E061E27BE0CE014796E4DD0B
:1054D00044E06DE17BE0CE014796DEDD44E069E12A
:1054E0007BE0CE014796D8DD42E067E17BE0CE016C
:1054F0004796D2DD42E065E17BE0CE014796CCDD08
:1055000042E063E17BE0CE014796C6DD42E061E127
:105510007BE0CE014796C0DD42E06FE07BE0CE014C
:105520004796BADD41E068EF7AE0CE014796B4DDF8
:1055300042E06BEF7AE0CE014796AEDD42E06DEFE0
:105540007AE0CE014796A8DD42E06FEF7AE0CE0127
:105550004796A2DD42E061E07BE0CE0147969CDD0C
:1055600042E063E07BE0CE01479696DD42E065E0F5
:105570007BE0CE01479690DD42E067E07BE0CE0124
:1055800047968ADD42E069E07BE0CE01479684DD04
:1055900042E06BE07BE0CE0147967EDD42E06DE0CD
:1055A0007BE0CE01479678DD44E069E974E1CE0105
:1055B000479672DD42E064E47BE0CE0147966CDD05
:1055C00044E061E67AE0CE01479666DD44E06DE5B1
:1055D0007AE0CE01479660DD44E06CE27AE0CE01ED
:1055E00047965ADD44E060E37AE0CE01479654DD09
:1055F00044E064E37AE0CE0147964EDD44E068E3A0
:105600007AE0CE01479648DD42E066E772E0CE01DF
:10561000479642DD44E062E772E0CE0147963CDD0A
:1056200042E06BEE79E0CE01479636DD42E06BE575
:105630007AE0CE01479630DD42E062E472E0CE01CE
:1056400047962ADD86E591E3A2E3B0E089839A8359
:10565000AB83BC83188F0F8B44E0BE016F5F7F4F1D
:10566000CE01479619DDECEAFFE064918F016623D5
:1056700061F0772767FD70958CE298E10E944D17E5
:105680000F5F1F4FF8016491F2CFECE9FFE06491E6
:105690008F01662361F0772767FD70958CE298E1B2
:1056A0000E944D170F5F1F4FF8016491F2CF6AE01F
:1056B00070E08CE298E10E944D1768960FB6F8945E
:1056C000DEBF0FBECDBFDF91CF911F910F91089527
:1056D0000F931F93CF93DF93CCEADFE0FE01649139
:1056E0008E01662361F0772767FD70958CE298E163
:1056F0000E944D170F5F1F4FF8016491F2CFECE845
:10570000FFE064918F01662361F0772767FD709554
:105710008CE298E10E944D170F5F1F4FF8016491D2
:10572000F2CF6AE070E08CE298E10E944D17FE0132
:1057300064910CEA1FE0662361F0772767FD70959E
:105740008CE298E10E944D170F5F1F4FF8016491A2
:10575000F2CF4091B5145091B6146091B714709186
:10576000B81484E89FE00E942A4F4091B9145091E8
:10577000BA146091BB147091BC1481E89FE00E9440
:105780002A4F4091BD145091BE146091BF14709186
:10579000C0148EE79FE00E942A4F4091C11450919F
:1057A000C2146091C3147091C4148BE79FE00E94EF
:1057B0002A4F68E177E08CE298E10F94D9B36AE070
:1057C00070E08CE298E10E944D17FE0164910CEAB2
:1057D0001FE0662361F0772767FD70958CE298E102
:1057E0000E944D170F5F1F4FF8016491F2CFE1E661
:1057F000FFE064918F01662361F0772767FD709564
:105800008CE298E10E944D170F5F1F4FF8016491E1
:10581000F2CF6AE070E08CE298E10E944D17FE0141
:1058200064910CEA1FE0662361F0772767FD7095AD
:105830008CE298E10E944D170F5F1F4FF8016491B1
:10584000F2CF4091C5145091C6146091C714709165
:10585000C81488E59FE00E942A4F4091C9145091D6
:10586000CA146091CB147091CC1485E59FE00E941E
:105870002A4F4091CD145091CE146091CF14709165
:10588000D01482E59FE00E942A4F4091D11450919C
:10589000D2146091D3147091D4148FE49FE00E94CD
:1058A0002A4F68E177E08CE298E10F94D9B36AE07F
:1058B00070E08CE298E10E944D17FE0164910CEAC1
:1058C0001FE0662361F0772767FD70958CE298E111
:1058D0000E944D170F5F1F4FF8016491F2CFE1E373
:1058E000FFE064918F01662361F0772767FD709573
:1058F0008CE298E10E944D170F5F1F4FF8016491F1
:10590000F2CF6AE070E08CE298E10E944D17FE0150
:1059100064910CEA1FE0662361F0772767FD7095BC
:105920008CE298E10E944D170F5F1F4FF8016491C0
:10593000F2CF4091A5145091A6146091A7147091D4
:10594000A81488E29FE00E94724F4091A9145091E0
:10595000AA146091AB147091AC1485E29FE00E9490
:10596000724F4091AD145091AE146091AF1470918C
:10597000B01482E29FE00E94724F4091B1145091A6
:10598000B2146091B3147091B4148FE19FE00E943F
:10599000724F68E177E08CE298E10F94D9B36AE046
:1059A00070E08CE298E10E944D17FE0164910CEAD0
:1059B0001FE0662361F0772767FD70958CE298E120
:1059C0000E944D170F5F1F4FF8016491F2CFEAEE6E
:1059D000FEE064918F01662361F0772767FD709583
:1059E0008CE298E10E944D170F5F1F4FF801649100
:1059F000F2CF6AE070E08CE298E10E944D17FE0160
:105A000064910CEA1FE0662361F0772767FD7095CB
:105A10008CE298E10E944D170F5F1F4FF8016491CF
:105A2000F2CF40919D1450919E1460919F147091FB
:105A3000A01481EE9EE00E942A4F4091951450914F
:105A4000961460919714709198148EED9EE00E94C8
:105A50002A4F68E177E08CE298E10F94D9B36AE0CD
:105A600070E08CE298E10E944D17FE0164910CEA0F
:105A70001FE0662361F0772767FD70958CE298E15F
:105A80000E944D170F5F1F4FF8016491F2CFEBE2B8
:105A9000FEE064918F01662361F0772767FD7095C2
:105AA0008CE298E10E944D170F5F1F4FF80164913F
:105AB000F2CF6AE070E08CE298E10E944D17FE019F
:105AC00064910CEA1FE0662361F0772767FD70950B
:105AD0008CE298E10E944D170F5F1F4FF80164910F
