:100000000C9436170C9467170C9467170C946717A9
:100010000C9467170C9467170C9467170C94671768
:100020000C9467170C9467170C9467170C94671758
:100030000C9467170C9467170C9467170C94671748
:100040000C9467170D948A910C9467170C9467179A
:100050000C9467170C9467170D9448B00D94F2B484
:100060000C9467170D9422B90D9458B90C94671726
:100070000C9467170C9467170C9467170C94671708
:100080000C9467170C9467170C9467170C946717F8
:100090000C9467170C9467170C9467170C946717E8
:1000A0000C9467170C9467170C9467170C946717D8
:1000B0000C9467170C9467170C9467170C946717C8
:1000C0000C9467170C9467170C9467170D94CDB9AF
:1000D0000D9403BA0C9467170C9467170C94671768
:1000E0000C946717ECB6FCB704B9DAB821B8B9B804
:1000F00091B834B75CB784B789B9B1B9F9B921BA45
:10010000D4B7ACB75DB8C701BD0273020103BD022D
:100110002302BD020102BD02BD0227031B02BD0274
:10012000BD027103B501BD025D03BD02BD02BD028A
:1001300023034D030503D101F901BD025703310328
:10014000C102D5028D02DF012B03F3023703BD028A
:1001500005024B02BD0257029702B701ED01BD0235
:10016000E502ED021D03C702BD02FB027703B302E5
:10017000D3010F032903C302BD02BB022103CD013A
:10018000BD023B02350309030F02BD02FF0143021A
:1001900065034F023702EF01A702D7014902490266
:1001A00081020B02CD023B035103E9026303090202
:1001B00015023D02BD02BD02BD02CB02DF02FB0102
:1001C0001503A302F301BF0213020703FD01A902F5
:1001D0005F0221022F03330247029F02E7017702E9
:1001E000330349033903A5028F0235020B03610271
:1001F0007502BD02CF01530317027B02CB022F020F
:10020000EB014F03EB023F03B301410269034103DA
:10021000FD0213034703BD02BD022B02BD026502AE
:100220001F035D02A1024D028502BD012902AF023A
:10023000E9015B03190263027503F50193026B0385
:10024000F902CB015F03D702D302BD02BD02BD029A
:10025000BD02BD02BD02BD02BD02BD029702E302A6
:100260005902C5019902D901E1023902090341028B
:100270002D039D02BD026F03590371026703FF0244
:10028000DD01BD021F0245032702B10225023F0224
:10029000BD02BD02B702DD026F021102D501C90124
:1002A000E301950217032503BD02BD02F101BD0262
:1002B000BD029102BD02F70187021B03BF011903B2
:1002C000CF02E702EF028B0267025502B902B901C1
:1002D000E5015302550361031D02C101DB01AB02BD
:1002E0006B020702C5029B0203031D028902110370
:1002F0007F02F70279023D035B02D102030273031E
:10030000C902B50283024502C301D9026D0303028B
:10031000AD02B1016902084AD73B3BCE016E84BCF5
:10032000BFFDC12F3D6C74319ABD56833DDA3D004F
:10033000C77F11BED9E4BB4C3E916BAAAABE000098
:1003400000803F05A84CCDB2D44EB93836A9020C76
:1003500050B9918688083CA6AAAA2ABE000000804F
:100360003F000D9412B70D946A3D0D94FC080D9456
:10037000AE130D9428B60D945CB80D9417200D940F
:10038000F9B00D9450B60D9400B70D943E0C0D9439
:1003900045180D9447420D9486470D94093E0D94DF
:1003A000563E0D94A73A0D94502E0D94FA420D949A
:1003B0003C0D0D9497490D9458B60D9416420D942A
:1003C000BB2A0D9485500D9495420D942DB60D9435
:1003D000A9330D9464210D94A31A0D940C3A0D9435
:1003E000DB300D9446480D94B22C0D942E140D94D0
:1003F000670D0D947D3E0D945F100D9476310D9434
:10040000D23F0D94A10A0D941BB70D947D0A0D9453
:1004100074B60D94340F0D94F61D0D94B2B70D946F
:10042000EA1C0D94C8440D9429310D94DF080D94F5
:10043000B5100D94C9160D94490B0D94BFB60D94CB
:1004400024270D94E6320D94590A0D941D2A0D941B
:1004500055450D9476200D945D470D94BDB70D94D0
:10046000781A0D94388C0D9434330D9488360D948D
:10047000FF3A0D949C3D0D94303E0D943C090D9433
:10048000A0450D94DA3D0D94F2220D94FAB60D9428
:100490005B330D942E1B0D94E1090D94A6200D9451
:1004A0006E1D0D94DFB70D9432B60D944DB10D94C1
:1004B00030130D94F30B0D94D7B60D94E71F0D94E4
:1004C000C4310D9411380D94B5160D94592C0D941A
:1004D0004BB10D9416B70D946AB60D943BB80D94BC
:1004E0003B440D94C1400D94A3180D94A7370D946F
:1004F000CF330D94E4B60D94F6110D942CBA0D94EF
:10050000B5B60D94481A0D94F6B60D94131F0D94BC
:10051000D0B00D94A1B60D9449B10D946B340D94E7
:1005200066350D94E6480D9435150D94EB450D9404
:10053000862D0D9419490D948DB60D94913F0D940F
:1005400082330D9447200D94F82C0D94EF350D94C3
:10055000A43E0D949D310D9460B60D940EB70D948C
:10056000D6200D941E290D9450240D94F2B60D94AE
:1005700023430D9455B10D9411220D94714A0D949D
:1005800002310D94B5320D9426090D947EB60D946A
:10059000593A0D94ECB60D9410190D947E1E0D94DD
:1005A00020B10D94DDB60D9406210D9435350D94D2
:1005B000CD170D9404B70D94CBB70D94AE430D94A5
:1005C0000A100D943C3D0D94C80B0D9484130D94AA
:1005D0002DB10D94770B0D94E1390D945A130D94B0
:1005E00047B10D9435BA0D94D8130D9485BA0D9476
:1005F000E1B60D947C160D9472180D949B090D9420
:1006000099400D9403140D9497B60D94803A0D946F
:100610004F310D94CE3A0D948B380D948AB90D94C8
:10062000CC0A0D94ABB60D94F7490D94A30B0D9421
:1006300010470D9406B10D94DDB00D94333A0D942E
:10064000C92A0D94D10C0D9466300D94B4480D94C4
:10065000F3280D9452090D94AD2A0D94CB3E0D94C0
:100660000D330D9450320D94F6330D948B0E0D9482
:10067000D0340D9444340D94CE0E0D94D3B60D9415
:10068000E93C0D9425250D9481B90D9423260D94F4
:10069000FD170D941D340D949D500D948D300D94C7
:1006A000E61A0D94600B0D94930F0D943CB60D94C7
:1006B000EB310D948A410D9435210D94692A0D94E6
:1006C000DA160D9446B60D94030B0D94E5410D9486
:1006D00005410D94B6390D9442160D9408B70D944A
:1006E00043410D9411090D94E8B60D94AE2B0D9471
:1006F000B4304D383420582059205A2045004D310F
:100700003037005430004D3130370043616E6E6F2A
:100710007420656E746572207375626469723A2024
:10072000005341564544205052494E54004D3234F6
:10073000004D3233202573006175746F25692E6773
:10074000006572726F722077726974696E672074C7
:100750006F2066696C65004E6F7420534420707280
:10076000696E74696E67002F005344207072696E61
:1007700074696E67206279746520002E0044656C90
:100780006574696F6E206661696C65642C204669CA
:100790006C653A200046696C652064656C6574651B
:1007A000643A002E006F70656E206661696C656446
:1007B0002C2046696C653A200057726974696E672F
:1007C00020746F2066696C653A20002E006F70659A
:1007D0006E206661696C65642C2046696C653A2000
:1007E000002E006F70656E206661696C65642C2058
:1007F00046696C653A200046696C652073656C65D6
:1008000063746564002053697A653A200046696C18
:1008100065206F70656E65643A20002E006F70650C
:100820006E206661696C65642C2046696C653A20AF
:10083000004E6F772066726573682066696C653A52
:1008400020004E6F7720646F696E672066696C6563
:100850003A20002220706F73002220706172656E52
:10086000743A2200535542524F5554494E45204345
:10087000414C4C207461726765743A22007472793D
:10088000696E6720746F2063616C6C207375622DD4
:1008900067636F64652066696C6573207769746847
:1008A00020746F6F206D616E79206C6576656C7356
:1008B0002E204D4158206C6576656C2069733A0096
:1008C0007A70726F62653A200053442063617264EB
:1008D000206F6B006F70656E526F6F742066616978
:1008E0006C656400766F6C756D652E696E69742039
:1008F0006661696C656400534420696E69742066A2
:1009000061696C006563686F3A004572726F723A94
:1009100000535543434553530056616C756573202E
:100920006F7574206F662072616E67650056616C2A
:10093000756573206F7574206F662072616E6765D0
:100940000056616C756573206F7574206F66207238
:10095000616E67650056616C756573206F757420F4
:100960006F662072616E676500535543434553536C
:100970000056616C756573206F7574206F66207208
:10098000616E67650056616C756573206F757420C4
:100990006F662072616E67650056616C75657320C5
:1009A0006F7574206F662072616E67650056616CAA
:1009B000756573206F7574206F662072616E676550
:1009C00000535441544953544943532052455345CD
:1009D000540048617264636F6465642043616C69AC
:1009E0006220616E64205049442044656661756CE4
:1009F000742053657474696E6773204C6F6164650D
:100A0000640048617264636F646564204465666174
:100A1000756C742053657474696E6773204C6F61D4
:100A20006465640053746F726564207365747469DF
:100A30006E677320726574726965766564002C2038
:100A400073617665645F466C61675F66616E6C6159
:100A50007965725F6D6972726F723A20002C207333
:100A6000617665645F66656564726174653A2000ED
:100A70002C2073617665645F66616E6C6179657266
:100A80003A20002C2073617665645F74656D706236
:100A900065643A20002C2073617665645F74656D2F
:100AA00070303A20002C2073617665645F74656D48
:100AB00070313A20002C2073617665645F66696C42
:100AC00065706F736974696F6E3A20002C207361D2
:100AD0007665645F655F706F736974696F6E3A20E5
:100AE000002C2073617665645F746F6F6C5F616367
:100AF000746976653A20002C2073617665645F7AAC
:100B00005F706F736974696F6E3A20002C20736197
:100B10007665645F795F706F736974696F6E3A2090
:100B2000002C2073617665645F785F706F73697401
:100B3000696F6E3A200053415645205052494E5439
:100B4000204C4F473A00204D696E75746573203A0A
:100B50000020204C617374207072696E7420746977
:100B60006D652D3E20486F757273203A004C61739D
:100B700074207072696E74206475726174696F6E2E
:100B8000002C205468697264204944206E756D629F
:100B9000657220002C205365636F6E6420494420E9
:100BA0006E756D6265723A2000202046697273741A
:100BB000204944206E756D6265723A2000554920C7
:100BC000496E666F726D6174696F6E2053657269EC
:100BD000616C204E756D6265723A00206D2C204567
:100BE00031207072696E742064697374616E63651C
:100BF0003A2000206B6D2C204530207072696E7495
:100C00002064697374616E63653A2000206B6D2CFB
:100C10002059207072696E742064697374616E6308
:100C2000653A2000206B6D2C205831207072696E5F
:100C3000742064697374616E63653A200020432CEC
:100C40000A205830207072696E7420646973746170
:100C50006E63653A200020432C206D617820746516
:100C60006D7020423A200020432C206D6178207462
:100C7000656D7020523A20002C206D6178207465DB
:100C80006D70204C3A2000682C207072696E74736D
:100C90002066696E69736865643A20002C20707262
:100CA000696E74696E672074696D653A2000202052
:100CB0007072696E74733A200053544154533A0071
:100CC00020432C20525F5052494E543A200020437A
:100CD0002C20525F4245443A200020432C20525F92
:100CE00052454D4F56453A20002020525F494E5301
:100CF0004552543A200054656D70202843293A002B
:100D000020432C204C5F5052494E543A200020433F
:100D10002C204C5F4245443A200020432C204C5F5D
:100D200052454D4F56453A200020204C5F494E53C6
:100D30004552543A200054656D70202843293A00EA
:100D400020562856657273696F6E2920002052283C
:100D500042656420726967687420736372657729DD
:100D6000200020204D353331204C28426564206C12
:100D7000656674207363726577292000426564207C
:100D80004F66667365747320286D6D293A00205094
:100D9000285A2070726F62652900205A200020595D
:100DA000200020204D353330205820004F666673D8
:100DB00065747320286D6D293A0020440020490095
:100DC000202D204D333031205249474854205000C7
:100DD00020440020490020204D333031204C45462E
:100DE000542050005049442073657474696E6773D1
:100DF0003A00205A0020590020204D323036205829
:100E000000486F6D65206F666673657420286D6D90
:100E1000293A00204500205A002058002042002096
:100E2000540020204D323035205300416476616EED
:100E3000636564207661726961626C65733A205300
:100E40003D4D696E20666565647261746520286D2C
:100E50006D2F73292C20543D4D696E20747261767C
:100E6000656C20666565647261746520286D6D2F00
:100E700073292C20423D6D696E696D756D20736517
:100E8000676D656E742074696D6520286D73292CFB
:100E900020583D6D6178696D756D205859206A65DF
:100EA000726B20286D6D2F73292C20205A3D6D61A7
:100EB00078696D756D205A206A65726B20286D6D9A
:100EC0002F73292C2020453D6D6178696D756D204B
:100ED00045206A65726B20286D6D2F7329002054A0
:100EE0000020204D323034205300416363656C652F
:100EF000726174696F6E3A20533D616363656C651E
:100F0000726174696F6E2C20543D726574726163F6
:100F10007420616363656C65726174696F6E002033
:100F20004500205A0020590020204D3230312058F1
:100F3000004D6178696D756D20416363656C657204
:100F40006174696F6E20286D6D2F7332293A00200D
:100F50004500205A0020590020204D3230332058BF
:100F6000004D6178696D756D2066656564726174A8
:100F7000657320286D6D2F73293A00204500205A93
:100F80000020590020204D393220580053746570DC
:100F9000732070657220756E69743A0053657474BD
:100FA000696E67732053746F726564006563686F60
:100FB0003A00204500205A00205900483D5800457D
:100FC000787472756465722072656C6561736564AE
:100FD000206163746976653A20005A205349474D71
:100FE0004120486F6D656400457874727564657260
:100FF000206163746976653A20005072696E746589
:10100000722068616C7465642E206B696C6C282991
:101010002063616C6C65642100436F6F6C696E675F
:1010200020446F776E204865617465720044756175
:101030006C204D6972726F72204D6F6465204F4E47
:10104000004475616C204D6F6465204F4E004475FF
:10105000616C204D6F6465204F4646006F6B0052F7
:101060006573656E643A2000504F534954494F4EA2
:1010700020484F4D453A200054696D6520696E61E6
:10108000637469766500507572676520646973746E
:10109000616E636500486F74656E64206F66667389
:1010A0006574733A005A204F6666736574203A205F
:1010B000007A5F6D61783A20007A5F6D696E3A2040
:1010C000005A204F6666736574005A204F66667337
:1010D0006574206F6B004E6F74207072696E74209F
:1010E0007265636F76657279207570005072696EF3
:1010F00074207265636F7665727920757000486F31
:1011000074656E64206F6666736574733A007A5F07
:101110006D696E3A2000795F6D61783A2000785FE2
:101120006D61783A2000785F6D696E3A2000205A30
:101130003A0020593A0020436F756E7420583A20C7
:101140000020453A00205A3A0020593A00583A0007
:101150004649524D574152455F4E414D453A4D61CA
:10116000726C696E2056313B20537072696E7465E3
:10117000722F6772626C206D617368757020666F84
:10118000722067656E36204649524D574152455F81
:1011900055524C3A68747470733A2F2F67697468AB
:1011A00075622E636F6D2F4572696B5A616C6D2F7E
:1011B0004D61726C696E2F2050524F544F434F4C0B
:1011C0005F56455253494F4E3A312E30204D4143E0
:1011D00048494E455F545950453A4D656E64656CBB
:1011E0002045585452554445525F434F554E543A4A
:1011F0003220555549443A30303030303030302D7F
:10120000303030302D303030302D303030302D30E7
:1012100030303030303030303030300A00426564A9
:10122000204865617465640020423A0020453A0018
:10123000543A00457874727564657220486561742B
:1012400065640020573A0020453A00543A00204295
:10125000403A0020403A00202F003A00205400205D
:101260002F0020423A00202F006F6B20543A000AD2
:101270000A005374616E646172642044657669612A
:1012800074696F6E3A20000A004D65616E3A200065
:101290000A002020207A3A200000793A2000783A8B
:1012A00020003F537065636966696564206E756DE3
:1012B000626572206F66206C65677320696E206DB1
:1012C0006F76656D656E74206E6F7420706C6175DD
:1012D0007361626C652E0A003F53706563696669CD
:1012E0006564205920706F736974696F6E206F7523
:1012F00074206F662072616E67652E0A003F53701E
:1013000065636966696564205820706F73697469E4
:101310006F6E206F7574206F662072616E67652E28
:101320000A003F5370656369666965642073616D87
:10133000706C652073697A65206E6F7420706C61C3
:10134000757361626C652E0A0046756C6C2073754E
:1013500070706F72742061743A20687474703A2FE0
:101360002F33647072696E74626F6172642E636F82
:101370006D2F666F72756D2E7068700A004D34386F
:10138000205A2D50726F62652052657065617461DC
:1013900062696C69747920746573742E20202056FC
:1013A000657273696F6E20322E30300A003F5665C9
:1013B00072626F7365204C6576656C206E6F742069
:1013C000706C61757361626C652E0A002569206D11
:1013D000696E2C20256920736563004732382058D8
:1013E0003020593000627566666572206F75743AF8
:1013F0002000427566666572313A2000436172646E
:10140000204E616D653A2000456E642066696C650A
:10141000206C69737400426567696E2066696C654B
:10142000206C697374000A00205A3A200020593A4F
:10143000200020583A200042656400473639204198
:101440004354495641544544000A00207A3A20004A
:1014500020793A200020783A2000426564000A0092
:1014600020616E7469686F726172690A3A200020A7
:10147000686F726172690A20002F3800766F6C7491
:101480006573200020566F6C74657320636172670A
:101490006F6C20333A200020616E7469686F72614E
:1014A00072690A3A200020686F726172690A20002E
:1014B0002F3800766F6C746573200020566F6C7443
:1014C000657320636172676F6C20323A20000A00F6
:1014D00020647A333A200020647A323A2000543073
:1014E000005430000056756974656E73333A2020DD
:1014F000004170726F78333A202000566F6C74652B
:1015000073333A2020000056756974656E73323A61
:101510002020004170726F78323A202000566F6CA4
:10152000746573323A20200056616C6F7220645AE1
:10153000333A20200056616C6F7220645A323A2090
:1015400020004E6577206F6666736574207665723D
:1015500073696F6E3A20007A335F313A20007A3235
:101560005F313A20005A7363726F6C6C5F313A20BE
:10157000007A335F303A20007A325F303A20005AE6
:101580007363726F6C6C5F303A2000706C616E65D3
:101590004E6F726D616C5F312E7A3A2000706C6113
:1015A0006E654E6F726D616C5F312E793A200070FE
:1015B0006C616E654E6F726D616C5F312E783A2092
:1015C00000706C616E654E6F726D616C5F302E7A6B
:1015D0003A2000706C616E654E6F726D616C5F30A9
:1015E0002E793A2000706C616E654E6F726D616C81
:1015F0005F302E783A20005A76616C7565206166FE
:1016000074657220686F6D653A00486F6D6520588B
:101610002F59206265666F7265205A00537461729B
:1016200074696E67205A2043616C696272617469E3
:101630006F6E2057697A617264004D3834005374BC
:10164000617274696E6720592043616C69627261CE
:1016500074696F6E2057697A617264004D38340086
:101660005374617274696E6720582043616C6962BB
:10167000726174696F6E2057697A6172640045788F
:101680007472756465722072656C6561736564203F
:101690006163746976653A20005A205349474D4189
:1016A00020486F6D656400457874727564657220BA
:1016B0006163746976653A20002200556E6B6E6F27
:1016C000776E20636F6D6D616E643A202200504F1B
:1016D000534954494F4E20484F4D453A2000200071
:1016E0004D6F766520746F3A2000473932204530BF
:1016F000205A3020522564004E6577206C61796550
:1017000072206465746563746564005A20686F7044
:1017100070696E672064657465637465640025692B
:1017200020686F757273202569206D696E75746508
:101730007300446F6E65207072696E74696E672005
:1017400066696C65004D33330070617573652064A4
:1017500065746563746564200A0047363900507209
:10176000696E7465722073746F707065642064753F
:101770006520746F206572726F72732E20466978CF
:1017800020746865206572726F7220616E642075C6
:101790007365204D39393920746F20726573746117
:1017A00072742E202854656D70657261747572654F
:1017B0002069732072657365742E205365742069E7
:1017C00074206166746572207265737461727469E5
:1017D0006E6729006F6B004E6F204C696E65204E5E
:1017E000756D626572207769746820636865636BE4
:1017F00073756D2C204C617374204C696E653A20B2
:10180000004E6F20436865636B73756D2077697454
:1018100068206C696E65206E756D6265722C204C57
:10182000617374204C696E653A2000636865636B70
:1018300073756D206D69736D617463682C204C61E4
:101840007374204C696E653A20004C696E65204EB9
:10185000756D626572206973206E6F74204C6173C0
:1018600074204C696E65204E756D6265722B312C4B
:10187000204C617374204C696E653A20004D313103
:10188000300053757266696E672030200A0043612C
:101890006C6962726174696F6E20537563636573FE
:1018A0007366756C2C20676F696E67206261636B6D
:1018B00020746F206D61696E206D656E75200A0061
:1018C0005430004D383420582059205A20450025E6
:1018D00034643A252E326468202F20256467000086
:1018E000466F726D203221002564206974656D7326
:1018F00000526561647920746F20496E736572745B
:101900002F52656D6F7665200A0074656D70206FCB
:101910006B200A00256425250025336420256343B8
:101920000025336420256343002533642563432069
:101930002F2025336425634300253364256343202A
:101940002F2025336425634300253364256343201A
:101950002F2025336425634300252033642025256B
:101960000025642068202564206D00252033642034
:101970002525002532642025634300253364202576
:101980006343002533642025634300526561647915
:1019900020746F20496E736572742F52656D6F7677
:1019A00065200A0074656D70206F6B200A00256445
:1019B0002525002533642025634300253364202535
:1019C0006343002053544F50205052494E54200A34
:1019D00000473238205830205930004D33350052FE
:1019E0006573756D65206465746563746564200A4C
:1019F0000047373000A1524553554D4521200A007C
:101A0000A1504155534521200A0025336420256308
:101A10004300253364202563430025336420256378
:101A20004300253364202563430025336420256368
:101A30004300253364202563430025336420256358
:101A40004300253364202563430025336420256348
:101A500043005052494E542053455454494E475325
:101A6000200A00446F6E6520736176696E67206698
:101A7000696C652E006F6B004D32390067636F64CF
:101A80006520666F756E640042434E33442053698F
:101A9000676D610073746172740030312D312E32C4
:101AA0002E355243002200656E717565696E6720A0
:101AB00022002200656E717565696E672022004301
:101AC000616C63756C75733A20200043616C6375BB
:101AD0006C75733A20200043616C63756C75733AC2
:101AE000202000253364202563430025336420250E
:101AF000634300456E74657220696E20707572676D
:101B000065206D6F6465200A0053757266696E67A3
:101B10002031200A0053757266696E672030200AF2
:101B20000047333400494E464F3A20424544204353
:101B3000414C4942202D200053757266696E672022
:101B400030200A00473238205830205930005430B5
:101B50000053757266696E672030200A004734337F
:101B600000473433004734310047343000473433C2
:101B7000004734330047343100473430004D3834A7
:101B8000004D3834004D3834005A32204F666673A9
:101B900065743A20004F4B207365636F6E64204577
:101BA0007874727564657221005A20706F7369745D
:101BB000696F6E3A20005A20706F736974696F6E96
:101BC0003A20004D3834005A312050726F6265203F
:101BD0006F66667365743A20004F4B2066697273B6
:101BE0007420457874727564657221200A005A2049
:101BF000706F736974696F6E3A20005A20706F734A
:101C00006974696F6E3A200043616C63756C75731B
:101C10003A20200043616C63756C75733A20200094
:101C200043616C63756C75733A20200043616C638B
:101C3000756C75733A20200046696C616D656E7431
:101C40002052656D6F7665642C20474F494E4720C2
:101C5000544F20434C45414E20544845204E4F5A46
:101C60005A4C45200A0046696C616D656E742049C6
:101C70006E7365727465642F52656D6F7665642C42
:101C80002072657475726E696E6720746F204D6185
:101C9000696E204D656E75200A0054300046696CEF
:101CA000616D656E7420496E7365727465642F5240
:101CB000656D6F7665642C20676F696E6720746F41
:101CC0002043616C6962200A0054300046696C61EF
:101CD0006D656E7420496E7365727465642F52650C
:101CE0006D6F7665642C20676F696E6720746F2056
:101CF000746865206E6578742065787472756465A3
:101D000072200A0054300043616C69627261746928
:101D10006F6E205375636365737366756C2C2067F3
:101D20006F696E67206261636B20746F206D6169FB
:101D30006E206D656E75200A005430004A756D7016
:101D4000206F7665722073637265773120616E64EF
:101D500020736372657732200A004A756D70206FB8
:101D600076657220736372657731200A00473334D9
:101D700000473334004733340054300047333400D5
:101D8000494E464F3A204245442043414C49422067
:101D90002D200036302064656772656573200A0067
:101DA000496E73657274696E67203A2020200A00BC
:101DB00053757266696E672030200A00537572662B
:101DC000696E672030200A0053757266696E67205D
:101DD00030200A0025336420256343002533642026
:101DE000256343002533642025634300456E7465F5
:101DF0007220696E207075726765206D6F64652052
:101E00000A002533642025634300253364202563BD
:101E10004300253364202563430025336420256374
:101E20004300253364202563430025336420256364
:101E30004300253364202563430025336420256354
:101E4000430046696C616D656E742052656D6F76F6
:101E500065642C20474F494E4720544F20434C4542
:101E6000414E20544845204E4F5A5A4C45200A00B6
:101E700053757266696E672030200A00537572666A
:101E8000696E672030200A00543000546520706964
:101E90006C6C650053757266696E672030200A00AD
:101EA0004D33340053757266696E672030200A0026
:101EB0004D3234004D3233202573005375726669FC
:101EC0006E672030200A0053656C6563742034000F
:101ED00053656C65637420330053656C65637420CF
:101EE000320053656C65637420310053656C656323
:101EF0007420300053757266696E672030200A00C6
:101F000053554343455353200A002533642025632A
:101F10004300253364202563430025336420256373
:101F20004300253364202563430025336420256363
:101F30004300253364202563430025336420256353
:101F40004300253364202563430025336420256343
:101F50004300496E73657274696E67203A202020D1
:101F60000A0025336420256343002533642025635C
:101F700043002533642025634300456E7465722059
:101F8000696E207075726765206D6F6465200A0048
:101F9000FF01FF0000A0400000A04000000040CD75
:101FA000AC03440080934300005243000000000053
:101FB00080934300000000CDAC03440080934300B5
:101FC0000052430000000000000000000000006517
:101FD00063686F3A004572726F723A0020636F6CEB
:101FE0006420657874727573696F6E20707265769F
:101FF000656E746564006563686F3A003B2020205D
:10200000506C6173746963207765696768743A20FE
:1020100025642E256467003B46696C616D656E74AE
:1020200020757365643A2025642E25646D2025642F
:102030002E256467003B46696C616D656E74207582
:102040007365643A20256C752E256C756D003B20F8
:1020500020204275696C642074696D653A2025649E
:10206000202573202564202573003B5072696E740F
:102070002074696D653A202564202573202564202D
:102080002573202564202573003B54494D453A2093
:10209000256C64003B20472D436F64652067656EA7
:1020A0006572617465642062792053696D706C6932
:1020B000667933442852292056657273696F6E2001
:1020C0002564007C3C3E5E2B3D3F2F5B5D3B2C2A14
:1020D000225C00205A3A0020593A0020583A006504
:1020E0006E6473746F7073206869743A200024F40E
:1020F000D43050C38E20C2A24017828B7011127A46
:10210000910D816CD90AA861E108C7586607615131
:1021100043061E4B5D05C145A7041A411104093D44
:102120009803713931034036DB0265339102D430B4
:102130005402802E1D02632CEE01752AC501B028C1
:10214000A001102781018F2564012B244B01E0227F
:102150003401AC211F018D200D01801FFC00841E65
:10216000ED00971DDF00B81CD200E61BC600201B47
:10217000BC00641AB200B219A8000A19A0006A18BB
:102180009900D117910040178B00B51684003116C5
:102190007E00B31579003A157300C7146F00581408
:1021A0006A00EE1366008813630025135E00C712F1
:1021B0005B006C12570015125400C11151007011D0
:1021C0004F0021114B00D61049008D1047004610DA
:1021D000440002104200C00F4000800F3E00420F3A
:1021E0003C00060F3B00CB0E3800930E37005C0E10
:1021F0003500270E3400F30D3200C10D3100900D73
:102200003000600D2E00320D2D00050D2C00D90C74
:102210002B00AE0C2900850C29005C0C2700350C26
:1022200027000E0C2600E80B2400C40B2400A00B92
:1022300023007D0B23005A0B2100390B2100180BC2
:102240002000F80A1F00D90A1E00BB0A1E009D0AC2
:102250001D00800A1D00630A1C00470A1B002C0A8F
:102260001B00110A1A00F7091A00DD091900C40938
:102270001900AB091900920917007B0918006309BE
:1022800017004C09160036091600200916000A0925
:102290001500F5081500E0081400CC081400B80873
:1022A0001400A4081400900813007D0812006B08A5
:1022B00013005808120046081200340811002308C1
:1022C00011001208110001081100F0071000E007CA
:1022D0001000D0071000C0071000B0070F00A107C2
:1022E000100091070E0083070F0074070F006507A9
:1022F0000E0057070E0049070E003B070D002E0782
:102300000E0020070D0013070D0006070D00F9064B
:102310000C00ED060D00E0060C00D4060C00C8060B
:102320000C00BC060C00B0060C00A4060B009906BD
:102330000C008D060B0082060B0077060B006C0666
:102340000B0061060A0057060B004C060A00420605
:102350000A0038060A002E060A0024060A001A0699
:102360000A001006090007060A00FD050900F40529
:102370000900EB050900E2050900D9050900D005AF
:102380000900C7050900BE050900B5050800AD052F
:102390000800A50509009C050800940508008C05A7
:1023A0000800840508007C050800740508006C0519
:1023B0000700650508005D050700560508004E0585
:1023C00007004705070040050800380507003105EC
:1023D00007002A050700230507001C05060016054F
:1023E00007000F0507000805060002050700FB04AB
:1023F0000600F5040700EE040600E8040600E20407
:102400000700DB040600D5040600CF040600C9045B
:102410000600C3040600BD040600B7040600B104AC
:102420000500AC040600A6040600A00405009B04F9
:10243000060095040500900406008A040500850442
:102440000500800406007A04050075040500700488
:1024500005006B04050066040500610405005C04CA
:10246000050057040500520405004D04050048040A
:102470000500430405003E0404003A040500350449
:102480000500300404002C04050027040400230484
:1024900005001E0404001A040400160405001104BB
:1024A00004000D04040009040500040404000004F1
:1024B0000400FC030400F8030400F4030400F00328
:1024C0000400EC030400E8030400E4030400E00358
:1024D0000400DC030400D8030400D4030400D00388
:1024E0000400CC030400C8030300C503030024F464
:1024F00004D9201BC40C5C0E9804C4095F02650754
:102500007101F405F900FB04B30048048700C1031E
:1025100069005803550003034500BE023A008402D7
:10252000310053022A002902250004022000E401A0
:102530001C00C8011900AF011700980114008401A4
:102540001300710110006101100051010E004301E0
:102550000D0036010B002B010B0020010B001501B3
:1025600009000C01090003010800FB000800F3004A
:102570000800EB000700E4000600DE000600D800BB
:102580000600D2000600CC000500C7000500C2000E
:102590000500BD000400B9000400B5000400B1004E
:1025A0000400AD000400A9000400A5000300A2007F
:1025B00003009F0004009B000300980003009500A7
:1025C000020093000300900003008D0002008B00C6
:1025D00003008800020086000200840003008100DE
:1025E00002007F0002007D0002007B0002007900F3
:1025F0000200770001007600020074000200720001
:102600000100710002006F0002006D0001006C000B
:1026100002006A0001006900020067000100660014
:102620000100650001006400020062000100610019
:102630000100600001005F0002005D0001005C001D
:1026400001005B0001005A00010059000100580020
:102650000100570001005600010055000100540020
:10266000010053000000530001005200010051001E
:102670000100500001004F0001004E0000004E001C
:1026800001004D0001004C0001004B0000004B0018
:1026900001004A0001004900010048000000480014
:1026A000010047000100460000004600010045000F
:1026B0000000450001004400010043000000430009
:1026C0000100420000004200010041000000410002
:1026D0000100400001003F0000003F0001003E00FB
:1026E00000003E0001003D0000003D0001003C00F4
:1026F00000003C0000003C0001003B0000003B00EB
:1027000001003A0000003A000100390000003900E1
:1027100001003800000038000000380001003700D8
:1027200000003700010036000000360000003600CF
:1027300001003500000035000000350001003400C4
:1027400000003400000034000100330000003300BA
:1027500000003300010032000000320000003200AF
:1027600001003100000031000000310001003000A4
:10277000000030000000300001002F0000002F009A
:1027800000002F0000002F0001002E0000002E008E
:1027900000002E0001002D0000002D0000002D0083
:1027A00000002D0001002C0000002C0000002C0077
:1027B00000002C0001002B0000002B0000002B006B
:1027C00000002B0001002A0000002A0000002A005F
:1027D00000002A0001002900000029000000290053
:1027E0000000290000002900010028000000280046
:1027F0000000280000002800000028000100270039
:10280000000027000000270000002700000027002C
:10281000010026000000260000002600000026001F
:102820000000260001002500000025000000250012
:102830000000250000002500000025000100240004
:1028400000002400000024000000240000002400F8
:1028500001002300000023000000230000002300EB
:1028600000002300000023000000230001002200DC
:1028700000002200000022000000220000002200D0
:1028800000002200010021000000210000002100C2
:1028900000002100000021000000210000002100B4
:1028A00001002000000020000000200000002000A7
:1028B0000000200000002000000020000000200098
:1028C00001001F0000001F0000001F0000001F008B
:1028D00000001F0000001F0000001F0001001E007C
:1028E00000001E0000001E0000001E0000006563C6
:1028F000686F3A0048797374657265736973207400
:10290000656D706572617475726500546865726D8D
:10291000616C2072756E617761792070726F746579
:102920006374696F6E206279204865617465725FB7
:1029300049443A004572726F72283833293A20426E
:10294000656420746865726D6973746F72206E6F50
:1029500074206465746563746564004572726F7297
:10296000283832293A205269676874207468657281
:102970006D6973746F72206E6F7420646574656323
:10298000746564004572726F72283831293A204CA0
:1029900065667420746865726D6973746F72206EF9
:1029A0006F742020646574656374656400205354FB
:1029B0004F50205052494E54200A004572726F7297
:1029C000283833293A2042656420746865726D693D
:1029D00073746F72206E6F742064657465637465C0
:1029E00064002053544F50205052494E54200A0046
:1029F0004572726F72283832293A205269676874BA
:102A000020746865726D6973746F72206E6F7420C4
:102A10006465746563746564002053544F5020509E
:102A200052494E54200A004572726F72283831297B
:102A30003A204C65667420746865726D6973746FB2
:102A400072206E6F74202064657465637465640021
:102A5000504944204175746F74756E652066696EC7
:102A600069736865642100504944204175746F742E
:102A7000756E65206661696C6564212074696D6599
:102A80006F75740020403A006F6B20543A006F6BF2
:102A900020423A00504944204175746F74756E6548
:102AA000206661696C6564212054656D7065726192
:102AB0007475726520746F6F206869676800204BB9
:102AC000643A2000204B693A2000204B703A2000E5
:102AD00020436C6173736963205049442000205483
:102AE000753A2000204B753A2000206D61783A201D
:102AF00000206D696E3A200020643A20002062694F
:102B000061733A2000504944204175746F74756EAA
:102B1000652066696E69736865642120507574204C
:102B2000746865206C617374204B702C204B692095
:102B3000616E64204B6420636F6E7374616E747396
:102B40002066726F6D2061626F766520696E746FAA
:102B500020436F6E66696775726174696F6E2E6867
:102B600000504944204175746F74756E652066612C
:102B7000696C6564212074696D656F75740020400F
:102B80003A006F6B20543A006F6B20423A00504974
:102B900044204175746F74756E65206661696C655B
:102BA00064212054656D706572617475726520745E
:102BB0006F6F206869676800204B643A2000204BE3
:102BC000693A2000204B703A200020436C617373F7
:102BD00069632050494420002054753A2000204B5E
:102BE000753A2000206D61783A2000206D696E3AB8
:102BF000200020643A200020626961733A20004579
:102C000072726F723A0070012C0190012701B001BD
:102C10002201C0011D01F001180110021301300250
:102C20000E016002090190020401C002FF000003CE
:102C3000FA004003F5008003F000D003EB0020040D
:102C4000E6007004E100E004DC004005D700C005A8
:102C5000D2004006CD00D006C8008007C30030086F
:102C6000BE00F008B900C009B400B00AAF00B00B54
:102C7000AA00D00CA500000EA000500F9B00C010B1
:102C800096005012910000148C00C0158700B017F8
:102C90008200B0197D00D01B7800001E7300402018
:102CA0006E0090226900F024640040275F009029A4
:102CB0005A00E02B5500102E500020304B001032EF
:102CC0004600E033410090353C0010373700703843
:102CD0003200A0392D00B03A2800A03B2300603C10
:102CE0001E00103D1900903D1400103E0F00703E74
:102CF0000A00C03E0500003F000000000A0B020968
:102D00000C0D0E0807030401000000000000000085
:102D100000000000000000000000000000000000B3
:102D20000000000000001211100000000000000070
:102D30000000000000000000000000000000000093
:102D400001021020200808102040102040800201BD
:102D500002010804020101020408102040808040A2
:102D600020100804020180040201804020100804A1
:102D7000020108040201010204081020408001023F
:102D80000408102040800505050507050808080807
:102D9000020202020A0A08080404040401010101F3
:102DA00001010101030303030303030304070707EE
:102DB0000C0C0C0C0C0C0C0C020202020606060693
:102DC000060606060B0B0B0B0B0B0B0B0000200073
:102DD0002300260029002C002F00320000010000F3
:102DE00003010601090100002200250028002B0034
:102DF0002E003100340002010000050108010B0122
:102E000000002100240027002A002D00300033009C
:102E100001010000040107010A014E414E494E49DB
:102E20005459494E46CDCCCC3D0AD7233C17B7D197
:102E30003877CC2B329595E6241FB14F0A0000203D
:102E4000410000C84200401C4620BCBE4CCA1B0EBC
:102E50005AAEC59D746364696E6F70737578585B04
:102E600000008644E1010D03F1024B0311241FBE53
:102E7000CFEFD1E2DEBFCDBF00E00CBF17E0A0E096
:102E8000B2E0E4E2FFE903E00BBF02C007900D925D
:102E9000AA33B107D9F729E1AAE3B7E001C01D922F
:102EA000AC38B207E1F71EE2CAE6DEE200E006C097
:102EB00022970109FE010BBF0F94B9C3C236D10797
:102EC00080E00807A9F70F9479BA0D9480CF0C948D
:102ED000000040E050E0BA010D94D386FC0114825A
:102EE00017821382128282E196E091838083089593
:102EF000DC01ED91FC910190F081E02D199422E12B
:102F000036E0FC01318320832781222319F00496C7
:102F10000D94B6870895CF92DF92EF92FF920F93B0
:102F20001F93CF93DF93EC01895A9F4FD7DFCE01D8
:102F300088589F4FD3DF7E0127E9E20EF11C8701FD
:102F40006E0133E3C31A3EEFD30AC801C7DF015E47
:102F50001F4F0C151D05C9F7FE01E153FE4F89E116
:102F6000818314823596178ACE018E509E4FB6DF2C
:102F7000FE01ED55FD4F10821182128213823896A8
:102F800010821182128213821A821B821C82188282
:102F900019826E0189E5C81A8DEFD80AF6011082F0
:102FA000118212821382F80111821082FE01EF5EFB
:102FB000FD4F108286E391E0F7019C0111922150B0
:102FC0003040E1F7FE01E155FD4F81E08083CB5AAF
:102FD000DF4F198218820F943CB568577C4E8F4F93
:102FE0009F4FF6016083718382839383DF91CF913A
:102FF0001F910F91FF90EF90DF90CF900895FC010B
:1030000020E03EE2DB014C91403241F0283011F4E7
:1030100030833196DB014C91408331962F5F6F5F97
:103020007F4F2B3079F7108208952BE1FB01349606
:10303000DC01149601900D922A95E1F7FB012281A3
:103040003381FC013383228322E136E03183208304
:1030500008952F923F924F925F926F927F928F923C
:103060009F92AF92BF92CF92DF92EF92FF920F9317
:103070001F93CF93DF93CDB7DEB7CA57D1090FB6F1
:10308000F894DEBF0FBECDBF8C016B015A01290140
:103090002DB73EB7E3963FAF2EAFE397AD961FAE89
:1030A000AD9734E0A30EB11C4296E5969FAF8EAF6C
:1030B000E597F801EC5AFF4FE796FFAFEEAFE797C1
:1030C0001801F0E52F1AFDEF3F0A98012E543D4FED
:1030D000AF963FAF2EAFAF97380135E0630E711C4E
:1030E0007E018FE5E80EF11CE0E4F0E0EC0FFD1F3F
:1030F0003496E996FFAFEEAFE997E5964EAD5FAD3A
:10310000E597BE016F5F7F4FC5010F9420861816AB
:103110000CF028C12C85322F3871303109F0AEC047
:10312000F101808191810197029708F4A7C02DB722
:103130003EB7E1963FAF2EAFE197BE016F5F7F4F85
:10314000C7015DDF81E0F601908191118FC0E1E060
:10315000F0E0D7010D900020E9F7EE19FF09EA0F22
:10316000FB1F31962DB73EB72E1B3F0B0FB6F894C1
:103170003EBF0FBE2DBFEDB7FEB731964F0188237E
:1031800019F068E573E001C0B601C4010F9406C9E7
:10319000B701C4010F94E7C868E573E0C4010F9458
:1031A000E7C8CE01805C9F4F99DE21E0A701B50101
:1031B000E9968EAD9FADE9970F94AD89811137C027
:1031C000F10180819181892B91F5E4E0F9E064912E
:1031D0009F016623B9F0772767FD709586E498E133
:1031E000EA962FAFEA97EB963FAFEB9781DEEA9630
:1031F0002FADEA97EB963FADEB972F5F3F4FF9016D
:103200006491E7CF6AE573E086E498E10F94C3BA6E
:103210006AE070E086E498E16BDEB70186E498E14D
:103220000F94C3BA6AE070E086E498E161DEBE0103
:10323000605C7F4FCE018196F8DE20E030E0AE0189
:103240004F5D5F4FB401C80104DFCE01819657DEA8
:10325000CE01805C9F4F53DEE1962EAD3FADE197EE
:103260000FB6F8943EBF0FBE2DBF47CF80E0019050
:103270000020E9F73197EC19FD096BCF898188238C
:1032800009F470C0853E09F438CF8E3209F435CF89
:10329000F80182898E3209F430CF23FD2ECF81E0F0
:1032A000303109F080E0E796EEADFFADE79780831F
:1032B000811108C08985873409F01FCF8A858E3730
:1032C00009F41BCFF1018081918181309105D9F002
:1032D0008230910511F1892B09F00FCFBE016F5F8C
:1032E0007F4FC3018CDEB60186E498E10F94C3BA28
:1032F000B30186E498E10F94C3BA6AE070E086E413
:1033000098E1F6DDFACEAF96EEADFFADAF978081D6
:103310009181019691838083F0CEBE016F5F7F4FD4
:10332000C3016DDE4114510439F0B301C2010F94A1
:10333000D4C8892B79F416C0AD96FFADAD972F2F69
:1033400030E0AF96EEADFFADAF9780819181281749
:10335000390741F0AD96FFADAD97FF5FAD96FFAF7A
:10336000AD97CBCEE3962EAD3FADE3970FB6F89475
:103370003EBF0FBE2DBFC658DF4F0FB6F894DEBF5D
:103380000FBECDBFDF91CF911F910F91FF90EF90B6
:10339000DF90CF90BF90AF909F908F907F906F9075
:1033A0005F904F903F902F9008950F931F93CF936E
:1033B000DF93CDB7DEB76F970FB6F894DEBF0FBEC1
:1033C000CDBF8C01FC01E055FD4F11821082855A62
:1033D0009F4F7FDDB801695A7F4FCE01019625DEF0
:1033E00020E030E0AE014F5F5F4F6CE277E0C80154
:1033F00030DECE01019683DD6F960FB6F894DEBF06
:103400000FBECDBFDF91CF911F910F9108952BE19A
:10341000FB013496DC01149601900D922A95E1F798
:10342000FB0122813381FC01338322830895EF92D3
:10343000FF920F931F93CF93DF93EC011C82FC014B
:10344000E25AFF4F8081882329F0CE01855A9F4F91
:103450000F94B6877E0181E3E81A8EEFF80A45E300
:1034600060E0C7010F94378281113AC0E4E0F9E0CF
:1034700064918F01662359F0772767FD709586E484
:1034800098E136DD0F5F1F4FF8016491F3CFE7EF4E
:10349000F8E064918F01662359F0772767FD7095F6
:1034A00086E498E125DD0F5F1F4FF8016491F3CFAB
:1034B0006AE070E086E498E11BDD8E01095A1F4F37
:1034C000B801CE0188589F4FA2DFCA58DF4F198339
:1034D0000883DF91CF911F910F91FF90EF90089596
:1034E0008E010C521E4F41E0B701C8010F94A08F0E
:1034F00081112AC040E0B701C8010F94A08F81114B
:1035000023C0EAE0F9E064918F01662359F0772740
:1035100067FD709586E498E1EBDC0F5F1F4FF801C3
:103520006491F3CFE4EEF8E064918F01662309F42F
:10353000BFCF772767FD709586E498E1D9DC0F5FF0
:103540001F4FF8016491F2CFB801CE01855A9F4F09
:103550000F94C484811123C0EAE0F9E064918F01E3
:10356000662359F0772767FD709586E498E1C0DC03
:103570000F5F1F4FF8016491F3CFE4EDF8E0649121
:103580008F01662309F494CF772767FD709586E451
:1035900098E1AEDC0F5F1F4FF8016491F2CF81E03C
:1035A0008C83E4E0F9E064918F01662359F077277A
:1035B00067FD709586E498E19BDC0F5F1F4FF80173
:1035C0006491F3CFE9ECF8E064918F01662309F48C
:1035D0006FCF772767FD709586E498E189DC0F5FF0
:1035E0001F4FF8016491F2CFFC01128214820895FA
:1035F0000F931F93CF93DF93EC018C81882311F1FC
:10360000E0ECF8E064918F01662359F0772767FDBD
:10361000709586E498E16CDC0F5F1F4FF8016491B0
:10362000F3CF4091840A5091850A6091860A709187
:10363000870A22E030E086E498E10F949DBC81E0A7
:103640008A831B82DF91CF911F910F910895FC0116
:103650008281882319F0128281E083830895AF92DA
:10366000BF92CF92DF92EF92FF920F931F93CF936F
:10367000DF931F92CDB7DEB78C018FE2FB01819300
:103680005F01D12C41E07801F3E3EF1AFEEFFF0A6E
:103690008FE1C82E2D2D30E0F70180819181281710
:1036A0003907D8F4C29EC001C39E900D11248556DF
:1036B0009F4FB501800F911F49830F946B84C50103
:1036C00049815C010196F5012081222321F04D38CA
:1036D00010F44F5FF6CFD394DDCF47FD11C0B50195
:1036E000C8018A509E4F0F90DF91CF911F910F918B
:1036F000FF90EF90DF90CF90BF90AF900D946B84D0
:10370000F50110820F90DF91CF911F910F91FF90E3
:10371000EF90DF90CF90BF90AF9008954F925F925F
:103720006F927F928F929F92AF92BF92CF92DF92D1
:10373000EF92FF920F931F93CF93DF93CDB7DEB736
:10374000AC970FB6F894DEBF0FBECDBF7C015B0116
:10375000FC018481882309F4F9C0C7018A509E4F77
:103760000F94B687F7011282CE0101966C01B6DB89
:10377000270196E7490E511CC701895A9F4FF20154
:1037800091838083F50180818F3209F077C06FE2E9
:1037900070E0C5010F94F2C88C010F5F1F4F09F450
:1037A00073C06FE270E0C8010F94F2C84C0100973B
:1037B00009F46BC00817190708F067C03C01601ACC
:1037C000710AA301B801CE0180960F941BC9E0E2F3
:1037D000F0E0EC0FFD1FE60DF71D1082BE01605EEC
:1037E0007F4F86E498E10F94C3BA6AE070E086E404
:1037F00098E17EDBF201608171816115710519F03C
:103800006C5F7F4F02C060E070E021E0AE01405E7F
:103810005F4FCE0105960F94AD8981112AC0E5EA6C
:10382000F7E064918F01662359F0772767FD709563
:1038300086E498E15DDB0F5F1F4FF8016491F3CFE1
:10384000BE01605E7F4F86E498E10F94C3BAE3EA5D
:10385000F7E064918F01662309F471C0772767FD53
:10386000709586E498E144DB0F5F1F4FF801649187
:10387000F2CFF201D182C08284018FCFC701885874
:103880009F4FF201918380838501F20180819181B4
:10389000009711F0049602C080E090E0B8010F9408
:1038A000838A882321F1E5E9F7E064915F016623CB
:1038B00061F0772767FD709586E498E119DBFFEFEB
:1038C000AF1ABF0AF5016491F2CFB80186E498E11E
:1038D0000F94C3BA6AE070E086E498E109DBF7016F
:1038E000E555FD4F10821182128213822DC0EDE743
:1038F000F7E064917F01662361F0772767FD70959B
:1039000086E498E1F5DAFFEFEF1AFF0AF701649118
:10391000F2CFB80186E498E10F94C3BAEBE7F7E081
:1039200064918F01662359F0772767FD709586E4CF
:1039300098E1DEDA0F5F1F4FF8016491F3CF6AE080
:1039400070E086E498E1D4DAC601D9DAAC960FB615
:10395000F894DEBF0FBECDBFDF91CF911F910F91C5
:10396000FF90EF90DF90CF90BF90AF909F908F909F
:103970007F906F905F904F9008950F931F93CF9318
:10398000DF93EC018C81882309F43CC0E9E6F7E081
:1039900064918F01662359F0772767FD709586E45F
:1039A00098E1A6DA0F5F1F4FF8016491F3CFFE0193
:1039B000E555FD4F40815181628173812AE030E0FD
:1039C00086E498E10F949FBBE7E6F7E064918F01EE
:1039D000662359F0772767FD709586E498E188DAC9
:1039E0000F5F1F4FF8016491F3CFCD55DD4F488134
:1039F00059816A817B812AE030E086E498E10F9466
:103A00009FBB10C0E7E5F7E06491EF01662351F03A
:103A1000772767FD709586E498E16ADA2196FE01C2
:103A20006491F4CF6AE070E086E498E1DF91CF9191
:103A30001F910F915DCAAF92BF92CF92DF92EF922A
:103A4000FF920F931F93CF93DF935C01EB01FB0178
:103A500001900020E9F78F0101501109061B170B97
:103A60006C01FAE0CF1AFEEFDF0AF60110826EE475
:103A700070E0CE010F94F2C87C01009729F4F801A0
:103A80003197EC0FFD1F0DC060E270E00F94F2C89B
:103A9000EC0121966AE270E0C7010F94F2C8FC01C4
:103AA00031978DE081838AE082831382BE01C50154
:103AB0008E509E4F0F94498CF6018081882379F1B6
:103AC000EAE0F9E06491EF01662351F0772767FDA2
:103AD000709586E498E10CDA2196FE016491F4CFAA
:103AE000E1E4F7E06491EF01662351F0772767FD89
:103AF000709586E498E1FCD92196FE016491F4CF9B
:103B00006AE070E086E498E1DF91CF911F910F9118
:103B1000FF90EF90DF90CF90BF90AF90E9C9DF9119
:103B2000CF911F910F91FF90EF90DF90CF90BF90BA
:103B3000AF9008952F923F924F925F926F927F9233
:103B40008F929F92AF92BF92CF92DF92EF92FF92AD
:103B50000F931F93CF93DF93CDB7DEB7CC55D10929
:103B60000FB6F894DEBF0FBECDBF4C018C010155DE
:103B70001D4F662339F0F8011082F4018481811110
:103B80001DC015C0F8018081882309F4ABC0F40181
:103B9000E955FD4FC080D180E280F3800F943CB5A1
:103BA000C616D706E806F90608F49CC0E4CFC4019F
:103BB0003EDCF4018481882309F494C07401F5E5A6
:103BC000EF0EF11CF70181818F9380818F9388E341
:103BD00097E09F938F938E01015C1F4F1F930F936C
:103BE0000F9469C90F900F900F900F900F900F9046
:103BF000B12CF80101900020E9F73197E01BF10B9F
:103C0000BE1684F46801CB0CD11CB7FCDA94F60123
:103C10008081992787FD90950F947DC8F601808358
:103C2000B394E7CFFBE58F0E911CC40152D9512C00
:103C3000CE0101966C0191E3692E97E0792E5E0129
:103C400091E2A90EB11C40E050E0B601C4010F940E
:103C500020861816DCF5412CF60101900020E9F7CA
:103C60003197EC19FD094E1674F41601240C311C21
:103C700047FC3A94F101808190E00F947DC8F101F6
:103C800080834394E9CF8A858E37E9F245E050E09E
:103C9000B801C6010F940DC9892BA9F61F930F9384
:103CA0007F926F92BF92AF920F9469C9C5010E9433
:103CB000A84F8DE297E00E9424500F900F900F9034
:103CC0000F900F900F9055245394BDCF511004C006
:103CD0008FEF9FEFF70104C0F7018081918101967A
:103CE00091838083C45ADF4F0FB6F894DEBF0FBEB6
:103CF000CDBFDF91CF911F910F91FF90EF90DF909B
:103D0000CF90BF90AF909F908F907F906F905F907B
:103D10004F903F902F900895EF92FF920F931F9333
:103D2000CF93DF931F92CDB7DEB78C017C018AE081
:103D3000E81A8EEFF80AC70169830F946C87C701F0
:103D40000F94B687F801108211826981662309F405
:103D500007C18091B30A9091B40AA091B50AB091BD
:103D6000B60A80934A0B90934B0BA0934C0BB093E5
:103D70004D0B8091B70A9091B80AA091B90AB09101
:103D8000BA0A8093460B9093470BA093480BB093CD
:103D9000490B8091BB0A9091BC0AA091BD0AB091D9
:103DA000BE0A8093420B9093430BA093440BB093B5
:103DB000450B80910E0A90E09093410B8093400B4D
:103DC0004091BF0A5091C00A6091C10A7091C20A25
:103DD00040933C0B50933D0B60933E0B70933F0B15
:103DE000F70180859185A285B3858093380B9093E8
:103DF000390BA0933A0BB0933B0B80911E18909116
:103E00001F189093350B8093340B8091201890915C
:103E100021189093370B8093360B80911C1890914A
:103E20001D189093330B8093320B80915C0290911C
:103E30005D0290932F0B80932E0B80910C0A909132
:103E40000D0A9093310B8093300B80910A0A909168
:103E50000B0A9093190B8093180B8091010B8093A0
:103E6000170B8091020B9091030B90931B0B809387
:103E70001A0B8091040B9091050B90931D0B80936E
:103E80001C0B8091060B9091070B90931F0B809356
:103E90001E0B8091080B9091090B9093210B80933E
:103EA000200B80910A0B90910B0B9093230B809326
:103EB000220B80910C0B90910D0B9093250B80930E
:103EC000240B80910E0B90910F0B9093270B8093F6
:103ED000260B8091100B9091110B9093290B8093DE
:103EE000280B8091120B9091130B90932B0B8093C6
:103EF0002A0B8091140B9091150B90932D0B8093AE
:103F00002C0B0E94116690937502809374020E949C
:103F10009F69609370027093710280937202909314
:103F20007302E1E2F7E064918F01662361F0772785
:103F300067FD709586E498E10E9478170F5F1F4F28
:103F4000F8016491F2CF6AE070E086E498E10F90A6
:103F5000DF91CF911F910F91FF90EF900C94781704
:103F60000F90DF91CF911F910F91FF90EF900895E7
:103F7000CF92DF92EF92FF920F931F93CF93DF9335
:103F8000CDB7DEB76F970FB6F894DEBF0FBECDBFCB
:103F90008C016A017C0186E7E80EF11CC801885893
:103FA0009F4FF70191838083E65CFD4F22E030E074
:103FB0003183208332967183608304960E9469174F
:103FC000F70160817181CE0101962FD89601AE0173
:103FD0004F5F5F4F6CE277E0C8013BD8CE0101969E
:103FE0000E947F176F960FB6F894DEBF0FBECDBF4D
:103FF000DF91CF911F910F91FF90EF90DF90CF90C5
:104000000895CF92DF92EF92FF920F931F93CF9379
:10401000DF93CDB7DEB76F970FB6F894DEBF0FBE54
:10402000CDBF8C016C0126E7C20ED11C88589F4F72
:10403000F60191838083E65CFD4F21E030E031831F
:1040400020837801FEE4EF1AFDEFFF0AF7011182E9
:10405000108204960E946917F60160817181CE0179
:1040600001960E94151820E030E0AE014F5F5F4FCF
:104070006CE277E0C8010E942918CE0101960E94E7
:104080007F17F701808191816F960FB6F894DEBF9C
:104090000FBECDBFDF91CF911F910F91FF90EF9099
:1040A000DF90CF9008952F923F924F925F926F9240
:1040B0007F928F929F92AF92BF92CF92DF92EF92B8
:1040C000FF920F931F93CF93DF93CDB7DEB7C25705
:1040D000D1090FB6F894DEBF0FBECDBF8C012B0106
:1040E000E1964FAFE197FC018481882309F430C445
:1040F000E750FE4F8081882309F412C12111D9C0F5
:104100007801FFEEEF1AFDEFFF0AF70180818823A7
:1041100009F435C0EAE0F9E064918F01662361F0AB
:10412000772767FD709586E498E10E9478170F5F06
:104130001F4FF8016491F2CFEDE7F8E064918F0131
:10414000662361F0772767FD709586E498E10E9409
:1041500078170F5F1F4FF8016491F2CF4AE050E0EB
:1041600061E070E086E498E10F9472BB6AE070E071
:1041700086E498E10E9478170E94C4ADE9C3E4E0A8
:10418000F9E064916F01662369F0772767FD709508
:1041900086E498E10E947817FFEFCF1ADF0AF60154
:1041A0006491F1CFE4E6F8E064916F01662369F071
:1041B000772767FD709586E498E10E947817FFEFF6
:1041C000CF1ADF0AF6016491F1CFB20186E498E1DB
:1041D0000F94C3BAE9E5F8E064916F01662369F0D2
:1041E000772767FD709586E498E10E947817FFEFC6
:1041F000CF1ADF0AF6016491F1CFF70180812DE833
:10420000D22EB801D89E600D711D11246A5E7D4FBB
:10421000C80125DAF7018081B801D89E600D711DB3
:1042200011246A5E7D4F86E498E10F94C3BAE3E5FA
:10423000F8E064916F01662369F0772767FD709558
:1042400086E498E10E947817FFEFCF1ADF0AF601A3
:104250006491F1CF6801F5E5CF1AFDEFDF0AF601B1
:1042600040815181628173812AE030E086E498E1E7
:104270000F949FBB6AE070E086E498E10E94781793
:10428000F7012081F80184E0289FE00DF11D112441
:10429000AF014E5E5D4FF60180819181A281B381B5
:1042A000FA0180839183A283B3832F5FF701208378
:1042B00031C0E4E0F9E064917F01662369F077277B
:1042C00067FD709586E498E10E947817FFEFEF1A7A
:1042D000FF0AF7016491F1CFE2E4F8E064917F0115
:1042E000662369F0772767FD709586E498E10E9460
:1042F0007817FFEFEF1AFF0AF7016491F1CFB201CF
:1043000086E498E10F94C3BA6AE070E086E498E12D
:104310000E947817C8018A509E4F0F94B68735C007
:10432000F801EF5EFD4F1082E4E0F9E064917F0157
:10433000662369F0772767FD709586E498E10E940F
:104340007817FFEFEF1AFF0AF7016491F1CFE1E36D
:10435000F8E064917F01662369F0772767FD709527
:1043600086E498E10E947817FFEFEF1AFF0AF70141
:104370006491F1CFB20186E498E10F94C3BA6AE088
:1043800070E086E498E10E947817F80112821E011D
:10439000F0E22F0E311CC1010E946E17C8018A582D
:1043A0009F4FAC969FAF8EAFAC974F97AC96EEAD4C
:1043B000FFADAC9791838083F20180818F3209F049
:1043C00051C16FE270E0C2010F94F2C801967C0106
:1043D000C80180559D4FE0969FAF8EAFE097F801E2
:1043E000EE54FD4FAE96FFAFEEAFAE974E01FFE33A
:1043F0008F0E911C380185E0680E711CE114F104E8
:1044000009F49AC16FE270E0C7010F94F2C86C0121
:10441000009709F492C1E816F90608F08EC15C0114
:10442000AE18BF08A501B701CE01835A9F4F0F9464
:104430001BC9EDE5F0E0EC0FFD1FEA0DFB1D10823E
:10444000BE01635A7F4F86E498E10F94C3BA6AE0D5
:1044500070E086E498E10E947817AC96EEADFFAD6F
:10446000AC97608171816115710519F06C5F7F4FA8
:1044700002C060E070E021E0AE01435A5F4FCE0120
:1044800084960F94AD8981112CC0EDE1F8E0649120
:104490008F01662361F0772767FD709586E498E1C8
:1044A0000E9478170F5F1F4FF8016491F2CFBE0191
:1044B000635A7F4F86E498E10F94C3BAEBE1F8E0CA
:1044C00064918F01662309F43AC2772767FD7095DE
:1044D00086E498E10E9478170F5F1F4FF8016491FE
:1044E000F1CFAC96EEADFFADAC9731822082760174
:1044F000FFEFEF1AFF0A8091860B81117FCF81E0D9
:1045000090E0E096EEADFFADE09791838083AE96AC
:10451000EEADFFADAE9711821082CE0184960E945F
:104520006917B101CE0101960E94151820E030E014
:10453000AE014F5F5F4F6CE277E0C8010E9429181F
:10454000CE0101960E947F17AE96EEADFFADAE97FD
:10455000A080B1808EE1F40111928A95E9F77F92F3
:104560006F929F928F920F943BC90F900F900F9074
:104570000F906401F6018081882349F0992787FD17
:1045800090950F947DC8F60181936F01F3CFC12CF4
:10459000D12CB701C4010F94FDC8892B09F45BC06D
:1045A000CA14DB040CF057C082E090E0E096EEAD58
:1045B000FFADE09791838083AE96EEADFFADAE97F1
:1045C000D182C082AC96EEADFFADAC978081918177
:1045D00004960E946917B101CE0101960E94151838
:1045E00020E030E0AE014F5F5F4F6CE277E0C80142
:1045F0000E942918CE0101960E947F17F4018EE1D6
:1046000011928A95E9F77F926F929F928F920F9401
:104610003BC90F900F900F900F909401F90180818A
:104620008823A9F0992787FD9095E2962FAFE2970E
:10463000E3963FAFE3970F947DC8E2962FADE297E4
:10464000E3963FADE397F90181939F01E7CFFFEF39
:10465000CF1ADF0A9ECFAE96EEADFFADAE971182B8
:104660001082CCCEC80188589F4FAC96EEADFFADFE
:10467000AC97918380838091860B81115DC0C801C6
:10468000C0DC4C01CE0101967C018EE1F701119254
:104690008A95E9F75801F5E0AF0EB11CBF92AF92D1
:1046A000FF92EF920F943BC90F900F900F900F90D5
:1046B0006701F6018081882349F0992787FD90954D
:1046C0000F947DC8F60181936F01F3CFC12CD12CDB
:1046D000B201C7010F94FDC8892B49F1C814D90450
:1046E00034F540E050E0B601C80142DCF7018EE14C
:1046F00011928A95E9F7BF92AF92FF92EF920F94D1
:104700003BC90F900F900F900F903701F3018081FC
:10471000882349F0992787FD90950F947DC8F30170
:1047200081933F01F3CFFFEFCF1ADF0AD1CFF8011A
:10473000EE54FD4F118210827201C8018A509E4FC3
:104740006C01E1969FADE197AC96EEADFFADAC97F5
:1047500060817181992309F4A0C06115710519F078
:104760006C5F7F4F02C060E070E021E0A701C601EE
:104770000F94AD89882309F466C0F6018189928976
:10478000A389B489F801ED55FD4F80839183A283FD
:10479000B383EDE0F8E064915F01C8018D559D4F52
:1047A0006C01662369F0772767FD709586E498E1D0
:1047B0000E9478179FEFA91AB90AF5016491F1CF09
:1047C000B70186E498E10F94C3BAE5E0F8E064919C
:1047D0007F01662369F0772767FD709586E498E18D
:1047E0000E947817FFEFEF1AFF0AF7016491F1CFEB
:1047F000F60140815181628173812AE030E086E4D4
:1048000098E10F949FBB6AE070E086E498E10E9413
:104810007817F801E555FD4F10821182128213823C
:10482000E7EFF7E064918F01662309F488C07727EA
:1048300067FD709586E498E10E9478170F5F1F4F1F
:10484000F8016491F1CFE3EEF7E064918F01662304
:1048500061F0772767FD709586E498E10E947817EC
:104860000F5F1F4FF8016491F2CFB70186E498E122
:104870000F94C3BAE1EEF7E064918F01662309F467
:104880005EC0772767FD709586E498E10E947817EF
:104890000F5F1F4FF8016491F1CF6115710519F099
:1048A0006C5F7F4F02C060E070E026E5A701C601A3
:1048B0000F94AD89811129C0EDECF7E064918F016F
:1048C000662361F0772767FD709586E498E10E9482
:1048D00078170F5F1F4FF8016491F2CFB70186E49C
:1048E00098E10F94C3BAEBECF7E064918F01662373
:1048F00031F1772767FD709586E498E10E9478177B
:104900000F5F1F4FF8016491F2CF81E0F8018083BF
:10491000E9EBF7E064918F01662361F0772767FD8B
:10492000709586E498E10E9478170F5F1F4FF80199
:104930006491F2CFB20186E498E10F94C3BA6AE0C1
:1049400070E086E498E10E947817C1010E947F1709
:10495000CE58DF4F0FB6F894DEBF0FBECDBFDF914C
:10496000CF911F910F91FF90EF90DF90CF90BF906C
:10497000AF909F908F907F906F905F904F903F90FF
:104980002F90089521E0FC01218340E08CCBAF9271
:10499000BF92CF92DF92EF92FF920F931F93CF932C
:1049A000DF93CDB7DEB76F970FB6F894DEBF0FBEBB
:1049B000CDBF8C017B01CE0101960E946E17F801DC
:1049C000E158FF4F80816801811104C027E5C20EC4
:1049D000D11C03C088E7C80ED11C21E0A701B60195
:1049E0006C5F7F4FCE0105960F94AD89811136C063
:1049F000E4E0F9E064918F01662361F0772767FDB9
:104A0000709586E498E10E9478170F5F1F4FF801B8
:104A10006491F2CFEBE0F7E064918F01662361F0DF
:104A2000772767FD709586E498E10E9478170F5FFD
:104A30001F4FF8016491F2CFB70186E498E10F941B
:104A4000C3BA6AE070E086E498E10E947817CE016C
:104A500001960E947F178FEF9FEF3AC0F801E35352
:104A6000FE4F808191818A30910530F59C012F5F46
:104A70003F4F318320832FE1289F7001299FF00C45
:104A80001124F7E9EF0EF11CE00EF11E5C01B701F5
:104A9000C7014F960E94071A21E0A21AB1088FE1C0
:104AA000E81AF108EFEFAE16BE0689F7B601C801A5
:104AB00089569F4F0E94071ABE016F5F7F4FC80142
:104AC00088589F4F0E94071ACE0101960E947F17B7
:104AD0006F960FB6F894DEBF0FBECDBFDF91CF91BA
:104AE0001F910F91FF90EF90DF90CF90BF90AF900C
:104AF0000895EF92FF920F931F93CF93DF93EC01F2
:104B0000C353DE4F288139812115310529F1215008
:104B10003109398328838C0109561F4FB801885801
:104B20009F4F0E94071AC80100E010E028813981D8
:104B30007C014FE1E40EF11C0217130738F40F5FFC
:104B40001F4FB7010E94071AC701F0CF81E090E024
:104B5000232B21F080E002C08FEF9FEFDF91CF91F8
:104B60001F910F91FF90EF9008958F929F92AF92B7
:104B7000BF92CF92DF92EF92FF920F931F93CF934A
:104B8000DF93EC011092CF0A80913D0A90913E0A8A
:104B9000019690933E0A80933D0AE9D24091B31466
:104BA0005091B4146091B5147091B6144093B71439
:104BB0005093B8146093B9147093BA1486E097E0D8
:104BC0000E9424500F944C997E018FEEE81A8DEFCD
:104BD000F80AF70180818E010A501E4F8823D1F117
:104BE000C8010F94B687F701808181508083BE0190
:104BF000FDE88F9F600D711D11246A5E7D4F21E0DD
:104C000041E0CE0150DAF7018081FE0194E0899FF6
:104C1000E00DF11D1124EE5EFD4F40815181628156
:104C20007381FE01E555FD4F408351836283738399
:104C3000C8010F94D386CE01DF91CF911F910F91C0
:104C4000FF90EF90DF90CF90BF90AF909F908F90AC
:104C50000C94F81A0F94DD99C8010F94B6871A8244
:104C600020E030E045E050E06AE070E085EA9EE058
:104C70000E94D23F83E097E00E9424500F944C9909
:104C80008EEF96E00E94245083E090E00E940C6634
:104C900010921F1810921E181092211810922018AE
:104CA00010921D1810921C1810920B0A10920A0AEA
:104CB0001092160B1092860B1092850B1092840B9B
:104CC0006091430A7091440A8091450A9091460A86
:104CD0002CE330E040E050E00F9489C23093400A6A
:104CE00020933F0A7093420A6093410AC090CF1408
:104CF000D090D014E090D114F090D21420912F0ACB
:104D00003091300A4091310A5091320A6091330A51
:104D10007091340A8091350A9091360A0F94E0BE62
:104D20004B015C012091131530911415409115151C
:104D300050911615609117157091181580911915DD
:104D400090911A150F9421BFA70196010F940DBEE3
:104D50009B01AC01C501B4010F942DBD0F9475BE2C
:104D600020932F0A3093300A4093310A5093320A2D
:104D70006093330A7093340A8093350A9093360A0D
:104D80002091270A3091280A4091290A50912A0A35
:104D900060912B0A70912C0A80912D0A90912E0A15
:104DA0000F94E0BE4B015C0120910B1530910C1566
:104DB00040910D1550910E1560910F1570911015C1
:104DC00080911115909112150F9421BFA7019601A2
:104DD0000F940DBE9B01AC01C501B4010F942DBD14
:104DE0000F9475BE2093270A3093280A4093290A0E
:104DF00050932A0A60932B0A70932C0A80932D0AF1
:104E000090932E0A20911F0A3091200A4091210A86
:104E10005091220A6091230A7091240A8091250AF8
:104E20009091260A0F94E0BE6B017C01209103153E
:104E300030910415409105155091061560910715A4
:104E4000709108158091091590910A150F9421BF52
:104E50002091D3143091D4144091D5145091D6148C
:104E60000F940DBE9B01AC01C701B6010F942DBD7F
:104E70000F9475BE20931F0A3093200A4093210A95
:104E80005093220A6093230A7093240A8093250A80
:104E90009093260AC090DB14D090DC14E090DD14CF
:104EA000F090DE142091170A3091180A4091190AE7
:104EB00050911A0A60911B0A70911C0A80911D0A78
:104EC00090911E0A0F94E0BE4B015C012091FB14EF
:104ED0003091FC144091FD145091FE146091FF1428
:104EE0007091001580910115909102150F9421BFCA
:104EF000A70196010F940DBE9B01AC01C501B40141
:104F00000F942DBD0F9475BE2093170A3093180A85
:104F10004093190A50931A0A60931B0A70931C0A53
:104F200080931D0A90931E0A20910F0A3091100A57
:104F30004091110A5091120A6091130A7091140A5B
:104F40008091150A9091160A0F94E0BE4B015C0106
:104F50002091F3143091F4144091F5145091F6140B
:104F60006091F7147091F8148091F9149091FA14EB
:104F70000F9421BFA70196010F940DBE9B01AC01B8
:104F8000C501B4010F942DBD0F9475BE20930F0A77
:104F90003093100A4093110A5093120A6093130A37
:104FA0007093140A8093150A9093160A10921315A1
:104FB00010921415109215151092161510921715BF
:104FC000109218151092191510921A1510920B15AF
:104FD00010920C1510920D1510920E1510920F15BF
:104FE00010921015109211151092121510920315AF
:104FF00010920415109205151092061510920715BF
:10500000109208151092091510920A151092FB14AF
:105010001092FC141092FD141092FE141092FF14C2
:105020001092001510920115109202151092F314AF
:105030001092F4141092F5141092F6141092F714C2
:105040001092F8141092F9141092FA1490D082EF82
:1050500096E00E94245080916A148823F9F01092FF
:105060006A14C0910E0AD0E0CC0FDD1FC25ED74E8D
:1050700068817981882777FD8095982F0F94E6BE07
:105080002091BC023091BD024091BE025091BF02FE
:105090000F9495C0181614F419821882DF91CF91DD
:1050A0001F910F91FF90EF90DF90CF90BF90AF9046
:1050B0009F908F9008958D559D4FFC016081718167
:1050C00082819381089585559D4FFC016081718196
:1050D000828193810895EF92FF920F931F93CF9354
:1050E000DF931F92CDB7DEB78C017B01460FF7012E
:1050F00061917F01F8018081918149830F9467CE8E
:10510000F8018081918101969183808349814E11BC
:10511000EECF0F90DF91CF911F910F91FF90EF9005
:105120000895EF92FF920F931F93CF93DF931F92F7
:10513000CDB7DEB78C017B01460FF80180819181EC
:1051400049830F945FCEF70181937F01F80180813D
:10515000918101969183808349814E11EECF0F900A
:10516000DF91CF911F910F91FF90EF9008950F93D2
:105170001F93CF93DF93CDB7DEB768970FB6F89440
:10518000DEBF0FBECDBF80E390E3A0E3B0E08D8330
:105190009E83AF83B88704E610E0188F0F8B44E03E
:1051A000BE016B5F7F4FCE01479695DF40E16FEC0C
:1051B00074E1CE0147968FDF40E16FED74E1CE01DF
:1051C000479689DF40E16FEB74E1CE01479683DFBC
:1051D00044E067EB74E1CE0147967DDF44E06FEA7F
:1051E00074E1CE01479677DF44E06BEB74E1CE01CA
:1051F000479671DF44E06FE974E1CE0147966BDFBB
:1052000044E06FEE74E1CE01479665DF44E06BEA5F
:1052100074E1CE0147965FDF44E067EA74E1CE01B6
:10522000479659DF44E063EA74E1CE01479653DFC5
:105230004CE067E97AE0CE0147964DDF87ED90E0DC
:105240009E8B8D8B8DE290E09C8B8B8B1A8A198ABA
:1052500080EF90E0988B8F8786E490E09E878D8723
:105260001C861B8642E0BE016B5E7F4FCE014796D7
:1052700032DF42E0BE016D5E7F4FCE0147962BDFED
:1052800042E0BE016F5E7F4FCE01479624DF42E0D1
:10529000BE01615F7F4FCE0147961DDF42E0BE0138
:1052A000635F7F4FCE01479616DF42E0BE01655F28
:1052B0007F4FCE0147960FDF44E064E87AE0CE01ED
:1052C000479609DF44E06BE272E0CE01479603DFC8
:1052D00044E063E372E0CE014796FDDE44E06BE319
:1052E00072E0CE014796F7DE42E06AEF7AE0CE0147
:1052F0004796F1DE42E06EEF7AE0CE014796EBDEB4
:1053000042E06CEF7AE0CE014796E5DE42E068EFDE
:105310007AE0CE014796DFDE42E06AEE7AE0CE0127
:105320004796D9DE42E06EEE7AE0CE014796D3DEB4
:1053300042E06CEE7AE0CE014796CDDE42E068EEC8
:105340007AE0CE014796C7DE42E062EF7AE0CE0116
:105350004796C1DE42E066EF7AE0CE014796BBDEBB
:1053600042E064EF7AE0CE014796B5DE42E060EFBE
:105370007AE0CE014796AFDE42E062EE7AE0CE01FF
:105380004796A9DE42E066EE7AE0CE014796A3DEBC
:1053900042E064EE7AE0CE0147969DDE42E060EEA8
:1053A0007AE0CE01479697DE44E06BE173E0CE01F0
:1053B000479691DE44E063E173E0CE0147968BDED1
:1053C00044E06BE073E0CE01479685DE44E06FE198
:1053D00073E0CE0147967FDE44E067E173E0CE01E3
:1053E000479679DE44E06FE073E0CE01479673DEC6
:1053F00042E069E47AE0CE0147966DDE42E06DE37B
:105400007AE0CE01479667DE42E06BE37AE0CE01B8
:10541000479661DE42E069E37AE0CE0147965BDEC3
:1054200042E067E47AE0CE01479655DE42E067E36A
:105430007AE0CE0147964FDE80E290E09A87898736
:1054400042E0BE01675F7F4FCE01479644DE42E0F7
:105450006EE87BE0CE0147963EDE44E06AE87BE002
:10546000CE01479638DE42E068E87BE0CE01479601
:1054700032DE42E061E47AE0CE0147962CDE42E083
:105480006FE37AE0CE01479626DE48E06FE27AE0ED
:10549000CE01479620DE48E067E27AE0CE014796EB
:1054A0001ADE48E06FE17AE0CE01479614DE48E06C
:1054B00067E17AE0CE0147960EDE48E06FE07AE0E1
:1054C000CE01479608DE42E06EE672E0CE014796D6
:1054D00002DE42E066E772E0CE014796FCDD44E082
:1054E0006AE47BE0CE014796F6DD44E066E47BE0CB
:1054F000CE014796F0DD44E062E47BE0CE014796C2
:10550000EADD42E060E47BE0CE014796E4DD44E082
:105510006CE37BE0CE014796DEDD44E068E37BE0B0
:10552000CE014796D8DD42E066E37BE0CE014796A8
:10553000D2DD42E064E37BE0CE014796CCDD42E081
:1055400062E37BE0CE014796C6DD42E060E37BE0AC
:10555000CE014796C0DD42E06EE27BE0CE01479689
:10556000BADD41E067E17BE0CE014796B4DD42E081
:105570006AE17BE0CE014796AEDD42E06CE17BE084
:10558000CE014796A8DD42E06EE17BE0CE01479672
:10559000A2DD42E060E27BE0CE0147969CDD42E086
:1055A00062E27BE0CE01479696DD42E064E27BE07A
:1055B000CE01479690DD42E066E27BE0CE01479661
:1055C0008ADD42E068E27BE0CE01479684DD42E07E
:1055D0006AE27BE0CE0147967EDD42E06CE27BE052
:1055E000CE01479678DD44E063EB74E1CE01479647
:1055F00072DD42E061E67BE0CE0147966CDD44E07F
:1056000060E87AE0CE01479666DD44E06CE77AE038
:10561000CE01479660DD44E06BE47AE0CE01479628
:105620005ADD44E06FE47AE0CE01479654DD44E071
:1056300063E57AE0CE0147964EDD44E067E57AE027
:10564000CE01479648DD42E064E772E0CE0147961E
:1056500042DD44E060E772E0CE0147963CDD42E087
:105660006AE07AE0CE01479636DD42E06AE77AE00A
:10567000CE01479630DD86E591E3A2E3B0E0898371
:105680009A83AB83BC83188F0F8B44E0BE016F5F9E
:105690007F4FCE0147961FDDECEAFFE064918F015A
:1056A000662361F0772767FD709586E498E10E9494
:1056B00078170F5F1F4FF8016491F2CFECE9FFE01C
:1056C00064918F01662361F0772767FD709586E40A
:1056D00098E10E9478170F5F1F4FF8016491F2CF95
:1056E0006AE070E086E498E10E94781768960FB649
:1056F000F894DEBF0FBECDBFDF91CF911F910F9108
:1057000008950F931F93CF93DF93CCEADFE0FE0160
:1057100064918E01662361F0772767FD709586E4BA
:1057200098E10E9478170F5F1F4FF8016491F2CF44
:10573000ECE8FFE064918F01662361F0772767FD55
:10574000709586E498E10E9478170F5F1F4FF8016B
:105750006491F2CF6AE070E086E498E10E947817E5
:10576000FE0164910CEA1FE0662361F0772767FD74
:10577000709586E498E10E9478170F5F1F4FF8013B
:105780006491F2CF4091CF145091D0146091D11414
:105790007091D21484E89FE00E943C4F4091D31452
:1057A0005091D4146091D5147091D61481E89FE083
:1057B0000E943C4F4091D7145091D8146091D91455
:1057C0007091DA148EE79FE00E943C4F4091DB1409
:1057D0005091DC146091DD147091DE148BE79FE032
:1057E0000E943C4F6CE277E086E498E10F94C3BAE4
:1057F0006AE070E086E498E10E947817FE01649107
:105800000CEA1FE0662361F0772767FD709586E458
:1058100098E10E9478170F5F1F4FF8016491F2CF53
:10582000E1E6FFE064918F01662361F0772767FD71
:10583000709586E498E10E9478170F5F1F4FF8017A
:105840006491F2CF6AE070E086E498E10E947817F4
:10585000FE0164910CEA1FE0662361F0772767FD83
:10586000709586E498E10E9478170F5F1F4FF8014A
:105870006491F2CF4091DF145091E0146091E114F3
:105880007091E21488E59FE00E943C4F4091E31440
:105890005091E4146091E5147091E61485E59FE061
:1058A0000E943C4F4091E7145091E8146091E91434
:1058B0007091EA1482E59FE00E943C4F4091EB1406
:1058C0005091EC146091ED147091EE148FE49FE010
:1058D0000E943C4F6CE277E086E498E10F94C3BAF3
:1058E0006AE070E086E498E10E947817FE01649116
:1058F0000CEA1FE0662361F0772767FD709586E468
:1059000098E10E9478170F5F1F4FF8016491F2CF62
:10591000E1E3FFE064918F01662361F0772767FD83
:10592000709586E498E10E9478170F5F1F4FF80189
:105930006491F2CF6AE070E086E498E10E94781703
:10594000FE0164910CEA1FE0662361F0772767FD92
:10595000709586E498E10E9478170F5F1F4FF80159
:105960006491F2CF4091BF145091C0146091C11462
:105970007091C21488E29FE00E94844F4091C3144A
:105980005091C4146091C5147091C61485E29FE0D3
:105990000E94844F4091C7145091C8146091C9145B
:1059A0007091CA1482E29FE00E94844F4091CB1410
:1059B0005091CC146091CD147091CE148FE19FE082
:1059C0000E94844F6CE277E086E498E10F94C3BABA
:1059D0006AE070E086E498E10E947817FE01649125
:1059E0000CEA1FE0662361F0772767FD709586E477
:1059F00098E10E9478170F5F1F4FF8016491F2CF72
:105A0000EAEEFEE064918F01662361F0772767FD7F
:105A1000709586E498E10E9478170F5F1F4FF80198
:105A20006491F2CF6AE070E086E498E10E94781712
:105A3000FE0164910CEA1FE0662361F0772767FDA1
:105A4000709586E498E10E9478170F5F1F4FF80168
:105A50006491F2CF4091B7145091B8146091B91489
:105A60007091BA1481EE9EE00E943C4F4091AF14B9
:105A70005091B0146091B1147091B2148EED9EE00B
:105A80000E943C4F6CE277E086E498E10F94C3BA41
:105A90006AE070E086E498E10E947817FE01649164
:105AA0000CEA1FE0662361F0772767FD709586E4B6
:105AB00098E10E9478170F5F1F4FF8016491F2CFB1
:105AC000EBE2FEE064918F01662361F0772767FDCA
:105AD000709586E498E10E9478170F5F1F4FF801D8
