:100000000C94C1160C94F2160C94F2160C94F21681
:100010000C94F2160C94F2160C94F2160C94F21640
:100020000C94F2160C94F2160C94F2160C94F21630
:100030000C94F2160C94F2160C94F2160C94F21620
:100040000C94F2160D946F910C94F2160C94F21617
:100050000C94F2160C94F2160D947BAE0D9425B30D
:100060000C94F2160D9455B70D948BB70C94F216B0
:100070000C94F2160C94F2160C94F2160C94F216E0
:100080000C94F2160C94F2160C94F2160C94F216D0
:100090000C94F2160C94F2160C94F2160C94B517FC
:1000A0000C94F2160C94F2160C94F2160C94F216B0
:1000B0000C94F2160C94F2160C94F2160C94F216A0
:1000C0000C94F2160C94F2160C94F2160D9400B8DF
:1000D0000D9436B80C94F2160C94F2160C94F21699
:1000E0000C94F21618B828B930BA06BA4DB9E5B969
:1000F000BDB960B888B8B0B8B5BADDBA25BB4DBBDC
:1001000000B9D8B889B9F501B902CB01C701B90264
:10011000DF02B9023D02B902B902D5013102B902CA
:10012000B902FB028302B902F302B902B902B902B1
:1001300007023F026302E702B502B9026902FF0249
:10014000D9021F02C90107033302BF02F701B90236
:10015000DF027302B9022902890277021702B9028B
:10016000EB02810265022B02B9026D02BF01EF01B1
:100170009502D5029F02BB01B90299029D02B1010D
:10018000B9024902970287022703B902AF02AB0204
:100190004D03910261020503C702490311031103D4
:1001A0006D035303CB02FB011D020B030103090284
:1001B000DB016F02B902B902B9022903A7020502E5
:1001C000C50201023B034F024B03A502570237034E
:1001D000B701CF0127021B022D02E502670261036E
:1001E000E902BD01FF01130365031D035F02D9018D
:1001F000F702B902A90217033F03030329033702D9
:1002000043030F022D03CD01B501B9012D032502D2
:100210003503F3014F03B902B902D702B902F9015C
:10022000A302E302130257037D02DF01210323032C
:100230000903F502C301CF028502F1011102D701C2
:10024000C902F102E90123025B03B902B902B90252
:10025000B902B902B902B902B902B9028902FD01B3
:100260001902AD02D1019B02B902B902B902B90269
:100270006B035B02B9026B0215021B03630353029B
:100280002503B9028D028B023902F9027B02E701D4
:10029000B902B9021F03CD02D102410271022B0340
:1002A00075026703EF02C101B902B902B301B902D5
:1002B000B902B702B9027902E10159024D020B02FB
:1002C0000D02ED025F03D3029302C501ED01D301DC
:1002D0008F02C302DD02DD0133030D034702550225
:1002E0002F0351030F03470343023303DB0235029D
:1002F0004B02BB025D032F021503BD026903EB0134
:1003000041035D02190331036F037F02FD0269039C
:10031000B1023D03E102084AD73B3BCE016E84BCEB
:10032000BFFDC12F3D6C74319ABD56833DDA3D004F
:10033000C77F11BED9E4BB4C3E916BAAAABE000098
:1003400000803F05A84CCDB2D44EB93836A9020C76
:1003500050B9918688083CA6AAAA2ABE000000804F
:100360003F000D94A83C0D94CD460D942C3C0D946B
:10037000D0300D94793C0D945F080D9429330D9481
:10038000C02F0D943B470D94E1150D9480AF0D9453
:100390001B130D9477330D94BB170D94CA3B0D942A
:1003A000F2310D94A0470D945BB40D94FF270D948A
:1003B0005A150D941D370D9418080D9479B40D94A9
:1003C0002F1F0D9403AF0D94F0B50D948FB60D94BF
:1003D00031440D94F2150D941BB50D9488AF0D9416
:1003E00068230D9446130D947E480D945D170D946B
:1003F000DC330D94652B0D94E60D0D94EA0A0D94F3
:1004000050330D94042C0D946EB60D94770F0D940B
:10041000722F0D944C0E0D9439AF0D9453AF0D9473
:10042000FE190D944D140D945F1F0D9425400D94ED
:10043000ED380D94150B0D9440320D94820A0D94F5
:1004400041340D9412B60D94E5160D9431240D949B
:1004500019320D9448120D943A390D9467320D9467
:1004600006B50D946B0A0D94B9290D94DEB40D9464
:1004700090190D94E6430D94FEB50D94C3090D94A7
:10048000992F0D9459430D94CAB40D94B8B80D9496
:100490008BB40D94CF3C0D94E8B40D942CAF0D9417
:1004A0000E300D945FB80D94383F0D9493B40D94B5
:1004B00082300D9410AF0D94303E0D9425B50D94FF
:1004C00097370D94E0390D9461390D9414390D94DA
:1004D000B5320D94F7300D94E03F0D948A170D94CA
:1004E00075080D948B410D941A090D9426410D94B5
:1004F000C6120D94890C0D9429290D942B1E0D9470
:1005000037B50D9472120D9435080D94BA2A0D94D6
:10051000AF390D94922C0D942F250D9430260D9407
:1005200060B40D94861C0D947EAF0D945C2D0D94DB
:10053000A30D0D9429210D941E480D94F30B0D94D9
:100540008B080D9468B80D94D5290D945B300D94EB
:10055000220F0D94F53C0D940A220D94600B0D941E
:10056000713E0D9441B50D94BDB70D941C3D0D9495
:100570006D470D94F8480D9414B50D9410B50D9475
:10058000F0120D947A500D9465B40D94C50A0D9433
:10059000433D0D9494150D94961D0D943F420D947A
:1005A000CD150D94CC420D947CAF0D94EE090D94B5
:1005B000EE450D94C1310D94D4B40D946FB40D94E7
:1005C00092090D9449B50D94FF1E0D948E320D9431
:1005D00088390D9402330D949C120D9460AF0D94E4
:1005E000A1450D9417460D9475290D944D200D9439
:1005F000B3360D942A280D944A080D943BB50D94FA
:100600005C310D94250A0D940E110D94E72F0D9475
:10061000C7290D947C200D94990A0D9483B40D94F0
:10062000B1B40D94461A0D94FB340D940AB50D9493
:10063000AB0E0D9429B50D94603F0D9494350D9437
:10064000B4410D948E1F0D94EE1F0D94A7400D9490
:10065000021C0D9428180D94D8400D94C2380D94A6
:100660009DB40D942DB50D94F2B40D94D4080D9451
:10067000A9300D94B4B70D94BE2B0D9445B50D94CF
:10068000CD0F0D941FB50D94BB190D941D8C0D94B9
:10069000C0B40D945E0C0D9435300D9476400D94DD
:1006A00015170D94A7B40D940E1D0D94E5B50D947A
:1006B000BE1F0D9462500D941E200D9417B50D941D
:1006C0007AAF0D94DB320D94A23F0D9472340D94E9
:1006D0007C440D944EB50D946A3D0D9460190D94B3
:1006E00033B54D383420582059205A2045004D311B
:1006F0003037005430004D3130370043616E6E6F3B
:100700007420656E746572207375626469723A2034
:10071000005341564544205052494E54004D323406
:10072000004D3233202573006175746F25692E6783
:10073000006572726F722077726974696E672074D7
:100740006F2066696C65004E6F7420534420707290
:10075000696E74696E67002F005344207072696E71
:1007600074696E67206279746520002E0044656CA0
:100770006574696F6E206661696C65642C204669DA
:100780006C653A200046696C652064656C6574652B
:10079000643A002E006F70656E206661696C656456
:1007A0002C2046696C653A200057726974696E673F
:1007B00020746F2066696C653A20002E006F7065AA
:1007C0006E206661696C65642C2046696C653A2010
:1007D000002E006F70656E206661696C65642C2068
:1007E00046696C653A200046696C652073656C65E6
:1007F00063746564002053697A653A200046696C29
:1008000065206F70656E65643A20002E006F70651C
:100810006E206661696C65642C2046696C653A20BF
:10082000004E6F772066726573682066696C653A62
:1008300020004E6F7720646F696E672066696C6573
:100840003A20002220706F73002220706172656E62
:10085000743A2200535542524F5554494E45204355
:10086000414C4C207461726765743A22007472794D
:10087000696E6720746F2063616C6C207375622DE4
:1008800067636F64652066696C6573207769746857
:1008900020746F6F206D616E79206C6576656C7366
:1008A0002E204D4158206C6576656C2069733A00A6
:1008B0007A70726F62653A200053442063617264FB
:1008C000206F6B006F70656E526F6F742066616988
:1008D0006C656400766F6C756D652E696E69742049
:1008E0006661696C656400534420696E69742066B2
:1008F00061696C006563686F3A004572726F723AA5
:1009000000535543434553530056616C756573203E
:100910006F7574206F662072616E67650056616C3A
:10092000756573206F7574206F662072616E6765E0
:100930000056616C756573206F7574206F66207248
:10094000616E67650056616C756573206F75742004
:100950006F662072616E676500535543434553537C
:100960000056616C756573206F7574206F66207218
:10097000616E67650056616C756573206F757420D4
:100980006F662072616E67650056616C75657320D5
:100990006F7574206F662072616E67650056616CBA
:1009A000756573206F7574206F662072616E676560
:1009B00000535441544953544943532052455345DD
:1009C000540048617264636F6465642043616C69BC
:1009D0006220616E64205049442044656661756CF4
:1009E000742053657474696E6773204C6F6164651D
:1009F000640048617264636F646564204465666185
:100A0000756C742053657474696E6773204C6F61E4
:100A10006465640053746F726564207365747469EF
:100A20006E677320726574726965766564002C2048
:100A300073617665645F466C61675F66616E6C6169
:100A40007965725F6D6972726F723A20002C207343
:100A5000617665645F66656564726174653A2000FD
:100A60002C2073617665645F66616E6C6179657276
:100A70003A20002C2073617665645F74656D706246
:100A800065643A20002C2073617665645F74656D3F
:100A900070303A20002C2073617665645F74656D58
:100AA00070313A20002C2073617665645F66696C52
:100AB00065706F736974696F6E3A20002C207361E2
:100AC0007665645F655F706F736974696F6E3A20F5
:100AD000002C2073617665645F746F6F6C5F616377
:100AE000746976653A20002C2073617665645F7ABC
:100AF0005F706F736974696F6E3A20002C207361A8
:100B00007665645F795F706F736974696F6E3A20A0
:100B1000002C2073617665645F785F706F73697411
:100B2000696F6E3A200053415645205052494E5449
:100B3000204C4F473A00204D696E75746573203A1A
:100B400000204C617374207072696E742074696D3A
:100B5000652D3E20486F757273203A004C617374A6
:100B6000207072696E74206475726174696F6E00B2
:100B70002C205468697264204944206E756D62654A
:100B80007220002C205365636F6E64204944206EF0
:100B9000756D6265723A200020466972737420494F
:100BA00044206E756D6265723A2000554920496E89
:100BB000666F726D6174696F6E2053657269616CE6
:100BC000204E756D6265723A00206D2C20453120F3
:100BD0007072696E742064697374616E63653A2023
:100BE00000206B6D2C204530207072696E7420647B
:100BF000697374616E63653A2000206B6D2C205917
:100C0000207072696E742064697374616E63653AF2
:100C10002000206B6D2C205831207072696E74207A
:100C200064697374616E63653A200020432C0A2066
:100C30005830207072696E742064697374616E63D9
:100C4000653A200020432C206D61782074656D701A
:100C500020423A200020432C206D61782074656D7D
:100C60007020523A20002C206D61782074656D70E0
:100C7000204C3A2000682C207072696E74732066D4
:100C8000696E69736865643A20002C207072696E21
:100C900074696E672074696D653A2000207072690E
:100CA0006E74733A200053544154533A0020432C3D
:100CB00020525F5052494E543A200020432C20527B
:100CC0005F4245443A200020432C20525F52454D5C
:100CD0004F56453A200020525F494E534552543AF0
:100CE000200054656D70202843293A0020432C20B1
:100CF0004C5F5052494E543A200020432C204C5F08
:100D00004245443A200020432C204C5F52454D4F31
:100D100056453A2000204C5F494E534552543A20E4
:100D20000054656D70202843293A002042656420F4
:100D3000726967687420736372657720002042656A
:100D400064206C6566742073637265772000426569
:100D500064204F66667365747320286D6D293A00B0
:100D6000205A2070726F626500205A20002059209E
:100D700000205820004F66667365747320286D6DDF
:100D8000293A00204400204900202D204D333031E5
:100D90002052494748542050002044002049002058
:100DA0004D333031204C45465420500050494420AA
:100DB00073657474696E67733A00205A0020590095
:100DC00020204D323036205800486F6D65206F6608
:100DD0006673657420286D6D293A00204500205AFD
:100DE0000020580020420020540020204D32303591
:100DF000205300416476616E636564207661726998
:100E000061626C65733A20533D4D696E206665657D
:100E1000647261746520286D6D2F73292C20543DF8
:100E20004D696E2074726176656C206665656472CA
:100E300061746520286D6D2F73292C20423D6D69EA
:100E40006E696D756D207365676D656E742074696C
:100E50006D6520286D73292C20583D6D6178696D72
:100E6000756D205859206A65726B20286D6D2F733F
:100E7000292C20205A3D6D6178696D756D205A20AE
:100E80006A65726B20286D6D2F73292C2020453DDB
:100E90006D6178696D756D2045206A65726B2028DB
:100EA0006D6D2F73290020540020204D32303420E6
:100EB0005300416363656C65726174696F6E3A20BB
:100EC000533D616363656C65726174696F6E2C205C
:100ED000543D7265747261637420616363656C650F
:100EE000726174696F6E00204500205A002059001D
:100EF00020204D3230312058004D6178696D756D7C
:100F000020416363656C65726174696F6E20286D42
:100F10006D2F7332293A00204500205A00205900D5
:100F200020204D3230332058004D6178696D756D49
:100F30002066656564726174657320286D6D2F731A
:100F4000293A00204500205A0020590020204D3920
:100F50003220580053746570732070657220756E6E
:100F600069743A0053657474696E67732053746FC3
:100F7000726564006563686F3A00204500205A007E
:100F8000205900483D580045787472756465722098
:100F900072656C6561736564206163746976653A36
:100FA00020005A205349474D4120486F6D65640029
:100FB0004578747275646572206163746976653A08
:100FC00020005072696E7465722068616C7465648B
:100FD0002E206B696C6C28292063616C6C65642120
:100FE00000436F6F6C696E6720446F776E204865B1
:100FF00061746572004475616C204D6972726F7224
:10100000204D6F6465204F4E004475616C204D6F1C
:101010006465204F4E004475616C204D6F646520FF
:101020004F4646006F6B00526573656E643A200050
:10103000504F534954494F4E20484F4D453A200098
:1010400054696D6520696E616374697665005075D9
:101050007267652064697374616E636500486F74BC
:10106000656E64206F6666736574733A005A204F2C
:101070006666736574203A20007A5F6D61783A2065
:10108000007A5F6D696E3A20005A204F666673657C
:1010900074005A204F6666736574206F6B004E6F44
:1010A00074207072696E74207265636F76657279F0
:1010B000207570005072696E74207265636F76657A
:1010C000727920757000486F74656E64206F666673
:1010D000736574733A007A5F6D696E3A2000795FC8
:1010E0006D61783A2000785F6D61783A2000785F12
:1010F0006D696E3A2000205A3A0020593A00204388
:101100006F756E7420583A200020453A00205A3AF4
:101110000020593A00583A004649524D574152452D
:101120005F4E414D453A4D61726C696E2056313BC0
:1011300020537072696E7465722F6772626C206DD5
:10114000617368757020666F722067656E36204621
:1011500049524D574152455F55524C3A687474702C
:10116000733A2F2F6769746875622E636F6D2F4510
:1011700072696B5A616C6D2F4D61726C696E2F20B4
:1011800050524F544F434F4C5F56455253494F4E68
:101190003A312E30204D414348494E455F54595015
:1011A000453A4D656E64656C20455854525544452A
:1011B000525F434F554E543A3220555549443A30C8
:1011C000303030303030302D303030302D30303025
:1011D000302D303030302D30303030303030303015
:1011E0003030300A004265642048656174656400EF
:1011F00020423A0020453A00543A0045787472750E
:10120000646572204865617465640020573A002067
:10121000453A00543A002042403A0020403A00202B
:101220002F003A00205400202F0020423A00202FA7
:10123000006F6B20543A000A0A005374616E6461B7
:10124000726420446576696174696F6E3A20000AA1
:10125000004D65616E3A20000A002020207A3A2075
:101260000000793A2000783A20003F5370656369A6
:1012700066696564206E756D626572206F66206CAC
:1012800065677320696E206D6F76656D656E74207D
:101290006E6F7420706C61757361626C652E0A00EC
:1012A0003F537065636966696564205920706F7388
:1012B0006974696F6E206F7574206F662072616E3D
:1012C00067652E0A003F537065636966696564202F
:1012D0005820706F736974696F6E206F7574206F1A
:1012E000662072616E67652E0A003F537065636900
:1012F000666965642073616D706C652073697A65D9
:10130000206E6F7420706C61757361626C652E0A5B
:101310000046756C6C20737570706F727420617408
:101320003A20687474703A2F2F33647072696E7447
:10133000626F6172642E636F6D2F666F72756D2EB2
:101340007068700A004D3438205A2D50726F6265F3
:10135000205265706561746162696C69747920748A
:101360006573742E20202056657273696F6E20326B
:101370002E30300A003F566572626F7365204C65EF
:1013800076656C206E6F7420706C61757361626C31
:10139000652E0A002569206D696E2C202569207351
:1013A0006563004732382058302059300062756636
:1013B000666572206F75743A2000427566666572C4
:1013C000313A200043617264204E616D653A20001D
:1013D000456E642066696C65206C697374004265B3
:1013E00067696E2066696C65206C697374000A0019
:1013F000205A3A200020593A200020583A20004232
:1014000065640047363920414354495641544544A8
:10141000000A00207A3A200020793A200020783A09
:101420002000426564000A0020616E7469686F7272
:101430006172690A3A200020686F726172690A203D
:10144000002F3800766F6C746573200020566F6C27
:1014500074657320636172676F6C20333A200020DB
:10146000616E7469686F726172690A3A200020685F
:101470006F726172690A20002F3800766F6C746594
:1014800073200020566F6C74657320636172676F00
:101490006C20323A20000A0020647A333A2000207F
:1014A000647A323A20005430005430000056756996
:1014B00074656E73333A2020004170726F78333A4E
:1014C000202000566F6C746573333A20200000565C
:1014D000756974656E73323A2020004170726F78BE
:1014E000323A202000566F6C746573323A20200027
:1014F00056616C6F7220645A333A20200056616C3A
:101500006F7220645A323A2020007A335F313A20D9
:10151000007A325F313A20005A7363726F6C6C5FED
:10152000313A20007A335F303A20007A325F303A25
:1015300020005A7363726F6C6C5F303A2000706CDD
:10154000616E654E6F726D616C5F312E7A3A20006C
:10155000706C616E654E6F726D616C5F312E793AA1
:101560002000706C616E654E6F726D616C5F312E24
:10157000783A2000706C616E654E6F726D616C5FC1
:10158000302E7A3A2000706C616E654E6F726D611C
:101590006C5F302E793A2000706C616E654E6F7210
:1015A0006D616C5F302E783A20005A76616C7565FB
:1015B00020616674657220686F6D653A00486F6DD2
:1015C0006520582F59206265666F7265205A005356
:1015D00074617274696E67205A2043616C6962722B
:1015E0006174696F6E2057697A617264004D383496
:1015F000005374617274696E6720592043616C698D
:1016000062726174696F6E2057697A617264004D0D
:101610003834005374617274696E672058204361D6
:101620006C6962726174696F6E2057697A61726465
:101630000045787472756465722072656C656173BB
:101640006564206163746976653A20005A205349C5
:10165000474D4120486F6D6564004578747275642C
:101660006572206163746976653A20002200556EC8
:101670006B6E6F776E20636F6D6D616E643A2022C2
:1016800000504F534954494F4E20484F4D453A2042
:101690000020004D6F766520746F3A200047393284
:1016A000204530205A3020522564004E6577206C4A
:1016B00061796572206465746563746564005A209D
:1016C000686F7070696E67206465746563746564C3
:1016D00000256920686F757273202569206D696E19
:1016E0007574657300446F6E65207072696E7469FD
:1016F0006E672066696C65004D33330070617573E9
:1017000065206465746563746564200A0047363932
:10171000005072696E7465722073746F70706564C6
:101720002064756520746F206572726F72732E204D
:1017300046697820746865206572726F7220616EE8
:101740006420757365204D39393920746F207265B6
:1017500073746172742E202854656D7065726174A3
:101760007572652069732072657365742E205365E8
:101770007420697420616674657220726573746187
:101780007274696E6729006F6B004E6F204C696E32
:1017900065204E756D626572207769746820636894
:1017A00065636B73756D2C204C617374204C696E8E
:1017B000653A20004E6F20436865636B73756D203A
:1017C00077697468206C696E65206E756D626572EC
:1017D0002C204C617374204C696E653A200063685C
:1017E00065636B73756D206D69736D617463682CCF
:1017F000204C617374204C696E653A20004C696E10
:1018000065204E756D626572206973206E6F74205D
:101810004C617374204C696E65204E756D62657203
:101820002B312C204C617374204C696E653A20007A
:101830004D3131300053757266696E672030200A71
:101840000043616C6962726174696F6E20537563E5
:101850006365737366756C2C20676F696E672062B1
:1018600061636B20746F206D61696E206D656E75AC
:10187000200A005430004D383420582059205A2076
:1018800045002534643A252E326468202F202564D3
:10189000670000466F726D20322100256420697454
:1018A000656D7300526561647920746F20496E73B1
:1018B0006572742F52656D6F7665200A0074656DD0
:1018C00070206F6B200A00256425250025336420D5
:1018D00025634300253364202563430025336425B5
:1018E0006343202F2025336425634300253364257B
:1018F0006343202F2025336425634300253364256B
:101900006343202F2025336425634300252033645F
:101910002025250025642068202564206D002520D1
:1019200033642025250025326420256343002533B8
:1019300064202563430025336420256343005265FA
:1019400061647920746F20496E736572742F5265DB
:101950006D6F7665200A0074656D70206F6B200ACC
:1019600000256425250025336420256343002533A5
:101970006420256343002053544F50205052494E59
:1019800054200A00473238205830205930004D3357
:101990003500526573756D652064657465637465A3
:1019A00064200A0047373000EFBFBD524553554D04
:1019B0004521200A00EFBFBD504155534521200A63
:1019C00000253364202563430025336420256343C9
:1019D00000253364202563430025336420256343B9
:1019E00000253364202563430025336420256343A9
:1019F0000025336420256343002533642025634399
:101A00000025336420256343005052494E5420532F
:101A1000455454494E4753200A00446F6E65207365
:101A20006176696E672066696C652E006F6B004D8C
:101A300032390067636F646520666F756E640042BB
:101A4000434E3344205369676D610073746172744F
:101A50000030312D312E322E355243002200656E7A
:101A6000717565696E672022002200656E7175656B
:101A7000696E6720220043616C63756C75733A2050
:101A8000200043616C63756C75733A2020004361DC
:101A90006C63756C75733A202000253364202563D0
:101AA00043002533642025634300456E746572202E
:101AB000696E207075726765206D6F6465200A001D
:101AC00053757266696E672031200A00537572661D
:101AD000696E672030200A0047333400494E464F74
:101AE0003A204245442043414C4942202D20005396
:101AF000757266696E672030200A004732382058B8
:101B0000302059300054300053757266696E67207A
:101B100030200A0047343300473433004734310063
:101B20004734300047343300473433004734310002
:101B3000473430004D3834004D3834004D383400CF
:101B40005A32204F66667365743A20004F4B2073FB
:101B500065636F6E642045787472756465722100E8
:101B60005A20706F736974696F6E3A20005A207042
:101B70006F736974696F6E3A20004D3834005A31C2
:101B80002050726F6265206F66667365743A20003C
:101B90004F4B206669727374204578747275646562
:101BA0007221200A005A20706F736974696F6E3A4F
:101BB00020005A20706F736974696F6E3A20004379
:101BC000616C63756C75733A20200043616C6375BA
:101BD0006C75733A20200043616C63756C75733AC1
:101BE00020200043616C63756C75733A20200046B9
:101BF000696C616D656E742052656D6F7665642CDD
:101C000020474F494E4720544F20434C45414E20DA
:101C1000544845204E4F5A5A4C45200A0046696C9C
:101C2000616D656E7420496E7365727465642F52C0
:101C3000656D6F7665642C2072657475726E696E61
:101C40006720746F204D61696E204D656E75200AA6
:101C50000054300046696C616D656E7420496E7386
:101C600065727465642F52656D6F7665642C2067AC
:101C70006F696E6720746F2043616C6962200A008F
:101C800054300046696C616D656E7420496E7365F1
:101C9000727465642F52656D6F7665642C20676F72
:101CA000696E6720746F20746865206E6578742093
:101CB0006578747275646572200A0054300043615F
:101CC0006C6962726174696F6E20537563636573CA
:101CD0007366756C2C20676F696E67206261636B39
:101CE00020746F206D61696E206D656E75200A002D
:101CF0005430004A756D70206F7665722073637280
:101D000065773120616E6420736372657732200AD3
:101D1000004A756D70206F76657220736372657707
:101D200031200A004733340047333400473334004E
:101D300054300047333400494E464F3A2042454420
:101D40002043414C4942202D2000363020646567F5
:101D500072656573200A00496E73657274696E67F7
:101D6000203A2020200A0053757266696E67203081
:101D7000200A0053757266696E672030200A00538E
:101D8000757266696E672030200A0025336420254D
:101D900063430025336420256343002533642025F5
:101DA000634300456E74657220696E2070757267BA
:101DB00065206D6F6465200A002533642025634328
:101DC00000253364202563430025336420256343C5
:101DD00000253364202563430025336420256343B5
:101DE00000253364202563430025336420256343A5
:101DF00000253364202563430046696C616D656E80
:101E0000742052656D6F7665642C20474F494E47AC
:101E100020544F20434C45414E20544845204E4FBE
:101E20005A5A4C45200A0053757266696E67203015
:101E3000200A0053757266696E672030200A0054CC
:101E4000300054652070696C6C650053757266696A
:101E50006E672030200A004D333400537572666976
:101E60006E672030200A004D3234004D3233202579
:101E7000730053757266696E672030200A005365DF
:101E80006C65637420340053656C656374203300A3
:101E900053656C65637420320053656C6563742010
:101EA000310053656C656374203000537572666948
:101EB0006E672030200A0053554343455353200A90
:101EC00000253364202563430025336420256343C4
:101ED00000253364202563430025336420256343B4
:101EE00000253364202563430025336420256343A4
:101EF0000025336420256343002533642025634394
:101F0000002533642025634300496E73657274694C
:101F10006E67203A2020200A002533642025634381
:101F20000025336420256343002533642025634363
:101F300000456E74657220696E2070757267652049
:101F40006D6F6465200A00FF01FF0000A0400000E3
:101F5000A04000000040CDCC984300809343000097
:101F60005243000000000080934300000000CDCCED
:101F7000984300809343000052430000000000009B
:101F80000000000000006563686F3A004572726FE0
:101F9000723A0020636F6C6420657874727573699F
:101FA0006F6E2070726576656E7465640065636837
:101FB0006F3A003B202020506C6173746963207776
:101FC00065696768743A2025642E256467003B467E
:101FD000696C616D656E7420757365643A20256463
:101FE0002E25646D2025642E256467003B46696CB0
:101FF000616D656E7420757365643A20256C752E6D
:10200000256C756D003B2020204275696C6420743E
:10201000696D653A20256420257320256420257389
:10202000003B5072696E742074696D653A202564B6
:102030002025732025642025732025642025730026
:102040003B54494D453A20256C64003B20472D43C5
:102050006F64652067656E6572617465642062797E
:102060002053696D706C6966793344285229205673
:10207000657273696F6E202564007C3C3E5E2B3D6B
:102080003F2F5B5D3B2C2A225C00205A3A002059EE
:102090003A0020583A00656E6473746F707320685C
:1020A00069743A200024F4D43050C38E20C2A24078
:1020B00017828B7011127A910D816CD90AA861E197
:1020C00008C7586607615143061E4B5D05C145A709
:1020D000041A411104093D9803713931034036DB7C
:1020E0000265339102D4305402802E1D02632CEE1F
:1020F00001752AC501B028A001102781018F256430
:10210000012B244B01E0223401AC211F018D200D55
:1021100001801FFC00841EED00971DDF00B81CD25B
:1021200000E61BC600201BBC00641AB200B219A84E
:10213000000A19A0006A189900D117910040178B66
:1021400000B516840031167E00B31579003A157378
:1021500000C7146F0058146A00EE136600881363FA
:102160000025135E00C7125B006C12570015125455
:1021700000C111510070114F0021114B00D61049C0
:10218000008D1047004610440002104200C00F406E
:1021900000800F3E00420F3C00060F3B00CB0E3884
:1021A00000930E37005C0E3500270E3400F30D321D
:1021B00000C10D3100900D3000600D2E00320D2D4C
:1021C00000050D2C00D90C2B00AE0C2900850C2924
:1021D000005C0C2700350C27000E0C2600E80B24B1
:1021E00000C40B2400A00B23007D0B23005A0B21FD
:1021F00000390B2100180B2000F80A1F00D90A1E15
:1022000000BB0A1E009D0A1D00800A1D00630A1CF7
:1022100000470A1B002C0A1B00110A1A00F7091AB2
:1022200000DD091900C4091900AB0919009209174A
:10223000007B091800630917004C091600360916BF
:1022400000200916000A091500F5081500E0081419
:1022500000CC081400B8081400A408140090081357
:10226000007D0812006B081300580812004608127F
:102270000034081100230811001208110001081190
:1022800000F0071000E0071000D0071000C0071092
:1022900000B0070F00A107100091070E0083070F81
:1022A0000074070F0065070E0057070E0049070E60
:1022B000003B070D002E070E0020070D0013070D31
:1022C0000006070D00F9060C00ED060D00E0060CF7
:1022D00000D4060C00C8060C00BC060C00B0060CAE
:1022E00000A4060B0099060C008D060B0082060B5D
:1022F0000077060B006C060B0061060A0057060B00
:10230000004C060A0042060A0038060A002E060A99
:102310000024060A001A060A001006090007060A29
:1023200000FD050900F4050900EB050900E20509B7
:1023300000D9050900D0050900C7050900BE050937
:1023400000B5050800AD050800A50509009C0508B5
:1023500000940508008C050800840508007C050829
:1023600000740508006C050700650508005D050799
:1023700000560508004E0507004705070040050800
:102380000038050700310507002A05070023050767
:10239000001C050600160507000F050700080506C6
:1023A0000002050700FB040600F5040700EE040622
:1023B00000E8040600E2040700DB040600D504067A
:1023C00000CF040600C9040600C3040600BD0406CD
:1023D00000B7040600B1040500AC040600A604061C
:1023E00000A00405009B0406009504050090040667
:1023F000008A04050085040500800406007A0405AF
:102400000075040500700405006B040500660405F2
:1024100000610405005C0405005704050052040532
:10242000004D04050048040500430405003E040473
:10243000003A04050035040500300404002C0405AE
:102440000027040400230405001E0404001A0404E9
:102450000016040500110404000D0404000904051D
:10246000000404040000040400FC030400F8030456
:1024700000F4030400F0030400EC030400E8030488
:1024800000E4030400E0030400DC030400D80304B8
:1024900000D4030400D0030400CC030400C80303E9
:1024A00000C503030024F404D9201BC40C5C0E985F
:1024B00004C4095F0265077101F405F900FB04B368
:1024C0000048048700C10369005803550003034511
:1024D00000BE023A008402310053022A002902257C
:1024E0000004022000E4011C00C8011900AF01171C
:1024F00000980114008401130071011000610110A3
:102500000051010E0043010D0036010B002B010BA1
:102510000020010B00150109000C0109000301084E
:1025200000FB000800F3000800EB000700E40006D1
:1025300000DE000600D8000600D2000600CC000530
:1025400000C7000500C2000500BD000400B900047A
:1025500000B5000400B1000400AD000400A90004AF
:1025600000A5000300A20003009F0004009B0003DD
:102570000098000300950002009300030090000300
:10258000008D0002008B000300880002008600021C
:102590000084000300810002007F0002007D000231
:1025A000007B000200790002007700010076000243
:1025B000007400020072000100710002006F00024E
:1025C000006D0001006C0002006A00010069000259
:1025D0000067000100660001006500010064000260
:1025E000006200010061000100600001005F000264
:1025F000005D0001005C0001005B0001005A000169
:102600000059000100580001005700010056000168
:102610000055000100540001005300000053000168
:10262000005200010051000100500001004F000164
:10263000004E0000004E0001004D0001004C000162
:10264000004B0000004B0001004A0001004900015E
:10265000004800000048000100470001004600005B
:102660000046000100450000004500010044000153
:10267000004300000043000100420000004200014E
:10268000004100000041000100400001003F000047
:10269000003F0001003E0000003E0001003D000040
:1026A000003D0001003C0000003C0000003C000137
:1026B000003B0000003B0001003A0000003A00012E
:1026C0000039000000390001003800000038000027
:1026D000003800010037000000370001003600001C
:1026E0000036000000360001003500000035000013
:1026F0000035000100340000003400000034000107
:1027000000330000003300000033000100320000FD
:1027100000320000003200010031000000310000F2
:1027200000310001003000000030000000300001E6
:10273000002F0000002F0000002F0000002F0001DC
:10274000002E0000002E0000002E0001002D0000D1
:10275000002D0000002D0000002D0001002C0000C5
:10276000002C0000002C0000002C0001002B0000B9
:10277000002B0000002B0000002B0001002A0000AD
:10278000002A0000002A0000002A000100290000A1
:102790000029000000290000002900000029000194
:1027A0000028000000280000002800000028000089
:1027B000002800010027000000270000002700007B
:1027C000002700000027000100260000002600006E
:1027D0000026000000260000002600010025000061
:1027E0000025000000250000002500000025000055
:1027F0000025000100240000002400000024000047
:102800000024000000240001002300000023000039
:10281000002300000023000000230000002300002C
:10282000002300010022000000220000002200001E
:102830000022000000220000002200010021000010
:102840000021000000210000002100000021000004
:1028500000210000002100010020000000200000F5
:1028600000200000002000000020000000200000E8
:102870000020000000200001001F0000001F0000D9
:10288000001F0000001F0000001F0000001F0000CC
:10289000001F0001001E0000001E0000001E0000BE
:1028A000001E0000006563686F3A00487973746524
:1028B00072657369732074656D7065726174757289
:1028C0006500546865726D616C2072756E61776128
:1028D000792070726F74656374696F6E20627920FD
:1028E0004865617465725F49443A004572726F725F
:1028F000283833293A2042656420746865726D690E
:1029000073746F72206E6F74206465746563746590
:1029100064004572726F72283832293A2052696712
:10292000687420746865726D6973746F72206E6F5D
:1029300074206465746563746564004572726F72B7
:10294000283831293A204C65667420746865726DA8
:102950006973746F72206E6F742020646574656390
:1029600074656400504944204175746F74756E65D8
:102970002066696E6973686564210050494420418E
:1029800075746F74756E65206661696C656421206D
:1029900074696D656F75740020403A006F6B205448
:1029A0003A006F6B20423A00504944204175746FE1
:1029B00074756E65206661696C6564212054656D6F
:1029C000706572617475726520746F6F20686967D5
:1029D0006800204B643A2000204B693A2000204BCD
:1029E000703A200020436C6173736963205049443E
:1029F00020002054753A2000204B753A2000206DAD
:102A000061783A2000206D696E3A200020643A20F7
:102A10000020626961733A20005049442041757476
:102A20006F74756E652066696E69736865642120D0
:102A300050757420746865206C617374204B702C21
:102A4000204B6920616E64204B6420636F6E737449
:102A5000616E74732066726F6D2061626F7665209F
:102A6000696E746F20436F6E666967757261746911
:102A70006F6E2E6800504944204175746F74756EF6
:102A800065206661696C6564212074696D656F7588
:102A9000740020403A006F6B20543A006F6B204264
:102AA0003A00504944204175746F74756E65206614
:102AB00061696C6564212054656D7065726174751F
:102AC000726520746F6F206869676800204B643AF4
:102AD0002000204B693A2000204B703A2000204310
:102AE0006C61737369632050494420002054753A27
:102AF0002000204B753A2000206D61783A2000209C
:102B00006D696E3A200020643A200020626961738A
:102B10003A20004572726F723A0070012C019001E8
:102B20002701B0012201C0011D01F00118011002AE
:102B3000130130020E016002090190020401C0027B
:102B4000FF000003FA004003F5008003F000D0030B
:102B5000EB002004E6007004E100E004DC00400526
:102B6000D700C005D2004006CD00D006C8008007BF
:102B7000C3003008BE00F008B900C009B400B00AB4
:102B8000AF00B00BAA00D00CA500000EA000500FA3
:102B90009B00C01096005012910000148C00C015CC
:102BA0008700B0178200B0197D00D01B7800001E8E
:102BB000730040206E0090226900F02464004027DA
:102BC0005F0090295A00E02B5500102E5000203055
:102BD0004B0010324600E033410090353C00103786
:102BE000370070383200A0392D00B03A2800A03BE1
:102BF0002300603C1E00103D1900903D1400103E63
:102C00000F00703E0A00C03E0500003F00000000BB
:102C10000A0B02090C0D0E08070304010000000056
:102C200000000000000000000000000000000000A4
:102C30000000000000000000000012111000000061
:102C40000000000000000000000000000000000084
:102C50000000000001021020200808102040102071
:102C60004080020102010804020101020408102050
:102C7000408080402010080402018004020180404E
:102C800020100804020108040201010204081020B7
:102C90004080010204081020408005050505070555
:102CA00008080808020202020A0A080804040404C8
:102CB00001010101010101010303030303030303F4
:102CC000040707070C0C0C0C0C0C0C0C0202020283
:102CD00006060606060606060B0B0B0B0B0B0B0B6C
:102CE000000020002300260029002C002F003200C5
:102CF0000001000003010601090100002200250077
:102D000028002B002E0031003400020100000501D4
:102D100008010B0100002100240027002A002D00DB
:102D20003000330001010000040107010A014E4197
:102D30004E494E495459494E46CDCCCC3D0AD72335
:102D40003C17B7D13877CC2B329595E6241FB14F7D
:102D50000A000020410000C84200401C4620BCBEC2
:102D60004CCA1B0E5AAEC59D746364696E6F707356
:102D70007578585B00008917ED455903B302A1022D
:102D8000C10211241FBECFEFD1E2DEBFCDBF00E0F4
:102D90000CBF17E0A0E0B2E0E2E7FBE903E00BBF05
:102DA00002C007900D92A035B107D9F72AE1A0E53E
:102DB000B7E001C01D92AC35B207E1F71DE2C0E8F3
:102DC000DDE200E006C022970109FE010BBF0F946F
:102DD000D1C1C637D10780E00807A9F70F94ACB876
:102DE0000D94A7CD0C94000080917F0790E0209176
:102DF0008007821B910908952091800780917F07A9
:102E0000281750F4E22FF0E0EF57F84F808190E060
:102E10002F5F2093800708958FEF9FEF0895E09133
:102E2000800780917F07E81730F4F0E0EF57F84F04
:102E3000808190E008958FEF9FEF08950895CF92DD
:102E4000DF92EF92FF920F931F93CF93DF937C015A
:102E5000CB018A0120915C07222389F0EB016B01F1
:102E6000C40ED51ECC15DD0561F06991D701ED9139
:102E7000FC910190F081E02DC7011995F3CF642FEB
:102E80004BD0C801DF91CF911F910F91FF90EF9030
:102E9000DF90CF900895CF93DF931F92CDB7DEB729
:102EA000698320915C072223D1F020915D072032B5
:102EB00040F021E030E0FC013383228380E090E0A9
:102EC00014C080915E07E82FF0E0E15AF84F998135
:102ED00090838F5F80935E0780935D0704C061E0FD
:102EE000CE01019619D081E090E00F90DF91CF9153
:102EF0000895FC011382128248EE53E060E070E016
:102F000044835583668377838CE593E09183808344
:102F1000089580E597E0EDCF613298F420910E0896
:102F2000243089F46093C307FC0185EC97E0DC0151
:102F30002A2F281B261718F421912D93F9CF80E012
:102F4000089581E0089582E0089585ED8093BC00A6
:102F50008091BC0084FDFCCF10920E08089585EC92
:102F60008093BC0010920E0808951F920F920FB626
:102F70000F9211240BB60F922F933F934F935F93B1
:102F80006F937F938F939F93AF93BF93EF93FF9331
:102F90008091B900887F803609F49DC070F5883231
:102FA00009F45CC090F4803109F455C038F48823EA
:102FB00009F4F3C0883009F44EC0F2C0883109F436
:102FC0004DC0803209F45EC0EBC0803409F469C0A2
:102FD00050F4803309F456C0883309F0E1C080937F
:102FE000A107BDDFDDC0803509F44FC0883509F485
:102FF0005DC0883409F0D4C0D2C0883909F4C3C098
:10300000A8F4883709F467C038F4883609F463C037
:10301000803709F460C0C4C0883809F4B4C080396E
:1030200009F45FC0803809F0BBC05BC0803B09F485
:1030300082C038F4803A09F466C0883A09F47BC04B
:10304000AFC0803C09F4A3C0883C09F4A0C0883B11
:1030500009F486C0A5C080910D0810C09091E607C4
:103060008091E507981770F5E091E60781E08E0FF3
:103070008093E607F0E0E951F84F80818093BB0030
:1030800085EC82C08093A1078AC0E091E60781E0C9
:103090008E0F8093E6078091BB00F0E0E951F84F76
:1030A00080839091E6078091E5076AC0E091E6078A
:1030B00081E08E0F8093E6078091BB00F0E0E9513C
:1030C000F84F808380910C08811169C081E0809362
:1030D0000B0884EA5DC083E080930E081092A2077B
:1030E000CFCF8091A207803208F04DC0E091A207B7
:1030F00081E08E0F8093A2078091BB00F0E0ED5538
:10310000F84F8083BDCF2BDF8091A207803230F44F
:10311000E091A207F0E0ED55F84F10826091A20710
:1031200070E0E0910708F091080883EA97E01995AC
:103130001092A20735C084E080930E081092C40755
:103140001092C307E0910908F0910A08199580913F
:10315000C307811105C081E08093C3071092C507A2
:10316000E091C40781E08E0F8093C407F0E0EB5339
:10317000F84F80818093BB009091C4078091C30772
:10318000981708F47DCF85E88093BC0009C085ECD2
:103190008093BC0010920E0803C01092A107D5DEE8
:1031A000FF91EF91BF91AF919F918F917F916F911F
:1031B0005F914F913F912F910F900BBE0F900FBEDB
:1031C0000F901F90189540E050E0BA010D94B8861A
:1031D000FC01148217821382128289E296E09183A5
:1031E00080830895DC01ED91FC910190F081E02D48
:1031F000199429E236E0FC013183208327812223C0
:1032000019F004960D949B870895CF92DF92EF9268
:10321000FF920F931F93CF93DF93EC01895A9F4F37
:10322000D7DFCE0188589F4FD3DF7E0127E9E20E1A
:10323000F11C87016E0133E3C31A3EEFD30AC801C4
:10324000C7DF015E1F4F0C151D05C9F7FE01E153D5
:10325000FE4F89E1818314823596178ACE018E5004
:103260009E4FB6DFFE01ED55FD4F10821182128296
:103270001382389610821182128213821A821B8264
:103280001C82188219826E0189E5C81A8DEFD80A4E
:10329000F6011082118212821382F80111821082CB
:1032A000FE01EF5EFD4F108286E391E0F7019C0185
:1032B000119221503040E1F7FE01E155FD4F81E0D0
:1032C0008083CB5ADF4F198218820F946FB36857EF
:1032D0007C4E8F4F9F4FF60160837183828393836F
:1032E000DF91CF911F910F91FF90EF90DF90CF90E2
:1032F0000895FC0120E03EE2DB014C91403241F0B8
:10330000283011F430833196DB014C9140833196A3
:103310002F5F6F5F7F4F2B3079F7108208952BE17D
:10332000FB013496DC01149601900D922A95E1F789
:10333000FB0122813381FC013383228329E236E0C1
:103340003183208308952F923F924F925F926F9224
:103350007F928F929F92AF92BF92CF92DF92EF9225
:10336000FF920F931F93CF93DF93CDB7DEB7CA576A
:10337000D1090FB6F894DEBF0FBECDBF8C016B0133
:103380005A0129012DB73EB7E3963FAF2EAFE39721
:10339000AD961FAEAD9734E0A30EB11C4296E596F4
:1033A0009FAF8EAFE597F801EC5AFF4FE796FFAF5E
:1033B000EEAFE7971801F0E52F1AFDEF3F0A9801ED
:1033C0002E543D4FAF963FAF2EAFAF97380135E04B
:1033D000630E711C7E018FE5E80EF11CE0E4F0E065
:1033E000EC0FFD1F3496E996FFAFEEAFE997E59637
:1033F0004EAD5FADE597BE016F5F7F4FC5010F9486
:10340000058618160CF028C12C85322F3871303102
:1034100009F0AEC0F101808191810197029708F413
:10342000A7C02DB73EB7E1963FAF2EAFE197BE01E3
:103430006F5F7F4FC7015DDF81E0F60190819111E1
:103440008FC0E1E0F0E0D7010D900020E9F7EE1920
:10345000FF09EA0FFB1F31962DB73EB72E1B3F0B1E
:103460000FB6F8943EBF0FBE2DBFEDB7FEB7319635
:103470004F01882319F068E673E001C0B601C4016A
:103480000F942DC7B701C4010F940EC768E673E00F
:10349000C4010F940EC7CE01805C9F4F99DE21E0DE
:1034A000A701B501E9968EAD9FADE9970F9492897A
:1034B000811137C0F10180819181892B91F5E4EF71
:1034C000F8E064919F016623B9F0772767FD709556
:1034D00086E199E1EA962FAFEA97EB963FAFEB973B
:1034E00081DEEA962FADEA97EB963FADEB972F5F23
:1034F0003F4FF9016491E7CF6AE673E086E199E115
:103500000F94F6B86AE070E086E199E16BDEB701EE
:1035100086E199E10F94F6B86AE070E086E199E1FE
:1035200061DEBE01605C7F4FCE018196F8DE20E057
:1035300030E0AE014F5D5F4FB401C80104DFCE0142
:10354000819657DECE01805C9F4F53DEE1962EAD13
:103550003FADE1970FB6F8943EBF0FBE2DBF47CFEA
:1035600080E001900020E9F73197EC19FD096BCF5D
:103570008981882309F470C0853E09F438CF8E32E2
:1035800009F435CFF80182898E3209F430CF23FD5A
:103590002ECF81E0303109F080E0E796EEADFFAD4F
:1035A000E7978083811108C08985873409F01FCF90
:1035B0008A858E3709F41BCFF1018081918181309A
:1035C0009105D9F08230910511F1892B09F00FCFC7
:1035D000BE016F5F7F4FC3018CDEB60186E199E1CA
:1035E0000F94F6B8B30186E199E10F94F6B86AE05A
:1035F00070E086E199E1F6DDFACEAF96EEADFFAD73
:10360000AF9780819181019691838083F0CEBE0136
:103610006F5F7F4FC3016DDE4114510439F0B30178
:10362000C2010F94FBC6892B79F416C0AD96FFAD8D
:10363000AD972F2F30E0AF96EEADFFADAF97808105
:1036400091812817390741F0AD96FFADAD97FF5F27
:10365000AD96FFAFAD97CBCEE3962EAD3FADE397E2
:103660000FB6F8943EBF0FBE2DBFC658DF4F0FB642
:10367000F894DEBF0FBECDBFDF91CF911F910F91A8
:10368000FF90EF90DF90CF90BF90AF909F908F9082
:103690007F906F905F904F903F902F9008950F9381
:1036A0001F93CF93DF93CDB7DEB76F970FB6F89424
:1036B000DEBF0FBECDBF8C01FC01E055FD4F118276
:1036C0001082855A9F4F7FDDB801695A7F4FCE0126
:1036D000019625DE20E030E0AE014F5F5F4F63E4EE
:1036E00077E0C80130DECE01019683DD6F960FB61C
:1036F000F894DEBF0FBECDBFDF91CF911F910F9128
:1037000008952BE1FB013496DC01149601900D9293
:103710002A95E1F7FB0122813381FC013383228367
:103720000895EF92FF920F931F93CF93DF93EC01D5
:103730001C82FC01E25AFF4F8081882329F0CE01D0
:10374000855A9F4F0F949B877E0181E3E81A8EEF85
:10375000F80A45E360E0C7010F941C8281113AC06A
:10376000E4EFF8E064918F01662359F0772767FD55
:10377000709586E199E136DD0F5F1F4FF801649186
:10378000F3CFE7EEF8E064918F01662359F07727D5
:1037900067FD709586E199E125DD0F5F1F4FF80108
:1037A0006491F3CF6AE070E086E199E11BDD8E0160
:1037B000095A1F4FB801CE0188589F4FA2DFCA583F
:1037C000DF4F19830883DF91CF911F910F91FF90F5
:1037D000EF9008958E010C521E4F41E0B701C801D1
:1037E0000F94858F81112AC040E0B701C8010F9462
:1037F000858F811123C0EAEFF8E064918F01662381
:1038000059F0772767FD709586E199E1EBDC0F5F52
:103810001F4FF8016491F3CFE4EDF8E064918F015C
:10382000662309F4BFCF772767FD709586E199E19C
:10383000D9DC0F5F1F4FF8016491F2CFB801CE01C0
:10384000855A9F4F0F94A984811123C0EAEFF8E0B5
:1038500064918F01662359F0772767FD709586E1A3
:1038600099E1C0DC0F5F1F4FF8016491F3CFE4ECE6
:10387000F8E064918F01662309F494CF772767FD00
:10388000709586E199E1AEDC0F5F1F4FF8016491FE
:10389000F2CF81E08C83E4EFF8E064918F0166233E
:1038A00059F0772767FD709586E199E19BDC0F5F02
:1038B0001F4FF8016491F3CFE9EBF8E064918F01B9
:1038C000662309F46FCF772767FD709586E199E14C
:1038D00089DC0F5F1F4FF8016491F2CFFC01128267
:1038E000148208950F931F93CF93DF93EC018C8183
:1038F000882311F1E0EBF8E064918F01662359F021
:10390000772767FD709586E199E16CDC0F5F1F4FAB
:10391000F8016491F3CF4091570B5091580B60918F
:10392000590B70915A0B22E030E086E199E10F9437
:10393000D0BA81E08A831B82DF91CF911F910F91D2
:103940000895FC018281882319F0128281E083832B
:103950000895AF92BF92CF92DF92EF92FF920F93B2
:103960001F93CF93DF931F92CDB7DEB78C018FE209
:10397000FB0181935F01D12C41E07801F3E3EF1A61
:10398000FEEFFF0A8FE1C82E2D2D30E0F701808178
:10399000918128173907D8F4C29EC001C39E900DAB
:1039A000112485569F4FB501800F911F49830F94B5
:1039B0005084C50149815C010196F50120812223D3
:1039C00021F04D3810F44F5FF6CFD394DDCF47FD93
:1039D00011C0B501C8018A509E4F0F90DF91CF9161
:1039E0001F910F91FF90EF90DF90CF90BF90AF901D
:1039F0000D945084F50110820F90DF91CF911F91AB
:103A00000F91FF90EF90DF90CF90BF90AF9008950F
:103A10004F925F926F927F928F929F92AF92BF92DE
:103A2000CF92DF92EF92FF920F931F93CF93DF938A
:103A3000CDB7DEB7AC970FB6F894DEBF0FBECDBFE3
:103A40007C015B01FC018481882309F4F9C0C70172
:103A50008A509E4F0F949B87F7011282CE010196E8
:103A60006C01B6DB270196E7490E511CC701895A44
:103A70009F4FF20191838083F50180818F3209F09D
:103A800077C06FE270E0C5010F9419C78C010F5F1A
:103A90001F4F09F473C06FE270E0C8010F9419C79B
:103AA0004C01009709F46BC00817190708F067C0AC
:103AB0003C01601A710AA301B801CE0180960F94EF
:103AC00042C7E0E2F0E0EC0FFD1FE60DF71D1082AB
:103AD000BE01605E7F4F86E199E10F94F6B86AE01F
:103AE00070E086E199E17EDBF20160817181611510
:103AF000710519F06C5F7F4F02C060E070E021E05B
:103B0000AE01405E5F4FCE0105960F949289811100
:103B10002AC0E5E9F7E064918F01662359F0772721
:103B200067FD709586E199E15DDB0F5F1F4FF8013E
:103B30006491F3CFBE01605E7F4F86E199E10F94FF
:103B4000F6B8E3E9F7E064918F01662309F471C0E8
:103B5000772767FD709586E199E144DB0F5F1F4F82
:103B6000F8016491F2CFF201D182C08284018FCF3B
:103B7000C70188589F4FF201918380838501F2012C
:103B800080819181009711F0049602C080E090E05E
:103B9000B8010F94688A882321F1E5E8F7E0649181
:103BA0005F01662361F0772767FD709586E199E1F3
:103BB00019DBFFEFAF1ABF0AF5016491F2CFB8012C
:103BC00086E199E10F94F6B86AE070E086E199E148
:103BD00009DBF701E555FD4F108211821282138235
:103BE0002DC0EDE6F7E064917F01662361F0772751
:103BF00067FD709586E199E1F5DAFFEFEF1AFF0AAC
:103C0000F7016491F2CFB80186E199E10F94F6B81B
:103C1000EBE6F7E064918F01662359F0772767FDA3
:103C2000709586E199E1DEDA0F5F1F4FF80164912C
:103C3000F3CF6AE070E086E199E1D4DAC601D9DA1F
:103C4000AC960FB6F894DEBF0FBECDBFDF91CF911B
:103C50001F910F91FF90EF90DF90CF90BF90AF90AA
:103C60009F908F907F906F905F904F9008950F93EB
:103C70001F93CF93DF93EC018C81882309F43CC020
:103C8000E9E5F7E064918F01662359F0772767FD36
:103C9000709586E199E1A6DA0F5F1F4FF8016491F4
:103CA000F3CFFE01E555FD4F408151816281738163
:103CB0002AE030E086E199E10F94D2B9E7E5F7E038
:103CC00064918F01662359F0772767FD709586E12F
:103CD00099E188DA0F5F1F4FF8016491F3CFCD555A
:103CE000DD4F488159816A817B812AE030E086E19D
:103CF00099E10F94D2B910C0E7E4F7E06491EF01C5
:103D0000662351F0772767FD709586E199E16ADABD
:103D10002196FE016491F4CF6AE070E086E199E1BA
:103D2000DF91CF911F910F915DCAAF92BF92CF9259
:103D3000DF92EF92FF920F931F93CF93DF935C017B
:103D4000EB01FB0101900020E9F78F0101501109FF
:103D5000061B170B6C01FAE0CF1AFEEFDF0AF60123
:103D600010826EE470E0CE010F9419C77C010097B9
:103D700029F4F8013197EC0FFD1F0DC060E270E0EF
:103D80000F9419C7EC0121966AE270E0C7010F9405
:103D900019C7FC0131978DE081838AE08283138209
:103DA000BE01C5018E509E4F0F942E8CF60180816E
:103DB000882379F1EAEFF8E06491EF01662351F08E
:103DC000772767FD709586E199E10CDA2196FE016F
:103DD0006491F4CFE1E3F7E06491EF01662351F0E1
:103DE000772767FD709586E199E1FCD92196FE0160
:103DF0006491F4CF6AE070E086E199E1DF91CF91C0
:103E00001F910F91FF90EF90DF90CF90BF90AF90F8
:103E1000E9C9DF91CF911F910F91FF90EF90DF9053
:103E2000CF90BF90AF9008952F923F924F925F92A4
:103E30006F927F928F929F92AF92BF92CF92DF92BA
:103E4000EF92FF920F931F93CF93DF93CDB7DEB71F
:103E5000CC55D1090FB6F894DEBF0FBECDBF4C01D3
:103E60008C0101551D4F662339F0F8011082F401D1
:103E7000848181111DC015C0F8018081882309F457
:103E8000ABC0F401E955FD4FC080D180E280F380E2
:103E90000F946FB3C616D706E806F90608F49CC05F
:103EA000E4CFC4013EDCF4018481882309F494C08A
:103EB0007401F5E5EF0EF11CF70181818F9380818C
:103EC0008F9388E297E09F938F938E01015C1F4F41
:103ED0001F930F930F9490C70F900F900F900F9018
:103EE0000F900F90B12CF80101900020E9F7319765
:103EF000E01BF10BBE1684F46801CB0CD11CB7FC9F
:103F0000DA94F6018081992787FD90950F94A4C6D5
:103F1000F6018083B394E7CFFBE58F0E911CC401BB
:103F200052D9512CCE0101966C0191E2692E97E095
:103F3000792E5E0191E2A90EB11C40E050E0B6017D
:103F4000C4010F9405861816DCF5412CF60101908A
:103F50000020E9F73197EC19FD094E1674F41601AB
:103F6000240C311C47FC3A94F101808190E00F94BD
:103F7000A4C6F10180834394E9CF8A858E37E9F2A4
:103F800045E050E0B801C6010F9434C7892BA9F66B
:103F90001F930F937F926F92BF92AF920F9490C72F
:103FA000C5010E9407518DE197E00E9483510F9057
:103FB0000F900F900F900F900F9055245394BDCFFA
:103FC000511004C08FEF9FEFF70104C0F70180810B
:103FD0009181019691838083C45ADF4F0FB6F89484
:103FE000DEBF0FBECDBFDF91CF911F910F91FF902C
:103FF000EF90DF90CF90BF90AF909F908F907F9089
:104000006F905F904F903F902F900895EF92FF92A6
:104010000F931F93CF93DF931F92CDB7DEB78C0121
:104020007C018AE0E81A8EEFF80AC70169830F94D1
:104030005187C7010F949B87F80110821182698113
:10404000662309F407C18091860B9091870BA0919C
:10405000880BB091890B80931D0C90931E0CA0933C
:104060001F0CB093200C80918A0B90918B0BA09128
:104070008C0BB0918D0B8093190C90931A0CA0931C
:104080001B0CB0931C0C80918E0B90918F0BA09108
:10409000900BB091910B8093150C9093160CA093FC
:1040A000170CB093180C8091E30A90E09093140CD5
:1040B0008093130C4091920B5091930B6091940B51
:1040C0007091950B40930F0C5093100C6093110C52
:1040D0007093120CF70180859185A285B38580933A
:1040E0000B0C90930C0CA0930D0CB0930E0C8091C4
:1040F000EE189091EF189093080C8093070C809124
:10410000F0189091F11890930A0C8093090C80910B
:10411000EC189091ED189093060C8093050C80910B
:104120005C0290915D029093020C8093010C80914F
:10413000E10A9091E20A9093040C8093030C809121
:10414000DF0A9091E00A9093EC0B8093EB0B809147
:10415000D40B8093EA0B8091D50B9091D60B909362
:10416000EE0B8093ED0B8091D70B9091D80B909331
:10417000F00B8093EF0B8091D90B9091DA0B909319
:10418000F20B8093F10B8091DB0B9091DC0B909301
:10419000F40B8093F30B8091DD0B9091DE0B9093E9
:1041A000F60B8093F50B8091DF0B9091E00B9093D1
:1041B000F80B8093F70B8091E10B9091E20B9093B9
:1041C000FA0B8093F90B8091E30B9091E40B9093A1
:1041D000FC0B8093FB0B8091E50B9091E60B909389
:1041E000FE0B8093FD0B8091E70B9091E80B909371
:1041F000000C8093FF0B0E9464679093750280937C
:1042000074020E94F26A609370027093710280934C
:10421000720290937302E1E1F7E064918F016623EB
:1042200061F0772767FD709586E199E10E94F218A9
:104230000F5F1F4FF8016491F2CF6AE070E086E1F2
:1042400099E10F90DF91CF911F910F91FF90EF9027
:104250000C94F2180F90DF91CF911F910F91FF9066
:10426000EF900895CF92DF92EF92FF920F931F93FA
:10427000CF93DF93CDB7DEB76F970FB6F894DEBF5D
:104280000FBECDBF8C016A017C0186E7E80EF11CF0
:10429000C80188589F4FF70191838083E65CFD4FEA
:1042A00022E030E03183208332967183608304966C
:1042B0000E94E318F70160817181CE0101962FD829
:1042C0009601AE014F5F5F4F63E477E0C8013BD8D2
:1042D000CE0101960E94F9186F960FB6F894DEBFD2
:1042E0000FBECDBFDF91CF911F910F91FF90EF9047
:1042F000DF90CF900895CF92DF92EF92FF920F93CD
:104300001F93CF93DF93CDB7DEB76F970FB6F894B7
:10431000DEBF0FBECDBF8C016C0126E7C20ED11CE3
:1043200088589F4FF60191838083E65CFD4F21E022
:1043300030E0318320837801FEE4EF1AFDEFFF0ABD
:10434000F7011182108204960E94E318F601608141
:104350007181CE0101960E948F1920E030E0AE01FC
:104360004F5F5F4F63E477E0C8010E94A319CE015D
:1043700001960E94F918F701808191816F960FB61E
:10438000F894DEBF0FBECDBFDF91CF911F910F918B
:10439000FF90EF90DF90CF9008952F923F924F9231
:1043A0005F926F927F928F929F92AF92BF92CF92C5
:1043B000DF92EF92FF920F931F93CF93DF93CDB7CE
:1043C000DEB7C257D1090FB6F894DEBF0FBECDBF1E
:1043D0008C012B01E1964FAFE197FC01848188238A
:1043E00009F430C4E750FE4F8081882309F412C1DC
:1043F0002111D9C07801FFEEEF1AFDEFFF0AF70196
:104400008081882309F435C0EAEFF8E064918F01D8
:10441000662361F0772767FD709586E199E10E9438
:10442000F2180F5F1F4FF8016491F2CFEDE6F8E04C
:1044300064918F01662361F0772767FD709586E1AF
:1044400099E10E94F2180F5F1F4FF8016491F2CFBB
:104450004AE050E061E070E086E199E10F94A5B98F
:104460006AE070E086E199E10E94F2180E94F0AEE5
:10447000E9C3E4EFF8E064916F01662369F0772700
:1044800067FD709586E199E10E94F218FFEFCF1A5F
:10449000DF0AF6016491F1CFE4E5F8E064916F0181
:1044A000662369F0772767FD709586E199E10E94A0
:1044B000F218FFEFCF1ADF0AF6016491F1CFB201D3
:1044C00086E199E10F94F6B8E9E4F8E064916F01B0
:1044D000662369F0772767FD709586E199E10E9470
:1044E000F218FFEFCF1ADF0AF6016491F1CFF7015E
:1044F00080812DE8D22EB801D89E600D711D112447
:104500006A5E7D4FC80125DAF7018081B801D89E27
:10451000600D711D11246A5E7D4F86E199E10F9453
:10452000F6B8E3E4F8E064916F01662369F0772759
:1045300067FD709586E199E10E94F218FFEFCF1AAE
:10454000DF0AF6016491F1CF6801F5E5CF1AFDEFBE
:10455000DF0AF60140815181628173812AE030E0F7
:1045600086E199E10F94D2B96AE070E086E199E1C1
:104570000E94F218F7012081F80184E0289FE00DE5
:10458000F11D1124AF014E5E5D4FF60180819181D6
:10459000A281B381FA0180839183A283B3832F5FC9
:1045A000F701208331C0E4EFF8E064917F016623D6
:1045B00069F0772767FD709586E199E10E94F2180E
:1045C000FFEFEF1AFF0AF7016491F1CFE2E3F8E0A1
:1045D00064917F01662369F0772767FD709586E116
:1045E00099E10E94F218FFEFEF1AFF0AF7016491B8
:1045F000F1CFB20186E199E10F94F6B86AE070E07C
:1046000086E199E10E94F218C8018A509E4F0F94EA
:104610009B8735C0F801EF5EFD4F1082E4EFF8E0B4
:1046200064917F01662369F0772767FD709586E1C5
:1046300099E10E94F218FFEFEF1AFF0AF701649167
:10464000F1CFE1E2F8E064917F01662369F077271A
:1046500067FD709586E199E10E94F218FFEFEF1A6D
:10466000FF0AF7016491F1CFB20186E199E10F945D
:10467000F6B86AE070E086E199E10E94F218F8016C
:1046800012821E01F0E22F0E311CC1010E94E818B7
:10469000C8018A589F4FAC969FAF8EAFAC974F978B
:1046A000AC96EEADFFADAC9791838083F201808133
:1046B0008F3209F051C16FE270E0C2010F9419C747
:1046C00001967C01C80180559D4FE0969FAF8EAF4B
:1046D000E097F801EE54FD4FAE96FFAFEEAFAE9708
:1046E0004E01FFE38F0E911C380185E0680E711CAE
:1046F000E114F10409F49AC16FE270E0C7010F946C
:1047000019C76C01009709F492C1E816F90608F080
:104710008EC15C01AE18BF08A501B701CE01835A56
:104720009F4F0F9442C7EDE5F0E0EC0FFD1FEA0D3F
:10473000FB1D1082BE01635A7F4F86E199E10F9401
:10474000F6B86AE070E086E199E10E94F218AC9652
:10475000EEADFFADAC97608171816115710519F007
:104760006C5F7F4F02C060E070E021E0AE01435A11
:104770005F4FCE0184960F94928981112CC0EDE099
:10478000F8E064918F01662361F0772767FD7095EB
:1047900086E199E10E94F2180F5F1F4FF8016491C2
:1047A000F2CFBE01635A7F4F86E199E10F94F6B8CC
:1047B000EBE0F8E064918F01662309F43AC27727B1
:1047C00067FD709586E199E10E94F2180F5F1F4F17
:1047D000F8016491F1CFAC96EEADFFADAC973182AC
:1047E00020827601FFEFEF1AFF0A8091590C8111A8
:1047F0007FCF81E090E0E096EEADFFADE097918352
:104800008083AE96EEADFFADAE9711821082CE01E1
:1048100084960E94E318B101CE0101960E948F197F
:1048200020E030E0AE014F5F5F4F63E477E0C80106
:104830000E94A319CE0101960E94F918AE96EEAD22
:10484000FFADAE97A080B1808EE1F40111928A9500
:10485000E9F77F926F929F928F920F9462C70F90A9
:104860000F900F900F906401F6018081882349F02A
:10487000992787FD90950F94A4C6F60181936F0147
:10488000F3CFC12CD12CB701C4010F9424C7892BBD
:1048900009F45BC0CA14DB040CF057C082E090E05E
:1048A000E096EEADFFADE09791838083AE96EEADDE
:1048B000FFADAE97D182C082AC96EEADFFADAC97A6
:1048C0008081918104960E94E318B101CE01019686
:1048D0000E948F1920E030E0AE014F5F5F4F63E42C
:1048E00077E0C8010E94A319CE0101960E94F91831
:1048F000F4018EE111928A95E9F77F926F929F926F
:104900008F920F9462C70F900F900F900F909401A9
:10491000F90180818823A9F0992787FD9095E29677
:104920002FAFE297E3963FAFE3970F94A4C6E296CA
:104930002FADE297E3963FADE397F90181939F0195
:10494000E7CFFFEFCF1ADF0A9ECFAE96EEADFFADF9
:10495000AE9711821082CCCEC80188589F4FAC967A
:10496000EEADFFADAC97918380838091590C81119E
:104970005DC0C801C0DC4C01CE0101967C018EE116
:10498000F70111928A95E9F75801F5E0AF0EB11CD5
:10499000BF92AF92FF92EF920F9462C70F900F9069
:1049A0000F900F906701F6018081882349F09927C5
:1049B00087FD90950F94A4C6F60181936F01F3CF04
:1049C000C12CD12CB201C7010F9424C7892B49F106
:1049D000C814D90434F540E050E0B601C80142DC07
:1049E000F7018EE111928A95E9F7BF92AF92FF929B
:1049F000EF920F9462C70F900F900F900F903701B6
:104A0000F3018081882349F0992787FD90950F94C1
:104A1000A4C6F30181933F01F3CFFFEFCF1ADF0A62
:104A2000D1CFF801EE54FD4F118210827201C801FE
:104A30008A509E4F6C01E1969FADE197AC96EEAD2A
:104A4000FFADAC9760817181992309F4A0C0611515
:104A5000710519F06C5F7F4F02C060E070E021E0EB
:104A6000A701C6010F949289882309F466C0F60154
:104A700081899289A389B489F801ED55FD4F80831E
:104A80009183A283B383EDEFF7E064915F01C801E6
:104A90008D559D4F6C01662369F0772767FD7095F2
:104AA00086E199E10E94F2189FEFA91AB90AF5016F
:104AB0006491F1CFB70186E199E10F94F6B8E5EF83
:104AC000F7E064917F01662369F0772767FD7095B1
:104AD00086E199E10E94F218FFEFEF1AFF0AF70151
:104AE0006491F1CFF60140815181628173812AE0A6
:104AF00030E086E199E10F94D2B96AE070E086E196
:104B000099E10E94F218F801E555FD4F10821182DB
:104B100012821382E7EEF7E064918F01662309F4B5
:104B200088C0772767FD709586E199E10E94F218A9
:104B30000F5F1F4FF8016491F1CFE3EDF7E064914F
:104B40008F01662361F0772767FD709586E199E113
:104B50000E94F2180F5F1F4FF8016491F2CFB70166
:104B600086E199E10F94F6B8E1EDF7E064918F01E9
:104B7000662309F45EC0772767FD709586E199E1A9
:104B80000E94F2180F5F1F4FF8016491F1CF611579
:104B9000710519F06C5F7F4F02C060E070E026E5A0
:104BA000A701C6010F949289811129C0EDEBF7E0AE
:104BB00064918F01662361F0772767FD709586E128
:104BC00099E10E94F2180F5F1F4FF8016491F2CF34
:104BD000B70186E199E10F94F6B8EBEBF7E0649149
:104BE0008F01662331F1772767FD709586E199E1A2
:104BF0000E94F2180F5F1F4FF8016491F2CF81E01D
:104C0000F8018083E9EAF7E064918F01662361F09F
:104C1000772767FD709586E199E10E94F2180F5F92
:104C20001F4FF8016491F2CFB20186E199E10F9430
:104C3000F6B86AE070E086E199E10E94F218C101DD
:104C40000E94F918CE58DF4F0FB6F894DEBF0FBEA2
:104C5000CDBFDF91CF911F910F91FF90EF90DF902B
:104C6000CF90BF90AF909F908F907F906F905F900C
:104C70004F903F902F90089521E0FC01218340E068
:104C80008CCBAF92BF92CF92DF92EF92FF920F93B5
:104C90001F93CF93DF93CDB7DEB76F970FB6F8941E
:104CA000DEBF0FBECDBF8C017B01CE0101960E94FD
:104CB000E818F801E158FF4F80816801811104C0B4
:104CC00027E5C20ED11C03C088E7C80ED11C21E025
:104CD000A701B6016C5F7F4FCE0105960F949289B4
:104CE000811136C0E4EFF8E064918F01662361F032
:104CF000772767FD709586E199E10E94F2180F5FB2
:104D00001F4FF8016491F2CFEBEFF6E064918F0151
:104D1000662361F0772767FD709586E199E10E942F
:104D2000F2180F5F1F4FF8016491F2CFB70186E1CF
:104D300099E10F94F6B86AE070E086E199E10E948B
:104D4000F218CE0101960E94F9188FEF9FEF3AC03A
:104D5000F801E353FE4F808191818A30910530F54F
:104D60009C012F5F3F4F318320832FE1289F7001EB
:104D7000299FF00C1124F7E9EF0EF11CE00EF11E53
:104D80005C01B701C7014F960E94811B21E0A21A66
:104D9000B1088FE1E81AF108EFEFAE16BE0689F709
:104DA000B601C80189569F4F0E94811BBE016F5FEB
:104DB0007F4FC80188589F4F0E94811BCE010196EA
:104DC0000E94F9186F960FB6F894DEBF0FBECDBFE4
:104DD000DF91CF911F910F91FF90EF90DF90CF90D7
:104DE000BF90AF900895EF92FF920F931F93CF93D0
:104DF000DF93EC01C353DE4F288139812115310542
:104E000029F121503109398328838C0109561F4F1C
:104E1000B80188589F4F0E94811BC80100E010E034
:104E2000288139817C014FE1E40EF11C0217130740
:104E300038F40F5F1F4FB7010E94811BC701F0CFED
:104E400081E090E0232B21F080E002C08FEF9FEF04
:104E5000DF91CF911F910F91FF90EF9008958F9266
:104E60009F92AF92BF92CF92DF92EF92FF920F93F9
:104E70001F93CF93DF93EC011092A20B8091120B42
:104E80009091130B01969093130B8093120BE9D220
:104E900040918615509187156091881570918915FC
:104EA00040938A1550938B1560938C1570938D15D4
:104EB00086EF96E00E9483510F9431997E018FEE28
:104EC000E81A8DEFF80AF70180818E010A501E4F13
:104ED0008823D1F1C8010F949B87F701808181500D
:104EE0008083BE01FDE88F9F600D711D11246A5EF5
:104EF0007D4F21E041E0CE0150DAF7018081FE01D3
:104F000094E0899FE00DF11D1124EE5EFD4F40817C
:104F1000518162817381FE01E555FD4F40835183CC
:104F200062837383C8010F94B886CE01DF91CF915D
:104F30001F910F91FF90EF90DF90CF90BF90AF90B7
:104F40009F908F900C94721C0F94C299C8010F947B
:104F50009B871A8220E030E045E050E06AE070E094
:104F600088E79FE00E94394183EF96E00E948351D9
:104F70000F9431998EEE96E00E94835183E090E089
:104F80000E945F671092EF181092EE181092F118BD
:104F90001092F0181092ED181092EC181092E00A8E
:104FA0001092DF0A1092E90B1092590C1092580CD3
:104FB0001092570C6091180B7091190B80911A0B7D
:104FC00090911B0B2CE330E040E050E00F94BCC00C
:104FD0003093150B2093140B7093170B6093160BE3
:104FE000C090A215D090A315E090A415F090A5153F
:104FF0002091040B3091050B4091060B5091070B4B
:105000006091080B7091090B80910A0B90910B0B2A
:105010000F9413BD4B015C012091E6153091E7150B
:105020004091E8155091E9156091EA157091EB15E2
:105030008091EC159091ED150F9454BDA701960148
:105040000F9440BC9B01AC01C501B4010F9460BB3F
:105050000F94A8BC2093040B3093050B4093060BD0
:105060005093070B6093080B7093090B80930A0B06
:1050700090930B0B2091FC0A3091FD0A4091FE0A9F
:105080005091FF0A6091000B7091010B8091020B0F
:105090009091030B0F9413BD4B015C012091DE1521
:1050A0003091DF154091E0155091E1156091E215C6
:1050B0007091E3158091E4159091E5150F9454BD1E
:1050C000A70196010F9440BC9B01AC01C501B4013E
:1050D0000F9460BB0F94A8BC2093FC0A3093FD0A88
:1050E0004093FE0A5093FF0A6093000B7093010BEC
:1050F0008093020B9093030B2091F40A3091F50AF0
:105100004091F60A5091F70A6091F80A7091F90AF5
:105110008091FA0A9091FB0A0F9413BD6B017C01F8
:105120002091D6153091D7154091D8155091D915A9
:105130006091DA157091DB158091DC159091DD1589
:105140000F9454BD2091A6153091A7154091A81534
:105150005091A9150F9440BC9B01AC01C701B60149
:105160000F9460BB0F94A8BC2093F40A3093F50A07
:105170004093F60A5093F70A6093F80A7093F90A7D
:105180008093FA0A9093FB0AC090AE15D090AF15A9
:10519000E090B015F090B1152091EC0A3091ED0A35
:1051A0004091EE0A5091EF0A6091F00A7091F10A75
:1051B0008091F20A9091F30A0F9413BD4B015C01A8
:1051C0002091CE153091CF154091D0155091D11529
:1051D0006091D2157091D3158091D4159091D51509
:1051E0000F9454BDA70196010F9440BC9B01AC01E4
:1051F000C501B4010F9460BB0F94A8BC2093EC0AC6
:105200003093ED0A4093EE0A5093EF0A6093F00A50
:105210007093F10A8093F20A9093F30A2091E40AC2
:105220003091E50A4091E60A5091E70A6091E80A58
:105230007091E90A8091EA0A9091EB0A0F9413BDEC
:105240004B015C012091C6153091C7154091C815DE
:105250005091C9156091CA157091CB158091CC15EC
:105260009091CD150F9454BDA70196010F9440BCA9
:105270009B01AC01C501B4010F9460BB0F94A8BCA5
:105280002093E40A3093E50A4093E60A5093E70A34
:105290006093E80A7093E90A8093EA0A9093EB0A14
:1052A0001092E6151092E7151092E8151092E91584
:1052B0001092EA151092EB151092EC151092ED1564
:1052C0001092DE151092DF151092E0151092E11584
:1052D0001092E2151092E3151092E4151092E51564
:1052E0001092D6151092D7151092D8151092D91584
:1052F0001092DA151092DB151092DC151092DD1564
:105300001092CE151092CF151092D0151092D11583
:105310001092D2151092D3151092D4151092D51563
:105320001092C6151092C7151092C8151092C91583
:105330001092CA151092CB151092CC151092CD1563
:1053400090D082EE96E00E94835180913D15882393
:10535000F9F010923D15C091E30AD0E0CC0FDD1FAB
:10536000C251D74E68817981882777FD8095982F23
:105370000F9419BD2091BC023091BD024091BE0234
:105380005091BF020F94C8BE181614F419821882E7
:10539000DF91CF911F910F91FF90EF90DF90CF9011
:1053A000BF90AF909F908F9008958D559D4FFC01B9
:1053B0006081718182819381089585559D4FFC01A3
:1053C00060817181828193810895EF92FF920F93A2
:1053D0001F93CF93DF931F92CDB7DEB78C017B0174
:1053E000460FF70161917F01F80180819181498326
:1053F0000F948ECCF80180819181019691838083F6
:1054000049814E11EECF0F90DF91CF911F910F91F7
:10541000FF90EF900895EF92FF920F931F93CF9319
:10542000DF931F92CDB7DEB78C017B01460FF801E9
:105430008081918149830F9486CCF70181937F010C
:10544000F8018081918101969183808349814E1179
:10545000EECF0F90DF91CF911F910F91FF90EF90C2
:1054600008950F931F93CF93DF93CDB7DEB768975F
:105470000FB6F894DEBF0FBECDBF80E390E3A0E38C
:10548000B0E08D839E83AF83B88704E610E0188F69
:105490000F8B44E0BE016B5F7F4FCE01479695DFD7
:1054A00040E162EA75E1CE0147968FDF40E162EBB1
:1054B00075E1CE01479689DF40E162E975E1CE01F1
:1054C000479683DF44E06AE875E1CE0147967DDFC9
:1054D00044E062E875E1CE01479677DF44E06EE88C
:1054E00075E1CE01479671DF44E062E775E1CE01D8
:1054F00047966BDF44E062EC75E1CE01479665DFCD
:1055000044E06EE775E1CE0147965FDF44E06AE76D
:1055100075E1CE01479659DF44E066E775E1CE01BB
:10552000479653DF4CE06AE67BE0CE0147964DDFBD
:1055300087ED90E09E8B8D8B8DE290E09C8B8B8B2A
:105540001A8A198A80EF90E0988B8F8786E490E022
:105550009E878D871C861B8642E0BE016B5E7F4F57
:10556000CE01479632DF42E0BE016D5E7F4FCE0135
:1055700047962BDF42E0BE016F5E7F4FCE0147961C
:1055800024DF42E0BE01615F7F4FCE0147961DDF01
:1055900042E0BE01635F7F4FCE01479616DF42E0D7
:1055A000BE01655F7F4FCE0147960FDF44E067E5A0
:1055B0007BE0CE01479609DF44E06BE272E0CE016A
:1055C000479603DF44E063E372E0CE014796FDDED9
:1055D00044E06BE372E0CE014796F7DE42E06DEC0B
:1055E0007BE0CE014796F1DE42E061ED7BE0CE014B
:1055F0004796EBDE42E06FEC7BE0CE014796E5DEBE
:1056000042E06BEC7BE0CE014796DFDE42E06DEBE3
:105610007BE0CE014796D9DE42E061EC7BE0CE0133
:105620004796D3DE42E06FEB7BE0CE014796CDDEBE
:1056300042E06BEB7BE0CE014796C7DE42E065ECD3
:105640007BE0CE014796C1DE42E069EC7BE0CE0113
:105650004796BBDE42E067EC7BE0CE014796B5DEC5
:1056600042E063EC7BE0CE014796AFDE42E065EBC3
:105670007BE0CE014796A9DE42E069EB7BE0CE01FC
:105680004796A3DE42E067EB7BE0CE0147969DDEC6
:1056900042E063EB7BE0CE01479697DE44E06BE1AE
:1056A00073E0CE01479691DE44E063E173E0CE0102
:1056B00047968BDE44E06BE073E0CE01479685DED3
:1056C00044E06FE173E0CE0147967FDE44E067E19E
:1056D00073E0CE01479679DE44E06FE073E0CE01DF
:1056E000479673DE42E06EE17BE0CE0147966DDEC9
:1056F00042E062E17BE0CE01479667DE42E060E196
:105700007BE0CE01479661DE42E06EE07BE0CE01B9
:1057100047965BDE42E06CE17BE0CE01479655DECA
:1057200042E06CE07BE0CE0147964FDE80E290E005
:105730009A87898742E0BE01675F7F4FCE01479617
:1057400044DE42E061E67CE0CE0147963EDE44E086
:105750006DE57CE0CE01479638DE42E06BE57CE00B
:10576000CE01479632DE42E066E17BE0CE0147960D
:105770002CDE42E064E17BE0CE01479626DE48E085
:1057800064E07BE0CE01479620DE48E06CEF7AE0F3
:10579000CE0147961ADE48E064EF7AE0CE014796E4
:1057A00014DE48E06CEE7AE0CE0147960EDE48E06B
:1057B00064EE7AE0CE01479608DE42E06EE672E0E3
:1057C000CE01479602DE42E066E772E0CE014796E0
:1057D000FCDD44E06DE17CE0CE014796F6DD44E07F
:1057E00069E17CE0CE014796F0DD44E065E17CE0D4
:1057F000CE014796EADD42E063E17CE0CE014796C8
:10580000E4DD44E06FE07CE0CE014796DEDD44E07D
:105810006BE07CE0CE014796D8DD42E069E07CE0B9
:10582000CE014796D2DD42E067E07CE0CE014796AC
:10583000CCDD42E065E07CE0CE014796C6DD42E08B
:1058400063E07CE0CE014796C0DD42E061E07CE0B1
:10585000CE014796BADD41E06AEE7BE0CE01479685
:10586000B4DD42E06DEE7BE0CE014796AEDD42E076
:105870006FEE7BE0CE014796A8DD42E061EF7BE072
:10588000CE014796A2DD42E063EF7BE0CE01479672
:105890009CDD42E065EF7BE0CE01479696DD42E07D
:1058A00067EF7BE0CE01479690DD42E069EF7BE059
:1058B000CE0147968ADD42E06BEF7BE0CE01479652
:1058C00084DD42E06DEF7BE0CE0147967EDD42E075
:1058D0006FEF7BE0CE01479678DD44E066E875E146
:1058E000CE01479672DD42E064E37CE0CE0147964C
:1058F0006CDD44E063E57BE0CE01479666DD44E085
:105900006FE47BE0CE01479660DD44E060E27BE03F
:10591000CE0147965ADD44E064E27BE0CE01479633
:1059200054DD44E068E27BE0CE0147964EDD44E082
:105930006CE27BE0CE01479648DD42E064E772E02E
:10594000CE01479642DD44E060E772E0CE01479623
:105950003CDD42E06FED7AE0CE01479636DD86E52C
:1059600091E3A2E3B0E089839A83AB83BC83188F71
:105970000F8B44E0BE016F5F7F4FCE01479625DD60
:10598000E4E7FFE064918F01662361F0772767FD0C
:10599000709586E199E10E94F2180F5F1F4FF801A0
:1059A0006491F2CFE4E6FFE064918F01662361F039
:1059B000772767FD709586E199E10E94F2180F5FE5
:1059C0001F4FF8016491F2CF6AE070E086E199E13F
:1059D0000E94F21868960FB6F894DEBF0FBECDBFD6
:1059E000DF91CF911F910F9108950F931F93CF9344
:1059F000DF93C4E7DFE0FE0164918E01662361F06E
:105A0000772767FD709586E199E10E94F2180F5F94
:105A10001F4FF8016491F2CFE4E5FFE064918F013C
:105A2000662361F0772767FD709586E199E10E9412
:105A3000F2180F5F1F4FF8016491F2CF6AE070E037
:105A400086E199E10E94F218FE01649104E71FE0EB
:105A5000662361F0772767FD709586E199E10E94E2
:105A6000F2180F5F1F4FF8016491F2CF4091A21519
:105A70005091A3156091A4157091A5158CE49FE039
:105A80000E949B504091A6155091A7156091A815B2
:105A90007091A91589E49FE00E949B504091AA153E
:105AA0005091AB156091AC157091AD1586E49FE0F7
:105AB0000E949B504091AE155091AF156091B0156A
:105AC0007091B11583E49FE00E949B5063E477E0FE
:105AD00086E199E10F94F6B86AE070E086E199E119
