:100000000C940C170C943D170C943D170C943D1751
:100010000C943D170C943D170C943D170C943D1710
:100020000C943D170C943D170C943D170C943D1700
:100030000C943D170C943D170C943D170C943D17F0
:100040000C943D170D944F880C943D170C943D175C
:100050000C943D170C943D170D940DA70D94B7AB60
:100060000C943D170D94E7AF0D941DB00C943D1703
:100070000C943D170C943D170C943D170C943D17B0
:100080000C943D170C943D170C943D170C943D17A0
:100090000C943D170C943D170C943D170C943D1790
:1000A0000C943D170C943D170C943D170C943D1780
:1000B0000C943D170C943D170C943D170C943D1770
:1000C0000C943D170C943D170C943D170D9492B071
:1000D0000D94C8B00C943D170C943D170C943D172B
:1000E0000C943D1789B079B17CB252B29EB12AB25C
:1000F00002B2B1B0D9B001B101B329B351B379B3F0
:1001000051B129B1DAB11B02BD01F7020502BD01EF
:10011000F501BD010302BD01BD014B032B02BD0171
:10012000BD01FD015B03BD010903BD01BD01BD01B1
:100130001D02610353036B02A702BD01B301D90184
:10014000F7018102A3024F021503C5013B03BD0164
:100150001702D701BD0141037702CF028502BD011D
:10016000EF01C1019B029D02BD01BF01ED015D03D5
:10017000CF016302A9020B02BD01DF021502590281
:10018000BD01E502570251024903BD0103035F03AC
:100190001903F102F301FB02AD0235028702870267
:1001A00091026F037F024D02B7024702C302E102D0
:1001B00049020503BD01BD01BD012503B901D501FA
:1001C000210299022F023D0251036703F1011F032F
:1001D0002B03D702790271030D026F0239023F032C
:1001E00065030F03B5010102E101D1027503290284
:1001F0004703BD015903CB02C9021B032503BB0200
:100200009F02270255021902BF023B020B0377032C
:10021000A1027302D301BD01BD013702BD01B502C8
:1002200097026502D5020D033302DF011F02E301CD
:100230005F02B90271025D0243023903EB0101035F
:10024000CD02E5014F0335031303BD01BD01BD011F
:10025000BD01BD01BD01BD01BD01BD0177022D0282
:1002600045028302C702F902DB01570351023B0238
:10027000AB02ED02BD01CD01E3025B0267027D022C
:10028000B302BD01DD029302F901F5025503370304
:10029000BD01BD01BD02D3022D0341027303310331
:1002A0000F0227038F02D902BD01BD012303BD0147
:1002B000BD016D02BD011302F30231024303C50209
:1002C0004B026D03B1027502C701C901690329031D
:1002D0002502FF012F034D03FD0209021D03E90260
:1002E000B7010703A50261026303FD02E901DB0216
:1002F0003D037B02CB013F02DD0153026902FF0295
:100300008B02070223021102210317031103690262
:100310006B03D101FB01084AD73B3BCE016E84BC85
:10032000BFFDC12F3D6C74319ABD56833DDA3D004F
:10033000C77F11BED9E4BB4C3E916BAAAABE000098
:1003400000803F05A84CCDB2D44EB93836A9020C76
:1003500050B9918688083CA6AAAA2ABE000000804F
:100360003F000D9446B00D947C2A0D94D52C0D942D
:100370002FAD0D9488080D94F1B00D940C430D949D
:1003800007110D94DA0B0D9490AE0D94580C0D944A
:1003900010A80D9412A80D94A9AD0D94CD390D940B
:1003A000E1260D94D7AD0D948E100D94DD080D94BB
:1003B0005B020D94E12A0D94CD350D949CAD0D9406
:1003C000AE180D94F72D0D946D190D941D400D94DC
:1003D000FAB00D9466AD0D94BF0D0D9445290D94A2
:1003E000040C0D94072A0D9490330D94D3020D94B0
:1003F000462B0D94EC3D0D94DBAD0D948B010D94CB
:10040000F7AC0D94802E0D941B030D94880C0D9465
:10041000B7AD0D9415AD0D94A0010D94EC2B0D947A
:100420002C3B0D94BFAD0D94E3050D944D050D943B
:10043000F7020D947A350D94DA100D94F7280D9487
:100440000D190D941F040D94BBAD0D94F2AC0D94D9
:100450007B130D94A2300D94C5030D9444040D94A8
:1004600043250D94A2A70D94AA170D94B8050D94D9
:10047000F43F0D943A2C0D946B360D9493290D9402
:1004800098AD0D945F3D0D943F240D946F040D9431
:10049000F3030D9459010D94E5A70D944C070D94A9
:1004A0004C230D945F330D94A2AD0D9472320D94D4
:1004B00007070D949A360D944A390D943F0F0D9409
:1004C000FB190D9452AD0D9446030D947E180D94B6
:1004D0008F390D94E0AD0D9438330D9481410D9416
:1004E000132C0D94530F0D9492420D940EA80D945D
:1004F00017260D949E2B0D94A6AD0D9422390D94C4
:1005000015170D94C62D0D94BA040D949D320D94BB
:10051000C3130D944FB00D94B1AD0D9482AE0D94F4
:10052000A73F0D94DD120D94BC1E0D94FD820D9419
:100530005A230D9489250D94C4320D94EA320D94FA
:1005400038130D9415020D94FC2C0D9443AD0D94AD
:100550000E370D94CC010D945C370D9435370D9406
:100560005E480D940CA80D94AD3A0D94EA240D94B8
:10057000DC030D94CC190D940D130D94BA3B0D941E
:10058000FB350D9446480D947D030D94CBA70D9437
:10059000B4410D9433090D9411080D94060F0D9478
:1005A0002E0C0D94192F0D94453C0D94DE180D94CE
:1005B000772B0D944F410D9470AD0D94B51F0D9494
:1005C000A81A0D94B2070D94213A0D94C1360D94DA
:1005D00021AF0D9425AD0D944AB10D941E380D94A4
:1005E00077AE0D9405160D9495A70D94AF210D943B
:1005F00038110D9432420D946C290D9484AD0D94F4
:10060000ADAD0D94CC0E0D945F380D94B6010D94E4
:1006100039AD0D94FA220D9447320D943D190D9485
:10062000AE2C0D94CDAD0D949D190D943E230D94DB
:10063000C9AD0D947C3A0D94740A0D941DAD0D94C2
:100640002E2A0D94C5AD0D94DE400D94A5110D9488
:10065000823E0D94EDAC0D94552A0D94D23C0D9430
:1006600001AD0D94DE3A0D9400AF0D945A100D9427
:10067000373E0D94B80C0D94612D0D947AAD0D9408
:10068000602C0D94B00B0D94BEA70D94A4AE0D94E8
:1006900038300D9481150D9484210D940BAD0D947B
:1006A000640F0D94BA290D9411330D94AE220D945C
:1006B0002D360D94E7360D9476010D94E71C0D94BC
:1006C000891B0D941E290D945CAD0D94872C0D94FF
:1006D000E0290D941AA80D94D3AD0D94F2A70D94B2
:1006E0008D160D94C52B0D94913B0D941C310D94DA
:1006F000BC1D4D383420582059205A2045004D311A
:100700003037005430004D3130370043616E6E6F2A
:100710007420656E746572207375626469723A2024
:10072000005341564544205052494E54004D3234F6
:10073000004D3233202573006175746F25692E6773
:10074000006572726F722077726974696E672074C7
:100750006F2066696C65004E6F7420534420707280
:10076000696E74696E67002F005344207072696E61
:1007700074696E67206279746520002E0044656C90
:100780006574696F6E206661696C65642C204669CA
:100790006C653A200046696C652064656C6574651B
:1007A000643A002E006F70656E206661696C656446
:1007B0002C2046696C653A200057726974696E672F
:1007C00020746F2066696C653A20002E006F70659A
:1007D0006E206661696C65642C2046696C653A2000
:1007E000002E006F70656E206661696C65642C2058
:1007F00046696C653A200046696C652073656C65D6
:1008000063746564002053697A653A200046696C18
:1008100065206F70656E65643A20002E006F70650C
:100820006E206661696C65642C2046696C653A20AF
:10083000004E6F772066726573682066696C653A52
:1008400020004E6F7720646F696E672066696C6563
:100850003A20002220706F73002220706172656E52
:10086000743A2200535542524F5554494E45204345
:10087000414C4C207461726765743A22007472793D
:10088000696E6720746F2063616C6C207375622DD4
:1008900067636F64652066696C6573207769746847
:1008A00020746F6F206D616E79206C6576656C7356
:1008B0002E204D4158206C6576656C2069733A0096
:1008C0007A70726F62653A200053442063617264EB
:1008D000206F6B006F70656E526F6F742066616978
:1008E0006C656400766F6C756D652E696E69742039
:1008F0006661696C656400534420696E69742066A2
:1009000061696C006563686F3A004572726F723A94
:1009100000535543434553530056616C756573202E
:100920006F7574206F662072616E67650056616C2A
:10093000756573206F7574206F662072616E6765D0
:100940000056616C756573206F7574206F66207238
:10095000616E67650056616C756573206F757420F4
:100960006F662072616E676500535543434553536C
:100970000056616C756573206F7574206F66207208
:10098000616E67650056616C756573206F757420C4
:100990006F662072616E67650056616C75657320C5
:1009A0006F7574206F662072616E67650056616CAA
:1009B000756573206F7574206F662072616E676550
:1009C00000535441544953544943532052455345CD
:1009D000540048617264636F6465642043616C69AC
:1009E0006220616E64205049442044656661756CE4
:1009F000742053657474696E6773204C6F6164650D
:100A0000640048617264636F646564204465666174
:100A1000756C742053657474696E6773204C6F61D4
:100A20006465640053746F726564207365747469DF
:100A30006E677320726574726965766564002C2038
:100A400073617665645F466C61675F66616E6C6159
:100A50007965725F6D6972726F723A20002C207333
:100A6000617665645F66656564726174653A2000ED
:100A70002C2073617665645F66616E6C6179657266
:100A80003A20002C2073617665645F74656D706236
:100A900065643A20002C2073617665645F74656D2F
:100AA00070303A20002C2073617665645F74656D48
:100AB00070313A20002C2073617665645F66696C42
:100AC00065706F736974696F6E3A20002C207361D2
:100AD0007665645F655F706F736974696F6E3A20E5
:100AE000002C2073617665645F746F6F6C5F616367
:100AF000746976653A20002C2073617665645F7AAC
:100B00005F706F736974696F6E3A20002C20736197
:100B10007665645F795F706F736974696F6E3A2090
:100B2000002C2073617665645F785F706F73697401
:100B3000696F6E3A200053415645205052494E5439
:100B4000204C4F473A00204D696E75746573203A0A
:100B50000020204C617374207072696E7420746977
:100B60006D652D3E20486F757273203A004C61739D
:100B700074207072696E74206475726174696F6E2E
:100B8000002C205468697264204944206E756D629F
:100B9000657220002C205365636F6E6420494420E9
:100BA0006E756D6265723A2000202046697273741A
:100BB000204944206E756D6265723A2000554920C7
:100BC000496E666F726D6174696F6E2053657269EC
:100BD000616C204E756D6265723A00206D2C204567
:100BE00031207072696E742064697374616E63651C
:100BF0003A2000206B6D2C204530207072696E7495
:100C00002064697374616E63653A2000206B6D2CFB
:100C10002059207072696E742064697374616E6308
:100C2000653A2000206B6D2C205831207072696E5F
:100C3000742064697374616E63653A200020432CEC
:100C40000A205830207072696E7420646973746170
:100C50006E63653A200020432C206D617820746516
:100C60006D7020423A200020432C206D6178207462
:100C7000656D7020523A20002C206D6178207465DB
:100C80006D70204C3A2000682C207072696E74736D
:100C90002066696E69736865643A20002C20707262
:100CA000696E74696E672074696D653A2000202052
:100CB0007072696E74733A200053544154533A0071
:100CC00020432C20525F5052494E543A200020437A
:100CD0002C20525F4245443A200020432C20525F92
:100CE00052454D4F56453A20002020525F494E5301
:100CF0004552543A200054656D70202843293A002B
:100D000020432C204C5F5052494E543A200020433F
:100D10002C204C5F4245443A200020432C204C5F5D
:100D200052454D4F56453A200020204C5F494E53C6
:100D30004552543A200054656D70202843293A00EA
:100D400020562856657273696F6E2920002052283C
:100D500042656420726967687420736372657729DD
:100D6000200020204D353331204C28426564206C12
:100D7000656674207363726577292000426564207C
:100D80004F66667365747320286D6D293A00205094
:100D9000285A2070726F62652900205A200020595D
:100DA000200020204D353330205820004F666673D8
:100DB00065747320286D6D293A0020440020490095
:100DC000202D204D333031205249474854205000C7
:100DD00020440020490020204D333031204C45462E
:100DE000542050005049442073657474696E6773D1
:100DF0003A00205A0020590020204D323036205829
:100E000000486F6D65206F666673657420286D6D90
:100E1000293A00204500205A002058002042002096
:100E2000540020204D323035205300416476616EED
:100E3000636564207661726961626C65733A205300
:100E40003D4D696E20666565647261746520286D2C
:100E50006D2F73292C20543D4D696E20747261767C
:100E6000656C20666565647261746520286D6D2F00
:100E700073292C20423D6D696E696D756D20736517
:100E8000676D656E742074696D6520286D73292CFB
:100E900020583D6D6178696D756D205859206A65DF
:100EA000726B20286D6D2F73292C20205A3D6D61A7
:100EB00078696D756D205A206A65726B20286D6D9A
:100EC0002F73292C2020453D6D6178696D756D204B
:100ED00045206A65726B20286D6D2F7329002054A0
:100EE0000020204D323034205300416363656C652F
:100EF000726174696F6E3A20533D616363656C651E
:100F0000726174696F6E2C20543D726574726163F6
:100F10007420616363656C65726174696F6E002033
:100F20004500205A0020590020204D3230312058F1
:100F3000004D6178696D756D20416363656C657204
:100F40006174696F6E20286D6D2F7332293A00200D
:100F50004500205A0020590020204D3230332058BF
:100F6000004D6178696D756D2066656564726174A8
:100F7000657320286D6D2F73293A00204500205A93
:100F80000020590020204D393220580053746570DC
:100F9000732070657220756E69743A0053657474BD
:100FA000696E67732053746F726564006563686F60
:100FB0003A00204500205A00205900483D5800457D
:100FC000787472756465722072656C6561736564AE
:100FD000206163746976653A20005A205349474D71
:100FE0004120486F6D656400457874727564657260
:100FF000206163746976653A20005072696E746589
:10100000722068616C7465642E206B696C6C282991
:101010002063616C6C65642100436F6F6C696E675F
:1010200020446F776E204865617465720044756175
:101030006C204D6F6465204F4646006F6B00526513
:1010400073656E643A2000504F534954494F4E2007
:10105000484F4D453A200054696D6520696E6163C3
:101060007469766500507572676520646973746190
:101070006E636500486F74656E64206F66667365A5
:1010800074733A005A204F6666736574203A2000E4
:101090007A5F6D61783A20007A5F6D696E3A200060
:1010A0005A204F6666736574005A204F66667365F2
:1010B00074206F6B004E6F74207072696E742072B2
:1010C00065636F76657279207570005072696E7411
:1010D000207265636F7665727920757000486F7451
:1010E000656E64206F6666736574733A007A5F6D2F
:1010F000696E3A2000795F6D61783A2000785F6D03
:1011000061783A2000785F6D696E3A2000205A3A83
:101110000020593A0020436F756E7420583A200021
:1011200020453A00205A3A0020593A00583A0046E1
:1011300049524D574152455F4E414D453A4D6172BE
:101140006C696E2056313B20537072696E74657203
:101150002F6772626C206D617368757020666F72A4
:101160002067656E36204649524D574152455F55BE
:10117000524C3A68747470733A2F2F6769746875AB
:10118000622E636F6D2F4572696B5A616C6D2F4DC6
:1011900061726C696E2F2050524F544F434F4C5F19
:1011A00056455253494F4E3A312E30204D41434817
:1011B000494E455F545950453A4D656E64656C2003
:1011C00045585452554445525F434F554E543A3258
:1011D00020555549443A30303030303030302D30A1
:1011E0003030302D303030302D303030302D303008
:1011F000303030303030303030300A0042656420DA
:101200004865617465640020423A0020453A005404
:101210003A0045787472756465722048656174653A
:10122000640020573A0020453A00543A00204240DA
:101230003A0020403A00202F003A00205400202F8E
:101240000020423A00202F006F6B20543A000A0A17
:10125000005374616E6461726420446576696174E0
:10126000696F6E3A20000A004D65616E3A20000AEF
:10127000002020207A3A200000793A2000783A2095
:10128000003F537065636966696564206E756D62C1
:101290006572206F66206C65677320696E206D6FC4
:1012A00076656D656E74206E6F7420706C617573F9
:1012B00061626C652E0A003F5370656369666965FB
:1012C00064205920706F736974696F6E206F757434
:1012D000206F662072616E67652E0A003F5370654D
:1012E000636966696564205820706F736974696FFB
:1012F0006E206F7574206F662072616E67652E0AAE
:10130000003F5370656369666965642073616D7041
:101310006C652073697A65206E6F7420706C6175DE
:101320007361626C652E0A0046756C6C2073757073
:10133000706F72742061743A20687474703A2F2F41
:1013400033647072696E74626F6172642E636F6D64
:101350002F666F72756D2E7068700A004D343820DC
:101360005A2D50726F6265205265706561746162BA
:10137000696C69747920746573742E202020566519
:101380007273696F6E20322E30300A003F566572DC
:10139000626F7365204C6576656C206E6F7420708B
:1013A0006C61757361626C652E0A002569206D6938
:1013B0006E2C202569207365630047323820583031
:1013C00020593000627566666572206F75743A2028
:1013D00000427566666572313A200043617264208E
:1013E0004E616D653A2000456E642066696C65202B
:1013F0006C69737400426567696E2066696C65206C
:101400006C697374000A00205A3A200020593A206F
:101410000020583A20004265640047363920414395
:1014200054495641544544000A00207A3A2000208D
:10143000793A200020783A2000426564000A0020B2
:10144000616E7469686F726172690A3A200020687F
:101450006F726172690A20002F3800766F6C7465B4
:1014600073200020566F6C74657320636172676F20
:101470006C20333A200020616E7469686F7261726B
:10148000690A3A200020686F726172690A20002F91
:101490003800766F6C746573200020566F6C74652D
:1014A0007320636172676F6C20323A20000A00205B
:1014B000647A333A200020647A323A2000543000B3
:1014C0005430000056756974656E73333A202000FD
:1014D0004170726F78333A202000566F6C746573D8
:1014E000333A2020000056756974656E73323A20D5
:1014F00020004170726F78323A202000566F6C7471
:101500006573323A20200056616C6F7220645A3342
:101510003A20200056616C6F7220645A323A2020C3
:10152000004E6577206F666673657420766572730A
:10153000696F6E3A20007A335F313A20007A325F69
:10154000313A20005A7363726F6C6C5F313A20003D
:101550007A335F303A20007A325F303A20005A7393
:1015600063726F6C6C5F303A2000706C616E654E18
:101570006F726D616C5F312E7A3A2000706C616E13
:10158000654E6F726D616C5F312E793A2000706C20
:10159000616E654E6F726D616C5F312E783A20001E
:1015A000706C616E654E6F726D616C5F302E7A3A51
:1015B0002000706C616E654E6F726D616C5F302ED5
:1015C000793A2000706C616E654E6F726D616C5F70
:1015D000302E783A20005A76616C75652061667409
:1015E000657220686F6D653A00486F6D6520582FF1
:1015F00059206265666F7265205A00537461727477
:10160000696E67205A2043616C6962726174696F08
:101610006E2057697A617264004D383400537461EA
:101620007274696E6720592043616C6962726174DB
:10163000696F6E2057697A617264004D38340053C7
:1016400074617274696E6720582043616C696272BC
:101650006174696F6E2057697A61726400457874AD
:1016600072756465722072656C6561736564206172
:1016700063746976653A20005A205349474D4120EA
:10168000486F6D6564004578747275646572206199
:1016900063746976653A20002200556E6B6E6F7731
:1016A0006E20636F6D6D616E643A202200504F535F
:1016B0004954494F4E20484F4D453A200020004D97
:1016C0006F766520746F3A2000256920686F757207
:1016D00073202569206D696E7574657300446F6EA3
:1016E00065207072696E74696E672066696C65004A
:1016F0004D33330070617573652064657465637480
:101700006564200A00473639005072696E7465724C
:101710002073746F707065642064756520746F2029
:101720006572726F72732E20466978207468652026
:101730006572726F7220616E6420757365204D3919
:10174000393920746F20726573746172742E202889
:1017500054656D706572617475726520697320726D
:10176000657365742E2053657420697420616674F6
:1017700065722072657374617274696E6729006F97
:101780006B004E6F204C696E65204E756D62657200
:10179000207769746820636865636B73756D2C20AE
:1017A0004C617374204C696E653A20004E6F204383
:1017B0006865636B73756D2077697468206C696EFA
:1017C00065206E756D6265722C204C617374204CBF
:1017D000696E653A2000636865636B73756D206D93
:1017E00069736D617463682C204C617374204C695B
:1017F0006E653A20004C696E65204E756D626572AB
:10180000206973206E6F74204C617374204C696E74
:1018100065204E756D6265722B312C204C6173749E
:10182000204C696E653A20004D313130005375729D
:1018300066696E672030200A0043616C69627261DC
:1018400074696F6E205375636365737366756C2C72
:1018500020676F696E67206261636B20746F206D13
:1018600061696E206D656E75200A005430004D3838
:101870003420582059205A2045002534643A252E1A
:10188000326468202F202564670000466F726D2047
:101890003221002564206974656D730052656164AE
:1018A0007920746F20496E736572742F52656D6F65
:1018B0007665200A0074656D70206F6B200A002524
:1018C00064252500253364202563430025336420E7
:1018D00025634300253364256343202F202533648B
:1018E00025634300253364256343202F202533647B
:1018F00025634300253364256343202F202533646B
:1019000025634300252033642025250025642068B5
:10191000202564206D0025203364202525002532F4
:101920006420256343002533642025634300253369
:10193000642025634300526561647920746F2049F7
:101940006E736572742F52656D6F7665200A007430
:10195000656D70206F6B200A0025642525002533F6
:10196000642025634300253364202563430020530E
:10197000544F50205052494E54200A0047323820CC
:101980005830205930004D333500526573756D6500
:10199000206465746563746564200A00473730000D
:1019A000A1524553554D4521200A00A150415553A0
:1019B0004521200A00253364202563430025336434
:1019C00020256343002533642025634300253364C9
:1019D00020256343002533642025634300253364B9
:1019E00020256343002533642025634300253364A9
:1019F000202563430025336420256343005052496A
:101A00004E542053455454494E4753200A00446FC6
:101A10006E6520736176696E672066696C652E005D
:101A20006F6B004D32390067636F646520666F75B8
:101A30006E640042434E3344205369676D61007306
:101A4000746172740030322D312E322E3664657618
:101A5000002200656E717565696E672022002200A4
:101A6000656E717565696E6720220043616C6375F0
:101A70006C75733A20200043616C63756C75733A22
:101A800020200043616C63756C75733A202000253B
:101A900033642025634300253364202563430045D8
:101AA0006E74657220696E207075726765206D6F47
:101AB0006465200A0053757266696E672031200ADA
:101AC0000053757266696E672030200A0047333410
:101AD00000494E464F3A204245442043414C49423A
:101AE000202D200053757266696E672030200A0031
:101AF0004732382058302059300054300053757226
:101B000066696E672030200A00473433004734335B
:101B10000047343100473430004734330047343312
:101B20000047343100473430004D3834004D3834EC
:101B3000004D3834005A32204F66667365743A207F
:101B4000004F4B207365636F6E6420457874727527
:101B500064657221005A20706F736974696F6E3A00
:101B600020005A20706F736974696F6E3A20004DBF
:101B70003834005A312050726F6265206F66667388
:101B800065743A20004F4B20666972737420457863
:101B900074727564657221200A005A20706F73692F
:101BA00074696F6E3A20005A20706F736974696FA0
:101BB0006E3A200043616C63756C75733A202000A7
:101BC00043616C63756C75733A20200043616C63EC
:101BD000756C75733A20200043616C63756C757386
:101BE0003A20200046696C616D656E742052656D07
:101BF0006F7665642C20474F494E4720544F204351
:101C00004C45414E20544845204E4F5A5A4C452091
:101C10000A0046696C616D656E7420496E73657269
:101C20007465642F52656D6F7665642C20726574DF
:101C300075726E696E6720746F204D61696E204DFC
:101C4000656E75200A0054300046696C616D656EE2
:101C50007420496E7365727465642F52656D6F767A
:101C600065642C20676F696E6720746F2043616C18
:101C70006962200A0054300046696C616D656E74BB
:101C800020496E7365727465642F52656D6F766559
:101C9000642C20676F696E6720746F2074686520FC
:101CA0006E657874206578747275646572200A00B8
:101CB00054300043616C6962726174696F6E2053C5
:101CC00075636365737366756C2C20676F696E67E7
:101CD000206261636B20746F206D61696E206D6599
:101CE0006E75200A005430004A756D70206F76655D
:101CF000722073637265773120616E642073637242
:101D0000657732200A004A756D70206F7665722003
:101D1000736372657731200A0047333400473334E8
:101D2000004733340054300047333400494E464FA7
:101D30003A204245442043414C4942202D20003660
:101D4000302064656772656573200A00496E7365AB
:101D50007274696E67203A2020200A0053757266FB
:101D6000696E672030200A0053757266696E6720BD
:101D700030200A0053757266696E672030200A00B1
:101D80002533642025634300253364202563430005
:101D90002533642025634300456E74657220696EA7
:101DA000207075726765206D6F6465200A002533A9
:101DB00064202563430025336420256343002533D5
:101DC00064202563430025336420256343002533C5
:101DD00064202563430025336420256343002533B5
:101DE000642025634300253364202563430046694E
:101DF0006C616D656E742052656D6F7665642C2024
:101E0000474F494E4720544F20434C45414E2054A4
:101E10004845204E4F5A5A4C45200A005375726669
:101E2000696E672030200A0053757266696E6720FC
:101E300030200A0054300054652070696C6C6500D5
:101E400053757266696E672030200A004D33340086
:101E500053757266696E672030200A004D32340077
:101E60004D32332025730053757266696E672030DA
:101E7000200A0053656C65637420340053656C65FB
:101E8000637420330053656C6563742032005365BE
:101E90006C65637420310053656C65637420300099
:101EA00053757266696E672030200A0053554343AC
:101EB000455353200A00253364202563430025330E
:101EC00064202563430025336420256343002533C4
:101ED00064202563430025336420256343002533B4
:101EE00064202563430025336420256343002533A4
:101EF0006420256343002533642025634300496E35
:101F000073657274696E67203A2020200A002533B9
:101F10006420256343002533642025634300253373
:101F2000642025634300456E74657220696E2070DD
:101F300075726765206D6F6465200A00FF01FF0000
:101F400000A0400000A04000000040CDCC9843001D
:101F50008093430000524300000000008093430040
:101F6000000000CDCC984300809343000052430012
:101F700000000000000000000000006563686F3A88
:101F8000004572726F723A0020636F6C642065784E
:101F900074727573696F6E2070726576656E7465A4
:101FA00064006563686F3A003B202020506C6173C9
:101FB000746963207765696768743A2025642E2503
:101FC0006467003B46696C616D656E74207573656E
:101FD000643A2025642E25646D2025642E256467CF
:101FE000003B46696C616D656E7420757365643A7B
:101FF00020256C752E256C756D003B2020204275C8
:10200000696C642074696D653A202564202573200D
:102010002564202573003B5072696E742074696DCD
:10202000653A20256420257320256420257320250A
:1020300064202573003B54494D453A20256C6400CB
:102040003B20472D436F64652067656E6572617440
:1020500065642062792053696D706C6966793344D8
:102060002852292056657273696F6E202564007CA2
:102070003C3E5E2B3D3F2F5B5D3B2C2A225C0020CB
:102080005A3A0020593A0020583A00656E64737439
:102090006F7073206869743A200024F4D43050C300
:1020A0008E20C2A24017828B7011127A910D816C22
:1020B000D90AA861E108C7586607615143061E4B5B
:1020C0005D05C145A7041A411104093D9803713902
:1020D00031034036DB0265339102D4305402802E46
:1020E0001D02632CEE01752AC501B028A00110273E
:1020F00081018F2564012B244B01E0223401AC21A6
:102100001F018D200D01801FFC00841EED00971D16
:10211000DF00B81CD200E61BC600201BBC00641AFE
:10212000B200B219A8000A19A0006A189900D117C4
:10213000910040178B00B516840031167E00B31550
:1021400079003A157300C7146F0058146A00EE1333
:1021500066008813630025135E00C7125B006C12D3
:10216000570015125400C111510070114F00211178
:102170004B00D61049008D10470046104400021055
:102180004200C00F4000800F3E00420F3C00060F8F
:102190003B00CB0E3800930E37005C0E3500270E47
:1021A0003400F30D3200C10D3100900D3000600D90
:1021B0002E00320D2D00050D2C00D90C2B00AE0C7D
:1021C0002900850C29005C0C2700350C27000E0C1B
:1021D0002600E80B2400C40B2400A00B23007D0B79
:1021E00023005A0B2100390B2100180B2000F80A9C
:1021F0001F00D90A1E00BB0A1E009D0A1D00800A8E
:102200001D00630A1C00470A1B002C0A1B00110A50
:102210001A00F7091A00DD091900C4091900AB09F1
:102220001900920917007B091800630917004C096F
:10223000160036091600200916000A091500F508CF
:102240001500E0081400CC081400B8081400A40815
:102250001400900813007D0812006B081300580842
:102260001200460812003408110023081100120859
:10227000110001081100F0071000E0071000D0075E
:102280001000C0071000B0070F00A1071000910751
:102290000E0083070F0074070F0065070E00570735
:1022A0000E0049070E003B070D002E070E00200709
:1022B0000D0013070D0006070D00F9060C00ED06D2
:1022C0000D00E0060C00D4060C00C8060C00BC068D
:1022D0000C00B0060C00A4060B0099060C008D063D
:1022E0000B0082060B0077060B006C060B006106E4
:1022F0000A0057060B004C060A0042060A00380680
:102300000A002E060A0024060A001A060A00100611
:10231000090007060A00FD050900F4050900EB05A0
:102320000900E2050900D9050900D0050900C70523
:102330000900BE050900B5050800AD050800A505A2
:1023400009009C050800940508008C050800840518
:1023500008007C050800740508006C050700650589
:1023600008005D050700560508004E0507004705F3
:1023700007004005080038050700310507002A0559
:102380000700230507001C050600160507000F05BA
:1023900007000805060002050700FB040600F50417
:1023A0000700EE040600E8040600E2040700DB0470
:1023B0000600D5040600CF040600C9040600C304C5
:1023C0000600BD040600B7040600B1040500AC0415
:1023D0000600A6040600A00405009B040600950460
:1023E0000500900406008A040500850405008004A9
:1023F00006007A04050075040500700405006B04EE
:10240000050066040500610405005C04050057042E
:102410000500520405004D0405004804050043046E
:1024200005003E0404003A040500350405003004AC
:1024300004002C04050027040400230405001E04E6
:1024400004001A04040016040500110404000D041D
:102450000400090405000404040000040400FC0353
:102460000400F8030400F4030400F0030400EC0388
:102470000400E8030400E4030400E0030400DC03B8
:102480000400D8030400D4030400D0030400CC03E8
:102490000400C8030300C503030024F404D9201B6F
:1024A000C40C5C0E9804C4095F0265077101F40551
:1024B000F900FB04B30048048700C1036900580316
:1024C000550003034500BE023A0084023100530266
:1024D0002A002902250004022000E4011C00C80192
:1024E0001900AF0117009801140084011300710155
:1024F00010006101100051010E0043010D00360172
:102500000B002B010B0020010B00150109000C0131
:10251000090003010800FB000800F3000800EB00BD
:102520000700E4000600DE000600D8000600D20026
:102530000600CC000500C7000500C2000500BD0074
:102540000400B9000400B5000400B1000400AD00AF
:102550000400A9000400A5000300A20003009F00DE
:1025600004009B0003009800030095000200930004
:102570000300900003008D0002008B000300880020
:1025800002008600020084000300810002007F0038
:1025900002007D0002007B0002007900020077004B
:1025A0000100760002007400020072000100710058
:1025B00002006F0002006D0001006C0002006A0062
:1025C000010069000200670001006600010065006B
:1025D000010064000200620001006100010060006F
:1025E00001005F0002005D0001005C0001005B0073
:1025F00001005A0001005900010058000100570075
:102600000100560001005500010054000100530074
:102610000000530001005200010051000100500071
:1026200001004F0001004E0000004E0001004D006F
:1026300001004C0001004B0000004B0001004A006B
:102640000100490001004800000048000100470067
:102650000100460000004600010045000000450062
:10266000010044000100430000004300010042005B
:102670000000420001004100000041000100400054
:1026800001003F0000003F0001003E0000003E004E
:1026900001003D0000003D0001003C0000003C0046
:1026A00000003C0001003B0000003B0001003A003C
:1026B00000003A0001003900000039000100380034
:1026C000000038000000380001003700000037002B
:1026D0000100360000003600000036000100350021
:1026E0000000350000003500010034000000340017
:1026F000000034000100330000003300000033000C
:102700000100320000003200000032000100310000
:1027100000003100000031000100300000003000F6
:102720000000300001002F0000002F0000002F00EB
:1027300000002F0001002E0000002E0000002E00DF
:1027400001002D0000002D0000002D0000002D00D4
:1027500001002C0000002C0000002C0000002C00C8
:1027600001002B0000002B0000002B0000002B00BC
:1027700001002A0000002A0000002A0000002A00B0
:1027800001002900000029000000290000002900A4
:102790000000290001002800000028000000280097
:1027A000000028000000280001002700000027008A
:1027B000000027000000270000002700010026007D
:1027C0000000260000002600000026000000260071
:1027D0000100250000002500000025000000250064
:1027E0000000250000002500010024000000240056
:1027F0000000240000002400000024000100230049
:10280000000023000000230000002300000023003C
:10281000000023000000230001002200000022002D
:102820000000220000002200000022000000220020
:102830000100210000002100000021000000210013
:102840000000210000002100000021000100200004
:1028500000002000000020000000200000002000F8
:1028600000002000000020000000200001001F00E8
:1028700000001F0000001F0000001F0000001F00DC
:1028800000001F0000001F0001001E0000001E00CD
:1028900000001E0000001E0000006563686F3A0023
:1028A000487973746572657369732074656D7065BA
:1028B00072617475726500546865726D616C207226
:1028C000756E617761792070726F74656374696F7A
:1028D0006E206279204865617465725F49443A00F0
:1028E0004572726F72283833293A20426564207429
:1028F0006865726D6973746F72206E6F74206465A1
:10290000746563746564004572726F722838322989
:102910003A20526967687420746865726D697374CF
:102920006F72206E6F7420646574656374656400F3
:102930004572726F72283831293A204C65667420CE
:10294000746865726D6973746F72206E6F74202085
:102950006465746563746564002053544F5020505F
:1029600052494E54200A004572726F72283833293A
:102970003A2042656420746865726D6973746F7281
:10298000206E6F7420646574656374656400205301
:10299000544F50205052494E54200A004572726FD5
:1029A00072283832293A2052696768742074686541
:1029B000726D6973746F72206E6F742064657465D4
:1029C00063746564002053544F50205052494E5454
:1029D000200A004572726F72283831293A204C65FE
:1029E000667420746865726D6973746F72206E6F9F
:1029F00074202064657465637465640050494420E4
:102A00004175746F74756E652066696E697368656B
:102A1000642100504944204175746F74756E6520BF
:102A20006661696C6564212074696D656F757400F9
:102A300020403A006F6B20543A006F6B20423A00FE
:102A4000504944204175746F74756E6520666169E4
:102A50006C6564212054656D706572617475726572
:102A600020746F6F206869676800204B643A20000B
:102A7000204B693A2000204B703A200020436C61C3
:102A8000737369632050494420002054753A200034
:102A9000204B753A2000206D61783A2000206D6946
:102AA0006E3A200020643A200020626961733A2067
:102AB00000504944204175746F74756E65206669D5
:102AC0006E69736865642120507574207468652090
:102AD0006C617374204B702C204B6920616E6420F4
:102AE0004B6420636F6E7374616E74732066726FD3
:102AF0006D2061626F766520696E746F20436F6E22
:102B000066696775726174696F6E2E68005049441A
:102B1000204175746F74756E65206661696C6564BB
:102B2000212074696D656F75740020403A006F6BE9
:102B300020543A006F6B20423A00504944204175BE
:102B4000746F74756E65206661696C6564212054CC
:102B5000656D706572617475726520746F6F206841
:102B600069676800204B643A2000204B693A2000D6
:102B7000204B703A200020436C61737369632050CE
:102B8000494420002054753A2000204B753A20001B
:102B9000206D61783A2000206D696E3A2000206433
:102BA0003A200020626961733A20004572726F72A8
:102BB0003A0070012C0190012701B0012201C001EF
:102BC0001D01F00118011002130130020E01600214
:102BD000090190020401C002FF000003FA00400353
:102BE000F5008003F000D003EB002004E600700441
:102BF000E100E004DC004005D700C005D20040063B
:102C0000CD00D006C8008007C3003008BE00F00821
:102C1000B900C009B400B00AAF00B00BAA00D00CD4
:102C2000A500000EA000500F9B00C010960050128F
:102C3000910000148C00C0158700B0178200B019F5
:102C40007D00D01B7800001E730040206E00902293
:102C50006900F024640040275F0090295A00E02BAF
:102C60005500102E500020304B0010324600E0334B
:102C7000410090353C001037370070383200A039E1
:102C80002D00B03A2800A03B2300603C1E00103D00
:102C90001900903D1400103E0F00703E0A00C03E27
:102CA0000500003F000000000A0B02090C0D0E0891
:102CB0000703040100000000000000000000000005
:102CC0000000000000000000000000000000000004
:102CD00000001211100000000000000000000000C1
:102CE00000000000000000000000000001021020B1
:102CF0002008081020401020408002010201080432
:102D000002010102040810204080804020100804C5
:102D1000020180040201804020100804020108041E
:102D20000201010204081020408001020408102062
:102D3000408005050505070508080808020202028B
:102D40000A0A080804040404010101010101010147
:102D50000303030303030303040707070C0C0C0C12
:102D60000C0C0C0C020202020606060606060606FB
:102D70000B0B0B0B0B0B0B0B000020002300260092
:102D800029002C002F003200000100000301060181
:102D9000090100002200250028002B002E00310030
:102DA000340002010000050108010B0100002100B0
:102DB000240027002A002D0030003300010100000C
:102DC000040107010A014E414E494E495459494EEA
:102DD00046CDCCCC3D0AD7233C17B7D13877CC2B86
:102DE000329595E6241FB14F0A000020410000C82B
:102DF0004200401C4620BCBE4CCA1B0E5AAEC59DAC
:102E0000746364696E6F70737578585B0000754405
:102E1000C1028902E701AF0211241FBECFEFD1E248
:102E2000DEBFCDBF00E00CBF17E0A0E0B2E0EEEAED
:102E3000FCE803E00BBF02C007900D92A632B10779
:102E4000D9F729E1A6E2B7E001C01D92A237B20787
:102E5000E1F71EE2C6E1DEE200E006C022970109CA
:102E6000FE010BBF0F947EBACE30D10780E0080779
:102E7000A9F70F943EB10D9445C60C94000040E0B4
:102E800050E0BA010D94987DFC01148217821382E0
:102E900012828FEF95E0918380830895DC01ED919C
:102EA000FC910190F081E02D19942FEF35E0FC01A9
:102EB000318320832781222319F004960D947B7E91
:102EC0000895CF92DF92EF92FF920F931F93CF93CB
:102ED000DF93EC01895A9F4FD7DFCE0188589F4F6F
:102EE000D3DF7E0127E9E20EF11C87016E0133E397
:102EF000C31A3EEFD30AC801C7DF015E1F4F0C158E
:102F00001D05C9F7FE01E153FE4F89E1818314825B
:102F10003596178ACE018E509E4FB6DFFE01ED55D5
:102F2000FD4F108211821282138238961082118214
:102F3000128213821A821B821C82188219826E01ED
:102F400089E5C81A8DEFD80AF60110821182128223
:102F50001382F80111821082FE01EF5EFD4F108294
:102F600086E391E0F7019C01119221503040E1F796
:102F7000FE01E155FD4F81E08083CB5ADF4F19827E
:102F800018820F9401AC68577C4E8F4F9F4FF6010B
:102F90006083718382839383DF91CF911F910F911F
:102FA000FF90EF90DF90CF900895FC0120E03EE28B
:102FB000DB014C91403241F0283011F430833196DE
:102FC000DB014C91408331962F5F6F5F7F4F2B3039
:102FD00079F7108208952BE1FB013496DC011496F9
:102FE00001900D922A95E1F7FB0122813381FC01CA
:102FF000338322832FEF35E03183208308952F928E
:103000003F924F925F926F927F928F929F92AF9278
:10301000BF92CF92DF92EF92FF920F931F93CF93C5
:10302000DF93CDB7DEB7CA57D1090FB6F894DEBF2C
:103030000FBECDBF8C016B015A0129012DB73EB7E0
:10304000E3963FAF2EAFE397AD961FAEAD9734E05A
:10305000A30EB11C4296E5969FAF8EAFE597F8019F
:10306000EC5AFF4FE796FFAFEEAFE7971801F0E598
:103070002F1AFDEF3F0A98012E543D4FAF963FAFF8
:103080002EAFAF97380135E0630E711C7E018FE5DE
:10309000E80EF11CE0E4F0E0EC0FFD1F3496E99639
:1030A000FFAFEEAFE997E5964EAD5FADE597BE0198
:1030B0006F5F7F4FC5010F94E57C18160CF028C197
:1030C0002C85322F3871303109F0AEC0F10180818A
:1030D00091810197029708F4A7C02DB73EB7E196FA
:1030E0003FAF2EAFE197BE016F5F7F4FC7015DDF3E
:1030F00081E0F601908191118FC0E1E0F0E0D7010D
:103100000D900020E9F7EE19FF09EA0FFB1F319639
:103110002DB73EB72E1B3F0B0FB6F8943EBF0FBE28
:103120002DBFEDB7FEB731964F01882319F06AE540
:1031300073E001C0B601C4010F94CBBFB701C40155
:103140000F94ACBF6AE573E0C4010F94ACBFCE012D
:10315000805C9F4F99DE21E0A701B501E9968EAD15
:103160009FADE9970F947280811137C0F101808182
:103170009181892B91F5E4E0F9E064919F01662348
:10318000B9F0772767FD70958CE298E1EA962FAF4A
:10319000EA97EB963FAFEB9781DEEA962FADEA9781
:1031A000EB963FADEB972F5F3F4FF9016491E7CF6F
:1031B0006CE573E08CE298E10F9488B16AE070E00E
:1031C0008CE298E16BDEB7018CE298E10F9488B154
:1031D0006AE070E08CE298E161DEBE01605C7F4FE6
:1031E000CE018196F8DE20E030E0AE014F5D5F4F0A
:1031F000B401C80104DFCE01819657DECE01805CA8
:103200009F4F53DEE1962EAD3FADE1970FB6F89498
:103210003EBF0FBE2DBF47CF80E001900020E9F7F1
:103220003197EC19FD096BCF8981882309F470C0AF
:10323000853E09F438CF8E3209F435CFF801828902
:103240008E3209F430CF23FD2ECF81E0303109F0EA
:1032500080E0E796EEADFFADE7978083811108C06F
:103260008985873409F01FCF8A858E3709F41BCFF3
:10327000F1018081918181309105D9F082309105F1
:1032800011F1892B09F00FCFBE016F5F7F4FC30192
:103290008CDEB6018CE298E10F9488B1B3018CE228
:1032A00098E10F9488B16AE070E08CE298E1F6DD75
:1032B000FACEAF96EEADFFADAF97808191810196CA
:1032C00091838083F0CEBE016F5F7F4FC3016DDEBF
:1032D0004114510439F0B301C2010F9499BF892BF5
:1032E00079F416C0AD96FFADAD972F2F30E0AF96B5
:1032F000EEADFFADAF97808191812817390741F07E
:10330000AD96FFADAD97FF5FAD96FFAFAD97CBCE5E
:10331000E3962EAD3FADE3970FB6F8943EBF0FBED8
:103320002DBFC658DF4F0FB6F894DEBF0FBECDBF1E
:10333000DF91CF911F910F91FF90EF90DF90CF9091
:10334000BF90AF909F908F907F906F905F904F90C5
:103350003F902F9008950F931F93CF93DF93CDB796
:10336000DEB76F970FB6F894DEBF0FBECDBF8C01EE
:10337000FC01E055FD4F11821082855A9F4F7FDD81
:10338000B801695A7F4FCE01019625DE20E030E07A
:10339000AE014F5F5F4F69E177E0C80130DECE01DB
:1033A000019683DD6F960FB6F894DEBF0FBECDBFDA
:1033B000DF91CF911F910F9108952BE1FB0134967E
:1033C000DC01149601900D922A95E1F7FB01228110
:1033D0003381FC01338322830895EF92FF920F9390
:1033E0001F93CF93DF93EC011C82FC01E25AFF4F45
:1033F0008081882329F0CE01855A9F4F0F947B7ED0
:103400007E0181E3E81A8EEFF80A45E360E0C70128
:103410000F94FC7881113AC0E4E0F9E064918F01E7
:10342000662359F0772767FD70958CE298E136DDC9
:103430000F5F1F4FF8016491F3CFE7EFF8E064915D
:103440008F01662359F0772767FD70958CE298E12C
:1034500025DD0F5F1F4FF8016491F3CF6AE070E044
:103460008CE298E11BDD8E01095A1F4FB801CE0195
:1034700088589F4FA2DFCA58DF4F19830883DF9116
:10348000CF911F910F91FF90EF9008958E010C52F4
:103490001E4F41E0B701C8010F94658681112AC013
:1034A00040E0B701C8010F946586811123C0EAE0AE
:1034B000F9E064918F01662359F0772767FD7095D5
:1034C0008CE298E1EBDC0F5F1F4FF8016491F3CFC2
:1034D000E4EEF8E064918F01662309F4BFCF77270B
:1034E00067FD70958CE298E1D9DC0F5F1F4FF80102
:1034F0006491F2CFB801CE01855A9F4F0F94897B1A
:10350000811123C0EAE0F9E064918F01662359F04C
:10351000772767FD70958CE298E1C0DC0F5F1F4F45
:10352000F8016491F3CFE4EDF8E064918F01662334
:1035300009F494CF772767FD70958CE298E1AEDCB3
:103540000F5F1F4FF8016491F2CF81E08C83E4E0BC
:10355000F9E064918F01662359F0772767FD709534
:103560008CE298E19BDC0F5F1F4FF8016491F3CF71
:10357000E9ECF8E064918F01662309F46FCF7727B7
:1035800067FD70958CE298E189DC0F5F1F4FF801B1
:103590006491F2CFFC011282148208950F931F935D
:1035A000CF93DF93EC018C81882311F1E0ECF8E0FC
:1035B00064918F01662359F0772767FD70958CE23F
:1035C00098E16CDC0F5F1F4FF8016491F3CF4091DD
:1035D000650A5091660A6091670A7091680A22E054
:1035E00030E08CE298E10F9462B381E08A831B8221
:1035F000DF91CF911F910F910895FC018281882363
:1036000019F0128281E083830895AF92BF92CF9226
:10361000DF92EF92FF920F931F93CF93DF931F924E
:10362000CDB7DEB78C018FE2FB0181935F01D12C16
:1036300041E07801F3E3EF1AFEEFFF0A8FE1C82EB5
:103640002D2D30E0F7018081918128173907D8F4BA
:10365000C29EC001C39E900D112485569F4FB50197
:10366000800F911F49830F94307BC50149815C0114
:103670000196F5012081222321F04D3810F44F5F8F
:10368000F6CFD394DDCF47FD11C0B501C8018A50F4
:103690009E4F0F90DF91CF911F910F91FF90EF9070
:1036A000DF90CF90BF90AF900D94307BF5011082EA
:1036B0000F90DF91CF911F910F91FF90EF90DF90CE
:1036C000CF90BF90AF9008954F925F926F927F928C
:1036D0008F929F92AF92BF92CF92DF92EF92FF9222
:1036E0000F931F93CF93DF93CDB7DEB7AC970FB691
:1036F000F894DEBF0FBECDBF7C015B01FC0184816D
:10370000882309F4F9C0C7018A509E4F0F947B7E2D
:10371000F7011282CE0101966C01B6DB270196E714
:10372000490E511CC701895A9F4FF2019183808332
:10373000F50180818F3209F077C06FE270E0C5013A
:103740000F94B7BF8C010F5F1F4F09F473C06FE276
:1037500070E0C8010F94B7BF4C01009709F46BC02B
:103760000817190708F067C03C01601A710AA30125
:10377000B801CE0180960F94E0BFE0E2F0E0EC0FDC
:10378000FD1FE60DF71D1082BE01605E7F4F8CE2CB
:1037900098E10F9488B16AE070E08CE298E17EDBFA
:1037A000F201608171816115710519F06C5F7F4FC5
:1037B00002C060E070E021E0AE01405E5F4FCE01EC
:1037C00005960F94728081112AC0E5EAF7E06491B2
:1037D0008F01662359F0772767FD70958CE298E199
:1037E0005DDB0F5F1F4FF8016491F3CFBE01605E98
:1037F0007F4F8CE298E10F9488B1E3EAF7E064919F
:103800008F01662309F471C0772767FD70958CE2FC
:1038100098E144DB0F5F1F4FF8016491F2CFF20192
:10382000D182C08284018FCFC70188589F4FF20197
:10383000918380838501F20180819181009711F04D
:10384000049602C080E090E0B8010F94488188237C
:1038500021F1E5E9F7E064915F01662361F07727E4
:1038600067FD70958CE298E119DBFFEFAF1ABF0A94
:10387000F5016491F2CFB8018CE298E10F9488B120
:103880006AE070E08CE298E109DBF701E555FD4F55
:1038900010821182128213822DC0EDE7F7E064914D
:1038A0007F01662361F0772767FD70958CE298E1D0
:1038B000F5DAFFEFEF1AFF0AF7016491F2CFB801D2
:1038C0008CE298E10F9488B1EBE7F7E064918F0107
:1038D000662359F0772767FD70958CE298E1DEDA70
:1038E0000F5F1F4FF8016491F3CF6AE070E08CE244
:1038F00098E1D4DAC601D9DAAC960FB6F894DEBFF7
:103900000FBECDBFDF91CF911F910F91FF90EF9030
:10391000DF90CF90BF90AF909F908F907F906F90EF
:103920005F904F9008950F931F93CF93DF93EC0117
:103930008C81882309F43CC0E9E6F7E064918F01AB
:10394000662359F0772767FD70958CE298E1A6DA37
:103950000F5F1F4FF8016491F3CFFE01E555FD4F56
:1039600040815181628173812AE030E08CE298E1EC
:103970000F9464B2E7E6F7E064918F01662359F093
:10398000772767FD70958CE298E188DA0F5F1F4F0B
:10399000F8016491F3CFCD55DD4F488159816A819B
:1039A0007B812AE030E08CE298E10F9464B210C091
:1039B000E7E5F7E06491EF01662351F0772767FDB3
:1039C00070958CE298E16ADA2196FE016491F4CF59
:1039D0006AE070E08CE298E1DF91CF911F910F9146
:1039E0005DCAAF92BF92CF92DF92EF92FF920F9398
:1039F0001F93CF93DF935C01EB01FB01019000204B
:103A0000E9F78F0101501109061B170B6C01FAE051
:103A1000CF1AFEEFDF0AF60110826EE470E0CE01ED
:103A20000F94B7BF7C01009729F4F8013197EC0F90
:103A3000FD1F0DC060E270E00F94B7BFEC0121964E
:103A40006AE270E0C7010F94B7BFFC0131978DE0C7
:103A500081838AE082831382BE01C5018E509E4F0E
:103A60000F940E83F6018081882379F1EAE0F9E072
:103A70006491EF01662351F0772767FD70958CE222
:103A800098E10CDA2196FE016491F4CFE1E4F7E0CD
:103A90006491EF01662351F0772767FD70958CE202
:103AA00098E1FCD92196FE016491F4CF6AE070E0C0
:103AB0008CE298E1DF91CF911F910F91FF90EF90F1
:103AC000DF90CF90BF90AF90E9C9DF91CF911F9168
:103AD0000F91FF90EF90DF90CF90BF90AF9008953F
:103AE0002F923F924F925F926F927F928F929F920E
:103AF000AF92BF92CF92DF92EF92FF920F931F93FC
:103B0000CF93DF93CDB7DEB7CC55D1090FB6F8947C
:103B1000DEBF0FBECDBF4C018C0101551D4F66238A
:103B200039F0F8011082F401848181111DC015C0A3
:103B3000F8018081882309F4ABC0F401E955FD4FF9
:103B4000C080D180E280F3800F9401ACC616D70606
:103B5000E806F90608F49CC0E4CFC4013EDCF40199
:103B60008481882309F494C07401F5E5EF0EF11CFB
:103B7000F70181818F9380818F9388E397E09F93F2
:103B80008F938E01015C1F4F1F930F930F942EC0D4
:103B90000F900F900F900F900F900F90B12CF80195
:103BA00001900020E9F73197E01BF10BBE1684F479
:103BB0006801CB0CD11CB7FCDA94F60180819927FF
:103BC00087FD90950F9442BFF6018083B394E7CFB1
:103BD000FBE58F0E911CC40152D9512CCE010196E8
:103BE0006C0191E3692E97E0792E5E0191E2A90EB6
:103BF000B11C40E050E0B601C4010F94E57C1816FA
:103C0000DCF5412CF60101900020E9F73197EC1921
:103C1000FD094E1674F41601240C311C47FC3A942D
:103C2000F101808190E00F9442BFF10180834394C1
:103C3000E9CF8A858E37E9F245E050E0B801C60148
:103C40000F94D2BF892BA9F61F930F937F926F9287
:103C5000BF92AF920F942EC0C5010E94974F8DE284
:103C600097E00E9413500F900F900F900F900F90BD
:103C70000F9055245394BDCF511004C08FEF9FEF88
:103C8000F70104C0F70180819181019691838083BF
:103C9000C45ADF4F0FB6F894DEBF0FBECDBFDF9121
:103CA000CF911F910F91FF90EF90DF90CF90BF9039
:103CB000AF909F908F907F906F905F904F903F90CC
:103CC0002F900895EF92FF920F931F93CF93DF935E
:103CD0001F92CDB7DEB78C017C018AE0E81A8EEF27
:103CE000F80AC70169830F94317EC7010F947B7E68
:103CF000F801108211826981662309F407C180915D
:103D0000940A9091950AA091960AB091970A80938F
:103D10002B0B90932C0BA0932D0BB0932E0B80911B
:103D2000980A9091990AA0919A0AB0919B0A80935F
:103D3000270B9093280BA093290BB0932A0B80910B
:103D40009C0A90919D0AA0919E0AB0919F0A80932F
:103D5000230B9093240BA093250BB093260B8091FB
:103D6000EF0990E09093220B8093210B4091A00AE1
:103D70005091A10A6091A20A7091A30A40931D0B71
:103D800050931E0B60931F0B7093200BF7018085DF
:103D90009185A285B3858093190B90931A0BA093FC
:103DA0001B0BB0931C0B80910418909105189093F5
:103DB000160B8093150B809106189091071890931D
:103DC000180B8093170B8091021890910318909311
:103DD000140B8093130B80915E0290915F0290937D
:103DE000100B80930F0B8091ED099091EE09909349
:103DF000120B8093110B8091EB099091EC09909339
:103E0000FA0A8093F90A8091E20A8093F80A809175
:103E1000E30A9091E40A9093FC0A8093FB0A809154
:103E2000E50A9091E60A9093FE0A8093FD0A80913C
:103E3000E70A9091E80A9093000B8093FF0A809123
:103E4000E90A9091EA0A9093020B8093010B80910A
:103E5000EB0A9091EC0A9093040B8093030B8091F2
:103E6000ED0A9091EE0A9093060B8093050B8091DA
:103E7000EF0A9091F00A9093080B8093070B8091C2
:103E8000F10A9091F20A90930A0B8093090B8091AA
:103E9000F30A9091F40A90930C0B80930B0B809192
:103EA000F50A9091F60A90930E0B80930D0B0E94E9
:103EB000D96790937702809376020E94676B609334
:103EC0007202709373028093740290937502E1E220
:103ED000F7E064918F01662361F0772767FD7095A5
:103EE0008CE298E10E944E170F5F1F4FF80164911A
:103EF000F2CF6AE070E08CE298E10F90DF91CF9111
:103F00001F910F91FF90EF900C944E170F90DF913F
:103F1000CF911F910F91FF90EF900895CF92DF9274
:103F2000EF92FF920F931F93CF93DF93CDB7DEB73E
:103F30006F970FB6F894DEBF0FBECDBF8C016A013C
:103F40007C0186E7E80EF11CC80188589F4FF701F5
:103F500091838083E65CFD4F22E030E03183208353
:103F600032967183608304960E943F17F701608147
:103F70007181CE0101962FD89601AE014F5F5F4F40
:103F800069E177E0C8013BD8CE0101960E94551740
:103F90006F960FB6F894DEBF0FBECDBFDF91CF9105
:103FA0001F910F91FF90EF90DF90CF900895CF92E7
:103FB000DF92EF92FF920F931F93CF93DF93CDB7D2
:103FC000DEB76F970FB6F894DEBF0FBECDBF8C0182
:103FD0006C0126E7C20ED11C88589F4FF6019183D1
:103FE0008083E65CFD4F21E030E03183208378015F
:103FF000FEE4EF1AFDEFFF0AF7011182108204962A
:104000000E943F17F60160817181CE0101960E94E6
:10401000EB1720E030E0AE014F5F5F4F69E177E0E2
:10402000C8010E94FF17CE0101960E945517F701A3
:10403000808191816F960FB6F894DEBF0FBECDBF21
:10404000DF91CF911F910F91FF90EF90DF90CF9074
:1040500008952F923F924F925F926F927F928F922C
:104060009F92AF92BF92CF92DF92EF92FF920F9307
:104070001F93CF93DF93CDB7DEB7C257D1090FB6E9
:10408000F894DEBF0FBECDBF8C012B01E1964FAF80
:10409000E197FC018481882309F430C4E750FE4F86
:1040A0008081882309F412C12111D9C07801FFEE63
:1040B000EF1AFDEFFF0AF7018081882309F435C06C
:1040C000EAE0F9E064918F01662361F0772767FDEC
:1040D00070958CE298E10E944E170F5F1F4FF80118
:1040E0006491F2CFEDE7F8E064918F01662361F00F
:1040F000772767FD70958CE298E10E944E170F5F5D
:104100001F4FF8016491F2CF4AE050E061E070E0A7
:104110008CE298E10F9437B26AE070E08CE298E1AB
:104120000E944E170E9434A7E9C3E4E0F9E06491CD
:104130006F01662369F0772767FD70958CE298E13F
:104140000E944E17FFEFCF1ADF0AF6016491F1CFFC
:10415000E4E6F8E064916F01662369F0772767FD74
:1041600070958CE298E10E944E17FFEFCF1ADF0A9C
:10417000F6016491F1CFB2018CE298E10F9488B11D
:10418000E9E5F8E064916F01662369F0772767FD40
:1041900070958CE298E10E944E17FFEFCF1ADF0A6C
:1041A000F6016491F1CFF70180812DE8D22EB8019C
:1041B000D89E600D711D11246A5E7D4FC80125DAFD
:1041C000F7018081B801D89E600D711D11246A5ECF
:1041D0007D4F8CE298E10F9488B1E3E5F8E06491BB
:1041E0006F01662369F0772767FD70958CE298E18F
:1041F0000E944E17FFEFCF1ADF0AF6016491F1CF4C
:104200006801F5E5CF1AFDEFDF0AF6014081518123
:10421000628173812AE030E08CE298E10F9464B20D
:104220006AE070E08CE298E10E944E17F70120816D
:10423000F80184E0289FE00DF11D1124AF014E5ECE
:104240005D4FF60180819181A281B381FA01808363
:104250009183A283B3832F5FF701208331C0E4E011
:10426000F9E064917F01662369F0772767FD709517
:104270008CE298E10E944E17FFEFEF1AFF0AF70158
:104280006491F1CFE2E4F8E064917F01662369F084
:10429000772767FD70958CE298E10E944E17FFEF3B
:1042A000EF1AFF0AF7016491F1CFB2018CE298E1B5
:1042B0000F9488B16AE070E08CE298E10E944E179A
:1042C000C8018A509E4F0F947B7E35C0F801EF5E87
:1042D000FD4F1082E4E0F9E064917F01662369F00C
:1042E000772767FD70958CE298E10E944E17FFEFEB
:1042F000EF1AFF0AF7016491F1CFE1E3F8E064916E
:104300007F01662369F0772767FD70958CE298E15D
:104310000E944E17FFEFEF1AFF0AF7016491F1CFE9
:10432000B2018CE298E10F9488B16AE070E08CE20F
:1043300098E10E944E17F80112821E01F0E22F0E42
:10434000311CC1010E944417C8018A589F4FAC9686
:104350009FAF8EAFAC974F97AC96EEADFFADAC97DD
:1043600091838083F20180818F3209F051C16FE225
:1043700070E0C2010F94B7BF01967C01C80180555F
:104380009D4FE0969FAF8EAFE097F801EE54FD4F42
:10439000AE96FFAFEEAFAE974E01FFE38F0E911CCE
:1043A000380185E0680E711CE114F10409F49AC12A
:1043B0006FE270E0C7010F94B7BF6C01009709F47A
:1043C00092C1E816F90608F08EC15C01AE18BF086C
:1043D000A501B701CE01835A9F4F0F94E0BFEDE5D1
:1043E000F0E0EC0FFD1FEA0DFB1D1082BE01635AC9
:1043F0007F4F8CE298E10F9488B16AE070E08CE224
:1044000098E10E944E17AC96EEADFFADAC9760817F
:1044100071816115710519F06C5F7F4F02C060E01A
:1044200070E021E0AE01435A5F4FCE0184960F94B5
:10443000728081112CC0EDE1F8E064918F01662358
:1044400061F0772767FD70958CE298E10E944E1726
:104450000F5F1F4FF8016491F2CFBE01635A7F4F87
:104460008CE298E10F9488B1EBE1F8E064918F0160
:10447000662309F43AC2772767FD70958CE298E1CC
:104480000E944E170F5F1F4FF8016491F1CFAC9659
:10449000EEADFFADAC97318220827601FFEFEF1ACF
:1044A000FF0A80916A0B81117FCF81E090E0E09656
:1044B000EEADFFADE09791838083AE96EEADFFAD9C
:1044C000AE9711821082CE0184960E943F17B101EF
:1044D000CE0101960E94EB1720E030E0AE014F5F65
:1044E0005F4F69E177E0C8010E94FF17CE01019696
:1044F0000E945517AE96EEADFFADAE97A080B1808D
:104500008EE1F40111928A95E9F77F926F929F9262
:104510008F920F9400C00F900F900F900F90640136
:10452000F6018081882349F0992787FD90950F94A3
:1045300042BFF60181936F01F3CFC12CD12CB7019B
:10454000C4010F94C2BF892B09F45BC0CA14DB04F9
:104550000CF057C082E090E0E096EEADFFADE09742
:1045600091838083AE96EEADFFADAE97D182C082CF
:10457000AC96EEADFFADAC978081918104960E9420
:104580003F17B101CE0101960E94EB1720E030E009
:10459000AE014F5F5F4F69E177E0C8010E94FF17EE
:1045A000CE0101960E945517F4018EE111928A9571
:1045B000E9F77F926F929F928F920F9400C00F90B5
:1045C0000F900F900F909401F90180818823A9F03A
:1045D000992787FD9095E2962FAFE297E3963FAF3C
:1045E000E3970F9442BFE2962FADE297E3963FAD7B
:1045F000E397F90181939F01E7CFFFEFCF1ADF0A1D
:104600009ECFAE96EEADFFADAE9711821082CCCEAE
:10461000C80188589F4FAC96EEADFFADAC97918323
:10462000808380916A0B81115DC0C801C0DC4C01A0
:10463000CE0101967C018EE1F70111928A95E9F78E
:104640005801F5E0AF0EB11CBF92AF92FF92EF920E
:104650000F9400C00F900F900F900F906701F6011C
:104660008081882349F0992787FD90950F9442BF58
:10467000F60181936F01F3CFC12CD12CB201C70198
:104680000F94C2BF892B49F1C814D90434F540E016
:1046900050E0B601C80142DCF7018EE111928A9523
:1046A000E9F7BF92AF92FF92EF920F9400C00F9084
:1046B0000F900F900F903701F3018081882349F00C
:1046C000992787FD90950F9442BFF30181933F0195
:1046D000F3CFFFEFCF1ADF0AD1CFF801EE54FD4F31
:1046E000118210827201C8018A509E4F6C01E196BE
:1046F0009FADE197AC96EEADFFADAC976081718157
:10470000992309F4A0C06115710519F06C5F7F4F02
:1047100002C060E070E021E0A701C6010F94728042
:10472000882309F466C0F60181899289A389B48936
:10473000F801ED55FD4F80839183A283B383EDE0B3
:10474000F8E064915F01C8018D559D4F6C016623AF
:1047500069F0772767FD70958CE298E10E944E170B
:104760009FEFA91AB90AF5016491F1CFB7018CE264
:1047700098E10F9488B1E5E0F8E064917F01662349
:1047800069F0772767FD70958CE298E10E944E17DB
:10479000FFEFEF1AFF0AF7016491F1CFF6014081B4
:1047A0005181628173812AE030E08CE298E10F94BC
:1047B00064B26AE070E08CE298E10E944E17F80162
:1047C000E555FD4F1082118212821382E7EFF7E068
:1047D00064918F01662309F488C0772767FD70957F
:1047E0008CE298E10E944E170F5F1F4FF801649111
:1047F000F1CFE3EEF7E064918F01662361F0772754
:1048000067FD70958CE298E10E944E170F5F1F4F75
:10481000F8016491F2CFB7018CE298E10F9488B16E
:10482000E1EEF7E064918F01662309F45EC077271B
:1048300067FD70958CE298E10E944E170F5F1F4F45
:10484000F8016491F1CF6115710519F06C5F7F4F2C
:1048500002C060E070E026E5A701C6010F947280F7
:10486000811129C0EDECF7E064918F01662361F0BE
:10487000772767FD70958CE298E10E944E170F5FD5
:104880001F4FF8016491F2CFB7018CE298E10F94C9
:1048900088B1EBECF7E064918F01662331F1772763
:1048A00067FD70958CE298E10E944E170F5F1F4FD5
:1048B000F8016491F2CF81E0F8018083E9EBF7E041
:1048C00064918F01662361F0772767FD70958CE214
:1048D00098E10E944E170F5F1F4FF8016491F2CFCD
:1048E000B2018CE298E10F9488B16AE070E08CE24A
:1048F00098E10E944E17C1010E945517CE58DF4F14
:104900000FB6F894DEBF0FBECDBFDF91CF911F91E0
:104910000F91FF90EF90DF90CF90BF90AF909F905E
:104920008F907F906F905F904F903F902F90089561
:1049300021E0FC01218340E08CCBAF92BF92CF926B
:10494000DF92EF92FF920F931F93CF93DF93CDB738
:10495000DEB76F970FB6F894DEBF0FBECDBF8C01E8
:104960007B01CE0101960E944417F801E158FF4FE8
:1049700080816801811104C027E5C20ED11C03C0EB
:1049800088E7C80ED11C21E0A701B6016C5F7F4FFC
:10499000CE0105960F947280811136C0E4E0F9E0F3
:1049A00064918F01662361F0772767FD70958CE233
:1049B00098E10E944E170F5F1F4FF8016491F2CFEC
:1049C000EBE0F7E064918F01662361F0772767FDE4
:1049D00070958CE298E10E944E170F5F1F4FF8010F
:1049E0006491F2CFB7018CE298E10F9488B16AE04C
:1049F00070E08CE298E10E944E17CE0101960E9471
:104A000055178FEF9FEF3AC0F801E353FE4F8081B7
:104A100091818A30910530F59C012F5F3F4F3183A2
:104A200020832FE1289F7001299FF00C1124F7E9C2
:104A3000EF0EF11CE00EF11E5C01B701C7014F96AD
:104A40000E94DD1921E0A21AB1088FE1E81AF108ED
:104A5000EFEFAE16BE0689F7B601C80189569F4F23
:104A60000E94DD19BE016F5F7F4FC80188589F4FBC
:104A70000E94DD19CE0101960E9455176F960FB660
:104A8000F894DEBF0FBECDBFDF91CF911F910F9184
:104A9000FF90EF90DF90CF90BF90AF900895EF928E
:104AA000FF920F931F93CF93DF93EC01C353DE4F1D
:104AB000288139812115310529F1215031093983A6
:104AC00028838C0109561F4FB80188589F4F0E94B8
:104AD000DD19C80100E010E0288139817C014FE137
:104AE000E40EF11C0217130738F40F5F1F4FB701D4
:104AF0000E94DD19C701F0CF81E090E0232B21F067
:104B000080E002C08FEF9FEFDF91CF911F910F9157
:104B1000FF90EF9008958F929F92AF92BF92CF92A5
:104B2000DF92EF92FF920F931F93CF93DF93EC01ED
:104B30001092B00A80911E0A90911F0A01969093DC
:104B40001F0A80931E0AF5D24091991450919A142D
:104B500060919B1470919C1440939D1450939E14EB
:104B600060939F147093A01486E097E00E94135006
:104B70000F9411907E018FEEE81A8DEFF80AF7017D
:104B800080818E010A501E4F8823D1F1C8010F94F5
:104B90007B7EF701808181508083BE01FDE88F9F7D
:104BA000600D711D11246A5E7D4F21E041E0CE0150
:104BB00050DAF7018081FE0194E0899FE00DF11D3C
:104BC0001124EE5EFD4F4081518162817381FE01AF
:104BD000E555FD4F4083518362837383C8010F9471
:104BE000987DCE01DF91CF911F910F91FF90EF90B3
:104BF000DF90CF90BF90AF909F908F900C94CE1A83
:104C00000F94A290C8010F947B7E1A8220E030E0BE
:104C100045E050E06AE070E089E89EE00E94C13F14
:104C200083E097E00E9413500F9411908EEF96E06E
:104C30000E94135083E090E00E94D4671092051800
:104C40001092041810920718109206181092031868
:104C5000109202181092EC091092EB091092300B8E
:104C600010922F0B1092340B1092330B1092320BC8
:104C70001092310B1092F70A10926A0B1092690B86
:104C80001092680B6091240A7091250A8091260A7F
:104C90009091270A2CE330E040E050E00F944EB9A9
:104CA0003093210A2093200A7093230A6093220AEA
:104CB000C090B514D090B614E090B714F090B8142A
:104CC0002091100A3091110A4091120A5091130A52
:104CD0006091140A7091150A8091160A9091170A32
:104CE0000F94A5B54B015C012091F9143091FA1491
:104CF0004091FB145091FC146091FD147091FE14CE
:104D00008091FF14909100150F94E6B5A7019601CC
:104D10000F94D2B49B01AC01C501B4010F94F2B35E
:104D20000F943AB52093100A3093110A4093120A57
:104D30005093130A6093140A7093150A8093160A0D
:104D40009093170A2091080A3091090A40910A0AA3
:104D500050910B0A60910C0A70910D0A80910E0A15
:104D600090910F0A0F94A5B54B015C012091F114AD
:104D70003091F2144091F3145091F4146091F514B1
:104D80007091F6148091F7149091F8140F94E6B591
:104D9000A70196010F94D2B49B01AC01C501B401E7
:104DA0000F94F2B30F943AB52093080A3093090A8E
:104DB00040930A0A50930B0A60930C0A70930D0AF1
:104DC00080930E0A90930F0A2091000A3091010AF5
:104DD0004091020A5091030A6091040A7091050AF9
:104DE0008091060A9091070A0F94A5B56B017C018A
:104DF0002091E9143091EA144091EB145091EC1495
:104E00006091ED147091EE148091EF149091F01474
:104E10000F94E6B52091B9143091BA144091BB14A7
:104E20005091BC140F94D2B49B01AC01C701B601E0
:104E30000F94F2B30F943AB52093000A3093010A0D
:104E40004093020A5093030A6093040A7093050A80
:104E50008093060A9093070AC090C114D090C214A0
:104E6000E090C314F090C4142091F8093091F9092E
:104E70004091FA095091FB096091FC097091FD097C
:104E80008091FE099091FF090F94A5B54B015C013B
:104E90002091E1143091E2144091E3145091E41414
:104EA0006091E5147091E6148091E7149091E814F4
:104EB0000F94E6B5A70196010F94D2B49B01AC0103
:104EC000C501B4010F94F2B30F943AB52093F809D9
:104ED0003093F9094093FA095093FB096093FC0958
:104EE0007093FD098093FE099093FF092091F009CA
:104EF0003091F1094091F2095091F3096091F40960
:104F00007091F5098091F6099091F7090F94A5B574
:104F10004B015C012091D9143091DA144091DB14DB
:104F20005091DC146091DD147091DE148091DF14D7
:104F30009091E0140F94E6B5A70196010F94D2B4B6
:104F40009B01AC01C501B4010F94F2B30F943AB5C3
:104F50002093F0093093F1094093F2095093F3093B
:104F60006093F4097093F5098093F6099093F7091B
:104F70001092F9141092FA141092FB141092FC146F
:104F80001092FD141092FE141092FF14109200154E
:104F90001092F1141092F2141092F3141092F4146F
:104FA0001092F5141092F6141092F7141092F8144F
:104FB0001092E9141092EA141092EB141092EC146F
:104FC0001092ED141092EE141092EF141092F0144F
:104FD0001092E1141092E2141092E3141092E4146F
:104FE0001092E5141092E6141092E7141092E8144F
:104FF0001092D9141092DA141092DB141092DC146F
:105000001092DD141092DE141092DF141092E0144E
:1050100090D082EF96E00E94135080915014882324
:10502000F9F010925014C091EF09D0E0CC0FDD1FC1
:10503000CC5FD74E68817981882777FD8095982F3E
:105040000F94ABB52091BE023091BF024091C002D7
:105050005091C1020F945AB7181614F4198218828D
:10506000DF91CF911F910F91FF90EF90DF90CF9044
:10507000BF90AF909F908F9008958D559D4FFC01EC
:105080006081718182819381089585559D4FFC01D6
:1050900060817181828193810895EF92FF920F93D5
:1050A0001F93CF93DF931F92CDB7DEB78C017B01A7
:1050B000460FF70161917F01F80180819181498359
:1050C0000F942CC5F8018081918101969183808392
:1050D00049814E11EECF0F90DF91CF911F910F912B
:1050E000FF90EF900895EF92FF920F931F93CF934D
:1050F000DF931F92CDB7DEB78C017B01460FF8011D
:105100008081918149830F9424C5F70181937F01A8
:10511000F8018081918101969183808349814E11AC
:10512000EECF0F90DF91CF911F910F91FF90EF90F5
:1051300008950F931F93CF93DF93CDB7DEB7689792
:105140000FB6F894DEBF0FBECDBF80E390E3A0E3BF
:10515000B0E08D839E83AF83B88704E610E0188F9C
:105160000F8B44E0BE016B5F7F4FCE01479695DF0A
:1051700040E165EB74E1CE0147968FDF40E165ECDD
:1051800074E1CE01479689DF40E165EA74E1CE0122
:10519000479683DF44E06DE974E1CE0147967DDFF9
:1051A00044E065E974E1CE01479677DF44E061EAC7
:1051B00074E1CE01479671DF44E065E874E1CE0109
:1051C00047966BDF44E065ED74E1CE01479665DFFD
:1051D00044E061E974E1CE0147965FDF44E06DE8A9
:1051E00074E1CE01479659DF44E069E874E1CE01ED
:1051F000479653DF4CE068E77AE0CE0147964DDFF3
:1052000087ED90E09E8B8D8B8DE290E09C8B8B8B5D
:105210001A8A198A80EF90E0988B8F8786E490E055
:105220009E878D871C861B8642E0BE016B5E7F4F8A
:10523000CE01479632DF42E0BE016D5E7F4FCE0168
:1052400047962BDF42E0BE016F5E7F4FCE0147964F
:1052500024DF42E0BE01615F7F4FCE0147961DDF34
:1052600042E0BE01635F7F4FCE01479616DF42E00A
:10527000BE01655F7F4FCE0147960FDF44E065E6D4
:105280007AE0CE01479609DF44E06BE272E0CE019E
:10529000479603DF44E063E372E0CE014796FDDE0C
:1052A00044E06BE372E0CE014796F7DE42E06BED3F
:1052B0007AE0CE014796F1DE42E06FED7AE0CE0172
:1052C0004796EBDE42E06DED7AE0CE014796E5DEF3
:1052D00042E069ED7AE0CE014796DFDE42E06BEC1A
:1052E0007AE0CE014796D9DE42E06FEC7AE0CE015B
:1052F0004796D3DE42E06DEC7AE0CE014796CDDEF4
:1053000042E069EC7AE0CE014796C7DE42E063ED09
:105310007AE0CE014796C1DE42E067ED7AE0CE0149
:105320004796BBDE42E065ED7AE0CE014796B5DEFA
:1053300042E061ED7AE0CE014796AFDE42E063ECF9
:105340007AE0CE014796A9DE42E067EC7AE0CE0132
:105350004796A3DE42E065EC7AE0CE0147969DDEFB
:1053600042E061EC7AE0CE01479697DE44E06DE1E1
:1053700073E0CE01479691DE44E065E173E0CE0133
:1053800047968BDE44E06DE073E0CE01479685DE04
:1053900044E061E273E0CE0147967FDE44E069E1DC
:1053A00073E0CE01479679DE44E061E173E0CE011F
:1053B000479673DE42E06AE27AE0CE0147966DDE00
:1053C00042E06EE17AE0CE01479667DE42E06CE1B2
:1053D0007AE0CE01479661DE42E06AE17AE0CE01F2
:1053E00047965BDE42E068E27AE0CE01479655DE02
:1053F00042E068E17AE0CE0147964FDE80E290E03D
:105400009A87898742E0BE01675F7F4FCE0147964A
:1054100044DE42E062E77BE0CE0147963EDE44E0B8
:105420006EE67BE0CE01479638DE42E06CE67BE03C
:10543000CE01479632DE42E062E27AE0CE01479644
:105440002CDE42E060E27AE0CE01479626DE48E0BC
:1054500060E17AE0CE01479620DE48E068E07AE03D
:10546000CE0147961ADE48E060E07AE0CE0147962A
:1054700014DE48E068EF79E0CE0147960EDE48E0A2
:1054800060EF79E0CE01479608DE42E060E772E027
:10549000CE01479602DE42E068E772E0CE01479611
:1054A000FCDD44E06BE27BE0CE014796F6DD44E0B4
:1054B00067E27BE0CE014796F0DD44E063E27BE00B
:1054C000CE014796EADD42E061E27BE0CE014796FD
:1054D000E4DD44E06DE17BE0CE014796DEDD44E0B3
:1054E00069E17BE0CE014796D8DD42E067E17BE0F1
:1054F000CE014796D2DD42E065E17BE0CE014796E2
:10550000CCDD42E063E17BE0CE014796C6DD42E0C0
:1055100061E17BE0CE014796C0DD42E06FE07BE0D9
:10552000CE014796BADD41E068EF7AE0CE014796BA
:10553000B4DD42E06BEF7AE0CE014796AEDD42E0AB
:105540006DEF7AE0CE014796A8DD42E06FEF7AE09A
:10555000CE014796A2DD42E061E07BE0CE014796B6
:105560009CDD42E063E07BE0CE01479696DD42E0C1
:1055700065E07BE0CE01479690DD42E067E07BE0AE
:10558000CE0147968ADD42E069E07BE0CE01479696
:1055900084DD42E06BE07BE0CE0147967EDD42E0B9
:1055A0006DE07BE0CE01479678DD44E069E974E187
:1055B000CE01479672DD42E064E47BE0CE0147967F
:1055C0006CDD44E061E67AE0CE01479666DD44E0BA
:1055D0006DE57AE0CE01479660DD44E06CE27AE06A
:1055E000CE0147965ADD44E060E37AE0CE0147966B
:1055F00054DD44E064E37AE0CE0147964EDD44E0BA
:1056000068E37AE0CE01479648DD42E066E772E063
:10561000CE01479642DD44E062E772E0CE01479654
:105620003CDD42E06BEE79E0CE01479636DD42E0AC
:105630006BE57AE0CE01479630DD42E062E472E04D
:10564000CE0147962ADD86E591E3A2E3B0E08983A7
:105650009A83AB83BC83188F0F8B44E0BE016F5FCE
:105660007F4FCE01479619DDECEAFFE064918F0190
:10567000662361F0772767FD70958CE298E10E94C0
:105680004E170F5F1F4FF8016491F2CFECE9FFE076
:1056900064918F01662361F0772767FD70958CE236
:1056A00098E10E944E170F5F1F4FF8016491F2CFEF
:1056B0006AE070E08CE298E10E944E1768960FB69F
:1056C000F894DEBF0FBECDBFDF91CF911F910F9138
:1056D00008950F931F93CF93DF93CCEADFE0FE0191
:1056E00064918E01662361F0772767FD70958CE2E7
:1056F00098E10E944E170F5F1F4FF8016491F2CF9F
:10570000ECE8FFE064918F01662361F0772767FD85
:1057100070958CE298E10E944E170F5F1F4FF801C1
:105720006491F2CF6AE070E08CE298E10E944E173B
:10573000FE0164910CEA1FE0662361F0772767FDA4
:1057400070958CE298E10E944E170F5F1F4FF80191
:105750006491F2CF4091B5145091B6146091B71492
:105760007091B81484E89FE00E942B4F4091B914C7
:105770005091BA146091BB147091BC1481E89FE001
:105780000E942B4F4091BD145091BE146091BF14E4
:105790007091C0148EE79FE00E942B4F4091C1147E
:1057A0005091C2146091C3147091C4148BE79FE0B0
:1057B0000E942B4F69E177E08CE298E10F9488B169
:1057C0006AE070E08CE298E10E944E17FE0164915D
:1057D0000CEA1FE0662361F0772767FD70958CE285
:1057E00098E10E944E170F5F1F4FF8016491F2CFAE
:1057F000E1E6FFE064918F01662361F0772767FDA2
:1058000070958CE298E10E944E170F5F1F4FF801D0
:105810006491F2CF6AE070E08CE298E10E944E174A
:10582000FE0164910CEA1FE0662361F0772767FDB3
:1058300070958CE298E10E944E170F5F1F4FF801A0
:105840006491F2CF4091C5145091C6146091C71471
:105850007091C81488E59FE00E942B4F4091C914B5
:105860005091CA146091CB147091CC1485E59FE0DF
:105870000E942B4F4091CD145091CE146091CF14C3
:105880007091D01482E59FE00E942B4F4091D1147B
:105890005091D2146091D3147091D4148FE49FE08E
:1058A0000E942B4F69E177E08CE298E10F9488B178
:1058B0006AE070E08CE298E10E944E17FE0164916C
:1058C0000CEA1FE0662361F0772767FD70958CE294
:1058D00098E10E944E170F5F1F4FF8016491F2CFBD
:1058E000E1E3FFE064918F01662361F0772767FDB4
:1058F00070958CE298E10E944E170F5F1F4FF801E0
:105900006491F2CF6AE070E08CE298E10E944E1759
:10591000FE0164910CEA1FE0662361F0772767FDC2
:1059200070958CE298E10E944E170F5F1F4FF801AF
:105930006491F2CF4091A5145091A6146091A714E0
:105940007091A81488E29FE00E94734F4091A914BF
:105950005091AA146091AB147091AC1485E29FE051
:105960000E94734F4091AD145091AE146091AF14EA
:105970007091B01482E29FE00E94734F4091B11485
:105980005091B2146091B3147091B4148FE19FE000
:105990000E94734F69E177E08CE298E10F9488B13F
:1059A0006AE070E08CE298E10E944E17FE0164917B
:1059B0000CEA1FE0662361F0772767FD70958CE2A3
:1059C00098E10E944E170F5F1F4FF8016491F2CFCC
:1059D000EAEEFEE064918F01662361F0772767FDB0
:1059E00070958CE298E10E944E170F5F1F4FF801EF
:1059F0006491F2CF6AE070E08CE298E10E944E1769
:105A0000FE0164910CEA1FE0662361F0772767FDD1
:105A100070958CE298E10E944E170F5F1F4FF801BE
:105A20006491F2CF40919D1450919E1460919F1407
:105A30007091A01481EE9EE00E942B4F409195142E
:105A40005091961460919714709198148EED9EE089
:105A50000E942B4F69E177E08CE298E10F9488B1C6
:105A60006AE070E08CE298E10E944E17FE016491BA
:105A70000CEA1FE0662361F0772767FD70958CE2E2
:105A800098E10E944E170F5F1F4FF8016491F2CF0B
:105A9000EBE2FEE064918F01662361F0772767FDFA
:105AA00070958CE298E10E944E170F5F1F4FF8012E
:105AB0006491F2CF6AE070E08CE298E10E944E17A8
:105AC000FE0164910CEA1FE0662361F0772767FD11
:105AD00070958CE298E10E944E170F5F1F4FF801FE
