:100000000C9488150C94B9150C94B9150C94B91569
:100010000C94B9150C94B9150C94B9150C94B91528
:100020000C94B9150C94B9150C94B9150C94B91518
:100030000C94B9150C94B9150C94B9150C94B91508
:100040000C94B9150C944F9D0C94B9150C94B915DA
:100050000C94B9150C94B9150C949DFF0C9476FD75
:100060000C94B9150C94FEFA0C9448FB0C94B91539
:100070000C94B9150C94B9150C94B9150C94B915C8
:100080000C94B9150C94B9150C94B9150C94B915B8
:100090000C94B9150C94B9150C94B9150C94B915A8
:1000A0000C94B9150C94B9150C94B9150C94B91598
:1000B0000C94B9150C94B9150C94B9150C94B91588
:1000C0000C94B9150C94B9150C94B9150C94D5FA77
:1000D0000C94A5EF0C94B9150C94B9150C94B915A2
:1000E0000C94B915D527186F3328DB23186F7F1AA6
:1000F000186FCB1A186F186F8B38711B186F186F29
:100100003F192C19186F5B39186F186F186F003F63
:10011000293F25494E49304D186F9940FA405B41BF
:10012000E7432543AD399F39B0238643186FA51A9D
:10013000031A186F0023503C8423AB48186F5823D0
:100140002C23D448FC48186F0228523F5E33103DE0
:10015000F61A7A195219186F2931E91CB64C186F22
:10016000DF4C971E77493C2C186F854E06328D5018
:10017000BE2CA8497B3F594D521DA32AA32AC12951
:10018000442DCA2DD81E881B9F1B2D1B341F1319ED
:100190006619186F186F186F9428F41F4120CA1B36
:1001A000C93B833BA43FCD3FF53F1E4047407040D5
:1001B0008C41B541DE410742304259428142AA4258
:1001C000D342FC429F44184436453147BB4655460E
:1001D000186F074D891F8F20CA219428F1291C2AE6
:1001E0005D2A8048904B134C874C55482F34BF19DB
:1001F0003A588F27186F186FB455186F2A3BBB39C0
:100200000D2F6A2FC52F572E3B2F972FF32F7C30A2
:100210004F3077266326933A0624FA24F3252C26BA
:10022000DF5588265F272230186F186F186F186FF8
:10023000186F186F186F186F186F503CF11B1C1C4B
:10024000651C6D57DD57E34B474C7749874C824D12
:10025000464E186FF54F3650744FB94F4A4FBE5047
:10026000186FC036C235B85320351139FC53186F9A
:10027000186FCE514752C2523D53A351EF503E51D9
:10028000405465550457186F186F9856186F186FBB
:100290003857186F7D1D93989D999F9A779AC299A8
:1002A000569A2E9AD598FD982599209B489B8A9B13
:1002B000B29B75994D99FC9975FA78FA67FA6BFAC1
:1002C00071FAAFFA7CFA80FA86FA8AFA8EFA94FA10
:1002D00098FA9CFAAFFAA2FAA6FAAAFA92FC97FC4C
:1002E0009CFCA6FCB0FC29FDBAFCC2FCCAFCD4FCF8
:1002F000DEFCE8FCF7FC01FD29FD0BFD15FD1FFDF3
:10030000CB01B701B301BB01C301BD01C101C701ED
:10031000CD01C501C901084AD73B3BCE016E84BC63
:10032000BFFDC12F3D6C74319ABD56833DDA3D004F
:10033000C77F11BED9E4BB4C3E916BAAAABE000098
:1003400000803F05A84CCDB2D44EB93836A9020C76
:1003500050B9918688083CA6AAAA2ABE000000804F
:100360003F000D9418850D9450000D94A9680D94CC
:1003700034000D94D4680D945D000D9484000D94A8
:1003800041850D949E000D9477000D94A4000D946A
:10039000A0000D94AC000D9427000D94A2004E41D6
:1003A0004E494E495459494E46CDCCCC3D0AD723EF
:1003B0003C17B7D13877CC2B329595E6241FB14F37
:1003C0000A000020410000C84200401C4620BCBE7C
:1003D0004CCA1B0E5AAEC59D746364696E6F707310
:1003E0007578585B0025336420256343002533640A
:1003F0002025634300456E74657220696E20707518
:10040000726765206D6F6465200A005375726669B6
:100410006E672031200A0053757266696E6720305E
:10042000200A0047333400494E464F3A20424544A3
:100430002043414C4942202D200053757266696E5D
:10044000672030200A0047323820583020593000C9
:1004500054300053757266696E672030200A004779
:1004600034330047343300473431004734300047D9
:100470003433004734330047343100473430004DC3
:100480003834004D3834004D3834005A32204F662D
:10049000667365743A20004F4B207365636F6E641A
:1004A00020457874727564657221005A20706F73EC
:1004B0006974696F6E3A20005A20706F73697469AD
:1004C0006F6E3A20004D3834005A312050726F62FE
:1004D00065206F66667365743A20004F4B2066692D
:1004E00072737420457874727564657221200A00F5
:1004F0005A20706F736974696F6E3A20005A2070C9
:100500006F736974696F6E3A200043616C63756C38
:1005100075733A20200043616C63756C75733A20E3
:10052000200043616C63756C75733A202000436151
:100530006C63756C75733A20200046696C616D655B
:100540006E742052656D6F7665642C20474F494E5E
:100550004720544F20434C45414E20544845204E9F
:100560004F5A5A4C45200A0046696C616D656E749D
:1005700020496E7365727465642F52656D6F766580
:10058000642C2072657475726E696E6720746F20BA
:100590004D61696E204D656E75200A00543000462D
:1005A000696C616D656E7420496E73657274656403
:1005B0002F52656D6F7665642C20676F696E6720BA
:1005C000746F2043616C6962200A005430004669F0
:1005D0006C616D656E7420496E7365727465642F0D
:1005E00052656D6F7665642C20676F696E67207445
:1005F0006F20746865206E657874206578747275F4
:10060000646572200A0054300043616C6962726153
:1006100074696F6E205375636365737366756C2CB4
:1006200020676F696E67206261636B20746F206D55
:1006300061696E206D656E75200A005430004A7540
:100640006D70206F766572207363726577312061FB
:100650006E6420736372657732200A004A756D708C
:10066000206F76657220736372657731200A0047C8
:1006700033340047333400473334005430004733B9
:100680003400494E464F3A204245442043414C49AC
:1006900042202D2000363020646567726565732026
:1006A0000A00496E73657274696E67203A202020D3
:1006B0000A0053757266696E672030200A00537510
:1006C0007266696E672030200A0053757266696E23
:1006D000672030200A00253364202563430025333A
:1006E0006420256343002533642025634300456E61
:1006F00074657220696E207075726765206D6F6415
:1007000065200A00253364202563430025336420D7
:10071000256343002533642025634300253364208B
:10072000256343002533642025634300253364207B
:10073000256343002533642025634300253364206B
:100740002563430046696C616D656E742052656D6A
:100750006F7665642C20474F494E4720544F204305
:100760004C45414E20544845204E4F5A5A4C452046
:100770000A0053757266696E672030200A0053754F
:100780007266696E672030200A005430005465207C
:1007900070696C6C650053757266696E67203020F5
:1007A0000A004D33340053757266696E672030203D
:1007B0000A004D3234004D323320257300537572D8
:1007C00066696E672030200A0053656C656374208B
:1007D000340053656C65637420330053656C656346
:1007E0007420320053656C65637420310053656C6E
:1007F00065637420300053757266696E672030201F
:100800000A0053554343455353200A0025336420BF
:10081000256343002533642025634300253364208A
:10082000256343002533642025634300253364207A
:10083000256343002533642025634300253364206A
:10084000256343002533642025634300253364205A
:1008500025634300496E73657274696E67203A20A0
:1008600020200A00253364202563430025336420BB
:10087000256343002533642025634300456E74657A
:100880007220696E207075726765206D6F646520D7
:100890000A005374617274696E67205A2043616C58
:1008A0006962726174696F6E2057697A617264005F
:1008B0004736392041435449564154454400456E1A
:1008C000642066696C65206C6973740042656769B1
:1008D0006E2066696C65206C697374002F00534448
:1008E000207072696E74696E672062797465200089
:1008F0004E6F74205344207072696E74696E670085
:1009000047323820583020593000204500205A0006
:10091000205900483D58004649524D574152455FC5
:100920004E414D453A4D61726C696E2056313B2007
:10093000537072696E7465722F6772626C206D619C
:100940007368757020666F722067656E3620464941
:10095000524D574152455F55524C3A68747470730A
:100960003A2F2F6769746875622E636F6D2F457219
:10097000696B5A616C6D2F4D61726C696E2F2050DE
:10098000524F544F434F4C5F56455253494F4E3A86
:10099000312E30204D414348494E455F5459504512
:1009A0003A4D656E64656C20455854525544455225
:1009B0005F434F554E543A3220555549443A3030F2
:1009C0003030303030302D303030302D303030302D
:1009D0002D303030302D303030303030303030301D
:1009E00030300A00205A3A0020593A0020436F75EF
:1009F0006E7420583A200020453A00205A3A0020D0
:100A0000593A00583A007A5F6D696E3A2000795F72
:100A10006D61783A2000785F6D61783A2000785FE8
:100A20006D696E3A2000504F534954494F4E20484B
:100A30004F4D453A20002200556E6B6E6F776E2049
:100A4000636F6D6D616E643A202200466F726D2097
:100A5000322100526561647920746F20496E73659C
:100A600072742F52656D6F7665200A0074656D7023
:100A7000206F6B200A00256425250025336420257E
:100A800063430025336420256343002533642563D5
:100A900043202F20253364256343002533642563D9
:100AA00043202F20253364256343002533642563C9
:100AB00043202F20253364256343005375726669F4
:100AC0006E672030200A0043616C6962726174694C
:100AD0006F6E205375636365737366756C2C206746
:100AE0006F696E67206261636B20746F206D61694E
:100AF0006E206D656E75200A005430004D3834202C
:100B0000582059205A20450024F4D43050C38E2058
:100B1000C2A24017828B7011127A910D816CD90A92
:100B2000A861E108C7586607615143061E4B5D0581
:100B3000C145A7041A411104093D980371393103D5
:100B40004036DB0265339102D4305402802E1D0200
:100B5000632CEE01752AC501B028A0011027810180
:100B60008F2564012B244B01E0223401AC211F01AD
:100B70008D200D01801FFC00841EED00971DDF00FD
:100B8000B81CD200E61BC600201BBC00641AB200D1
:100B9000B219A8000A19A0006A189900D11791008B
:100BA00040178B00B516840031167E00B31579000E
:100BB0003A157300C7146F0058146A00EE136600EC
:100BC0008813630025135E00C7125B006C12570088
:100BD00015125400C111510070114F0021114B002A
:100BE000D61049008D104700461044000210420004
:100BF000C00F4000800F3E00420F3C00060F3B003C
:100C0000CB0E3800930E37005C0E3500270E3400F3
:100C1000F30D3200C10D3100900D3000600D2E003B
:100C2000320D2D00050D2C00D90C2B00AE0C290027
:100C3000850C29005C0C2700350C27000E0C2600C3
:100C4000E80B2400C40B2400A00B23007D0B230021
:100C50005A0B2100390B2100180B2000F80A1F0045
:100C6000D90A1E00BB0A1E009D0A1D00800A1D0035
:100C7000630A1C00470A1B002C0A1B00110A1A00F9
:100C8000F7091A00DD091900C4091900AB09190098
:100C9000920917007B091800630917004C09160018
:100CA00036091600200916000A091500F508150076
:100CB000E0081400CC081400B8081400A4081400BC
:100CC000900813007D0812006B08130058081200EA
:100CD0004608120034081100230811001208110000
:100CE00001081100F0071000E0071000D007100005
:100CF000C0071000B0070F00A107100091070E00F9
:100D000083070F0074070F0065070E0057070E00DA
:100D100049070E003B070D002E070E0020070D00AF
:100D200013070D0006070D00F9060C00ED060D0077
:100D3000E0060C00D4060C00C8060C00BC060C0033
:100D4000B0060C00A4060B0099060C008D060B00E3
:100D500082060B0077060B006C060B0061060A008A
:100D600057060B004C060A0042060A0038060A0025
:100D70002E060A0024060A001A060A0010060900B8
:100D800007060A00FD050900F4050900EB05090046
:100D9000E2050900D9050900D0050900C7050900C9
:100DA000BE050900B5050800AD050800A505090048
:100DB0009C050800940508008C05080084050800BF
:100DC0007C050800740508006C050700650508002F
:100DD0005D050700560508004E050700470507009A
:100DE0004005080038050700310507002A050700FF
:100DF000230507001C050600160507000F05070060
:100E00000805060002050700FB040600F5040700BC
:100E1000EE040600E8040600E2040700DB04060016
:100E2000D5040600CF040600C9040600C30406006A
:100E3000BD040600B7040600B1040500AC040600BA
:100E4000A6040600A00405009B0406009504050006
:100E5000900406008A04050085040500800406004D
:100E60007A04050075040500700405006B04050094
:100E700066040500610405005C04050057040500D4
:100E8000520405004D040500480405004304050014
:100E90003E0404003A040500350405003004040053
:100EA0002C04050027040400230405001E0404008C
:100EB0001A04040016040500110404000D040400C3
:100EC000090405000404040000040400FC030400F9
:100ED000F8030400F4030400F0030400EC0304002E
:100EE000E8030400E4030400E0030400DC0304005E
:100EF000D8030400D4030400D0030400CC0304008E
:100F0000C8030300C503030024F404D9201BC40C48
:100F10005C0E9804C4095F0265077101F405F900CD
:100F2000FB04B30048048700C1036900580355005F
:100F300003034500BE023A008402310053022A0036
:100F40002902250004022000E4011C00C801190048
:100F5000AF01170098011400840113007101100003
:100F60006101100051010E0043010D0036010B001C
:100F70002B010B0020010B00150109000C010900D9
:100F800003010800FB000800F3000800EB00070065
:100F9000E4000600DE000600D8000600D2000600CD
:100FA000CC000500C7000500C2000500BD0004001C
:100FB000B9000400B5000400B1000400AD00040055
:100FC000A9000400A5000300A20003009F00040084
:100FD0009B000300980003009500020093000300AB
:100FE000900003008D0002008B00030088000200C7
:100FF0008600020084000300810002007F000200DE
:101000007D0002007B0002007900020077000100F1
:1010100076000200740002007200010071000200FC
:101020006F0002006D0001006C0002006A00010008
:101030006900020067000100660001006500010010
:101040006400020062000100610001006000010014
:101050005F0002005D0001005C0001005B00010018
:101060005A0001005900010058000100570001001A
:10107000560001005500010054000100530000001B
:101080005300010052000100510001005000010016
:101090004F0001004E0000004E0001004D00010015
:1010A0004C0001004B0000004B0001004A00010011
:1010B000490001004800000048000100470001000D
:1010C0004600000046000100450000004500010008
:1010D0004400010043000000430001004200000002
:1010E00042000100410000004100010040000100F9
:1010F0003F0000003F0001003E0000003E000100F4
:101100003D0000003D0001003C0000003C000000EC
:101110003C0001003B0000003B0001003A000000E1
:101120003A000100390000003900010038000000D9
:1011300038000000380001003700000037000100CF
:1011400036000000360000003600010035000000C7
:1011500035000000350001003400000034000000BC
:1011600034000100330000003300000033000100B0
:1011700032000000320000003200010031000000A7
:10118000310000003100010030000000300000009C
:10119000300001002F0000002F0000002F00000091
:1011A0002F0001002E0000002E0000002E00010084
:1011B0002D0000002D0000002D0000002D0001007A
:1011C0002C0000002C0000002C0000002C0001006E
:1011D0002B0000002B0000002B0000002B00010062
:1011E0002A0000002A0000002A0000002A00010056
:1011F000290000002900000029000000290000004B
:10120000290001002800000028000000280000003C
:10121000280000002800010027000000270000002F
:101220002700000027000000270001002600000022
:101230002600000026000000260000002600010015
:10124000250000002500000025000000250000000A
:1012500025000000250001002400000024000000FB
:1012600024000000240000002400010023000000EE
:1012700023000000230000002300000023000000E2
:1012800023000000230001002200000022000000D3
:1012900022000000220000002200000022000100C5
:1012A00021000000210000002100000021000000BA
:1012B00021000000210000002100010020000000AA
:1012C000200000002000000020000000200000009E
:1012D0002000000020000000200001001F0000008E
:1012E0001F0000001F0000001F0000001F00000082
:1012F0001F0000001F0001001E0000001E00000073
:101300001E0000001E0000004D38342058205920D7
:101310005A2045004D313037005430004D313037C0
:1013200000473932204530205A3020522564004E83
:101330006577206C61796572206465746563746596
:1013400064005A20686F7070696E67206465746508
:101350006374656400256920686F75727320256960
:10136000206D696E7574657300446F6E65207072D0
:10137000696E74696E672066696C65004D33330071
:101380007061757365206465746563746564200AB3
:1013900000473639005072696E7465722073746F3D
:1013A000707065642064756520746F206572726F5B
:1013B00072732E2046697820746865206572726F9A
:1013C0007220616E6420757365204D39393920743F
:1013D0006F20726573746172742E202854656D706D
:1013E00065726174757265206973207265736574C6
:1013F0002E205365742069742061667465722072B2
:10140000657374617274696E6729006F6B004E6F4B
:10141000204C696E65204E756D6265722077697427
:101420006820636865636B73756D2C204C61737401
:10143000204C696E653A20004E6F20436865636BEF
:1014400073756D2077697468206C696E65206E75A0
:101450006D6265722C204C617374204C696E653A24
:101460002000636865636B73756D206D69736D61D2
:101470007463682C204C617374204C696E653A204B
:10148000004C696E65204E756D626572206973202F
:101490006E6F74204C617374204C696E65204E75BC
:1014A0006D6265722B312C204C617374204C696E17
:1014B000653A20004D31313000CDCC984300809307
:1014C0004300005243000000000000000000000044
:1014D000000A00207A3A200020793A200020783A49
:1014E00020004265640045787472756465722072EC
:1014F000656C6561736564206163746976653A2023
:10150000005A205349474D4120486F6D656400459E
:1015100078747275646572206163746976653A20C7
:1015200000526573656E643A20006F6B004475610C
:101530006C204D6F6465204F4E004475616C204DEA
:101540006972726F72204D6F6465204F4E00447552
:10155000616C204D6F6465204F464600436F6F6C91
:10156000696E6720446F776E20486561746572000C
:101570005072696E7465722068616C7465642E20A7
:101580006B696C6C28292063616C6C656421004573
:1015900072726F723A004578747275646572207267
:1015A000656C6561736564206163746976653A2072
:1015B000005A205349474D4120486F6D65640045EE
:1015C00078747275646572206163746976653A2017
:1015D000002200656E717565696E6720220000004B
:1015E000000000809343000000000000A0400000C5
:1015F000A0400000004020004D6F766520746F3AD7
:101600002000CDCC98430080934300005243FF015B
:10161000FF20636F6C6420657874727573696F6EF8
:101620002070726576656E746564006563686F3AF4
:101630000053442063617264206F6B006F70656EAD
:10164000526F6F74206661696C656400766F6C75AB
:101650006D652E696E6974206661696C656400450C
:1016600072726F723A00534420696E697420666129
:10167000696C006563686F3A004D3234004D323357
:10168000202573006175746F25692E6700202D2059
:10169000496E76616C6964206578747275646572F0
:1016A000206E756D6265722021004572726F723A0C
:1016B0000067636F646520666F756E640042434E19
:1016C0003344205369676D610073746172740065FF
:1016D00063686F3A0030312D312E322E355243007F
:1016E0006572726F722077726974696E6720746FA9
:1016F0002066696C6500205A3A0020593A0020584B
:101700003A00656E6473746F7073206869743A2070
:10171000006563686F3A00446F6E65207361766997
:101720006E672066696C652E006F6B004D32390064
:1017300053657474696E67732053746F72656400C7
:10174000204D696E75746573203A00204C61737486
:10175000207072696E742074696D652D3E20486F2B
:10176000757273203A004C617374207072696E74E4
:10177000206475726174696F6E002C205468697200
:1017800064204944206E756D62657220002C2053E0
:1017900065636F6E64204944206E756D6265723AB0
:1017A0002000204669727374204944206E756D6272
:1017B00065723A2000554920496E666F726D6174FA
:1017C000696F6E2053657269616C204E756D62653C
:1017D000723A00206D2C204531207072696E7420A1
:1017E00064697374616E63653A2000206B6D2C2010
:1017F0004530207072696E742064697374616E6321
:10180000653A2000206B6D2C2059207072696E742F
:101810002064697374616E63653A2000206B6D2CDF
:10182000205831207072696E742064697374616E1F
:1018300063653A200020432C0A20583020707269DA
:101840006E742064697374616E63653A200020438E
:101850002C206D61782074656D7020423A20002044
:10186000432C206D61782074656D7020523A200001
:101870002C206D61782074656D70204C3A200068D2
:101880002C207072696E74732066696E6973686566
:10189000643A20002C207072696E74696E6720743F
:1018A000696D653A2000207072696E74733A200089
:1018B00053544154533A0020432C20525F50524914
:1018C0004E543A200020432C20525F4245443A2097
:1018D0000020432C20525F52454D4F56453A200080
:1018E00020525F494E534552543A200054656D7062
:1018F000202843293A0020432C204C5F5052494E67
:10190000543A200020432C204C5F4245443A2000AA
:1019100020432C204C5F52454D4F56453A20002025
:101920004C5F494E534552543A200054656D702027
:101930002843293A002056657273696F6E20002093
:1019400042656420726967687420736372657720EA
:101950000020426564206C6566742073637265774D
:101960002000426564204F66667365747320286D9D
:101970006D293A00205A2070726F626500205A204B
:101980000020592000205820004F6666736574734C
:1019900020286D6D293A00204400204900202D2088
:1019A0004D333031205249474854205000204400E4
:1019B000204900204D333031204C45465420500002
:1019C0005049442073657474696E67733A00205AF5
:1019D0000020590020204D323036205800486F6DCD
:1019E00065206F666673657420286D6D293A002046
:1019F0004500205A0020580020420020540020209A
:101A00004D323035205300416476616E6365642049
:101A10007661726961626C65733A20533D4D696EFF
:101A200020666565647261746520286D6D2F732969
:101A30002C20543D4D696E2074726176656C206671
:101A40006565647261746520286D6D2F73292C2083
:101A5000423D6D696E696D756D207365676D656E6C
:101A6000742074696D6520286D73292C20583D6D94
:101A70006178696D756D205859206A65726B2028F0
:101A80006D6D2F73292C20205A3D6D6178696D751D
:101A90006D205A206A65726B20286D6D2F73292C7A
:101AA0002020453D6D6178696D756D2045206A6522
:101AB000726B20286D6D2F73290020540020204D5B
:101AC000323034205300416363656C657261746920
:101AD0006F6E3A20533D616363656C657261746932
:101AE0006F6E2C20543D7265747261637420616363
:101AF00063656C65726174696F6E00204500205AE1
:101B00000020590020204D3230312058004D61789E
:101B1000696D756D20416363656C65726174696F91
:101B20006E20286D6D2F7332293A00204500205A0F
:101B30000020590020204D3230332058004D61786C
:101B4000696D756D206665656472617465732028C2
:101B50006D6D2F73293A00204500205A002059004E
:101B600020204D3932205800537465707320706501
:101B70007220756E69743A0070012C019001270182
:101B8000B0012201C0011D01F00118011002130172
:101B900030020E016002090190020401C002FF0040
:101BA0000003FA004003F5008003F000D003EB00CF
:101BB0002004E6007004E100E004DC004005D700EA
:101BC000C005D2004006CD00D006C8008007C30083
:101BD0003008BE00F008B900C009B400B00AAF0078
:101BE000B00BAA00D00CA500000EA000500F9B0067
:101BF000C01096005012910000148C00C015870090
:101C0000B0178200B0197D00D01B7800001E730051
:101C100040206E0090226900F024640040275F009D
:101C200090295A00E02B5500102E500020304B0018
:101C300010324600E033410090353C001037370049
:101C400070383200A0392D00B03A2800A03B2300A4
:101C5000603C1E00103D1900903D1400103E0F0026
:101C6000703E0A00C03E0500003F00004572726FE2
:101C700072283833293A2042656420746865726D91
:101C80006973746F72206E6F742064657465637419
:101C90006564004572726F72283832293A205269A1
:101CA00067687420746865726D6973746F72206EF2
:101CB0006F74206465746563746564004572726F47
:101CC00072283831293A204C656674207468657230
:101CD0006D6973746F72206E6F7420206465746513
:101CE00063746564002053544F50205052494E5441
:101CF000200A004572726F72283833293A204265F3
:101D00006420746865726D6973746F72206E6F748D
:101D1000206465746563746564002053544F5020DB
:101D20005052494E54200A004572726F7228383260
:101D3000293A20526967687420746865726D697306
:101D4000746F72206E6F742064657465637465646B
:101D5000002053544F50205052494E54200A004501
:101D600072726F72283831293A204C65667420747B
:101D70006865726D6973746F72206E6F7420206471
:101D80006574656374656400000021002400270009
:101D90002A002D003000330001010000040107017A
:101DA0000A0100002200250028002B002E0031002F
:101DB000340002010000050108010B0100002000B1
:101DC0002300260029002C002F0032000001000013
:101DD00003010601090105050505070508080808AE
:101DE000020202020A0A08080404040401010101B3
:101DF00001010101030303030303030304070707AE
:101E00000C0C0C0C0C0C0C0C020202020606060652
:101E1000060606060B0B0B0B0B0B0B0B010210201F
:101E20002008081020401020408002010201080410
:101E300002010102040810204080804020100804A4
:101E400002018004020180402010080402010804FD
:101E50000201010204081020408001020408102041
:101E6000408000000A0B02090C0D0E080703040154
:101E70000000000000000000000000000000000062
:101E8000000000000000000000000000000012112F
:101E90001000000000000000000000000000000032
:101EA00000000000000000000A0020616E746968F4
:101EB0006F726172690A3A200020686F72617269FC
:101EC0000A20002F3800766F6C746573200020564E
:101ED0006F6C74657320636172676F6C20333A2096
:101EE0000020616E7469686F726172690A3A20003D
:101EF00020686F726172690A20002F3800766F6C5B
:101F0000746573200020566F6C7465732063617272
:101F1000676F6C20323A20000A0020647A333A203E
:101F20000020647A323A20005430005430000056C9
:101F3000756974656E73333A2020004170726F7852
:101F4000333A202000566F6C746573333A202000BA
:101F50000056756974656E73323A202000417072C4
:101F60006F78323A202000566F6C746573323A20D5
:101F7000200056616C6F7220645A333A202000565C
:101F8000616C6F7220645A323A2020004E657720CF
:101F90006F66667365742076657273696F6E3A203A
:101FA000007A335F313A20007A325F313A20005AAA
:101FB0007363726F6C6C5F313A20007A335F303A32
:101FC00020007A325F303A20005A7363726F6C6C73
:101FD0005F303A2000706C616E654E6F726D616C9F
:101FE0005F312E7A3A2000706C616E654E6F726DB3
:101FF000616C5F312E793A2000706C616E654E6FB6
:10200000726D616C5F312E783A2000706C616E6584
:102010004E6F726D616C5F302E7A3A2000706C6189
:102020006E654E6F726D616C5F302E793A20007074
:102030006C616E654E6F726D616C5F302E783A2008
:10204000005A76616C756520616674657220686FF0
:102050006D653A00486F6D6520582F59206265669E
:102060006F7265205A00486F74656E64206F6666F3
:10207000736574733A00504944204175746F7475E8
:102080006E652066696E6973686564212050757499
:1020900020746865206C617374204B702C204B6930
:1020A00020616E64204B6420636F6E7374616E7484
:1020B000732066726F6D2061626F766520696E7441
:1020C0006F20436F6E66696775726174696F6E2EFB
:1020D0006800504944204175746F74756E652066C0
:1020E00061696C6564212074696D656F7574002089
:1020F000403A006F6B20543A006F6B20423A005018
:102100004944204175746F74756E65206661696C11
:102110006564212054656D70657261747572652007
:10212000746F6F206869676800204B643A20002054
:102130004B693A2000204B703A200020436C6173B9
:102140007369632050494420002054753A200020D0
:102150004B753A2000206D61783A2000206D696E41
:102160003A200020643A200020626961733A20001E
:1021700053544154495354494353205245534554B1
:10218000002C2073617665645F466C61675F6661F1
:102190006E6C617965725F6D6972726F723A200060
:1021A0002C2073617665645F666565647261746531
:1021B0003A20002C2073617665645F66616E6C6105
:1021C0007965723A20002C2073617665645F7465CE
:1021D0006D706265643A20002C2073617665645FDF
:1021E00074656D70303A20002C2073617665645FF1
:1021F00074656D70313A20002C2073617665645FE0
:1022000066696C65706F736974696F6E3A20002C33
:102210002073617665645F655F706F736974696F61
:102220006E3A20002C2073617665645F746F6F6C6A
:102230005F6163746976653A20002C20736176656E
:10224000645F7A5F706F736974696F6E3A20002CF7
:102250002073617665645F795F706F736974696F0D
:102260006E3A20002C2073617665645F785F706F32
:10227000736974696F6E3A2000534156452050527D
:10228000494E54204C4F473A006563686F3A0050FE
:1022900072696E74207265636F76657279207570ED
:1022A000004E6F74207072696E74207265636F7671
:1022B000657279207570004D383400537461727402
:1022C000696E6720582043616C6962726174696F3E
:1022D0006E2057697A617264004D3834005374611E
:1022E0007274696E6720592043616C69627261740F
:1022F000696F6E2057697A61726400535543434594
:1023000053530056616C756573206F7574206F664A
:102310002072616E67650056616C756573206F751C
:1023200074206F662072616E67650056616C75651A
:1023300073206F7574206F662072616E676500563A
:10234000616C756573206F7574206F662072616EA5
:10235000676500535543434553530056616C75659B
:1023600073206F7574206F662072616E676500560A
:10237000616C756573206F7574206F662072616E75
:1023800067650056616C756573206F7574206F66A4
:102390002072616E67650056616C756573206F759C
:1023A00074206F662072616E676500486F74656E99
:1023B00064206F6666736574733A0054696D6520B6
:1023C000696E616374697665005075726765206433
:1023D000697374616E6365005A204F666673657435
:1023E000206F6B005A204F6666736574203A200098
:1023F0007A5F6D61783A20007A5F6D696E3A2000ED
:102400005A204F666673657400504F534954494FC4
:102410004E20484F4D453A200043616C63756C7502
:10242000733A20200043616C63756C75733A202009
:10243000002200656E717565696E67202200252097
:1024400033642025250025642068202564206D0044
:102450002520336420252500253264202563430090
:10246000253364202563430025336420256343001E
:10247000526561647920746F20496E736572742FA0
:1024800052656D6F7665200A0074656D70206F6B04
:10249000200A002564252500253364202563430098
:1024A00025336420256343002053544F502050525D
:1024B000494E54200A004732382058302059300005
:1024C0004D333500526573756D65206465746563C1
:1024D000746564200A0047373000A1524553554DBA
:1024E0004521200A00A1504155534521200A0025CD
:1024F000336420256343002533642025634300258E
:10250000336420256343002533642025634300257D
:10251000336420256343002533642025634300256D
:10252000336420256343002533642025634300255D
:10253000336420256343005052494E542053455480
:1025400054494E4753200A000A00205A3A200020DE
:10255000593A200020583A200042656400627566AE
:10256000666572206F75743A200042756666657202
:10257000313A200043617264204E616D653A20005B
:102580002E0044656C6574696F6E206661696C65C8
:10259000642C2046696C653A200046696C652064AD
:1025A000656C657465643A002E006F70656E206618
:1025B00061696C65642C2046696C653A2000256968
:1025C000206D696E2C20256920736563000A0A005E
:1025D0005374616E646172642044657669617469E4
:1025E0006F6E3A20000A004D65616E3A20000A00C5
:1025F0002020207A3A200000793A2000783A200002
:102600003F537065636966696564206E756D6265C8
:1026100072206F66206C65677320696E206D6F761F
:10262000656D656E74206E6F7420706C617573617A
:10263000626C652E0A003F53706563696669656464
:10264000205920706F736974696F6E206F757420E4
:102650006F662072616E67652E0A003F5370656376
:102660006966696564205820706F736974696F6E5C
:10267000206F7574206F662072616E67652E0A0088
:102680003F5370656369666965642073616D706C42
:10269000652073697A65206E6F7420706C61757344
:1026A00061626C652E0A0046756C6C2073757070E3
:1026B0006F72742061743A20687474703A2F2F33EB
:1026C000647072696E74626F6172642E636F6D2FD5
:1026D000666F72756D2E7068700A004D3438205A1E
:1026E0002D50726F62652052657065617461626918
:1026F0006C69747920746573742E2020205665727D
:1027000073696F6E20322E30300A003F5665726258
:102710006F7365204C6576656C206E6F7420706CED
:1027200061757361626C652E0A0057726974696E17
:102730006720746F2066696C653A20002E006F7008
:10274000656E206661696C65642C2046696C653A2B
:1027500020002E006F70656E206661696C65642CC8
:102760002046696C653A200046696C652073656C8B
:102770006563746564002053697A653A2000466990
:102780006C65206F70656E65643A20002E006F7076
:10279000656E206661696C65642C2046696C653ADB
:1027A00020004E6F772066726573682066696C65DD
:1027B0003A20004E6F7720646F696E672066696CFF
:1027C000653A20002220706F7300222070617265CC
:1027D0006E743A2200535542524F5554494E45208B
:1027E00043414C4C207461726765743A22007472E4
:1027F00079696E6720746F2063616C6C20737562F9
:102800002D67636F64652066696C657320776974F2
:102810006820746F6F206D616E79206C6576656CD1
:10282000732E204D4158206C6576656C2069733A93
:10283000007A70726F62653A20007C3C3E5E2B3DF0
:102840003F2F5B5D3B2C2A225C003B20472D436FD2
:1028500064652067656E65726174656420627920C5
:1028600053696D706C696679334428522920566526
:102870007273696F6E202564003B5072696E74201C
:1028800074696D653A202564202573202564202510
:1028900073202564202573003B54494D453A20257B
:1028A0006C64003B2020204275696C642074696D63
:1028B000653A202564202573202564202573003B7C
:1028C000202020506C6173746963207765696768A4
:1028D000743A2025642E256467003B46696C616D5F
:1028E000656E7420757365643A2025642E25646DC9
:1028F0002025642E256467003B46696C616D656E1A
:102900007420757365643A20256C752E256C756D81
:10291000005341564544205052494E540043616E85
:102920006E6F7420656E746572207375626469726F
:102930003A20002564206974656D73002534643A7B
:10294000252E326468202F20256467000043616CC7
:1029500063756C75733A20200050494420417574AA
:102960006F74756E652066696E69736865642100B1
:10297000504944204175746F74756E6520666169B5
:102980006C6564212074696D656F75740020403A30
:10299000006F6B20543A006F6B20423A005049445C
:1029A000204175746F74756E65206661696C65642D
:1029B000212054656D706572617475726520746F45
:1029C0006F206869676800204B643A2000204B69DB
:1029D0003A2000204B703A200020436C61737369E9
:1029E000632050494420002054753A2000204B7544
:1029F0003A2000206D61783A2000206D696E3A20FF
:102A00000020643A200020626961733A200020426D
:102A1000403A0020403A00202F003A002054002085
:102A20002F0020423A00202F006F6B20543A0042C2
:102A30006564204865617465640020423A00204561
:102A40003A00543A0045787472756465722048659E
:102A5000617465640020573A0020453A00543A00FA
:102A600053746F7265642073657474696E67732044
:102A70007265747269657665640048617264636F3B
:102A80006465642044656661756C74205365747474
:102A9000696E6773204C6F6164656400486172649D
:102AA000636F6465642043616C696220616E6420B9
:102AB0005049442044656661756C74205365747494
:102AC000696E6773204C6F61646564004879737444
:102AD0006572657369732074656D70657261747574
:102AE000726500546865726D616C2072756E6177F5
:102AF00061792070726F74656374696F6E2062799A
:102B0000204865617465725F49443A00BF01B101B4
:102B100011241FBECFEFD1E2DEBFCDBF00E00CBF5E
:102B200017E0A0E0B2E0E2EFFDE603E00BBF02C079
:102B300007900D92AC34B107D9F729E1ACE4B7E0C6
:102B400001C01D92A839B207E1F715E1C7E8D5E148
:102B500000E006C021970109802FFE010F9448B4C0
:102B6000C638D10780E00807A9F70F940E870D94A7
:102B7000E8B60C9400002F923F924F925F926F92B2
:102B80007F928F929F92AF92BF92CF92DF92EF92FD
:102B9000FF920F931F93CF93DF93CDB7DEB7C1534F
:102BA000D1400FB6F894DEBF0FBECDBF2DB63EB6F6
:102BB00090916315992391F08091611526E0829F91
:102BC000F0011124EF5FFA4EF080018112818F5FD6
:102BD0008F708093611591509093631580918E074B
:102BE00081110DC00E946AFD60938A0770938B0764
:102BF00080938C0790938D0781E080938E0780915E
:102C0000820781110DC00E946AFD60937E07709358
:102C10007F07809380079093810781E080938207EC
:102C200037E0F3120C94186F013211F00C94B35882
:102C300080914D1281110C946C5B90914E12911108
:102C40000C946C5B90919607992309F4DEC28091F5
:102C50009A07823008F4D9C2173409F490C1B8F445
:102C60001B3209F440C040F4173109F4B1C01831E7
:102C700009F4D5C00C94186F103309F482C01533D1
:102C800009F49FC21F3211F00C94186F53C0103812
:102C900009F4E8C0F0F41E3509F459C21F3511F0EB
:102CA0000C94186F14E41093E21740E050E06BE0CE
:102CB00070E084E190E00E9469EB40E050E065E163
:102CC00070E08AE090E00E9469EB1093B9170C94D1
:102CD000186F123809F424C108F4F3C01B3A09F440
:102CE000A1C10C94186F0E946AFD00917E0710919B
:102CF0007F07209180073091810760177107820755
:102D0000930710F40C94186F0E946AFDDC01CB014C
:102D100088539F4FAF4FBF4F80937E0790937F079D
:102D2000A0938007B09381078EEF9FEF0F9458A375
:102D30000C94186F0E946AFD00917E0710917F0726
:102D400020918007309181076017710782079307F0
:102D500010F40C94186F0E946AFDDC01CB018853BB
:102D60009F4FAF4FBF4F80937E0790937F07A093F5
:102D70008007B09381078FEF9FEF0F9458A30C94B7
:102D8000186F0E946AFD00917E0710917F072091C5
:102D9000800730918107601771078207930710F44D
:102DA0000C94186F0E946AFDDC01CB0188539F4F81
:102DB000AF4FBF4F80937E0790937F07A09380070C
:102DC000B093810780E090E00F9458A30C94186FA3
:102DD0000E946AFD00917E0710917F072091800775
:102DE00030918107601771078207930710F40C94E4
:102DF000186F0E946AFDDC01CB0188539F4FAF4FD3
:102E0000BF4F80937E0790937F07A0938007B09376
:102E1000810781E090E00F9458A30C94186F0E94F2
:102E20006AFD00917E0710917F0720918007309105
:102E300081076017710782079307A0F00E946AFD5F
:102E4000DC01CB0188539F4FAF4FBF4F80937E076C
:102E500090937F07A0938007B093810782E090E072
:102E60000F9458A30E946AFD00917E0710917F077E
:102E700020918007309181076017710782079307BF
:102E800010F40C94186F0E946AFDDC01CB0188538A
:102E90009F4FAF4FBF4F80937E0790937F07A093C4
:102EA0008007B09381078DEF9FEF0F94EFA240E072
:102EB00050E069E170E08AE090E00E9469EB0C94D8
:102EC000186F0E946AFD00917E0710917F07209184
:102ED000800730918107601771078207930710F40C
:102EE0000C94186F0E946AFDDC01CB0188539F4F40
:102EF000AF4FBF4F80937E0790937F07A0938007CB
:102F0000B093810783E090E00F94EFA240E050E09F
:102F100069E170E08AE090E00E9469EB0C94186F20
:102F20000E946AFD00917E0710917F072091800723
:102F300030918107601771078207930710F40C9492
:102F4000186F0E946AFDDC01CB0188539F4FAF4F81
:102F5000BF4F80937E0790937F07A0938007B09325
:102F6000810780E090E00F94EFA240E050E069E13B
:102F700070E08AE090E00E9469EB0C94186F0E9468
:102F80006AFD00917E0710917F07209180073091A4
:102F90008107601771078207930710F40C94186F6C
:102FA0000E946AFDDC01CB0188539F4FAF4FBF4F9A
:102FB00080937E0790937F07A0938007B09381074B
:102FC00040E050E068E070E08AE090E00E9469EB49
:102FD00081E48093B91741E061E081E00E9458E408
:102FE0000F9419A040E050E061E170E08AE090E0C9
:102FF0000E9469EB80E58093B91700E010E020E0C3
:1030000030E0A901CA01B9010F943A9040E050E0C4
:1030100069E170E08AE090E00E9469EB1092B917D4
:103020000C94186F1092B91740E050E06FE170E017
:103030008AE090E00E9469EB8091970740919807A1
:10304000042F081B40919907142F181B602F002E86
:10305000000C770B880B990B0F945DA92DEC3CECC1
:103060004CEC5DEB0F9456A460939F077093A00700
:103070008093A1079093A207612F012E000C770B7C
:10308000880B990B0F945DA92DEC3CEC4CEC5DEB9F
:103090000F9456A460939B0770939C0780939D07A1
:1030A00090939E070023B9F040E050E06FE170E09C
:1030B0008AE090E00E9469EB07FF07C0202F3327CA
:1030C00021950CF4309508E0020F402F000F550BAE
:1030D00064E070E018C01123D9F040E050E060E2F5
:1030E00070E08AE090E00E9469EB17FF07C0812F33
:1030F000992781950CF4909518E0180F412F110F26
:10310000550B65E070E08BE190E00E9469EB15C023
:1031100014E41093E21740E050E06BE070E084E1CB
:1031200090E00E9469EB40E050E065E170E08AE0E9
:1031300090E00E9469EB1093B9178DE790E09093AF
:103140002718809326180E9477F60C94186F4091E8
:10315000990780919707142F181BE1F040E050E089
:1031600060E270E08AE090E00E9469EB17FF07C020
:10317000A12FBB27A1950CF4B09518E01A0F412F91
:10318000110F550B65E070E08BE190E00E9469EB58
:103190000C94186F14E41093E21740E050E06BE0D9
:1031A00070E084E190E00E9469EB40E050E065E16E
:1031B00070E08AE090E00E9469EB1093B9170C94DC
:1031C000186F8091E217843411F00C94186F1092EC
:1031D0009A07109296071092B9171092D818109269
:1031E000D7181092DE181092DD181092E018109285
:1031F000DF1840E050E065E070E08AE090E00E9477
:1032000069EB1092E2170C94186F412F50E0493D82
:10321000510510F00C94186FFA018827EE58FF4FF3
:103220008F4F0D9448B481E08093E707EDEEF7E00F
:1032300084918F01882351F0082E000C990B0E9475
:10324000D3EB0F5F1F4FF8018491F4CF8AE090E039
:103250000E94D3EB0C94186F81E08093E607E4EEB4
:10326000F7E084918F01882389F3082E000C990BD5
:103270000E94D3EB0F5F1F4FF8018491F4CF81E0E0
:103280008093E507EBEDF7E084918F018823F1F25D
:10329000082E000C990B0E94D3EB0F5F1F4FF80113
:1032A0008491F4CF81E08093E407E2EDF7E084912C
:1032B0008F01882309F4CACF082E000C990B0E94B5
:1032C000D3EB0F5F1F4FF8018491F3CF81E0809320
:1032D000E307E9ECF7E084918F01882309F4B6CF86
:1032E000082E000C990B0E94D3EB0F5F1F4FF801C3
:1032F0008491F3CF0E946AFD00917E0710917F07B1
:10330000209180073091810760177107820793072A
:1033100010F40C94186F0F94ED64009721F481E081
:103320008093E80715C00197C1F481E08093E80716
:1033300040E050E067E370E081E290E00E9469EBDA
:1033400040E050E061E070E08BE190E00E9469EBCA
:103350008091CA1881508093CA180E946AFDDC01CE
:10336000CB0188539F4FAF4FBF4F80937E07909301
:103370007F07A0938007B09381070C94186F0E9479
:103380006AFD00917E0710917F07209180073091A0
:103390008107601771078207930710F40C94186F68
:1033A00010927B1810922019EDEBF7E084918F01B9
:1033B000882351F0082E000C990B0E94D3EB0F5F6D
:1033C0001F4FF8018491F4CF1092430D81E00F94C8
:1033D000493840E050E065E070E08AE090E00E940B
:1033E00069EB0E946AFDDC01CB0188539F4FAF4F10
:1033F000BF4F80937E0790937F07A0938007B09381
:1034000081070C94186F0E946AFD00917E0710914D
:103410007F0720918007309181076017710782072D
:10342000930708F45AC080914F12882309F455C0BD
:1034300080919F12811151C0CDB6DEB68091E10717
:103440009091E2070F94B651E0E5F2E1DF010D90B3
:103450000020E9F78DB79EB78A1B9B0B9C01245B6C
:103460003D4E0FB6F8943EBF0FBE2DBF0DB71EB731
:103470000F5F1F4FFF93EF9386EB97E09F938F9320
:103480001F930F930F9407A9780134E0E30EF11C0A
:103490000F900F900F900F900F900F90F701808179
:1034A000882349F0082E000C990B0F9443B6D701DE
:1034B0008D937D01F3CF8091450E9091460E049738
:1034C0001CF4C8010E94F5E382EB97E00F944C389E
:1034D0000FB6F894DEBE0FBECDBE0E946AFDDC01C1
:1034E000CB0188539F4FAF4FBF4F80937E07909380
:1034F0007F07A0938007B09381070C94186F0E94F8
:103500006AFD00917E0710917F072091800730911E
:103510008107601771078207930710F40C94186FE6
:1035200081E08093EB070E946AFDDC01CB018853A8
:103530009F4FAF4FBF4F80937E0790937F07A0931D
:103540008007B09381070C94186F0E946AFD009168
:103550007E0710917F0720918007309181076017C7
:1035600071078207930710F40C94186F81E0809321
:10357000EA070E946AFDDC01CB0188539F4FAF4FE1
:10358000BF4F80937E0790937F07A0938007B093EF
:1035900081070C94186F0E946AFD00917E071091BC
:1035A0007F0720918007309181076017710782079C
:1035B000930710F40C94186F40E050E062E170E063
:1035C0008AE090E00E9469EB0E946AFDDC01CB0179
:1035D00088539F4FAF4FBF4F80937E0790937F07D5
:1035E000A0938007B09381070C94186F0E946AFD26
:1035F00000917E0710917F0720918007309181070D
:10360000601771078207930710F40C94186F40E05D
:1036100050E06CE170E08AE090E00E9469EB80E0AD
:103620000F9449381092FC071092FB071092FA078A
:1036300081E08093430D0E946AFDDC01CB01885339
:103640009F4FAF4FBF4F80937E0790937F07A0930C
:103650008007B09381070C94186F0E946AFD009157
:103660007E0710917F0720918007309181076017B6
:1036700071078207930710F40C94186F10927B184F
:1036800010922019E6EAF7E084918F01882351F027
:10369000082E000C990B0E94D3EB0F5F1F4FF8010F
:1036A0008491F4CF1092430D81E00F94493840E0AB
:1036B00050E065E070E08AE090E00E9469EB0E94D3
:1036C0006AFDDC01CB0188539F4FAF4FBF4F809302
:1036D0007E0790937F07A0938007B09381070C9497
:1036E000186F8091DD189091DE18892B29F01092C7
:1036F000DE181092DD1808C08091F1159091F21536
:103700009093DE188093DD181092FC070C94186FCC
:103710008091DF189091E018892B29F01092E01821
:103720001092DF1808C08091EF159091F0159093DA
:10373000E0188093DF181092FB070C94186F8091AB
:10374000D7189091D818892B29F01092D818109278
:10375000D7181CC08091ED159091EE156091EB1576
:103760007091EC15681779072CF4BC01990F880B40
:10377000990B04C0072E000C880B990B0F945DA9C0
:103780000F947DB17093D8186093D7181092FA07F0
:103790000C94186F0E946AFD00917E0710917F07BC
:1037A0002091800730918107601771078207930786
:1037B00010F40C94186F82EA97E00F944C380E9432
:1037C0006AFDDC01CB0188539F4FAF4FBF4F809301
:1037D0007E0790937F07A0938007B09381070C9496
:1037E000186F0E946AFD00917E0710917F0720915B
:1037F000800730918107601771078207930710F4E3
:103800000C94186F40E050E06EE170E08AE090E0C8
:103810000E9469EB0E946AFDDC01CB0188539F4F37
:10382000AF4FBF4F80937E0790937F07A093800791
:10383000B09381070C94186F0E946AFD00917E0777
:1038400010917F07209180073091810760177107E1
:103850008207930710F40C94186F40E050E065E085
:1038600070E08AE090E00E9469EB10927B18109261
:103870002019E6E9F7E084918F01882351F0082EA2
:10388000000C990B0E94D3EB0F5F1F4FF80184913E
:10389000F4CF1092430D88E793E09093AD028093AC
:1038A000AC020E9477F60E946AFDDC01CB018853CE
:1038B0009F4FAF4FBF4F80937E0790937F07A0939A
:1038C0008007B09381070C94186F0E946AFD0091E5
:1038D0007E0710917F072091800730918107601744
:1038E00071078207930710F40C94186F0E946AFD09
:1038F000DC01CB0188539F4FAF4FBF4F80937E07B2
:1039000090937F07A0938007B093810740E050E039
:103910006AE170E08AE090E00E9469EB0E9429EE83
:1039200080914F12882311F40C94186F8091C9185C
:103930008093CA1821EAE22E28E1F22E35EBC32E3D
:1039400038E1D32E00E010E04DE8842E47E0942EBD
:103950008091C91890E008171907ACF560E572E18D
:1039600087EC92E10F946B575701D7018D919D9190
:103970007D010F94B651F50180819181D6018D931F
:103980009D936D0180919F12811118C0F401849163
:103990009DE8A92E97E0B92E882359F0082E000C37
:1039A000990B0E94D3EBFFEFAF1ABF0AF501849188
:1039B000F3CF8AE090E00E94D3EB02C00F94D8606E
:1039C0000F5F1F4FC5CF87E090E00F94E2650C9426
:1039D000186F0E946AFD00917E0710917F07209169
:1039E000800730918107601771078207930710F4F1
:1039F0000C94186F0E946AFDDC01CB0180579E4F2A
:103A0000AF4FBF4F80937E0790937F07A0938007AF
:103A1000B09381078091AC029091AD0280369740BF
:103A200041F488E793E09093AD028093AC020E944A
:103A300077F640E050E068E070E08AE090E00E94B5
:103A400069EB81E48093B9178091AD0D882341F132
:103A500040E061E081E00E9458E40F941982809177
:103A6000B9178E3411F40C94186F81E00F94493813
:103A70001092B9178AE897E00F944C380F94198286
:103A80008091B9178E3411F40C94186F40E050E017
:103A90006BE070E08AE090E00E9469EB0C94186F94
:103AA00041E0D7CF0E946AFD00917E0710917F0709
:103AB0002091800730918107601771078207930773
:103AC00010F40C94186F40E050E064E070E08AE07D
:103AD00090E00E9469EB0E946AFDDC01CB018853F3
:103AE0009F4FAF4FBF4F80937E0790937F07A09368
:103AF0008007B09381070C94186F0E946AFD0091B3
:103B00007E0710917F072091800730918107601711
:103B100071078207930710F40C94186F0E946AFDD6
:103B2000DC01CB0180579E4FAF4FBF4F80937E0784
:103B300090937F07A0938007B093810740E050E007
:103B400064E270E08AE090E00E9469EB81E080939B
:103B50007B0789E48093B9171F921F9283EE93E04D
:103B60009F938F938E010F5F1F4F1F930F930F949F
:103B7000B8B6B8018EE290E00F9448566091F11506
:103B80007091F215072E000C880B990B0F945DA90C
:103B900000E010E028EC31E440E050E00F947D6A52
:103BA0000E9477F668EE73E083E491E10F947C6AFB
:103BB0006BEE73E083E491E10F947C6A6091E00224
:103BC0007091E1028091E2029091E30242E050E0C4
:103BD0000F94DC656FEE73E083E491E10F947C6AEF
:103BE0002DEB37E346E05EE36091D8027091D90295
:103BF0008091DA029091DB020F94D1B042E050E064
:103C00000F94DC6563EF73E083E491E10F947C6AC9
:103C10002DEB37E346E05EE36091D0027091D10274
:103C20008091D2029091D3020F9456A442E050E0CA
:103C30000F94DC656091EF157091F015072E000C64
:103C4000880B990B0F945DA900E010E028EC31E49B
:103C500041E050E00F947D6A0E9477F668EE73E0D1
:103C600083E491E10F947C6A6BEE73E083E491E16D
:103C70000F947C6A6091E4027091E5028091E60203
:103C80009091E70242E050E00F94DC656FEE73E044
:103C900083E491E10F947C6A2DEB37E346E05EE329
:103CA0006091DC027091DD028091DE029091DF0272
:103CB0000F94D1B042E050E00F94DC6563EF73E005
:103CC00083E491E10F947C6A2DEB37E346E05EE3F9
:103CD0006091D4027091D5028091D6029091D70262
:103CE0000F9456A442E050E00F94DC651092B9178F
:103CF0000E94D28D40E050E06BE070E084E190E003
:103D00000E9469EB40E050E065E170E08AE090E0FD
:103D10000E9469EB84E48093E2178093B9170F90B7
:103D20000F900F900F900F900F900C94186F0E94AF
:103D30006AFD00917E0710917F07209180073091E6
:103D40008107601771078207930710F40C94186FAE
:103D500010927B1810922019EEE7F7E084918F0102
:103D6000882351F0082E000C990B0E94D3EB0F5FB3
:103D70001F4FF8018491F4CF1092430D40E050E0C2
:103D800065E070E08AE090E00E9469EB0E946AFDC5
:103D9000DC01CB0188539F4FAF4FBF4F80937E070D
:103DA00090937F07A0938007B09381070C94186FBE
:103DB0000E946AFD00917E0710917F072091800785
:103DC00030918107601771078207930710F40C94F4
:103DD000186F82E58093140281E080937A0740E0B7
:103DE00050E06BE570E081E290E00E9469EB40E01A
:103DF00050E06CE570E081E290E00E9469EB40E009
:103E000050E060E070E08BE190E00E9469EB40E000
:103E100050E06AE770E081E290E00E9469EB40E0E8
:103E200050E069E770E081E290E00E9469EB40E0D9
:103E300050E06DE170E08AE090E00E9469EB8FEF66
:103E40008093440E0E946AFDDC01CB0180579E4F97
:103E5000AF4FBF4F80937E0790937F07A09380075B
:103E6000B09381070C94186F0E946AFD00917E0741
:103E700010917F07209180073091810760177107AB
:103E80008207930710F40C94186F40E050E062E151
:103E900070E08AE090E00E9469EB40E050E06BE562
:103EA00070E081E290E00E9469EB40E050E06CE558
:103EB00070E081E290E00E9469EB40E050E060E059
:103EC00070E08BE190E00E9469EB40E050E06AE72F
:103ED00070E081E290E00E9469EB40E050E069E729
:103EE00070E081E290E00E9469EB10927A070E94F4
:103EF0006AFDDC01CB0188539F4FAF4FBF4F8093CA
:103F00007E0790937F07A0938007B09381070C945E
:103F1000186F0E946AFD00917E0710917F07209123
:103F2000800730918107601771078207930710F4AB
:103F30000C94186F10927B1810922019E2E7F7E0AA
:103F400084918F01882351F0082E000C990B0E9458
:103F5000D3EB0F5F1F4FF8018491F4CF1092430D04
:103F600040E050E065E070E08AE090E00E9469EB9C
:103F700040E050E06BE570E081E290E00E9469EB88
:103F800040E050E06CE570E081E290E00E9469EB77
:103F900040E050E060E070E08BE190E00E9469EB6F
:103FA00040E050E06AE770E081E290E00E9469EB57
:103FB00040E050E069E770E081E290E00E9469EB48
:103FC00010927A070E946AFDDC01CB0188539F4F53
:103FD000AF4FBF4F80937E0790937F07A0938007DA
:103FE000B09381070C94186F0E946AFD00917E07C0
:103FF00010917F072091800730918107601771072A
:104000008207930710F40C94186F41E050E06BE5C1
:1040100070E081E290E00E9469EB40E050E06CE5E6
:1040200070E081E290E00E9469EB41E050E060E0E6
:1040300070E08BE190E00E9469EB41E050E06AE7BC
:1040400070E081E290E00E9469EB41E050E069E7B6
:1040500070E081E290E00E9469EB1092440E0E94B1
:104060006AFDDC01CB0188539F4FAF4FBF4F809358
:104070007E0790937F07A0938007B09381070C94ED
:10408000186F0E946AFD00917E0710917F072091B2
:10409000800730918107601771078207930710F43A
:1040A0000C94186F40E050E06BE570E081E290E026
:1040B0000E9469EB41E050E06CE570E081E290E045
:1040C0000E9469EB41E050E060E070E08BE190E03D
:1040D0000E9469EB41E050E06AE770E081E290E025
:1040E0000E9469EB41E050E069E770E081E290E016
:1040F0000E9469EB81E08093440E0E946AFDDC011E
:10410000CB0188539F4FAF4FBF4F80937E07909353
:104110007F07A0938007B09381070C94186F0E94CB
:104120006AFD00917E0710917F07209180073091F2
:104130008107601771078207930710F40C94186FBA
:104140000E946AFDDC01CB0188539F4FAF4FBF4FE8
:1041500080937E0790937F07A0938007B093810799
:104160008091AC029091AD028036974041F488E78F
:1041700093E09093AD028093AC020E9477F6009199
:10418000440E0F3F11F40C94186F01111DC0809163
:104190001E1890911F186091560770915707681765
:1041A00079072CF4BC01990F880B990B04C0072EDA
:1041B000000C880B990B0F945DA90F947DB170933F
:1041C000DE186093DD1820C080912218909123188A
:1041D0006091540770915507681779072CF4BC015A
:1041E000990F880B990B04C0072E000C880B990BB4
:1041F0000F945DA910E0000F111F0352174E0F948A
:104200007DB1D8016D937C9381E08093B71781E4F1
:104210008093B91740E050E068E070E08AE090E0F9
:104220000E9469EB8091AD0D882311F040E001C040
:1042300041E061E081E00E9458E480E090E0A3E486
:10424000B3E480935F0E9093600EA093610EB093E1
:10425000620E8090300E9090310EA090320EB09091
:10426000330E20915B0E30915C0E40915D0E5091AB
:104270005E0E6091570E7091580E8091590E90917C
:104280005A0EEBEE6E2EE8E17E2E7F926F92F3E6F1
:10429000CF2EFEE0DF2EE12CF12C03E413E40E948C
:1042A00099D180E090E0A0E2B1E480935B0E90931E
:1042B0005C0EA0935D0EB0935E0E80902C0E9090DD
:1042C0002D0EA0902E0EB0902F0EE0905F0EF0906D
:1042D000600E0091610E1091620E6091570E709108
:1042E000580E8091590E90915A0E7F926F9220E055
:1042F00030E040E251E40E9499D10F9419820F906E
:104300000F900F900F908091B9178E3411F40C9488
:10431000186F1092B9170E94D28D61ED73E08DE293
:1043200090E00F94485640E050E068E270E08AE088
:1043300090E00E9469EB0091440E10E0F801EE0F4E
:10434000FF1FEE0FFF1FEC5FF64E608171818281CF
:1043500093810F947DB17093F4076093F307000F7E
:10436000111FF801E352F74E808191819093F2077B
:104370008093F10788E48093B9170E94D28D64EF8F
:1043800071E080E090E00E9432FD81E08093F507CB
:104390000C94186F0E946AFD00917E0710917F07B0
:1043A000209180073091810760177107820793077A
:1043B00010F40C94186F0E946AFDDC01CB01885345
:1043C0009F4FAF4FBF4F80937E0790937F07A0937F
:1043D0008007B09381078091AC029091AD02803646
:1043E000974041F488E793E09093AD028093AC024C
:1043F0000E9477F6E091440EEF3F11F40C94186F91
:1044000081E08093B717F0E0EE0FFF1FE352F74E05
:1044100084E091E09183808381E48093B91740E048
:1044200050E068E070E08AE090E00E9469EB8091E3
:10443000AD0D882311F040E001C041E061E081E072
:104440000E9458E40F9419828091B9178E3411F4A8
:104450000C94186F80E090E0A3E4B3E480935F0EC7
:104460009093600EA093610EB093620E8090300E18
:104470009090310EA090320EB090330E20915B0ED2
:1044800030915C0E40915D0E50915E0E6091570E22
:104490007091580E8091590E90915A0EEBEE6E2E3F
:1044A000E8E17E2E7F926F92F3E6CF2EFEE0DF2EC4
:1044B000E12CF12C03E413E40E9499D10F941982AA
:1044C0000F900F908091B9178E3411F40C94186FDF
:1044D00080E090E0A0E2B1E480935B0E90935C0EEC
:1044E000A0935D0EB0935E0E80902C0E90902D0EDA
:1044F000A0902E0EB0902F0EE0905F0EF090600E08
:104500000091610E1091620E6091570E7091580EDD
:104510008091590E90915A0E7F926F9220E030E078
:1045200040E251E40E9499D10F9419820F900F90AC
:104530008091B9178E3411F40C94186FE4E4F7E00D
:1045400084918F01882351F0082E000C990B0E9452
:10455000D3EB0F5F1F4FF8018491F4CF8091440E8D
:10456000811103C080E090E002C081E090E00F94F0
:104570003A8280E090E0ABE1B3E48093570E9093F1
:10458000580EA093590EB0935A0EE0905F0EF09023
:10459000600E0091610E1091620E20915B0E3091C1
:1045A0005C0E40915D0E50915E0E84E49EE09F9300
:1045B0008F93812C60E8962E6BE3A62E66E4B62ED0
:1045C00073E6C72E7EE0D72E60E070E08BE193E4C7
:1045D0000E9499D10F9419820F900F908091B91772
:1045E0008E3411F40C94186F1092B91740E050E01B
:1045F00065E270E08AE090E00E9469EB0C94186F2D
:104600000E946AFD00917E0710917F07209180072C
:1046100030918107601771078207930710F40C949B
:10462000186F81E08093EF071092ED071092EE076C
:104630001092F0070E946AFDDC01CB0186509F4F6B
:10464000AF4FBF4F80937E0790937F07A093800763
:10465000B09381070C94186F0E946AFD00917E0749
:1046600010917F07209180073091810760177107B3
:104670008207930710F40C94186F1092EF0781E0F3
:104680008093ED071092EE071092F0070E946AFDEA
:10469000DC01CB0186509F4FAF4FBF4F80937E0709
:1046A00090937F07A0938007B09381070C94186FB5
:1046B0000E946AFD00917E0710917F07209180077C
:1046C00030918107601771078207930710F40C94EB
:1046D000186F1092EF071092ED0781E08093EE07BC
:1046E0001092F0070E946AFDDC01CB0186509F4FBB
:1046F000AF4FBF4F80937E0790937F07A0938007B3
:10470000B09381070C94186F0E946AFD00917E0798
:1047100010917F0720918007309181076017710702
:104720008207930710F40C94186F1092EF07109201
:10473000ED071092EE0781E08093F0070E946AFD7A
:10474000DC01CB0186509F4FAF4FBF4F80937E0758
:1047500090937F07A0938007B09381070C94186F04
:104760000E946AFD00917E0710917F0720918007CB
:1047700030918107601771078207930710F40C943A
:10478000186F40E050E062E170E08AE090E00E9443
:1047900069EB0E946AFDDC01CB0188539F4FAF4F4C
:1047A000BF4F80937E0790937F07A0938007B093BD
:1047B00081070C94186F0E946AFD00917E0710918A
:1047C0007F0720918007309181076017710782076A
:1047D000930710F40C94186F40E050E062E170E031
:1047E0008AE090E00E9469EB0E946AFDDC01CB0147
:1047F00088539F4FAF4FBF4F80937E0790937F07A3
:10480000A0938007B09381070C94186F0E946AFDF3
:1048100000917E0710917F072091800730918107DA
:10482000601771078207930710F40C94186F41E02A
:1048300050E06CE970E081E290E00E9469EB41E0B9
:1048400050E06DE970E081E290E00E9469EB209118
:104850007502309176028E010F5F1F4F8091DD1837
:104860009091DE1810927602109275022130310577
:1048700009F059C0892B41F48091F1159091F215FE
:104880009093DE188093DD1841E050E06AE970E013
:1048900081E290E00E9469EB40E050E06BE970E05B
:1048A00081E290E00E9469EB1F9230EBF32EFF92C1
:1048B0008091DE188F938091DD188F9384ED93E0C3
:1048C0009F938F931F930F930F94B8B6B80185E011
:1048D00090E00F944856C8010F948A611F92FF928E
:1048E000609104197091051980910619909107192A
:1048F0000F947DB17F936F938CE397E09F938F9399
:104900001F930F930F9407A9B8018AE090E00F94CA
:1049100048562DB73EB7205F3F4F0FB6F8943EBFC5
:104920000FBE2DBF55C0892B41F48091F115909198
:10493000F2159093DE188093DD1841E050E06AE9AB
:1049400070E081E290E00E9469EB40E050E06BE9AA
:1049500070E081E290E00E9469EB1F9220EBF22E62
:10496000FF928091DE188F938091DD188F9384EDF4
:1049700093E09F938F931F930F930F94B8B6B80152
:1049800085E090E00F9448561F92FF9260910419C1
:104990007091051980910619909107190F947DB1B6
:1049A0007F936F9384E397E09F938F931F930F936D
:1049B0000F9407A9B8018AE090E00F9448564DB7CC
:1049C0005EB7405F5F4F0FB6F8945EBF0FBE4DBF3E
:1049D0000E946AFDDC01CB0188539F4FAF4FBF4F50
:1049E00080937E0790937F07A0938007B093810701
:1049F0000C94186F0E946AFD00917E0710917F074A
:104A00002091800730918107601771078207930713
:104A100010F40C94186F41E050E06CE970E081E212
:104A200090E00E9469EB41E050E06DE970E081E2C6
:104A300090E00E9469EB20917502309176028E0120
:104A40000F5F1F4F8091DF189091E018232B09F022
:104A50005EC021E030E03093760220937502892B0E
:104A600041F48091EF159091F0159093E0188093A8
:104A7000DF1840E050E06AE970E081E290E00E94D7
:104A800069EB41E050E06BE970E081E290E00E9468
:104A900069EB1F9290EBF92EFF928091E0188F93B3
:104AA0008091DF188F938CE297E09F938F931F93F1
:104AB0000F930F9407A9B80185E090E00F94485632
:104AC000C8010F948A611F92FF926091081970913A
:104AD000091980910A1990910B190F947DB17F9358
:104AE0006F9384E297E09F938F931F930F930F949C
:104AF00007A9B80181E190E00F9448568DB79EB7A1
:104B000040960FB6F8949EBF0FBE8DBF5AC021E0ED
:104B100030E03093760220937502892B41F4809126
:104B2000EF159091F0159093E0188093DF1840E016
:104B300050E06AE970E081E290E00E9469EB41E0B8
:104B400050E06BE970E081E290E00E9469EB1F9217
:104B500080EBF82EFF928091E0188F938091DF1800
:104B60008F938CE197E09F938F931F930F930F94F4
:104B700007A9B80185E090E00F9448561F92FF9274
:104B8000609108197091091980910A1990910B1977
:104B90000F947DB17F936F9384E197E09F938F9300
:104BA0001F930F930F9407A9B80181E190E00F9430
:104BB0004856ADB7BEB750960FB6F894BEBF0FBEFD
:104BC000ADBF0E946AFDDC01CB0188539F4FAF4F00
:104BD000BF4F80937E0790937F07A0938007B09389
:104BE00081070C94186FE0917502F0917602EF3F07
:104BF000BFEFFB0711F40C94186FEE0FFF1FE35289
:104C0000F74E808191818B3321E0920714F00C9450
:104C1000186F0596918380831F9220EB2F939F93AB
:104C20008F938CE097E09F938F938E010F5F1F4FC0
:104C30001F930F930F9407A9B80185E090E00F949C
:104C400048564DB75EB7485F5F4F0FB6F8945EBFEA
:104C50000FBE4DBF0C94186FE0917502F091760273
:104C6000EF3F5FEFF50711F40C94186FEE0FFF1F85
:104C7000E352F74E808191811816190614F00C94B6
:104C8000186F0597918380831F9220EB2F939F933A
:104C90008F9384E097E09F938F938E010F5F1F4F58
:104CA0001F930F930F9407A9B80185E090E00F942C
:104CB00048568DB79EB708960FB6F8949EBF0FBEA4
:104CC0008DBF0C94186F80917502909176020196B9
:104CD00011F40C94186F9091EA158091E9159813CE
:104CE0000C94115B81E08093F9070C94186F80910C
:104CF000750290917602019611F40C94186F9091C0
:104D0000EA158091E91598130C94115B0C94155BCE
:104D10000E946AFD00917E0710917F072091800715
:104D200030918107601771078207930710F40C9484
:104D3000186F40E050E068E970E081E290E00E9486
:104D400069EB40E050E067E970E081E290E00E94AA
:104D500069EB40E050E06CE970E081E290E00E9495
:104D600069EB40E050E06DE970E081E290E00E9484
:104D700069EB40E050E067E870E081E290E00E947B
:104D800069EB40E050E06CE270E08AE090E00E9465
:104D900069EB8FEF9FEF9093760280937502EEEEB2
:104DA000F6E084918F01882351F0082E000C990BB6
:104DB0000E94D3EB0F5F1F4FF8018491F4CF40E0C6
:104DC00050E06AE970E081E290E00E9469EB40E027
:104DD00050E06BE970E081E290E00E9469EB1F9285
:104DE000A0EBFA2EFF926091041970910519809141
:104DF0000619909107190F947DB17F936F9386EEFA
:104E000096E09F938F938E010F5F1F4F1F930F9319
:104E10000F9407A9B8018AE090E00F944856C801A2
:104E20000F948A611F92FF9260910819709109197D
:104E300080910A1990910B190F947DB17F936F9314
:104E40008EED96E09F938F931F930F930F9407A976
:104E5000B80181E190E00F944856C8010F948A612F
:104E60001F92FF921F921F9286ED96E09F938F9361
:104E70001F930F930F9407A9B80185E090E00F945A
:104E80004856C8010F948A610E946AFDDC01CB017B
:104E900088539F4FAF4FBF4F80937E0790937F07FC
:104EA000A0938007B09381072DB73EB7285E3F4F90
:104EB0000FB6F8943EBF0FBE2DBF0C94186F0E9422
:104EC0006AFD00917E0710917F0720918007309145
:104ED0008107601771078207930710F40C94186F0D
:104EE0000F94D68181E00F94493840E050E066E0AD
:104EF00070E08AE090E00E9469EB0E946AFDDC01AC
:104F0000CB0188539F4FAF4FBF4F80937E07909345
:104F10007F07A0938007B09381070C94186F0E94BD
:104F20006AFD00917E0710917F07209180073091E4
:104F30008107601771078207930710F40C94186FAC
:104F40000F94D68110927B18109220191092430D65
:104F5000EAECF6E084918F01882351F0082E000CD2
:104F6000990B0E94D3EB0F5F1F4FF8018491F4CF90
:104F700081E00F94493840E050E065E070E08AE05D
:104F800090E00E9469EB0E946AFDDC01CB0188532E
:104F90009F4FAF4FBF4F80937E0790937F07A093A3
:104FA0008007B09381070C94186F0E946AFD0091EE
:104FB0007E0710917F07209180073091810760174D
:104FC00071078207930710F40C94186F10927907F9
:104FD00040E050E064E070E08AE090E00E9469EB1D
:104FE0000E946AFDDC01CB0188539F4FAF4FBF4F3A
:104FF00080937E0790937F07A0938007B0938107EB
:105000000C94186F0E946AFD00917E0710917F0733
:1050100020918007309181076017710782079307FD
:1050200010F40C94186F82E5809314028FEF809334
:10503000440E40E050E066E170E08AE090E00E94BB
:1050400069EB0E946AFDDC01CB0188539F4FAF4F93
:10505000BF4F80937E0790937F07A0938007B09304
:1050600081070C94186F0E946AFD00917E071091D1
:105070007F072091800730918107601771078207B1
:10508000930710F40C94186F89E48093140240E0A5
:1050900050E06CE470E081E290E00E9469EB40E057
:1050A00050E06BE470E081E290E00E9469EB40E048
:1050B00050E061E470E081E290E00E9469EB40E042
:1050C00050E066E470E081E290E00E9469EB40E02D
:1050D00050E06EE470E081E290E00E9469EB40E015
:1050E00050E06FE470E081E290E00E9469EB40E004
:1050F00050E064E170E08AE090E00E9469EB8FEF9D
:105100008093440E0E946AFDDC01CB0188539F4FBF
:10511000AF4FBF4F80937E0790937F07A093800788
:10512000B09381070C94186F0E946AFDC0907E07AF
:10513000D0907F07E0908007F09081076C157D0587
:105140008E059F0510F40C94186F0E946AFDDC0117
:10515000CB0188539F4FAF4FBF4F80937E079093F3
:105160007F07A0938007B09381071A3519F4109236
:10517000440E03C081E08093440E0091440E01115F
:105180001DC080911E1890911F1860915607709154
:105190005707681779072CF4BC01990F880B990BF6
:1051A00004C0072E000C880B990B0F945DA90F9477
:1051B0007DB17093DE186093DD1820C080912218B5
:1051C00090912318609154077091550768177907DB
:1051D0002CF4BC01990F880B990B04C0072E000C0E
:1051E000880B990B0F945DA910E0000F111F03525B
:1051F000174E0F947DB1D8016D937C9381E4809319
:10520000B91740E050E068E070E08AE090E00E946A
:1052100069EB8091AD0D882311F040E001C041E0C1
:1052200061E081E00E9458E480E090E0A3E4B3E410
:1052300080935F0E9093600EA093610EB093620E08
:105240008090300E9090310EA090320EB090330EC0
:1052500020915B0E30915C0E40915D0E50915E0E80
:105260006091570E7091580E8091590E90915A0E80
:105270001BEE612E18E1712E7F926F9203E6C02E15
:105280000EE0D02EE12CF12C03E413E40E9499D11E
:1052900080E090E0A0E2B1E480935B0E90935C0E1E
:1052A000A0935D0EB0935E0E80902C0E90902D0E0C
:1052B000A0902E0EB0902F0EE0905F0EF090600E3A
:1052C0000091610E1091620E6091570E7091580E10
:1052D0008091590E90915A0E7F926F9220E030E0AB
:1052E00040E251E40E9499D10F9419820F900F90DF
:1052F0000F900F908091B9178E3411F40C94186FA1
:105300001092B9170E94D28D61ED73E08DE290E0AA
:105310000F94485640E050E068E270E08AE090E088
:105320000E9469EB0091440E10E0F801EE0FFF1FA0
:10533000EE0FFF1FEC5FF64E6081718182819381D9
:105340000F947DB17093F4076093F307000F111F62
:10535000F801E352F74E808191819093F207809398
:10536000F1070E94D28D88E48093B91764EF71E051
:1053700080E090E00E9432FD81E08093F5070C947C
:10538000186F8091E41781110C94186F0E946AFDC8
:1053900000917E0710917F0720918007309181074F
:1053A000601771078207930710F40C94186F40E0A0
:1053B00050E066E070E08AE090E00E9469EB0E94B5
:1053C0006AFDDC01CB0188539F4FAF4FBF4F8093E5
:1053D0007E0790937F07A0938007B09381070C947A
:1053E000186F0E946AFD00917E0710917F0720913F
:1053F000800730918107601771078207930710F4C7
:105400000C94186F40E050E066E070E08AE090E0B5
:105410000E9469EB0E946AFDDC01CB0188539F4F1B
:10542000AF4FBF4F80937E0790937F07A093800775
:10543000B09381070C94186F0E946AFD00917E075B
:1054400010917F07209180073091810760177107C5
:105450008207930710F40C94186F10927B18109227
:1054600020191092430DEEEBF6E084918F01882312
:1054700051F0082E000C990B0E94D3EB0F5F1F4FC9
:10548000F8018491F4CF40E050E065E070E08AE0FC
:1054900090E00E9469EB0E946AFDDC01CB01885319
:1054A0009F4FAF4FBF4F80937E0790937F07A0938E
:1054B0008007B09381070C94186F8091E4178111D5
:1054C0000C94186F0E946AFD00917E0710917F076F
:1054D0002091800730918107601771078207930739
:1054E00010F40C94186F10927B18109220191092DF
:1054F000430DE2EBF6E084918F01882351F0082EF2
:10550000000C990B0E94D3EB0F5F1F4FF8018491A1
:10551000F4CF40E050E065E070E08AE090E00E9467
:1055200069EB0E946AFDDC01CB0188539F4FAF4FAE
:10553000BF4F80937E0790937F07A0938007B0931F
:1055400081070C94186F8091E41781110C94186FE7
:105550000E946AFDC0907E07D0907F07E090800790
:10556000F09081076C157D058E059F0510F40C9455
:10557000186F0E946AFDDC01CB0188539F4FAF4F2B
:10558000BF4F80937E0790937F07A0938007B093CF
:1055900081071B3419F41092440E03C081E08093FC
:1055A000440E809114020091440E893409F064C0C5
:1055B00041E050E0011130C06BE470E081E290E026
:1055C0000E9469EB40E050E06CE470E081E290E022
:1055D0000E9469EB41E050E061E470E081E290E01C
:1055E0000E9469EB41E050E066E470E081E290E007
:1055F0000E9469EB41E050E06EE470E081E290E0EF
:105600000E9469EB41E050E06FE470E081E290E0DD
:105610000E9469EB0C94186F6CE470E081E290E0FA
:105620000E9469EB40E050E06BE470E081E290E0C2
:105630000E9469EB41E050E061E470E081E290E0BB
:105640000E9469EB41E050E066E470E081E290E0A6
:105650000E9469EB41E050E06EE470E081E290E08E
:105660000E9469EB41E050E06FE470E081E290E07D
:105670000E9469EB0C94186F01111DC080911E18D7
:1056800090911F1860915607709157076817790716
:105690002CF4BC01990F880B990B04C0072E000C49
:1056A000880B990B0F945DA90F947DB17093DE1850
:1056B0006093DD1820C0809122189091231860918A
:1056C000540770915507681779072CF4BC01990F9E
:1056D000880B990B04C0072E000C880B990B0F94B4
:1056E0005DA910E0000F111F0352174E0F947DB1FA
:1056F000D8016D937C9381E48093B91740E050E02A
:1057000068E070E08AE090E00E9469EB8091AD0D66
:10571000882311F040E001C041E061E081E00E9497
:1057200058E480E090E0A3E4B3E480935F0E9093AC
:10573000600EA093610EB093620E8090300E909038
:10574000310EA090320EB090330E20915B0E30914E
:105750005C0E40915D0E50915E0E6091570E7091FF
:10576000580E8091590E90915A0E1BEE612E18E141
:10577000712E7F926F9203E6C02E0EE0D02EE12CA8
:10578000F12C03E413E40E9499D180E090E0A0E2C0
:10579000B1E480935B0E90935C0EA0935D0EB0938A
:1057A0005E0E80902C0E90902D0EA0902E0EB0903C
:1057B0002F0EE0905F0EF090600E0091610E109140
:1057C000620E6091570E7091580E8091590E909113
:1057D0005A0E7F926F9220E030E040E251E40E9446
:1057E00099D10F9419820F900F900F900F90809184
:1057F000B9178E3411F40C94186F1092B91761ED2B
:1058000073E08DE290E00F94485640E050E068E28B
:1058100070E08AE090E00E9469EB0091440E10E095
:10582000F801EE0FFF1FEE0FFF1FEC5FF64E6081D9
:105830007181828193810F947DB17093F40760939D
:10584000F307000F111FF801E352F74E8081918199
:105850009093F2078093F10788E48093B9170E9430
:10586000D28D64EF71E080E090E00E9432FD81E033
:105870008093F5070C94186F0E946AFD00917E07D3
:1058800010917F0720918007309181076017710781
:105890008207930710F40C94186F88E793E09093B5
:1058A000AD028093AC028091440E813049F540E016
:1058B00050E068E070E08AE090E00E9469EB87EDDC
:1058C00090E09093F0158093EF15909325188093B6
:1058D00024188AEA90E0909323188093221881E498
:1058E00090E09093EC158093EB150E9477F68091F1
:1058F000EF159091F0159093E0188093DF182AC06F
:1059000081112AC040E050E068E070E08AE090E059
:105910000E9469EB87ED90E09093F2158093F1156A
:1059200090932118809320188AEA90E090931F1892
:1059300080931E1881E490E09093EE158093ED150E
:105940000E9477F68091F1159091F2159093DE18F0
:105950008093DD180F94C0A30E946AFDDC01CB0187
:1059600088539F4FAF4FBF4F80937E0790937F0721
:10597000A0938007B09381070C94186F0E946AFD72
:1059800000917E0710917F07209180073091810759
:10599000601771078207930710F40C94186F0E9428
:1059A0006AFDDC01CB0188539F4FAF4FBF4F8093FF
:1059B0007E0790937F07A0938007B093810788E7C5
:1059C00093E09093AD028093AC028091440E8130BD
:1059D00061F540E050E068E070E08AE090E00E940D
:1059E00069EB84E091E09093F0158093EF1590932C
:1059F00025188093241880EF90E0909323188093CB
:105A000022188AE590E09093EC158093EB150E94A4
:105A100077F68091EF159091F0159093E0188093B0
:105A2000DF180F94C0A30C94186F81110C94186F99
:105A300040E050E068E070E08AE090E00E9469EBAE
:105A400084E091E09093F2158093F11590932118E2
:105A50008093201880EF90E090931F1880931E1879
:105A60008AE590E09093EE158093ED150E9477F60D
:105A70008091F1159091F2159093DE188093DD18C6
:105A80000F94C0A30C94186F0E946AFD00917E07CA
:105A900010917F072091800730918107601771076F
:105AA0008207930710F40C94186F0E946AFDDC01C2
:105AB000CB0188539F4FAF4FBF4F80937E0790938A
:105AC0007F07A0938007B093810788E793E09093C6
:105AD000AD028093AC028091440E813061F540E0CC
